:020000040800F2
:10000000D005002001010008FF260008D51E0008C9
:10001000FD260008BF0A0008C129000800000000F2
:10002000000000000000000000000000032700089E
:10003000FD0B00080000000001270008052700084C
:100040001B0100081B0100081B0100081B01000820
:100050001B0100081B0100081B0100081B01000810
:100060001B0100081B0100081B0100081B01000800
:100070001B0100081B0100081B0100081B010008F0
:100080001B0100081B0100081B0100081B010008E0
:100090001B0100081B0100081B010008FF0B0008E2
:1000A0001B0100081B0100081B0100081B010008C0
:1000B0001B0100081B0100081B0100081B010008B0
:1000C0001B0100081B0100081B0100081B010008A0
:1000D0001B010008B52900081B0100081B010008CE
:1000E0001B0100081B0100081B010008DFF80CD0F1
:1000F00000F082FC00480047D9480008D0050020E5
:100100000648804706480047FEE7FEE7FEE7FEE7B1
:10011000FEE7FEE7FEE7FEE7FEE7FEE767270008EB
:10012000ED0000082DE9F0410024061B254671F181
:10013000000605DA01240027D0EB070067EB010178
:10014000161E73F1000605DA0027D2EB070201251F
:1001500067EB030300F0B3FA86460E4617469C464B
:10016000AC4204D00025D0EB050E65EB010624B1AE
:100170000020D2EB000760EB030C704631463A4694
:100180006346BDE8F081202A04DB203A21FA02F020
:100190000021704721FA02F3D040C2F120029140C1
:1001A000084319467047D2B201E000F8012B491EFE
:1001B000FBD270470022F6E710B513460A46044604
:1001C0001946FFF7F0FF204610BD30B50446002069
:1001D000034600E05B1C934203D2E05CCD5C401B15
:1001E000F8D030BDF0B480EA0102D40F4200B2EB87
:1001F000410F02D20246084611464A0042D0C30DC2
:10020000DDB2C1F3C752AD1A202D35DAC1F31601A4
:1002100041F4000204B15242C5F1200602FA06F18F
:100220002A411044B3EBD05F23D0C4B1012DA0EB21
:10023000C35009DCF0BC4FF0004202EAC352DBB20B
:1002400000F5000000F096BA400000F1807000EB6D
:10025000C350A0F1807040EAD170490009E049081C
:1002600041EAC071A0EBC35000F50000400800EB6C
:10027000C350F0BC00F075BA6142012202EB4101AB
:10028000001BF6E7F0BC704781F00041AAE780F060
:100290000040A7E780EA010210B502F000434000E9
:1002A00022D04A001FD0010E01EB1261C0F35600AC
:1002B000C2F3560240F4000042F40002A0FB022008
:1002C00000047F39140400D0401C50EA124001D4CD
:1002D0004000491EC2B20C0604EBD010401C40087E
:1002E000802A02D003E0002010BD20F00100002988
:1002F00000DA0020184310BD30B480EA010202F099
:10030000004530F0004221F0004013D090B1C30D01
:10031000D40DC2F31601C0F31600E41A41F4000133
:1003200040F400027D34914201D3641C00E0490096
:10033000002C02DA30BC002070474FF4000000238C
:10034000914201D3891A034340084FEA4101F7D192
:1003500051B1914202D14FF0004105E002D24FF07D
:10036000010101E06FF0010103EBC450284430BCEF
:1003700000F0F7B9420005D0C0F3C7525242914293
:1003800001DC0020704700EBC15070472DE9FE4FA3
:10039000804681EA0300C00F0C46009021F0004126
:1003A00023F00045B8EB0200A94105D240462146A2
:1003B00090461C460B46024623F00040104347D0AF
:1003C000270DC7F30A00C3F30A510290401A0190A7
:1003D00040286BDAC3F3130040F4801B0098924668
:1003E00020B10023D2EB030A63EB0B0B01985946B3
:1003F000C0F14002504600F093F906460D465046C3
:100400005946019A00F09BF910EB08006141002465
:1004100087EA115284EAE7731A4340D0009A62B324
:10042000019A012A4FEA075215DC001B61EB020119
:100430004FF0004202EA0752CDE90042001C41F5AC
:10044000801132462B4600F0D2F903B0BDE8F08FA0
:1004500040462146F9E7001B61EB0201001C41F513
:10046000801300185B412018A2F5001747EB030129
:1004700040EAD570B6196D4111E06D084FEA3606B5
:1004800045EAC0754FEA0752001B61EB0201001CF0
:1004900041F5801149084FEA3000001951413246B8
:1004A0002B4603B0BDE8F04F00F092B9009801224E
:1004B00040000023D0EB020263EBE073009821467A
:1004C0004FEAE074B8EB000061EB0401E9E783F068
:1004D00000435BE781F0004158E72DE9FE4F81EAD8
:1004E000030404F0004421F0004100944FF0000B9D
:1004F00023F0004350EA01045ED052EA03045BD0CB
:10050000C3F30A54C1F30A552C44A4F2F334019402
:10051000A0FB0254C1F3130141F48011C3F3130390
:1005200043F4801301FB024400FB034E840A970A44
:1005300044EA815447EA8357A4FB076802958D0A71
:1005400005FB07854FEA932C04FB0C542705029DFD
:100550004FEA065847EA1637B5EB08056EEB070C6D
:10056000870E920E47EA811742EA8312A7FB020127
:10057000B6EB0B0164EB00042B0D43EA0C335E1861
:1005800044EB1C50DA465146E7FB0201C5F3130465
:100590004FEA0B3343EA14534FEA0432019C43EA17
:1005A0000603A4F10C040294009CCDE900B400F011
:1005B0001EF903B0BDE8F08F00200146F9E7C10F36
:1005C00080EAE0700844CA079623002100F0D2B800
:1005D00096230022114600F0CDB800F0004220F032
:1005E0000040C10DC0F3160040F400007F2901DA7D
:1005F00000207047962903DCC1F19601C84001E054
:1006000096398840002AF4D04042704720F00040DC
:10061000C10DC0F3160040F400007F2901DA00206C
:100620007047962903DCC1F19601C840704796399E
:100630008840704700F0004230F000400AD0C10D01
:1006400001F56071C0F3160042EA0151C20840078B
:100650001143704700200146704701F0004330B459
:1006600021F0004150EA010206D00A0DA2F56072A5
:10067000C1F31301002A02DC30BC00207047440F94
:1006800044EAC104C100E01830BC00EBC25000F0E5
:1006900068B830B50B46014600202022012409E04D
:1006A00021FA02F59D4205D303FA02F5491B04FA2B
:1006B00002F52844151EA2F10102F1DC30BD2DE93E
:1006C000F05F0546002092469B46884606468146D6
:1006D00040241BE02846414647462246FFF753FD8B
:1006E00053465A46C01A914110D311461846224625
:1006F00000F016F82D1A67EB01084F46224601203C
:10070000002100F00DF817EB00094E41201EA4F166
:100710000104DFDC484631462A464346BDE8F09FE7
:10072000202A04DB203A00FA02F1002070479140B1
:10073000C2F1200320FA03F3194390407047202AA6
:1007400006DBCB17203A41FA02F043EAE07306E0F9
:1007500041FA02F3D040C2F1200291400843194609
:1007600070470029A8BF7047401C490008BF20F00F
:100770000100704710B4B0FA80FC00FA0CF050EAA7
:10078000010404BF10BC704749B1CCF1200421FA28
:1007900004F411FA0CF118BF012121430843A3EB23
:1007A0000C01CB1D4FEA00614FEA102042BF002030
:1007B00010BC704700EBC35010440029A4BF10BC0C
:1007C0007047401C490008BF20F0010010BC704772
:1007D00010B5141E73F1000408DA401C41F1000149
:1007E00092185B411A4301D120F0010010BD2DE9A0
:1007F000F04D92469B4611B1B1FA81F202E0B0FA97
:1008000080F220329046FFF78BFF04460F4640EA05
:100810000A0041EA0B0153465A46084313D01146D9
:1008200053EA010019D0C8F140025046FFF7ABFC73
:1008300005460E46504659464246FFF771FF0843AB
:1008400005D0012004E020463946BDE8F08D0020A7
:10085000054346EAE0762C4337430A986305E40AE9
:10086000A0EB08000022FD0A44EA47540A3002D5F2
:1008700000200146E9E7010510196941DDE9084555
:1008800000196941BDE8F04DA2E72DE9F04D81EA7C
:10089000030404F0004B21F0004514464FF0000A19
:1008A00023F0004150EA050220D054EA01021DD095
:1008B000C5F30A570246C5F31303C1F31300C1F38E
:1008C0000A5640F4801543F48013A7EB0608101B6A
:1008D000D64608F2FD3873EB050002D308F1010893
:1008E00001E092185B41B8F1000F03DA00200146E5
:1008F000BDE8F08D00204FF48011064684460EE0DE
:10090000171B73EB050705D3121B63EB05030643A7
:100910004CEA010C49084FEA300092185B4150EA5A
:100920000107EDD152EA030012D082EA040083EA03
:100930000501084305D0101BAB4106D2012200235C
:1009400006E000224FF0004302E06FF00102531076
:100950001AEB06004CEB085110EB0A0041EB0B01BF
:10096000BDE8F04DFFF734BF70B521F000430343FD
:100970000CD0C1F30A550024D5EB040564EB040345
:10098000D617AD1AB34102DB0020014670BD201816
:1009900041EB025170BDC1F30A52C1F3130140F2A1
:1009A000FF3341F480119A4202DA00200146704779
:1009B00040F233439A42A2F2334202DC5242FFF742
:1009C000E2BBFFF7ADBE000030B5041E71F10004BC
:1009D00004DB4FF00044404264EB0101141E73F14C
:1009E000000405DB1C464FF00043524263EB040356
:1009F000994208BF904230BD064C074D06E0E068C2
:100A000040F0010394E8070098471034AC42F6D355
:100A1000FFF770FB18640008386400082DE9F04DFA
:100A200000231A461B1A8A4103DB00200146BDE859
:100A3000F08DC1F30A52C1F3130141F480154FF058
:100A4000000BD10702D100186D41521E0027044649
:100A500040F2FF11384601EB620A3E4680460246EC
:100A600000204FF48011FFF78EFBC2197141BB18B3
:100A700046EB0100B4EB030C75EB000C04D3E41A55
:100A800065EB000517460E46241908F101006D417B
:100A900080463428E3DDF91946EB0600091BA8411E
:100AA00003D24FF0FF32134601E0002213461BEB46
:100AB000070046EB0A51BDE8F04DFFF789BEFEE79F
:100AC0002DE9F047234C204EDFF88080DFF880903E
:100AD000A7680D46B04203DD3146FFF7D5FB04E0C1
:100AE000404509D93146FFF77DFB4946FFF7D2FB68
:100AF0003946FFF777FBA060164831468D42C6683D
:100B000003DD2846FFF7C0FB04E0454509D9284628
:100B1000FFF768FB4946FFF7BDFB3146FFF762FB75
:100B2000E0600D49A068884202DC0C49884200D987
:100B3000A1600B49E068884202DC0A49884200D97A
:100B4000E160BDE8F087000000002041000020C106
:100B5000CDCC4C3D000000200000334300001FC3FB
:100B600000002943000029C370B501F00FFC68287C
:100B70000CD0BFF34F8F1E4801681E4A01F4E0619C
:100B800011430160BFF34F8F00BFFDE7002003F06A
:100B9000EFFF00282AD1782004F076FC782003F0BB
:100BA00019FFC82004F030FC03F0A6F812480446F0
:100BB00003F06EFE0546E01C03F06AFE45EAC00540
:100BC000A01D03F065FE45EA801080B203F046FAEE
:100BD00040F2731002F068FFC82003F0A7F904F098
:100BE000D9FCBDE87040012004F034BB70BD0000AA
:100BF0000CED00E00400FA056C0000207047202096
:100C000000F08CB872B6FEE710B590F82110002203
:100C1000022905D00421816380F82020012010BD25
:100C200001680B6823F00E030B6001680B6823F06A
:100C300001030B6090F84030C46B012101FA03F30B
:100C4000636080F8211080F82020104610BD00005D
:100C500010B590F821100024022903D004218163EB
:100C600001243DE001680A6822F00E020A60016872
:100C70000A6822F001020A601A4A0168914201D111
:100C8000012121E0174A1432914201D110211BE0C9
:100C9000144A2832914201D1891515E0114A3C329B
:100CA000914201D189140FE00E4A5032914202D193
:100CB0004FF4803108E00B4A6432914202D14FF484
:100CC000801101E04FF08071064A083A516001211D
:100CD00080F82110002180F82010416B01B1884775
:100CE000204610BD0800024070B5044600F020F90F
:100CF0000546601C02D004480078044400F018F94E
:100D0000401BA042FAD370BD78000020202802D1F9
:100D1000014901200870704700000020044910B507
:100D20000A68024202D00860FFF7F0FF10BD000021
:100D3000140401402DE9F84FDFF8B8910024A9F11F
:100D4000040B23460F2709F1040AABF1040EC9E096
:100D50000125A5402A40AA427DD1674ED1F804C0A2
:100D6000ACEB0608B44532D014DCBCF1030F3AD02A
:100D700009DCBCF1000F2AD0BCF1010F1CD0BCF182
:100D8000020F31D11DE0BCF1110F17D0BCF1120FD1
:100D90002AD119E0B8F5881F19D006DCB8F5803FD4
:100DA00015D0B8F5801F1FD111E0B8F5001F0ED087
:100DB000B8F5041F18D10AE0CB6815E0CB681B1DFD
:100DC00012E0CB6808330FE0CB680C330CE08B6883
:100DD0002BB1012B4FF0080303D0456104E004233D
:100DE00002E0056100E00023FF2A01D8064601E089
:100DF00000F104064FEA840501D9A5F12005D6F8D3
:100E0000008007FA05FC28EA0C0803FA05F548EA11
:100E10000508C6F800804D68ED0062D5374DAE6913
:100E200046F00106AE61AD6924F0030605F0010548
:100E30000095334D06EB050CDCF80850A607360F7D
:100E400007FA06F825EA0805DFF8B880404503D11F
:100E50004FF0000817E044E0DFF8AC80404502D1D5
:100E60004FF001080FE0DFF8A480404502D14FF0B9
:100E7000020808E0DFF89880404502D14FF00308EF
:100E800001E04FF0040808FA06F848EA0508CCF833
:100E900008804D68D9F80060ED024D4601D5164333
:100EA00000E096432E604D68DAF80060AD025546CA
:100EB00001D5164300E096432E604D68DBF80060D4
:100EC000AD035D4601D5164300E096432E604D68A4
:100ED000DEF80060ED03754601D5164300E0964349
:100EE0002E60641C0D682A46E5407FF431AFBDE8F2
:100EF000F88F0000080401400000111000100240AB
:100F00000000014000080140000C014000100140B9
:100F100000140140C26821EA02030A4043EA024188
:100F2000016170470AB1016170470904FBE70000E5
:100F300001488068704700007800002070B5040008
:100F400025D094F83D00002520B984F83C50204677
:100F500000F07EFA242084F83D002068016821F02A
:100F6000010101602068016841F4004101602068CE
:100F7000016821F40041016000F0C6FB4D4A616840
:100F8000914201D84C4900E04C49884201D20120ED
:100F900070BD4B492368B0FBF1F15E6826F03F0657
:100FA0000E435E606368934206D94FF496735943CB
:100FB0004FF47A73B1FBF3F12368491C1E6A26F0E3
:100FC0003F06314319626168914210D84900401EC2
:100FD000B0FBF1F2521CC2F30B02042A01D204202E
:100FE00022E0B0FBF1F0401CC0F30B001CE0A26853
:100FF000F2B301EBC10303EB0116431EB3FBF6F39F
:101000005B1C43F480431B0549D092B301EBC10242
:1010100002EB0111401EB0FBF1F0401CC0F30B00CD
:1010200040F4804040F400402168CA694CF6FF73E8
:101030009A431043C861D4E907100143206802684D
:1010400022F0C00211430160D4E90301014320688A
:10105000826848F2FF339A4311438160D4E9050165
:1010600008432168CA6822F0FF021043C86001E00B
:101070000EE016E02068016841F00101016025647E
:10108000202084F83D00256384F83E50002070BD88
:1010900001EB4106431EB3FBF6F35B1CB3E70120F3
:1010A000C2E701EB4101401EB0FBF1F0401CC0F370
:1010B0000B00B7E7A086010080841E0000093D00F8
:1010C00040420F002DE9FF4F83B00025DDE9107984
:1010D0009A4693460446DDF848800095FFF728FFBE
:1010E000064694F83D0020287CD119230122884926
:1010F0002046009601F004F80028F5D194F83C0051
:1011000001286FD0012084F83C0020680168C907DD
:1011100003D1016841F0010101602068016821F4F8
:1011200000610160222084F83D00402084F83E00E8
:1011300025646762A4F82A90608D20857548E06276
:10114000CDE9008653465A462046049900F0DAFE5F
:1011500000287CD1208DDFF8C091202768B10128BC
:1011600014D00228206801681ED041F4806101601B
:101170002068416980690090BCE02068416981690C
:101180000091016841F400710160B3E020680168DA
:1011900021F48061016072B6206841698169009123
:1011A000016841F400710AE041F40061016072B627
:1011B0002068416981690091016821F480610160C2
:1011C00062B697E0032865D801280CD00228434670
:1011D0004FF000024946204600960BD000F090FFE9
:1011E000A8BB0CE091E032464146204601F02EF8C3
:1011F00068BB72E000F084FF48BB72B633E0206841
:10120000016821F48061016072B620680069616A3A
:101210000870606A401C6062208D401E2085608DD1
:10122000401E60853D4846F2A8110068B0FBF1F011
:10123000C0EBC00000EB80000090401E009007D083
:1012400020684069C04340070DD50098F5E727E0C6
:1012500044F8305F6773A573206940F02000206177
:1012600062B625731CE02068016841F400710160DA
:1012700020680069616A0870606A401C6062218DA4
:10128000491E2185618D491E618562B62168096903
:10129000017026E032464146204600F0D7FF18B1E3
:1012A000012007B0BDE8F08F20680069616A08700E
:1012B000606A401C6062208D401E81B22185608D75
:1012C000401E608520684269D243520712D4032928
:1012D00003D1016821F48061016020680069616ABE
:1012E0000870606A401C6062208D401E2085608D01
:1012F000401E6085208D00287FF464AF84F83D7027
:1013000084F83E5084F83C50CBE70220C9E7000047
:10131000020010000000FFFF040001008400002014
:101320002DE9FF4F83B09A46DDE9119793460446B5
:10133000DDF84080FFF7FCFD054694F83D002028CD
:101340007FD11923012240492046009500F0D8FEA4
:10135000002876D194F83C00012872D0012084F84E
:101360003C0020680168C90703D1016841F0010110
:1013700001602068016821F400610160212084F887
:101380003D00402084F83E0000262664C4F82480F6
:10139000A4F82A90608D20852C48E062CDE9007584
:1013A00053465A462046049900F02AFE70B930E0B0
:1013B0002A463946204600F081FF58B1206C0428A7
:1013C00004D12068016841F400710160012007B078
:1013D000BDE8F08F606A216800780861606A401C8F
:1013E0006062218D491E89B22185628D521E6285FF
:1013F00022685369DB435B070BD469B10078106145
:10140000606A401C6062208D401E2085608D401EF9
:101410006085208D0028CBD12A463946204600F031
:1014200043FE0028CAD154F83D0B016841F4007115
:101430000160202004F81E09E67766770020C6E7E1
:10144000FFE70220C3E70000020010000000FFFFDA
:1014500010B586B0002100910191029103910068BE
:101460000F4988421AD10F4CA06940F00800A061D2
:10147000A069694600F008000490C0200090122086
:101480000190032003900848FFF754FCE06940F402
:101490000010E061E06900F40010049006B010BD97
:1014A0000054004000100240000C014002488168D6
:1014B000027811448160704778000020074810B519
:1014C000016841F010010160032000F075F80F2061
:1014D00000F006F800F024F8002010BD00200240C3
:1014E00070B50D4D04464FF47A712878B1FBF0F0D9
:1014F0000A490968B1FBF0F000F0DCFA48B9102C99
:1015000007D200222146501E00F036F800206C6001
:1015100070BD012070BD0000780000208400002014
:101520000C4808B5816941F001018161816901F0D0
:1015300001010091C16941F08051C161C06900F0B1
:10154000805000900448416821F0E06141F0007152
:10155000416008BD0010024000000140002809DB86
:1015600000F01F02012191404009800000F1E020BD
:10157000C0F8001170470000F0B40E4B1B680C4619
:10158000C3F30223C3F10705042D00D90425191D57
:10159000072901D2002300E0DB1E012606FA05F12F
:1015A000491E214099409E40761E16403143F0BCB2
:1015B00001F02CBA0CED00E0064900F007020868C3
:1015C0004FF6FF03184040EA0220034A1043086028
:1015D000704700000CED00E00000FA052DE9F0472F
:1015E0000F46050061D0434E306800F00700B84256
:1015F00009D2306820F0070038433060306800F0CE
:101600000700B84251D128683B4C810712D54007EA
:1016100003D5606840F4E06060602878000703D577
:10162000606840F4605060606068A96820F0F00075
:10163000084360602878C00728D06868012810D067
:101640002168022810D0890700292EDA616821F06C
:10165000030101436160FFF76BFC804641F288396A
:101660000DE021688903EFE78901EDE7FFF760FCF2
:10167000A0EB0801494502D90320BDE8F087606866
:10168000696800F00C00B0EB810FEFD1306800F01A
:101690000700B8420BD9306820F0070038433060AB
:1016A000306800F00700B84201D00120E5E7287853
:1016B000400705D56068E96820F4E0600843606091
:1016C0002878000706D56068296920F4605040EA50
:1016D000C100606000F038F86168084AC1F3031186
:1016E000515CC8400649086006480068FFF7F8FEEC
:1016F0000020C2E7002002400010024010630008F2
:10170000840000207C0000200448054900684968E6
:10171000044AC1F30221515CC84070478400002094
:101720000010024020630008044805490068496829
:10173000044AC1F3C221515CC840704784000020B4
:1017400000100240206300080E4A51680E4801F064
:101750000C03042B11D0082B0FD10C48C1F3834389
:10176000C903C05C0AD55168084AC1F34041921EC2
:10177000515C054A5043B0FBF1F0704704494843BF
:10178000704700000010024000127A000063000859
:1017900000093D002DE9F84F040070D02078C04DBD
:1017A000C00749D06868C0F38100012807D0686885
:1017B000C0F38100022809D16868C00306D52868F3
:1017C000800339D560680028E7D035E06068B0F55F
:1017D000803F0BD010B1B0F5A02F11D0286820F4B5
:1017E00080302860286820F4802002E0286840F4D7
:1017F00080302860606890B1FFF79AFB06460AE0E7
:10180000286840F480202860F0E700BFFFF790FBD5
:10181000801B642873D828688003F7D50CE0FFF795
:1018200087FB064605E000BFFFF782FB801B6428AC
:10183000F0D828688003F7D420789A4E80074FF0BC
:1018400001094FF0000839D5686810F00C0F07D077
:101850006868C0F38100022809D16868C00306D413
:101860002868800714D52069012808D110E0206974
:10187000B0B1C6F80090FFF75BFB074605E00AE150
:10188000FFF756FBC01B0228C4D828688007F7D58D
:101890002868616920F0F80040EAC10028600DE086
:1018A000C6F80080FFF744FB074604E0FFF740FB63
:1018B000C01B022823D828688007F7D420780007A7
:1018C0002CD57948A169D9B1C0F80090FFF730FB59
:1018D000074604E0FFF72CFBC01B02280FD8686AFC
:1018E0008007F7D571484FF4FA510068B0FBF1F06A
:1018F000009000BF0098411E0091FAD20EE080E0F7
:10190000C0F80080FFF714FB074604E0FFF710FB68
:10191000C01B022875D8686A8007F7D42078400772
:1019200060D5E8690027C00008D4E86940F080501D
:10193000E861E869012700F0805000905C48016888
:10194000C90513D40168834641F480710160FFF733
:10195000EFFA824606E000BFFFF7EAFAA0EB0A00C2
:1019600064284ED8DBF80000C005F5D5E0680128F2
:101970000AD008B1052813D0286A20F00100286297
:10198000286A20F0040002E0286A40F00100286282
:10199000E06841F2883B98B1FFF7CAFA82460BE053
:1019A000286A40F004002862EEE700BFFFF7C0FAA3
:1019B000A0EB0A0159455AD8286A8007F6D50CE0F1
:1019C000FFF7B6FA824605E0FFF7B2FAA0EB0A018C
:1019D00059454CD8286A8007F6D41FB1E86920F031
:1019E0008050E861E06988B36968C1F38101022928
:1019F00044D00228C6F8608004D0FFF799FA044664
:101A000038E034E0FFF794FA074604E0FFF790FA75
:101A1000C01B02282BD828688001F7D4206AB0F5B3
:101A2000803F05D16868A16820F4003008436860F1
:101A3000D4E908010843696821F474110843686017
:101A4000C6F86090FFF774FA044606E025E000BF90
:101A5000FFF76EFA001B022809D828688001F7D525
:101A60001BE000BFFFF764FA001B022802D9032025
:101A7000BDE8F88F28688001F4D40EE00128F7D083
:101A80006868226A00F48031914204D1616A00F4EE
:101A90007010884201D00120EAE70020E8E700004A
:101AA00000100240000042428004424284000020B4
:101AB0000070004010B5401EB0F1807F01D30120BE
:101AC00010BD4FF0E02460610F21601700F09EFF11
:101AD0000020A06107202061002010BD70477047E2
:101AE000F8B5016804460868CA684B6910F00F0F22
:101AF0004FF0000559D003F0010602F49077374308
:101B000065D0C10705D0D10503D5616C41F0010155
:101B10006164410705D5D90703D0616C41F002012A
:101B20006164810705D5D90703D0616C41F00401D8
:101B30006164010707D502F02001314303D0616CD5
:101B400041F008016164616C00293AD0800604D537
:101B5000900602D5204600F036FE20684069616C90
:101B6000C0F38010090700D460B3204600F004FEE3
:101B700020684069400621D52068143050E8001FD5
:101B800021F0400140E80012002AF5D1E06BA8B135
:101B90006D494163E06BFFF75BF8002811D0E06B03
:101BA000416B01B0BDE8F040084783060FD59306AE
:101BB0000DD52046BDE8F84000F005BE2046FFF7F1
:101BC0008EFFF8BD2046FFF78AFF6564F8BD266BDF
:101BD0002023012E7CD1C6067AD5D60678D5086892
:101BE0004868009048694FF00206400640D5E16B16
:101BF000086840680004000CE8D0A28D8242E5D954
:101C0000E085886920282DD020680C3050E8001F1E
:101C100021F4807140E80012002AF5D120681430C8
:101C200050E8001F21F0010140E80012002AF5D120
:101C30002068143050E8001F21F0400140E80012F5
:101C4000002AF5D184F84230256320680C3050E832
:101C5000001F21F0100140E80012002AF5D1E06BCE
:101C6000FEF7D2FF6663A08DE18D401A81B22AE0B3
:101C7000A08DE18D401A81B2E08D0028A6D0002908
:101C8000A4D022680C3252E8000F20F4907042E891
:101C90000007002FF5D12068143050E8002F22F003
:101CA000010240E80027002FF5D184F84230256377
:101CB00020680C3050E8002F22F0100240E800238A
:101CC000002BF5D166632046FFF708FFF8BDFFE75C
:101CD00005062BD5150629D594F841002128F5D104
:101CE000A068B0F5805F01D12069B0B1206A411CC5
:101CF0002162216800784860E08C401E0004000CDE
:101D0000E084E3D12068C16821F08001C1602068CF
:101D1000C16841F04001C160D8E7206A0088C0F383
:101D200008004860206A801C2062E5E74006CDD5A7
:101D30005006CBD5CA68204622F04002CA6084F81B
:101D4000413000F0C6F8C1E76927000870B504000B
:101D500004D094F84100002510B106E0012070BDC8
:101D600084F84050204600F023F8242084F84100F5
:101D70002068C16821F40051C160204600F084FD54
:101D80002068016921F4904101612068416921F0D6
:101D90002A0141612068C16841F40051C160656455
:101DA000202084F8410084F842006563002070BD63
:101DB00030B585B000240094019402940394006827
:101DC000184988422CD11848816941F480418161C9
:101DD000816901F480410491816941F004018161CC
:101DE0008069124D00F0040004904FF400700090E0
:101DF000022001900320039069462846FEF79AFFCF
:101E00002815CDE90004694628460294FEF792FFA2
:101E1000002211462520FFF7AFFB2520FFF79EFB90
:101E200005B030BD003801400010024000080140FC
:101E300070472DE9F843044690F84100984616464D
:101E40000D46202802D00220BDE8F88385B17EB17E
:101E500000206064212084F84100FFF769F8A6841F
:101E60008146E684A0682027B0F5805F02D003E0B9
:101E70000120E9E7206910B12E4600250EE000267A
:101E80000CE08021204600F05BFDA8B9C6B116F831
:101E9000010B21684860E08C401EE084E08C4B46DA
:101EA0004FF00002CDF800800028EAD14FF0400149
:101EB000204600F045FD40B184F841700320C3E79F
:101EC00035F8020BC0F30800E3E784F84170002006
:101ED000BAE77047FEE701684A69D24352050FD45A
:101EE0006FF480624A61002140F8301F2022427363
:101EF0008173026942F0040202610173012070479C
:101F0000002070472DE9F84F0446006889460B9D74
:101F100001689846174641F48061016020680168B5
:101F200041F48071016000954FF0011B0022594679
:101F300020460A9B00F0E4F84FF4007A40B1206894
:101F40000068C00501D5C4F840A00320BDE8F88FA3
:101F5000216809F0FE0008612B46284920460A9AAC
:101F600000F016F9F0BB20684169806900902A46AC
:101F700020460A9900F0A2F940B1206C04283AD119
:101F80002068016841F40071016034E0FEB2B8F1EC
:101F9000010F09D02168380A08612A4620460A99AB
:101FA00000F08CF90028E8D1206806612A46204616
:101FB0000A9900F083F90028DFD12068016841F414
:101FC0008071016000950022594620460A9B00F06E
:101FD00097F80028B3D1216809F0FF0040F0010014
:101FE000086100E007E02B46044920460A9A00F009
:101FF000CFF80028AAD00120A8E7000002000100C5
:102000002DE9F843044600680D46DDE908970168AC
:102010009846164641F4807101604B4600224FF00D
:1020200001112046009700F06BF848B12068006865
:10203000C00502D54FF4007020640320BDE8F8838A
:10204000216805F0FE0008613B464A4615492046D6
:1020500000F09EF888B920684169806900903A468E
:102060004946204600F02AF948B1206C042804D1E2
:102070002068016841F4007101600120DEE7F5B2DB
:10208000B8F1010F09D02168300A08613A46494683
:10209000204600F013F90028E7D1206805610020F0
:1020A000CCE700000200010070B516460D4604465C
:1020B0001EE02046FFF70FFF08B1012070BD681C2D
:1020C00016D0FEF735FF801BA84200D885B92068DE
:1020D0004069C04340070BD5002044F8300F202151
:1020E0006173A073216941F0200121612073E4E74D
:1020F00020684069C0434007DBD4002070BD000069
:102100002DE9F047984617460D460446C1F30746A9
:10211000DDF820902AE000BFB8F1FF3F26D0FEF79F
:1021200007FFA0EB0901414502D8B8F1000F1DD10E
:102130002068012E16D0806925EA00000004000CFA
:1021400012D00020B84211D1002044F8300F2021D5
:102150006173A073216941F0200121612073012086
:10216000BDE8F0874069E7E70120EBE72068012E32
:102170000AD0806925EA00000004000C06D0002087
:10218000B842C9D00020EBE74069F3E70120F7E748
:102190002DE9F047984616460D4604464FF00009D3
:1021A0004FF0200AC1F3074723E020684069C0438D
:1021B000400515D42068016841F400710160216870
:1021C0006FF480604861C4F8309084F83DA084F8D2
:1021D0003E90216C41F00401216484F83C9021E0A0
:1021E000701C06D0FEF7A4FEA0EB0800B04203D896
:1021F00016B1012F1FD021E02068012F15D0806972
:1022000025EA00000004000C18D000BF44F8309FFD
:1022100084F80DA084F80E90216941F0200121611D
:1022200084F80C900120BDE8F087406925EA0000A1
:102230000004000CEAD12068406901E02068806950
:1022400025EA00000004000CAFD1ECE72DE9F041D5
:10225000002590460E460446202728E04069C043EA
:10226000C0060CD454F8301B6FF01000486144F8DD
:1022700010596777A577206A2062257714E0FEF76A
:1022800057FEA0EB0800B04200D886B9206840692C
:10229000C04340060BD544F8305F6773A5732069CF
:1022A00040F02000206125730120BDE8F081206806
:1022B0004169C9434906D1D40020F6E770B51646F6
:1022C0000D4604461EE02046FFF705FE08B101203A
:1022D00070BD681C16D0FEF72BFE801BA84200D8EC
:1022E00085B920684069C04300060BD5002044F83A
:1022F000300F20216173A073216941F02001216119
:102300002073E4E720684069C0430006DBD4002066
:1023100070BDF8B51C4615460E4607466B460122B1
:1023200002F096FA01209DF80010A8400CB1084375
:1023300001E021EA00008DF800006B4601223146E1
:10234000384602F095FAF8BD2DE9F8431D461646C9
:102350000F4680466B460122089C02F079FA00285D
:1023600012D10120A840711B401E491C88408C409E
:102370009DF800106B46014021438DF800100122AA
:102380003946404602F074FABDE8F88310B50E21D4
:102390000548FDF70FFF044B01227521682002F06C
:1023A00057FA0148007810BD3C01002010B501200B
:1023B00000F011F8032000F020F8002000F014F8DD
:1023C000002000F02FF8002000F026F8BDE81040B3
:1023D000002000F01BB808B50323009002226B21F7
:1023E0006820FFF7B1FF08BD08B502230090042262
:1023F0001C216820FFF7A8FF08BD08B50223009044
:1024000004221B216820FFF79FFF08BD034601221D
:1024100037216820FFF77DBF034605226A21682027
:10242000FFF777BF034606226B216820FFF771BFD5
:102430002DE9F04F65488DB0017800297DD000214D
:1024400001700CA902A8CDE900010BAB03AA09A9F0
:1024500007A801F05BFCBDF80800C0056DD5039826
:10246000FEF7ADF86FF01D042146FDF783FF8346AC
:102470000498FEF7A4F82146FDF77CFF82460598F4
:10248000FEF79DF82146FDF775FF81460698FEF799
:1024900096F82146FDF76EFF804601215846FDF76C
:1024A00069FF06464946FDF7F5FE04464FF04041F8
:1024B0005046FDF7EFFE07464146FDF7EBFE21468D
:1024C000FDF790FEFEF7B6F800F0C8FF4FF0C042EF
:1024D0003F4BFEF702F8FEF7C0F83E4D0121686160
:1024E0004846FDF747FF49460090FDF7D3FE0446F6
:1024F00038465146FDF7CEFE2146FDF7C5FE4FF0AA
:102500007E51FDF76FFEFEF795F807460C46304604
:102510005146FDF7BFFE064641460098FDF7BAFE5C
:102520003146FDF75FFEFEF785F83A46234601F097
:10253000DDF94FF0C042264B00E045E0FDF7CDFF4E
:10254000FEF78BF84146A8610846FDF7A3FE074653
:1025500049460846FDF79EFE064651460846FDF7E9
:1025600099FE044659460846FDF794FE2146FDF7BC
:1025700039FE3146FDF788FE3946FDF785FEFEF748
:1025800059F806460C4641465846FDF783FE074675
:1025900049465046FDF77EFE3946FDF723FE0121F0
:1025A000FDF7E8FEFEF746F83246234601F09EF9B5
:1025B0004FF0C042064BFDF790FFFEF74EF8E86182
:1025C00001200DB0BDE8F08F0020FAE700000020E8
:1025D00066A64C404000002070B586B00024254817
:1025E0000094019402940394816941F01001816187
:1025F000816901F010010491816941F0200181613C
:10260000816901F020010491816941F00401816137
:10261000816901F004010491816941F0080181613F
:102620008069154E00F008004FF400550490002218
:1026300029463046FEF776FC01200095CDE90104DD
:102640000220039069463046FEF774FB202000907C
:102650000A48CDE9010469460948FEF76BFB0022F0
:1026600011461720FEF788FF1720FEF777FF06B008
:1026700070BD000000100240001001400000111069
:10268000000C01400D4810B50B4901600C49416038
:1026900000214FF480428160C0E9031241618161F1
:1026A000C1610162FEF74AFC002803D0BDE810407A
:1026B000FEF7A8BA10BD00000054004090000020B2
:1026C000801A06000C4810B50A4901604FF41651F3
:1026D0004160002181600C22C160C0E90412816167
:1026E000C161FFF733FB002803D0BDE81040FEF7BF
:1026F00089BA10BD00380140E4000020FEE7FEE783
:1027000070477047FEF7D2BE30B58FB028216846BB
:10271000FDF750FD14210AA8FDF74CFD0121080426
:10272000CDE900100024029402250491CDE9075060
:102730004FF4E01009906846FFF72CF808B172B624
:10274000FEE70F20CDE90A054FF48060CDE90C408B
:1027500002210AA80E94FEF741FF002801D072B6AC
:10276000FEE70FB030BD704710B5406A0021C1854B
:10277000C184FFF7B4F910BD01680C3151E8002F96
:1027800022F4907241E80023002BF5D10168143146
:1027900051E8002F22F0010241E80023002BF5D17F
:1027A000016B012909D101680C3151E8002F22F099
:1027B000100241E80023002BF5D1202180F84210BF
:1027C00000210163704708B590F84210222901D01A
:1027D000022008BD82684FF480539A4201D10169FA
:1027E00021B1816A9A421BD04AB10AE00268816A2B
:1027F0005268C2F308020A80816A891C08E00269F3
:1028000072B10268526802F07F020A70816A491C44
:102810008162C18D491E0904090CC18503D01BE0EA
:1028200002685268F1E70168CA6822F02002CA60B3
:102830000168CA6822F48072CA6001684A6922F09D
:1028400001024A61202180F8421000214163026B9D
:10285000012A03D0FFF7ECFA002008BD01630168EC
:102860000C3151E8002F22F0100241E80023002B28
:10287000F5D101680A68D20602D50A684968009154
:10288000818DFFF72BF9E7E770B504460068016911
:10289000E26821F44051114301612169A0680843B5
:1028A000616908432168CA6841F20C639A43024394
:1028B000CA6020684169A26921F4407111434161F5
:1028C0001E492068884202D1FEF72EFF01E0FEF784
:1028D0001BFF00EBC00101EB001260686421800067
:1028E000B2FBF0F3B3FBF1F36FF018067343B2FBE6
:1028F000F0F5B2FBF0F605EB8305322303EB05158B
:10290000B5FBF1F5B6FBF1F605F0F00505EB0615A4
:10291000B2FBF0F6B2FBF0F0B0FBF1F06FF0180292
:10292000504306EB800003EB0010B0FBF1F0216890
:1029300000F00F002844886070BD0000003801409E
:102940002DE9F843984617460D460446089E24E0B4
:10295000701C22D0FEF7ECFAA0EB0800B0421AD8A7
:10296000CEB12068C168490717D5802D15D0402DFC
:1029700013D00168C94309070FD4016800254068D6
:1029800000902046FFF7F8FE0820606484F840506D
:102990000120BDE8F8830320FBE72068006835EAE2
:1029A000000004D00020B842D2D00020F1E701207E
:1029B000F9E700000148FFF793B80000E4000020A9
:1029C000FEE700000FB4054B10B503A9044A0298B6
:1029D00000F06CF910BC5DF814FB0000A543000882
:1029E00088000020490050EAC12018BF04204A0D89
:1029F00018BF40F0010040F2FF72B2EB515F08BF18
:102A000040F00200012808BF052070470907090EA1
:102A1000002804DB00F1E02080F80014704700F08B
:102A20000F0000F1E02080F8141D70472DE9F041FF
:102A30004F1E00EBC7010446D1E9000115461E46B2
:102A400037F006020DD02A463346FDF746FD7F1EBD
:102A500004EBC703D3E90023FDF798FC37F0060227
:102A6000F1D1022F25D0042F13D0062F18BFBDE8B7
:102A7000F0812A463346FDF730FDD4E90A23FDF7FD
:102A800085FC2A463346FDF728FDD4E90823FDF7E7
:102A90007DFC2A463346FDF720FDD4E90623FDF7E9
:102AA00075FC2A463346FDF718FDD4E90423FDF7EB
:102AB0006DFC2A463346FDF710FDD4E90223FDF7ED
:102AC00065FC2A463346FDF708FDD4E90023BDE83E
:102AD000F041FDF75BBC0122FDF746BFFDF756BC98
:102AE0000022134610461146FDF7CFBE024A0020D1
:102AF0001107FDF739BF000001FDFFFF02E008C824
:102B0000121F08C1002AFAD170477047002001E067
:102B100001C1121F002AFBD1704700000149086063
:102B2000704700008C0000202DE9FF5F82B000217B
:102B3000DDE90430020DDDF840B0034318D044F65F
:102B40001050A2F2FF3242431514119801281FD0F1
:102B5000A5EB0B00401C5FEA000A4FF000064E4F49
:102B6000DFF83891B046504615D5CAF1000413E09D
:102B7000119801244AA3012801D16FEA0B010298A0
:102B8000119AC0E90031C0E9024206B0BDE8F09FE9
:102B9000CBF10000DFE704460021404A491842EB30
:102BA0000450CDE9001012E0E00707D032463B4662
:102BB00040464946FDF791FC8046894632463B46F1
:102BC00010461946FDF789FC06460F466410002C96
:102BD000EAD1DDE90401DDE90023BAF1000F06DAEC
:102BE000FDF77BFC42464B46FDF777FC05E0FDF721
:102BF0004CFE42464B46FDF748FE04460E46002278
:102C0000284BFDF7E1FE03D84FF0FF30014607E007
:102C10000022254B20463146FDF7B8FBFDF7BBFEF1
:102C2000102409E0002C0ADB0A220023FDF747FDEF
:102C3000039B30321A55641E50EA0102F2D1641C23
:102C4000039AC4F111031444119A012A03D00122FA
:102C500008430DD10AE0084304D000204FF0110BC7
:102C6000119072E7A3EB0B056D1E0DE05B4504DDD3
:102C70004FF0000205F1010504E003DA4FF0000215
:102C8000A5F10105002AECD002981199C0E90231A2
:102C9000C0E9004579E70000000014400000F03F63
:102CA000300000000000F0430000E03F2DE9FF4F3E
:102CB00095B09B468946064600250FE2252877D128
:102CC00000242746F84A0121059400E0044316F841
:102CD000013F203B01FA03F01042F7D130782A2857
:102CE00011D06FF02F033078A0F13002092A16D8E6
:102CF000059A44F0020402EB820203EB4202104404
:102D0000761C0590EFE759F8042B0592002A03DAA8
:102D1000504244F40054059044F00204761C30788C
:102D20002E2816D116F8010F44F004042A280DD0DD
:102D30006FF02F023078A0F13003092B09D807EB90
:102D4000870302EB4303C718761CF3E759F8047BAB
:102D5000761C30786C280FD006DC4C2817D06828F9
:102D60000DD06A2814D104E0742810D07A280FD12D
:102D70000DE044F400140AE044F4801401E044F44B
:102D800040147278824202D104F58014761C761CBD
:102D9000307866280BD013DC582877D009DC00285F
:102DA00075D04528F6D04628F4D047281AD19DE1A1
:102DB00018E0632835D0642879D0652812D195E1D0
:102DC000702873D008DC6728F1D069286FD06E288E
:102DD0000DD06F2806D1B5E073282CD0752875D09A
:102DE000782874D05A46179990476D1C75E1C4F342
:102DF0000250022809D003280DD0D9F80010042869
:102E00000DD00D6009F1040967E1D9F80010EA1747
:102E1000C1E90052F6E7D9F800100D80F2E70D7015
:102E2000F0E719F8041B8DF8001000208DF8010060
:102E3000EA46012003E059F804AB4FF0FF30610788
:102E40004FF0000102D40DE008F101018846B942BB
:102E50000FDA8045F8DB1AF808100029F4D108E0F1
:102E600008F1010188468142FADB1AF808100029AE
:102E7000F6D105985B46A0EB080721463846179A1D
:102E800000F094FA284400EB080507E04DE029E142
:102E90000DE01AF8010B5A4617999047B8F101084E
:102EA000F7D25B4621463846179A13E142E00A22E0
:102EB0000092C4F302524FF0000A022A08D059F8D7
:102EC00004CB032A4FEAEC710AD00DE029E02AE096
:102ED00009F1070121F00702F2E802C1914609E079
:102EE0000FFA8CFC4FEAEC71042A03D14FFA8CFCE8
:102EF0004FEAEC71002907DA0A460021DCF1000CE8
:102F000061EB02012D2202E0220504D52B228DF86F
:102F10000420012203E0E20701D02022F7E79046D7
:102F200059E00A2102E010220DE010214FF0000AC2
:102F300000910BE010224FF0000A44F0040408272F
:102F4000009203E008224FF0000A0092C4F30252FC
:102F5000022A05D059F804CB0021032A08D009E041
:102F600009F1070121F00702F2E802C1914605E0EC
:102F70001FFA8CFC042A01D10CF0FF0C4FF0000862
:102F8000220728D5702806D0009B83F0100353EA4F
:102F90000A0305D00EE040228DF80420012208E04B
:102FA0005CEA010206D030228DF804208DF805007D
:102FB00002229046009B83F0080353EA0A030AD1D9
:102FC0005CEA010201D1620705D530228DF80420A8
:102FD0004FF001087F1E582804D034A003900EA89B
:102FE00002900DE036A0F9E753466046009AFDF7DF
:102FF00066FB84460398825C0298401E0290027031
:103000005CEA0100F0D1029806A9081A00F1200A32
:10301000600702D524F4803400E00127574502DD23
:10302000A7EB0A0000E0002000EB0A0100900598E1
:103030004144401A0590E00306D45B462146179AA6
:10304000059800F0B3F90544002706E001A85A46A8
:10305000C05D179990476D1C7F1C4745F6DBE00368
:103060000CD55B462146179A059800F09FF9054458
:1030700004E030205A46179990476D1C0099481E6D
:1030800000900029F5DC08E0029802995A46007881
:10309000491C0291179990476D1CBAF10001AAF1E1
:1030A000010AF1DC65E1000009280100303132330A
:1030B0003435363738396162636465660000000074
:1030C000303132333435363738394142434445465E
:1030D0000000000000F058F90544761C3078002804
:1030E0007FF4ECAD19B02846BDE8F08F620700D43C
:1030F000062709F1070222F0070CFCE80223E1464B
:1031000003F000485FEA080C02D00FF2702C0DE0CB
:103110005FEA045C02D50FF2682C07E05FEAC47C2A
:1031200002D00FF2602C01E0AFF2700C4FF0FF38CC
:1031300023F00043CDF850C065280CD006DC4528AC
:1031400009D046281DD047283DD13DE0662818D03B
:1031500067287ED138E00021112F01DB112000E02B
:10316000781CCDE9000106A90EA8FFF7DDFCDDE91A
:103170000F010E9A03910021009207F1010A0491B8
:103180004DE04FF000400097CDE9011006A90EA8D0
:10319000FFF7CAFCDDE90F0203920E9B1199002292
:1031A000DDF80CA00093049211B9791C00EB010A20
:1031B000B7EB0A0004D4C0F1FF3007F1010A049014
:1031C000AAEB0700019044E0012F00DA012700215B
:1031D000112F01DD112000E03846CDE9000106A9DC
:1031E0000EA8FFF7A1FCDDE90F010E9A0391002163
:1031F00004910092BA4621070CD40399514500DA94
:103200008A46BAF1010F05DD009AAAF10101515C6D
:10321000302908D0B84202DA10F1040F06DA012191
:10322000CDE9011015E0AAF10101E9E7002805DC6C
:10323000049901440491AAEB000102E0411C5145AC
:1032400000DD8A460499401A401C01904FF000406E
:103250000290200704D40198504501DBCDF804808A
:1032600000208DF84F0002980DF14F07B0F1004F8C
:1032700025D02B200E9002984FF0020800280CDA7F
:10328000404202902D200E9007E00A210298FDF79F
:1032900000FA3031029007F8011DB8F10001A8F1E1
:1032A0000108F2DC02980028EFD1791E0E98087010
:1032B000307800F0200040F0450007F8020D12A819
:1032C000C01B00F107081498007800B1012000EB42
:1032D0000A01019801EBE07105984144401A401E33
:1032E0000590E00306D45B462146179A059800F046
:1032F0005DF805441498007818B15A46179990471C
:103300006D1CE00324D55B462146179A059800F012
:103310004DF805441CE00498002807DBDDE90301B3
:10332000884203DD0098405C179901E0179930202E
:103330005A469047049805F10105401C04900198F5
:10334000401E019004D12E205A46179990476D1CBB
:10335000BAF10001AAF1010ADDDC05E017F8010B62
:103360005A46179990476D1CB8F10001A8F1010861
:10337000F4DC5B462146179A0598ABE62D00000069
:103380002B000000200000002DE9F041044600253C
:103390001E461746880404D405E039462020B0476D
:1033A0006D1C641EF9D52846BDE8F0812DE9F04179
:1033B000044600251E469046C80301D5302700E08C
:1033C0002027880404D505E041463846B0476D1CE7
:1033D000641EF9D52846BDE8F08100002DE9FE4FB6
:1033E00007460E460025684600F0E8FF00246FF00F
:1033F0000F0AE8464FF0010957F8240056F8241048
:10340000401A00D54042FDF7DAF85146FCF7B2FF0A
:1034100058F8241011F0FF4F0BD0FCF76DFF4FF060
:103420007E51FCF731FF0A4920F00040884205DC5C
:1034300007E0084908440849884202D309FA04F021
:103440000543641C032CD7DB2846BDE8FE8F000033
:10345000295C0F3E666666C19A99D9002DE9F04D48
:103460008D4F21F0004A86B005460C46BA452ADB4E
:10347000AAEB070028430AD08848824501DC1AD10C
:10348000CDB106B02846BDE8F04DFFF724BB844A15
:10349000844B2846FDF721F807460E46824A834BA7
:1034A00028462146FDF719F806B03A463346BDE8EE
:1034B000F04DFCF76BBF0120FFF730FB06B0BDE815
:1034C000F04DFFF70DBB7A48824542DABAF1795FD9
:1034D0000BDA2846FFF786FA042808BFFFF706FB39
:1034E000284606B02146BDE8F08D2A460B46104618
:1034F000FCF7F3FF834602466E480E460B46062154
:103500007844FFF793FA5A463346FCF7E6FF8046C5
:1035100069488A465A46334604217844FFF786FABA
:103520005A463346FCF7D9FF00223B46FCF72EFFF4
:1035300002460B4640465146FDF7A7F92A46234668
:10354000FCF7CBFF06B02A462346BDE8F04DFCF75A
:103550001DBF284624F0004100223D463B46FCF7B3
:10356000B9FF4FF0FF32FDF7FFF906460246534818
:103570000F460B4606217844FFF758FA32463B4681
:10358000FCF7ABFFCDE900014D4832463B46042134
:103590007844FFF74BFA32463B46FCF79EFF002289
:1035A0002B46FCF7F3FE834602913046394602F083
:1035B0005BF8804643480D46504517DCDDE90001C5
:1035C0005A46029BFDF761F942462B46FCF785FF00
:1035D00042462B46FCF7DAFE0122FDF7C5F9304AD8
:1035E000304BFCF774FF304A304B4CE04FF0000A90
:1035F00052460B464046FCF7C9FECDE90310524641
:103600002B4610461946FCF768FF32463B46FCF74E
:1036100061FFDDE90332FDF738F906460F46DDE9C3
:1036200000015A46029BFDF730F9834600910122C2
:1036300030463946FDF798F9194A1A4BFCF74AFF0C
:1036400006460F46012240462946FDF78DF95A46A7
:10365000009BFCF742FF32463B46FCF738FF06462C
:103660000F46012250462946FDF77EF90E4DDFF840
:1036700058802A464346FCF72DFF32463B46FCF76E
:1036800029FF2A464346FCF725FF002CD8BF81F0CE
:10369000004106B0BDE8F08D0000F03F0000F07F73
:1036A000075C143326A6913C182D4454FB21F93FA6
:1036B0000000E03F242E00003A2E0000AE2D000056
:1036C000C42D00003333EF3FFB21E93F2DE9F84FD4
:1036D00004460D4621F0004000917349814211DCFF
:1036E0007249884201DC06D12CB120462946BDE84A
:1036F000F84FFFF7F0B96E48002DCCBF6D496E4909
:10370000BDE8F88F6D49814211DD6D498142D8BF16
:103710004FF0FF366DDD20462946FFF763F9042898
:1037200008BFFFF7E3F920462946BDE8F88F654951
:10373000654F25F00045814233DD6449814219DD42
:10374000002632464FF0804320462946FCF71EFEF5
:1037500080468A46012220462946FDF705F90022C7
:103760003B46FCF7B4FE42465346FDF78EF804464E
:103770000D463EE001260022BA463B462046294639
:10378000FCF704FE80460F46002253462046294699
:10379000FCF79DFE42463B46FDF777F804460D4692
:1037A00027E04B4981421BDDDFF828A102260022D9
:1037B000534620462946FCF790FE00223B46FCF784
:1037C000E5FD80460F460022534620462946FCF779
:1037D0007EFE42463B46FDF758F804460D4608E09B
:1037E000032622462B4600203B49FDF74EF80446AF
:1037F0000D4622462B4610461946FCF76EFE8B46B8
:10380000824602460B46FCF768FE074602463348EE
:1038100088460B4606217844FFF708F952465B4676
:10382000FCF75BFE82462E488B463A46434605210E
:103830007844FFF7FBF83A464346FCF74EFE024653
:103840000B46002E504659460CDAFCF79FFD2246E7
:103850002B46FCF742FE01B022462B46BDE8F04F56
:10386000FCF738BEFCF792FD22462B46FCF735FEEE
:103870001C4A7A4402EBC603D3E90023FCF727FE77
:1038800022462B46FCF723FE174A7A4402EBC60376
:10389000D3E90023FCF71EFE009A002AB8BF81F08E
:1038A0000041BDE8F88F0000000010440000F07FE8
:1038B000182D4454FB21F93FFB21F9BF0000DC3FE8
:1038C0000000203E0000F33F0000F03F0000E63F14
:1038D000008003400000F83F0000F0BFC62B00004E
:1038E000842B0000222B0000EA2A00002DE9F04D75
:1038F0009446CCF1000423F000464CEA0404524FF5
:1039000046EAD4749A46884621F00042BC4206D862
:10391000454240EA050442EAD474BC4204D9BDE8F9
:10392000F04D6246FFF7DAB8AAF14055A5F17F6580
:1039300055EA0C040BD0022404EAAA74434DDFF8C4
:1039400010E144EAD87452EA000B04D00CE0BDE860
:10395000F04DFFF7BBBE002C14BF012CBDE8F08D6D
:10396000022C30D0032C32D056EA0C0B0AD0BE42C7
:1039700020D1BA4209D126F0804622F08042334657
:10398000114617E000291ADB25E0DFF8C8B0FB4438
:10399000002C04BFDBE90001BDE8F08D012C02BF63
:1039A000DBE9000181F00041BDE8F08D022C0AD076
:1039B000032C0CD0BA4212D1B8F1000F0BDA234815
:1039C0002549BDE8F08D28462449BDE8F08D2846FC
:1039D0007146BDE8F08D1D482149BDE8F08D921B70
:1039E00012153C2AC4BF19481D490EDCBAF1000F5C
:1039F000BEBF12F13C0F0020014606DB6246FCF719
:103A000044FF21F00041FFF761FE002C08BFBDE834
:103A1000F08D012C04BF81F00041BDE8F08D114A0A
:103A2000114B022C07D0FCF752FD2A46BDE8F04DA1
:103A30000A4BFCF74CBDFCF74AFD2A46BDE8F04DA9
:103A4000064BFCF747BD00000000F07F182D4454E2
:103A5000FB2109C07E2A0000FB21F9BFFB210940A0
:103A6000FB21F93F075C143326A6A13C08B560B1E1
:103A700020208DF8000028208DF8010030208DF8DE
:103A8000020038208DF8030004E0A32204216846D8
:103A9000FCF789FB6A46042140F69E2001F050FDA8
:103AA00001F016FA08BD00003EB5044602208DF86C
:103AB0000000CA208DF80100E3208DF802000920E3
:103AC0008DF803006A460421682001F039FDA32027
:103AD0008DF80000610609D5C0218DF80110C821BC
:103AE0008DF80210C2218DF8031005E08DF8010059
:103AF0008DF802008DF8030014F4C07F09D0C421B2
:103B00008DF80410CC218DF80510C6218DF8061013
:103B100005E08DF804008DF805008DF806008DF89D
:103B200008008DF807008DF809006A460A2140F662
:103B3000A72001F005FDA0074FF0D80503D02020F5
:103B40008DF8000001E08DF800506A46012140F632
:103B5000B62001F0F5FCA00601D5012000E0002010
:103B600000F08EF814F4C07F1ED0E0050AD5B22014
:103B70008DF800008B208DF80100B6208DF8020032
:103B80009B2009E0B0208DF8000080208DF8010016
:103B9000B4208DF8020090208DF803006A460421BD
:103BA00040F6A22001F0CCFCE1074FF40B6022D0DC
:103BB000F8218DF800106A46012101F0C1FCFA21BC
:103BC000072000F03BFB072000F006FB012000F07F
:103BD00023FB642000F0C6FB4FF4FA7000F0D2FB28
:103BE000C821254800F0C0FA282000F0D5FA0A20A4
:103BF00000F0E2FA05E08DF800506A46012101F07C
:103C00009FFCA00703D5D9208DF8000001E08DF8B6
:103C100000506A46012140F23D7001F091FC6007BE
:103C200001D5012000E0002000F048F8E00601D5B1
:103C3000012000E00020FFF719FF104D44F00800BC
:103C4000688101F045F90020A873600601D50620BF
:103C5000A87314F4C07F02D0A87B801DA87314F051
:103C6000140F02D0A87B1030A873A00702D0A87B45
:103C7000001DA87300203EBD09E3CA022C010020EC
:103C80000EB54FF4976310B106A107C901E008A271
:103C900007CA8DE807006A460921184601F050FC62
:103CA0000EBD0000B8AAB38DB4980D355D000000BC
:103CB000B8AAAAAAB088C3C5C700000008B560B1F9
:103CC000C0208DF80000C2208DF80100C4208DF8BE
:103CD0000200C6208DF8030004E08B220421684610
:103CE000FCF761FA6A46042140F6982001F028FCAE
:103CF00001F0EEF808BD0000C8234FF480620249CD
:103D000040F6F63000F0C6BF085700082DE9FF4F17
:103D100089B01746DDE9165200244D4E884681468B
:103D20002C80A246B07B694601F060F84FF0FF3B63
:103D300018B158460DB0BDE8F08F708910F0140F1F
:103D40003CD0009909BA21F0FF039DF803100B4302
:103D50003B6001991B1409BA21F0FF029DF807107E
:103D60005B430A437A6002999DF80B4009BA21F03F
:103D7000FF012143B960039C091424BA24F0FF0C0D
:103D80009DF80F4012144CEA040CC7F80CC04FEA1F
:103D90002C47494302FB023207FB07111144102450
:103DA000A1F17061B1F1007F04D901F091F8A5F89B
:103DB00000A0BEE7298841F4807129804206694647
:103DC00011D50A19A41D13885BBAA8F800305388CE
:103DD0005BBAA8F80230928852BAA8F804202A8860
:103DE00042F008022A8010F4C07F11D00A19A41DE5
:103DF00013885BBAA9F8003053885BBAA9F802307F
:103E0000928852BAA9F804202A8842F070022A80C7
:103E1000800716D00C44E07800F0C00500F03F01A8
:103E20006078C00706D0C80801F007013268491C55
:103E300002B190476078000703D5716809B1A809FD
:103E40008847FDF775F80C990860002072E70000BC
:103E50002C0100202DE9FF41044603A800F002FEDA
:103E6000BDF80C00410CC30300BF2F48028902F0CB
:103E70000300550754F8200000D54042C2F3C105A5
:103E8000960654F8255000D56D42C2F38116D2052E
:103E900054F8264000D56442A0FB0367C21702FB1A
:103EA000037200FB0120820042EA9670A5FB0367C3
:103EB000EA1702FB037205FB0122950045EA9672A0
:103EC000A4FB0367E51705FB037304FB01318B00BB
:103ED00043EA9671030E8DF80030030C8DF8013023
:103EE000030A8DF802308DF80300100E8DF80400DF
:103EF000100C8DF80500100A8DF80600080E8DF8DC
:103F00000800080C8DF80900080A8DF80A008DF8E1
:103F100007208DF80B106A460C214FF4257001F034
:103F20000FFB04B0BDE8F0812C01002030B5044641
:103F300013A285B007CA8DE807004FF0FF35C82CE3
:103F400016D8C820B0FBF4F1491E080A8DF80C0001
:103F50008DF80D1003AA022140F2162001F0F0FAAC
:103F600030B96A460C2140F6C12001F0E9FA10B1DF
:103F7000284605B030BD054884810020F9E70000DF
:103F8000FEF2ABC4AAF1DFDFBBAFDFDF2C01002004
:103F9000F8B53049098901F0030250F822404A0778
:103FA00000D56442C1F3C1028B0650F8222000D52F
:103FB0005242C1F3811350F82330C80500D55B424B
:103FC000254984FB0140850045EA947082FB01424B
:103FD000A40F44EA820483FB0121950F45EA810581
:103FE000010E8DF80010010C8DF80110010A8DF8FA
:103FF00002108DF803006A4604214FF4747001F03A
:104000009FFA4FF0FF3688B9200E8DF80000200C83
:104010008DF80100200A8DF802008DF803406A46F1
:1040200004214FF4757001F08BFA08B13046F8BDE9
:10403000280E8DF80000280C8DF80100280A8DF854
:1040400002008DF803506A4604214FF4767001F0A7
:1040500077FAF8BD2C01002009E3CA022DE9FF41DF
:1040600004463CA004F00303006802903AA00068F4
:1040700003903AA006683AA0056802A8C15C8DF8D2
:104080000010C4F3C101425C8DF80120C4F3811219
:10409000805C8DF8020003A8C35C8DF80430415C9D
:1040A0008DF80510805C8DF806006A46032140F209
:1040B000264001F045FA4FF0FF37E0BB01AA03218B
:1040C00040F22A4001F03CFAA8BBCDE90065600748
:1040D0000BD59DF8000040F001008DF800009DF820
:1040E000040040F001008DF80400A0060BD59DF8F7
:1040F000010040F001008DF801009DF8050040F03E
:1041000001008DF80500E0050BD59DF8020040F098
:1041100001008DF802009DF8060040F001008DF8C6
:1041200006006A4603214FF4886001F009FA10B9CD
:1041300001AA032100E004E040F2314001F000FA5E
:1041400018B1384604B0BDE8F0810648048100206B
:10415000F8E700004CCD6C000CC92C0036567600F8
:10416000264666002C0100204FF47A7290FBF2F094
:1041700008B54843010E8DF80010010C8DF80110B0
:10418000010A8DF802108DF803006A4604214FF4ED
:10419000AE7001F0D5F908BD0521B0FBF1F008B50E
:1041A000010A8DF800108DF801006A4602214FF4D3
:1041B000AD7001F0C5F908BD0521B0FBF1F008B5FF
:1041C000010A8DF800108DF801006A4602214FF4B3
:1041D000AC7001F0B5F908BD08B500218DF80010EC
:1041E000C10702D030218DF80010810705D59DF858
:1041F000001041F00C018DF80010400705D59DF826
:10420000000040F003008DF800006A4601214FF4E1
:10421000A47001F095F908BD08B560B1042800D973
:104220000420401E8DF800006A46012140F24F1024
:1042300001F086F908BD0120F3E700002DE9FC41FB
:10424000054640074FF0FF367CD0B1F5C86F79D8EE
:104250000846FCF7BDF93E49FCF74EF8074601A8B1
:1042600000F0E2FB9DF80400022806D004280DD0DF
:1042700008282ED0102865D134E00E213846FCF7EE
:1042800079F8FCF7C3F984B2324907E00D213846CA
:10429000FCF770F8FCF7BAF92F4984B23846FBF7FF
:1042A000F9FFFCF7B3F9210A8DF8001080B28DF800
:1042B0000140010A8DF802108DF80300E8076C46F2
:1042C00020D0224602214FF4EA7001F039F9C8BB30
:1042D00011E00C213846FCF74DF8FCF797F984B251
:1042E0001E49DBE70B213846FCF744F8FCF78EF952
:1042F00084B21B49D2E7A21C02214FF4927001F054
:104300001FF9F8B9A8070DD56A4602214FF4EC70E1
:1043100001F016F9B0B9A21C02214FF4947001F01B
:104320000FF978B9680710D56A4602214FF4EE708C
:1043300001F006F930B9A21C02214FF4967001F089
:10434000FFF810B13046BDE8FC810020FBE700001B
:1043500000004843000040460000C04500004045C2
:104360000000C0440521B0FBF1F008B5010A8DF84A
:1043700000108DF801006A4602214FF4EF7001F041
:10438000DFF808BD0521B0FBF1F008B5010A8DF892
:1043900000108DF801006A4602214FF4ED7001F023
:1043A000CFF808BD13B54FF6FF73012269460248E6
:1043B000FDF73FFD00981CBDE40000202DE9FE4301
:1043C0000646264801AB042240680D21007800F023
:1043D0003FFA10B10720BDE8FE839DF804101C20B1
:1043E00000EAD1029DF80710DFF87490C1F30113C1
:1043F0001A438DF800209DF80520C1F3810300EADF
:10440000D2021A438DF801209DF8062001F0030125
:1044100000EAD20008430024124F8DF80200A046A3
:104420006D46285D10B146F824900AE046F82480D5
:104430000DE000BF56F824003946FBF72BFF46F885
:104440002400285D401E10F0FF002855F2D1641CA6
:10445000E4B2032CE5D30020BDE7000014000020E7
:104460007B14AE3E1D5A843F2DE9FE4F05460120C8
:10447000C14E8DF800004FF000088DF801803068C3
:104480000C461746417D70686B460222007800F0AA
:10449000EFF94FF0FF3A00287AD1C820FCF724FC4E
:1044A0008DF8008030686B460122417C706800788E
:1044B00000F0DEF90028EFD130686B460122417927
:1044C0007068007800F0D4F90028E5D130686B46B8
:1044D0000122417D7068007800F0CAF90028DBD124
:1044E00030686B460122817E7068007800F0C0F968
:1044F0000028D1D130686B460122017970680078BC
:1045000000F0B6F90028C7D14FF00C098DF80090E3
:1045100030686B46012201797068007800F0A8F9D4
:10452000002835D10F20FCF7DFFBB06A6B46012273
:10453000407A8DF80000306881787068007800F06B
:1045400097F9002824D1B06A6B460122007A8DF8D1
:104550000000306841787068007800F089F9002820
:1045600073D1B06A807A0FB140F0E0008DF800009E
:1045700030686B46012281797068007800F078F924
:10458000002862D12FB1B06AC07A40F0E00001E0AB
:104590004AE018208DF8000030686B460122C1798E
:1045A0007068007800F064F9F0BB17B1C820FCF720
:1045B0009BFB40208DF8000030686B46012201799A
:1045C0007068007800F054F970BB78208DF8000016
:1045D00030686B46012241797068007800F048F934
:1045E00010BB3220FCF780FB8DF800803068474616
:1045F0006B46417970680122007800F039F998B96A
:1046000031687068B046097B00786B46022200F082
:104610001FF948B9BDF80000AF6040BAB0FBF9F02F
:104620006F60C6B22F6000E00FE0A7606760276090
:10463000002739E0D8F80010D8F804006B46497B11
:1046400000780C2200F004F910B15046BDE8FE8F4E
:10465000BDF80000236840BA02B2BDF80200BDF800
:1046600004101A44226040BA626800B210446060CC
:1046700049BAA06809B20844A060BDF806002B68DA
:1046800040BA02B2BDF808001A4440BA01B2BDF8FF
:104690000A002A606A6840BA11446960A96800B2D9
:1046A00008447F1CFFB2A860B742C3D328688322A6
:1046B000C117090441EA104100040023FBF732FD51
:1046C00032460023FBF72EFD286068688322C1175D
:1046D000090441EA104100040023FBF723FD3246A0
:1046E0000023FBF71FFD6860A8688322C117090437
:1046F00041EA104100040023FBF714FD3246002379
:10470000FBF710FDA86020684FF40065C11709048D
:1047100041EA104100042A460023FBF703FD32461C
:104720000023FBF7FFFC206060682A46C1170904DC
:1047300041EA104100040023FBF7F4FC3246002359
:10474000FBF7F0FC6060A0682A46C117090441EA43
:10475000104100040023FBF7E5FC32460023FBF781
:10476000E1FCA060002802DDA0F5803001E000F54A
:104770008030A060002069E7140000202DE9F84F88
:1047800081462E488846002540686B460322007803
:104790000D2100F05DF810B10720BDE8F88F9DF8FD
:1047A0000000002400F01F008DF800009DF80100BB
:1047B0006FF00F0B00F01F008DF801009DF8020054
:1047C0006E4600F01F008DF802004FF0010A00BF96
:1047D00059F8241058F82400081A00D54042FBF775
:1047E000EEFE5946FBF7C6FD0746305DC0B11448E2
:1047F00002E01449FBF74EFD315D491E11F0FF0147
:104800003155F6D101463846FBF776FD4FF07E5123
:10481000FBF73AFD0C4920F00040884205DC07E038
:104820000A483844B0F1D97F02D90AFA04F00543A6
:10483000641C032CCCDB2846AFE7000014000020EA
:104840000000C84154E3853F295C0F3E0000E0BEF4
:104850003EB54000CDE900320A460A2401460294E2
:1048600001230248FCF72EFC3EBD00009000002012
:104870003EB54000CDE900320A460A2401460294C2
:1048800001230248FCF74CFD3EBD000090000020D3
:1048900090F90010002902DD4FF00000704702DAA5
:1048A0004FF00400704790F90110002902DD4FF02D
:1048B0000100704702DA4FF00500704790F90200DE
:1048C000002802DD4FF00200704702DA4FF00600C8
:1048D00070474FF0070070471FB5FCF7EFFDFDF77D
:1048E00013FFFDF779FEFDF7CDFEFDF7EBFE20A0EF
:1048F000FEF768F8FDF75AFD22A0FEF763F8FCF713
:1049000033F94FF4FA60FCF7EFF925A0FEF75AF8F7
:10491000274C4FF4167900BFFDF78AFD28B12548D2
:10492000016825480068FCF7CBF8FCF701FB6168DB
:10493000401A4845F0D9FCF7FBFA60602069FBF7A4
:1049400079FE07468846E068FBF774FE05460E468A
:10495000A068FBF76FFE8DE8E00102460B4617A04A
:10496000FEF730F84FF400511948FCF7D3FAD3E7BB
:104970004D50553630353020496E69742E2E2E0D2F
:104980000A000000444D5020496E69742028576188
:104990006974207E3273292E2E2E0D0A000000002D
:1049A000444D50205265616479210D0A00000000D9
:1049B00000000020580000205400002078252E31EF
:1049C000662079252E3166207A252E31663B00003F
:1049D000001001402DE9F041124C20F001010025AA
:1049E00094F8240010B10020BDE8F081A07A4FF0C7
:1049F000FF3668B10840277C2074884200D03546D5
:104A000041B1012000F004FE00F062FA38B12774D1
:104A10003046E9E7207D00B1012000F0F9FD28468D
:104A2000E2E70000140000200D494A7A42B1012A51
:104A300008D0022A0FD0032A0FD04FF0FF30704762
:104A4000022200E004220270C97C11B11106C90DD6
:104A50000170002070470822F5E71022F3E70000FC
:104A6000140000200F494A7A42B1012A09D0022AD3
:104A700011D0032A12D04FF0FF3070474FF480421C
:104A800001E041F69C720280C97C11B1C2F34E0173
:104A90000180002070474FF48052F4E74FF4006229
:104AA000F1E70000140000200B49097A39B101290F
:104AB00007D002290AD003290BD0002103E0FA21F4
:104AC00001E04FF4FA710180002070474FF47A71D1
:104AD000F9E74FF4FA61F6E7140000200A49097A71
:104AE00041B1012908D002290AD003290AD04FF088
:104AF000FF307047054900E005490160002070471C
:104B00000449FAE70449F8E71400002000000343D1
:104B10000000834233330342333383410C49C97A63
:104B2000072913D2DFE801F01204060A0C0E100068
:104B3000BC2100E062210180002070472A21FAE7B1
:104B40001421F8E70A21F6E70521F4E70021F2E74E
:104B500014000020054991F8242012B14FF0FF30D5
:104B60007047C989018000207047000014000020B0
:104B70002DE9FC41464C80208DF8000020686B46F2
:104B80000122417D60680078FFF772FE4FF0FF3729
:104B9000002875D16420FCF7A7F800258DF8005097
:104BA00020686B460122417D60680078FFF760FE57
:104BB000002865D120686B460622417E6068007837
:104BC000FFF746FE00285BD19DF805009DF8031015
:104BD000C007400F01F0010140EA41009DF80110BB
:104BE0004FF0010601F00101084304D0012831D043
:104BF000022810D044E020686B460122C17860682A
:104C00000078FFF725FED8BB9DF8000010F00F00DC
:104C100036D004281ED0E574FF2004F80A0F4FF6A2
:104C2000FF7104F8020C04F8010C6070A180A071FF
:104C30002072A67026766576E572A572E56025611C
:104C40006561A576E576A5834FF4FA6000F03EFB3A
:104C5000B0B901E0E674DFE7022000F059FA78B954
:104C60002A2000F09BFB58B9322000F0CDFB38B968
:104C70000020FFF7AFFE18B9002000F07DFA10B158
:104C80003846BDE8FC81002000F0FEFB0020F8E77C
:104C9000140000202DE9FF4FDFF89480064685B010
:104CA00098F8250015460F464FF0FF39B0BBAFB35B
:104CB000002420E0301B102800DD102080B2834645
:104CC0003A1901469246204600F03AFC30BB6A464B
:104CD0005946204600F0D2F800BB50465A46694675
:104CE000FBF773FA20B16FF0010009B0BDE8F08F57
:104CF00004EB0B0084B2B442DCD3280A8DF8100018
:104D00008DF81150D8F80000444604AB417FD8F824
:104D1000040002220078FFF7ABFD08B14846E4E743
:104D2000012084F825000898E0840020DDE70000D9
:104D3000140000202DE9F84305464FF0FF392828DC
:104D400044D80727284C00267DB1012000F0F4FA52
:104D500020208DF800004FF00108012D17D0052DFF
:104D600018D88DF8018005201FE0002000F0E4FA3B
:104D70008DF800608DF8017020686B460222417D3D
:104D800060680078FFF774FD00BB267529E08DF898
:104D90000160E8E7142D04D802208DF801000A20F4
:104DA00003E003208DF80100142000F0F7FA9DF8CD
:104DB00001006B4607EB80108DF80100206802228D
:104DC000417D60680078FFF753FD10B14846BDE8AB
:104DD000F8830820A072267384F814800020FFF75F
:104DE000F9FD0020F3E70000140000202DE9F8434E
:104DF000214C0646174694F8240089464FF0FF38A8
:104E000090B3A07A80B320686B460222017B606871
:104E10000078FFF71DFD38BBBDF8000045BAB5426C
:104E200002D2002038701FE060684188B5EB510F56
:104E300011D9216800786B46C97C0122FFF708FD73
:104E400090B99DF80000C00605D500F041F86FF05C
:104E50000100BDE8F8832068F2B24B46417B6068F0
:104E60000078FFF7F5FC08B14046F2E7B5FBF6F035
:104E7000401E38700020ECE714000020F8B5160042
:104E80000D464FF0FF371FD0104CA17AE1B1010A57
:104E90008DF80010C0B28DF8010041196068428998
:104EA000914211D8216800786B46C97E0222FFF733
:104EB000DFFC48B92068EAB23346017E60680078BA
:104EC000FFF7C6FC002800D03846F8BD14000020CB
:104ED000F8B5564C4FF0FF36A07A00287DD000255B
:104EE0008DF8005020686B460122417C6068007894
:104EF000FFF7BEFC002870D120686B460122417983
:104F000060680078FFF7B4FC002866D120686B4623
:104F10000122017960680078FFF7AAFC00285CD1C3
:104F200094F82400E0B30C208DF8000020686B4654
:104F30000122017960680078FFF79AFC002872D19D
:104F40003220FBF7D1FEC0208DF80000A07AC00708
:104F500002D0E0208DF8000020686B460122017924
:104F600060680078FFF784FC00285CD1607C18B191
:104F700002208DF8000001E08DF8005020686B469B
:104F80000122417C60680078FFF772FC28BB8DF835
:104F9000005020686B4601224179606800783EE04D
:104FA000FFE704208DF8000020686B46012201799C
:104FB00060680078FFF75CFC78B9A07C90B9A07AB3
:104FC000C0070FD05FF060008DF8000020686B46CE
:104FD000012201796068007800E024E0FFF748FCD6
:104FE00008BB01E04020EFE73220FBF77DFE607C4C
:104FF00018B101208DF8000001E08DF80050206804
:105000006B460122417C60680078FFF731FC50B9A3
:105010002068064B01224179606810330078FFF761
:1050200027FC002800D03046F8BD00001400002006
:105030002DE9F047354C82468AB094F82400894621
:1050400020B1002000F006F9012500E0002507A8A6
:10505000FFF72AFD06A8FFF7E7FC09A8FFF75EFDAA
:1050600008A8FFF777FD94F80A80277C0026002225
:1050700049465046FFF7F8F910B1761C022EF6DBD0
:10508000022E13D00026012203A96846FFF7ECF98F
:1050900010B1761C022EF6DB022E07D003A948467B
:1050A000FEF79CF969465046FFF768FB0022494627
:1050B0005046FFF7D9F9FF2020726072E0724FF678
:1050C000FF71E181A0722074012020730726BDF8D2
:1050D0001C0000F0FBF89DF8180000F019F8BDF86E
:1050E000240000F05BF9BDF8200000F08DF9404687
:1050F00000F0CAF93846FFF76DFC15B1012000F049
:10510000A9F80AB03046BDE8F0870000140000207E
:1051100038B5184C4FF0FF35A17A19B3022806D0E4
:10512000042806D008280ED010281BD10DE000203E
:1051300000E008208DF80000607A9DF80010B0EBC8
:10514000D10F04D005E01020F4E71820F2E700208A
:1051500038BD20686B460122C17960680078FFF78E
:1051600087FB08B1284638BD9DF80000C008607272
:10517000EDE7000014000020F8B5354C0546A07C92
:10518000A84201D10020F8BD31484FF0FF366B46F0
:10519000D0E900104FF001020979007835B3FFF72C
:1051A00057FB70BB9DF800006B4620F020008DF887
:1051B000000020680122017960680078FFF758FB41
:1051C000F8B90320FBF790FD02208DF8000094F859
:1051D000220078B382202BE020686B460122C17D3B
:1051E00060680078FFF744FB58B92EE0FFF730FB0A
:1051F00038B9A07AC0079DF8000003D040F0200025
:1052000002E00CE020F020008DF8000020686B46E2
:105210000122017960680078FFF72AFB08B1304667
:10522000F8BD0320FBF760FD94F8220000B1802058
:105230008DF8000094F823000028CDD09DF80000E0
:1052400040F030008DF80000C6E7A5749AE7000032
:105250001400002038B51C4C94F8241081421DD055
:10526000002500B394F82500D0B1002000F0D0F95B
:105270000020FFF781FFE08C00F0C6F88DF80050A9
:1052800060686B46012200782321FFF7F1FA0120C4
:1052900084F8240000F0BCF9FFF71AFE002038BDA6
:1052A0004FF0FF3038BD002000F0B2F9207C8DF8BF
:1052B000000060686B46012200782321FFF7D8FACE
:1052C00084F82450E8E700001400002038B5194C99
:1052D0004FF0FF35A17A31B3FA2809D0B0F5FA7F43
:1052E00008D0B0F57A7F0FD0B0F5FA6F1BD10DE082
:1052F000002000E008208DF80000207A9DF80010C2
:10530000B0EBD10F04D005E01020F4E71820F2E74D
:10531000002038BD20686B460122817960680078E2
:10532000FFF7A6FA08B1284638BD9DF80000C0086E
:105330002072EDE71400002038B5174C054694F8AC
:105340002300A84201D1002038BD0DB1302000E07B
:1053500000208DF80000A07C28B19DF8000040F0EE
:1053600002008DF8000094F8220028B19DF800009A
:1053700040F080008DF8000020686B460122C17D5E
:1053800060680078FFF774FA10B14FF0FF3038BD55
:1053900084F82350D7E700001400002038B5194CDA
:1053A0004FF0FF35A17A31B3BC2801D3012010E0C2
:1053B000622801D302200CE02A2801D3032008E050
:1053C000142801D3042004E00A2801D3052000E0BA
:1053D00006208DF80000E07A9DF80010884201D187
:1053E000002038BD20686B46012281786068007813
:1053F000FFF73EFA08B1284638BD9DF80000E0727C
:10540000EEE7000014000020F8B51E4D04464FF0F2
:10541000FF37A87A48B395F8240030BB287D4FF4B5
:105420007A7648B164B1282C03D8E0B2FFF782FC49
:1054300026E00020FFF77EFC042C05D2042406E0C1
:105440000020FFF777FCF9E7B44200D93446B6FBF9
:10545000F4F0401E8DF8000028686B460122417868
:1054600068680078FFF704FA08B13846F8BD9DF87F
:105470000000401CB6FBF0F0E8814008FFF78EFF0B
:105480000020F8BD14000020F8B5054610F0700F9C
:105490004FF0000601D0012004E015B18DF8006046
:1054A00002E040208DF80000244C6B460122206869
:1054B000417D60680078FFF7DBF94FF0FF3760BB94
:1054C0009DF8000020F0400020738DF80060680611
:1054D00002D404208DF80000A80605D49DF8000031
:1054E00040F002008DF80000E80605D49DF80000A9
:1054F00040F001008DF80000280705D49DF8000059
:1055000040F038008DF8000020686B460122817D54
:1055100060680078FFF7ACF910B1A6723846F8BDA4
:1055200025B1082D02D00020FFF706FFA5722675D1
:105530003220FBF7D9FB0020F8BD0000140000204A
:10554000F8B516000D464FF0FF371FD0104CA17A6A
:10555000E1B1010A8DF80010C0B28DF801004119C7
:1055600060684289914211D8216800786B46C97EF3
:105570000222FFF77DF948B92068EAB23346017E7E
:1055800060680078FFF774F9002800D03846F8BD4D
:105590001400002010B588B0694604A8FFF748FD44
:1055A000072832D107A8FFF799FA0498FBF707F804
:1055B00007990C46FAF76EFEFBF70FF80490059872
:1055C000FAF7FDFF2146FAF765FEFBF706F80590AE
:1055D0000698FAF7F4FF2146FAF75CFEFAF7FDFFAA
:1055E000069004A8FEF7D4FC03A8FFF73BFABDF829
:1055F0000C000099414300910199414301910299A6
:10560000414368460291FEF725FC08B010BD00003A
:10561000F8B5144C0146224694F82460D2E9000201
:1056200000235D1E56B179B1022111E0417C107852
:105630006B460122FFF71CF968B90EE0A67A56B155
:1056400011B1617C61B902E08DF80030EEE7012113
:105650008DF80010EAE72846F8BD9DF80000607458
:105660000020F8BD140000202DE9F04106460F4649
:10567000FBF7D4F9041E0D4618BF0120284320F083
:105680000040C0F17F6000F1E040C00F0ED0301C40
:1056900018BF0120384320F00040C0F17F6000F1C6
:1056A000E040C00F04BF0120FDF738FA204629462C
:1056B000BDE8F08175191A0C6A231B1C00001F201D
:1056C0007274433B4138393A006B6C376F06246D76
:1056D0006E706800000476005401F7FD00010000C0
:1056E00083000000000800000001001832000500DF
:1056F000000020410000D242295C0F3E9A99993E59
:105700003333733F295C0F3E00007000000000241B
:10571000000000020003000000650054FFEF0000DD
:10572000FA80000B12820001030C30C30E8C8CE94E
:1057300014D5400213710F8E3883F8833000F8833C
:10574000258EF8833000F883FFFFFFFF0FFEA9D6F8
:10575000240004001A8279A10000003CFFFF000031
:105760000010000038836FA2003E033040000000AC
:1057700002CAE3093E800000200000000000000093
:105780004000000060000000000C0000000C186EDB
:10579000000006920A16C0DFFFFF0256FD8CD37789
:1057A000FFE1C496E0C5BEAA00000000FFFF0B2B7E
:1057B00000001657000003594000000000001DFAC9
:1057C00000026C1D000000003FFFDFEB003EB3B69F
:1057D000000D227800002F3C00000000001942B5A7
:1057E000000039A20000B365D90E9FC91DCF4C340B
:1057F00030000000500000003BB67AE80064000072
:1058000000C8000000000000100000001000FA9224
:105810001000225E000D229F0001000000320000F7
:10582000FF46000063D400001000000004D6000012
:1058300004CC000004CC0000000010720000004006
:105840000000000000000000000600020005000744
:1058500000000000006400000000000000000005DF
:1058600000050064002000000000000000000000AF
:10587000000040000000030000000032F898000023
:10588000FF650000830F0000FF9BFC00000000008C
:105890000000000000000000000000000000000008
:1058A00000000000000000000000000000000000F8
:1058B0000000000000001000400000000000000692
:1058C0000000B26A000200000001FB8300680000D3
:1058D00000D9FC007CF1FF8300000000006500009F
:1058E000006403E8006400280000002500000000B8
:1058F00016A000000000100000001000002F0000A3
:10590000000001F40000100000280000FFFF4581A6
:10591000FFFFFA72000000000000000000440005D4
:105920000005BAC6004778A2000000010000000090
:1059300000000600000000140000254D002F706DCF
:10594000000005AE000C02D00000000000000000C6
:105950000000000000000000001B0000000000002C
:1059600000000000000000000064000000080000CB
:105970000000000000000000000000000000000027
:105980000000000000000000000000000000000017
:105990000000000000000000000000000000000007
:1059A00000000000000000000000000000000000F7
:1059B00000000000000000000000000000000000E7
:1059C0000000000000000000001B000000000000BC
:1059D00000000000000E000E00000AC700040000D6
:1059E00000000032FFFFFF9C00000B2B00000002B4
:1059F0000000000100000064FFE50000000000005E
:105A00000000000000000000000000010000000095
:105A10000001000000000000000180000001800083
:105A200000018000002426D30000000000000000D8
:105A3000000600100096003C00000000000000007E
:105A400000000000000000000C0A4E68CDCF77096E
:105A500050166759C619CE820000000000000000F1
:105A60000000000000000000000000000000000036
:105A700017D78400030000000000000000000000B1
:105A8000C7938F9D1E1B1C19000000000000000022
:105A90000000000000000000000000000000000006
:105AA000020318850000400000000003000000030E
:105AB00000000000000000004000000000000000A6
:105AC00000000000000000000000000000000000D6
:105AD00000000000000000000000000000000000C6
