:020000040800F2
:10000000C8060020ED010008A53B0008D13100081A
:10001000E53A000831120008814D00080000000098
:10002000000000000000000000000000EF3D00089C
:100030008912000800000000ED3D0008F13D0008B5
:10004000070200080702000807020008070200086C
:10005000070200080702000807020008070200085C
:10006000070200080702000807020008070200084C
:10007000070200080702000807020008070200083C
:10008000070200080000000007020008070200083D
:10009000070200080702000807020008070200081C
:1000A000070200080702000807020008070200080C
:1000B00007020008070200080702000807020008FC
:1000C00007020008070200080702000807020008EC
:1000D00007020008754D0008070200080702000823
:1000E00007020008070200080702000807020008CC
:1000F00007020008070200080702000800000000CD
:1001000000000000070200080000000007020008CD
:1001100007020008000000000702000807020008AC
:10012000070200080702000807020008070200088B
:10013000070200080000000000000000070200089D
:10014000070200080702000800000000000000008D
:10015000000000000000000000000000000000009F
:10016000000000000000000000000000070200087E
:10017000070200080000000000000000000000006E
:10018000000000000702000800000000000000005E
:10019000000000000000000000000000000000005F
:1001A000000000000000000007020008070200082D
:1001B000070200080702000807020008000000000C
:1001C000000000000702000800000000000000001E
:1001D0000702000807020008DFF80CD000F0CAFC94
:1001E00000480047D5570008C80600200648804749
:1001F00006480047FEE7FEE7FEE7FEE7FEE7FEE70C
:10020000FEE7FEE7FEE7FEE75D3E0008D9010008D5
:100210002DE9F05F0546002092469B46884606463B
:10022000814640241BE0284641464746224600F0CE
:100230004FFA53465A46C01A914110D311461846F8
:10024000224600F036FA2D1A67EB01084F46224687
:100250000120002100F02DFA17EB00094E41201E6D
:10026000A4F10104DFDC484631462A464346BDE896
:10027000F09F40EA01039B0703D009E008C9121F61
:1002800008C0042AFAD203E011F8013B00F8013B50
:10029000521EF9D27047D2B201E000F8012B491E7C
:1002A000FBD270470022F6E710B513460A46044613
:1002B0001946FFF7F0FF204610BD00000FB400B54F
:1002C0008DB010A909900B9000914FF0FF300A906B
:1002D00000200C9005480690054807906A4609A83A
:1002E0000F9900F00BFA0DB05DF814FB1907000828
:1002F000370700082DE9FF4F087883B09946FF289B
:1003000005D0491C2D2804D00024002008E000203E
:100310000BE00124F9E700EB800003EB4000491CEF
:100320000B78FF2BF7D104B14042002302931478DD
:1003300019461D462D2C01D02B2C04D1521C2D2CDE
:1003400013D000240294AA461478FF2C0FD00A255B
:10035000A3FB057801FB05814FF0000C03FB0C119A
:10036000521CE3194AEB0101EEE70124EAE781445C
:1003700053EA010002D019F5C87F06DA039800217C
:10038000C0E9001107B0BDE8F08F0025AE4E2F4642
:10039000DFF8B882184600F0E1FBCDE90001B9F1C1
:1003A000000002DAC9F1000400E004460023A74A75
:1003B0001AEB030B42EB045A12E0E00707D02A467F
:1003C00033463846414600F0A5FA074688462A4695
:1003D00033461046194600F09DFA05460E46641055
:1003E000002CEAD1DDE90001B9F1000F5A4653466D
:1003F00006DA00F001FB3A46434600F0FDFA05E05C
:1004000000F088FA3A46434600F084FA029A0AB1AC
:1004100081F00041039AC2E90001B3E72DE9FF4FE3
:100420001F468DB0D7E901464FF0FF382E204546D4
:100430004FF000090B90B9696D1C0E988847396A16
:10044000824688470028F6D1BAF1FF3F0AD024F44B
:10045000D064002E11DDBAF12B0F08D0BAF12D0FA8
:100460000BD102E0404611B08DE744F48064B969D5
:100470006D1C0E9888478246761E6946600501D538
:100480002D2000E02B208DF8000001F1010B0DF173
:10049000200809E0B9696D1C0E98884782460F98BC
:1004A00044F40074761E0560002E02DDBAF1300FB0
:1004B000F0D00B998A453ED144F0800406E00F99B4
:1004C000681CA9F1010944F400740860B9696D1C45
:1004D000761E0E98884782463028F0D02BE00B9984
:1004E0008A4505D1200603D444F08004761E18E026
:1004F000504605F01FF908B30DF11301761E44F4C0
:1005000000748B4508D2AAF130000BF8010B2006CD
:1005100007D5A9F1010003E0200602D409F101008A
:100520008146A00502D50F99681C0860B9696D1C49
:100530000E9888478246002ED1DC53E0002E51DD14
:10054000BAF1650F02D0BAF1450F4BD1A00549D5DC
:10055000B9696D1C24F44074761E0E988847824653
:10056000002E0CDD2B2804D0BAF12D0F07D144F456
:100570008074B9696D1C0E9888478246761EE00526
:1005800001D52D2100E02B2108F8011BCDF82C808E
:1005900021E00DF12901761E44F4007488450CD247
:1005A000AAF1300010F0FF0088F8000002D10B998A
:1005B000884509D908F1010806E0E00501D524487D
:1005C00001E042F20F708146B9696D1C0E988847B0
:1005D00082460F980560002E04DD504605F0AAF80B
:1005E0000028D6D1F9690E988847FF208BF80000C3
:1005F00088F800000020069007904B466A4608A93C
:1006000006A8FFF777FEA00502D46FF001002AE7E5
:1006100014F0240F0AD0E00714D1DDE9061238687F
:10062000031D3B600068C0E900120BE0DDE9060134
:1006300000F023F80146E00704D13868021D3A6053
:100640000068016028460EE7000014400000F03FFB
:10065000F1D8FFFF00F0004230F000400AD0C10D99
:1006600001F56071C0F3160042EA0151C20840076B
:100670001143704700200146704701F0004330B439
:1006800021F0004150EA010206D00A0DA2F5607285
:10069000C1F31301002A02DC30BC00207047440F74
:1006A00044EAC104C100E01830BC00EBC25000F0C5
:1006B00053B8202A04DB203A00FA02F100207047E8
:1006C0009140C2F1200320FA03F319439040704790
:1006D000202A04DB203A21FA02F00021704721FA97
:1006E00002F3D040C2F120029140084319467047FE
:1006F000026811441378016018467047D1600449BC
:1007000051610449116200211161114600F05CBA87
:10071000F1060008BD0B0008426842B1016811F8FB
:10072000013B23B1521EC0E9001218467047012157
:10073000C160881E704742685AB1C368016843B9F6
:1007400083688B4205D0491E521CC0E9001200206C
:1007500070474FF0FF3070470029A8BF7047401C1A
:10076000490008BF20F00100704710B4B0FA80FCC7
:1007700000FA0CF050EA010404BF10BC704749B104
:10078000CCF1200421FA04F411FA0CF118BF012174
:1007900021430843A3EB0C01CB1D4FEA00614FEA54
:1007A000102042BF002010BC704700EBC350104423
:1007B0000029A4BF10BC7047401C490008BF20F0AE
:1007C000010010BC70472DE9FE4F804681EA03000E
:1007D000C00F0C46009021F0004123F00045B8EB1B
:1007E0000200A94105D24046214690461C460B46D0
:1007F000024623F00040104347D0270DC7F30A00FC
:10080000C3F30A510290401A019040286BDAC3F3F7
:10081000130040F4801B0098924620B10023D2EBD5
:10082000030A63EB0B0B01985946C0F14002504696
:10083000FFF73FFF06460D4650465946019A00F025
:10084000ABF910EB08006141002487EA115284EAF9
:10085000E7731A4340D0009A62B3019A012A4FEA23
:10086000075215DC001B61EB02014FF0004202EA67
:100870000752CDE90042001C41F5801132462B465B
:1008800000F047FB03B0BDE8F08F40462146F9E792
:10089000001B61EB0201001C41F5801300185B4155
:1008A0002018A2F5001747EB030140EAD570B619EE
:1008B0006D4111E06D084FEA360645EAC0754FEA12
:1008C0000752001B61EB0201001C41F58011490831
:1008D0004FEA30000019514132462B4603B0BDE8C3
:1008E000F04F00F007BB0098012240000023D0EB3E
:1008F000020263EBE073009821464FEAE074B8EB24
:10090000000061EB0401E9E783F000435BE781F05D
:10091000004158E72DE9FE4F81EA030404F000444A
:1009200021F0004100944FF0000B23F0004350EA07
:1009300001045ED052EA03045BD0C3F30A54C1F34E
:100940000A552C44A4F2F3340194A0FB0254C1F3E1
:10095000130141F48011C3F3130343F4801301FB2B
:10096000024400FB034E840A970A44EA815447EA92
:100970008357A4FB076802958D0A05FB07854FEA9C
:10098000932C04FB0C542705029D4FEA065847EAB6
:100990001637B5EB08056EEB070C870E920E47EA8B
:1009A000811742EA8312A7FB0201B6EB0B0164EB4D
:1009B00000042B0D43EA0C335E1844EB1C50DA465E
:1009C0005146E7FB0201C5F313044FEA0B3343EA38
:1009D00014534FEA0432019C43EA0603A4F10C04C9
:1009E0000294009CCDE900B400F093FA03B0BDE896
:1009F000F08F00200146F9E72DE9F04D81EA03046C
:100A000004F0004B21F0004514464FF0000A23F09B
:100A1000004150EA050220D054EA01021DD0C5F37E
:100A20000A570246C5F31303C1F31300C1F30A5674
:100A300040F4801543F48013A7EB0608101BD6463C
:100A400008F2FD3873EB050002D308F1010801E05C
:100A500092185B41B8F1000F03DA00200146BDE8AF
:100A6000F08D00204FF48011064684460EE0171BDF
:100A700073EB050705D3121B63EB050306434CEA32
:100A8000010C49084FEA300092185B4150EA010717
:100A9000EDD152EA030012D082EA040083EA050194
:100AA000084305D0101BAB4106D20122002306E00B
:100AB00000224FF0004302E06FF0010253101AEBE6
:100AC00006004CEB085110EB0A0041EB0B01BDE8AE
:100AD000F04D00F00FBA2DE9FE4FC3F30A5701F0B5
:100AE00000450024C1F30A56C3F31303C1F31301F5
:100AF00043F4801312EB020AA64641F480110095DC
:100B000043EB030CA7F1010B16E0B0EB0A0061EB1D
:100B10000C01071E71F1000707DA4FF00008D0EB57
:100B2000080085F0004568EB0101171A73EB010717
:100B3000EBD3761E001849415E45F6DA50EA010211
:100B400009D0CDE900E500221346029600F0E1F954
:100B500003B0BDE8F08F20460099F9E70EB540F2EA
:100B6000334202920022CDE90022134600F0D1F96F
:100B700003B000BD064C074D06E0E06840F00103FD
:100B800094E8070098471034AC42F6D3FFF728FBEF
:100B9000985A0008B85A0008202A06DBCB17203ADA
:100BA00041FA02F043EAE07306E041FA02F3D04072
:100BB000C2F120029140084319467047C0B24FF479
:100BC000F05100F0F5B900002DE9F34F8BB04FF074
:100BD000000801F10C000C464FF0010B46460DF1E8
:100BE000080A01906269012101989047051E2DD0E5
:100BF000252D2CD0216A8847C0B162690121019856
:100C00009047216A88470028F7D1411E6269019800
:100C1000904700E0761CA1690B988847216A8847B5
:100C20000028F7D1E1690B988847DBE7A1690B98A9
:100C300088470746A84201D1761CD3E7E1690B98A3
:100C400088477F1C02D1B8F1000F6FD046E1002722
:100C500062693D463946019890472A2804D1626965
:100C60000121019890470125DFF8849262690121F2
:100C700001989047A0F130010A290AD24F45E5DCDE
:100C800007EB870100EB4107303FDFD445F010054B
:100C9000ECE7E90601D46FF000476C280AD04C2835
:100CA00014D0682815D06A280DD074281CD07A2852
:100CB0001AD01DE062690121019890476C2802D08A
:100CC00045F0040514E045F002050DE045F020056F
:100CD0000AE06269012101989047682802D045F036
:100CE000080505E045F40065626901210198904717
:100CF000C4E9015765283DD019DC58287AD00CDCAE
:100D0000452837D004DC252826D0412831D131E0D0
:100D100046282FD047282CD12CE05B2877D061289B
:100D200028D063287CD0642823D15AE0D0E06F28F3
:100D300048D008DC66281DD067281BD0692821D040
:100D40006E2816D127E0702845D0732868D0752802
:100D500047D078280DD14DE0A1690B98884705460A
:100D600025283FF469AFE1690B9888476D1C3FF473
:100D70006AAFB3E023466A466FF001000B99FFF7B4
:100D80004DFB9EE045F040006060A80723464FF011
:100D9000000236D43EE0E8077FF447AF2068011D2B
:100DA00021600068290501D506701BE7290701D5D8
:100DB000068017E7A90703D5F117C0E9006111E71D
:100DC00006600FE745F040006060A80723464FF03B
:100DD000080216D41EE040F60E0125EA010060600C
:100DE00016E045F040006060A80723464FF00A0275
:100DF00007D40FE045F040006060A80708D52346FF
:100E000010226FF001000B99AFF3008059E007E06A
:100E1000234610226FF001000B99AFF3008050E0E1
:100E20004FF000094F464B46632802D05B2806D09E
:100E300040E0E80601D40120A06001273AE06269A1
:100E40000121019890475E2805D14FF001096269A0
:100E5000494601989047216939B900210A4653460D
:100E600043F82120491C0829FADBB0B3216969B98C
:100E7000C11700EBD16253110AEB830122F01F026C
:100E8000821A01200B68904003430B6062690121C4
:100E9000019890475D28E8D1B9F1000F09D00020F2
:100EA000514651F82020D24341F82020401C082808
:100EB000F7DB02AB224600976FF001000B99AFF30E
:100EC000008000280CDA401C08D1BBF1000F05D0CF
:100ED0004FF0FF300DB0BDE8F08FFFE74046F9E777
:100EE000E90701D108F1010806444FF0000B79E64B
:100EF000CCCCCC0C10B5141E73F1000408DA401CE5
:100F000041F1000192185B411A4301D120F0010028
:100F100010BD2DE9F04D92469B4611B1B1FA81F218
:100F200002E0B0FA80F220329046FFF7C2FB04469E
:100F30000F4640EA0A0041EA0B0153465A4608436D
:100F400013D0114653EA010019D0C8F140025046AF
:100F5000FFF7BEFB05460E46504659464246FFF790
:100F6000A8FB084305D0012004E020463946BDE82F
:100F7000F08D0020054346EAE0762C4337430A987B
:100F80006305E40AA0EB08000022FD0A44EA475486
:100F90000A3002D500200146E9E701051019694130
:100FA000DDE9084500196941BDE8F04DA2E7000000
:100FB0007F2801D9002208E0064A02EB5002C00750
:100FC000127800D1120902F00F020120904008406F
:100FD00070470000585A00081FB50A23022203A9CF
:100FE0008DE80E00006801230C226C2100F0D0FB7C
:100FF00010B1BFEE000A1FBDBDF80C00DFED060A00
:1010000040BA00EE100AB8EE400A20EE200ADFEDEA
:10101000030A20EE200A1FBDDB0FC9400000803903
:101020009FED030A016080ED010A00218160704795
:1010300000000000012208214FF0904000F0D6BAD5
:1010400010B5FCEEC00A0446016010EE900AA080C4
:10105000084684ED020A002101F0BAFC0421206850
:1010600001F0B6FC2068BDE81040082101F0B0BCDA
:1010700070B505462DED048BF0EE408A90ED021A16
:10108000B4EEE81AF1EE10FA01D2F0EE418AB1EEB8
:10109000410AB4EEE80AF1EE10FA01DDF0EE408A02
:1010A00010EE900AFFF7D6FA41EC100B9FED5A1B99
:1010B00004F0F0F851EC100BFFF7DFFA00EE100A25
:1010C000B5EEC00AF1EE10FA03D2DFED550A30EEAC
:1010D000200A9FED541AC0EE010AB0EE409AFDEED0
:1010E000E00A10EE904AF0EE400A641C01EE904ACD
:1010F000601EF8EEE11A51EE810A01EE900AF8EE58
:10110000E11AB0EE600A01EEC19A04F045F9A88830
:1011100060EE280A00EE100AB8EE400A80EE808ADF
:10112000B0EE490A04F038F9A88860EE280A00EE0B
:10113000100AF6EE001A072CB8EE400A80EE802A5C
:10114000B7EE000A30EE480A30EE421A3AD2DFE833
:1011500004F039040B161D27300078EE020AB0EEB9
:10116000420A41EE210A05E0F0EE480A38EE020A92
:1011700041EE210A21EE212A01EE210A28E038EE73
:10118000020A61EE210A01EE210A06E0B0EE480AE9
:1011900061EE210A01EE210A08E001EE212A17E0A2
:1011A000F0EE420A21EE210A41EE210A38EE022A2F
:1011B000F3E778EE020A21EE210AB0EE482A41EE6A
:1011C000210AEAE79FED180AF0EE400AB0EE402A45
:1011D0009FED161A296860EE810A0968FCEEE00AA4
:1011E00010EE900A80B2486320EE010A2968BCEE36
:1011F000C00A096810EE100A80B2886322EE010A64
:101200002968BCEEC00A096810EE100A80B2C863F3
:10121000BDEC048B70BD000000000060FB21194094
:10122000DB0FC940920A863F0000000000F06045D5
:10123000FEE700000FB49DED010AB5EEC00AF1EE25
:1012400010FA1AD310EE101A0E48814215DC9DEDEB
:10125000020AB5EEC00AF1EE10FA0ED310EE101A23
:1012600081420ADC9DED030AB5EEC00AF1EE10FAE8
:1012700003D310EE101A814202DD002004B0704743
:101280000120FBE700003443704772B6FEE710B55B
:1012900090F8253000210122022B03D00421C163E4
:1012A000012122E003681C6824F00E041C60836C9A
:1012B0001C6824F480741C6003681C6824F001041A
:1012C0001C6090F84430046C03F01F0302FA03F32F
:1012D0006360D0E913345C60436D33B11C6824F45F
:1012E00080741C60D0E916345C6080F825200022F0
:1012F00080F82420084610BD70B590F82520002401
:1013000001212346022A07D00422C26380F8251057
:1013100080F82430012429E00268156825F00E05C4
:1013200015600268156825F001051560826C156866
:1013300025F48075156090F84420056C02F01F02BA
:1013400001FA02F26A60D0E913255560426D32B1AC
:10135000156825F480751560D0E91625556080F86C
:10136000251080F82430816B01B18847204670BD7C
:1013700070B5044600F040F90546601C02D00448F0
:101380004068044400F038F9401BA042FAD370BD15
:10139000240000202DE9F04FDFF8209200230126E1
:1013A0000324A9F1040B85B00F2709F1040AABF15E
:1013B000040EFAE006FA03F52A407CD091F804C046
:1013C0000CF0030CBCF1010F02D0BCF1020F26D1CE
:1013D000D0F808C0CDF800C04FEA430C04FA0CF86E
:1013E000CDF810C0DDF800C02CEA080CCDF800C024
:1013F000D1F80C80DDF810C008FA0CF8DDF800C058
:1014000048EA0C08C0F80880D0F804C02CEA050CA3
:101410000D79C5F300159D4045EA0C0545600D7931
:10142000ED43AD070ED0C5684FEA430804FA08FC47
:1014300025EA0C05D1F808C00CFA08FC4CEA050CAA
:10144000C0F80CC00D7905F00305022D16D1DD089A
:1014500000EB850CCDF808C0DCF820805D074FEA72
:10146000D56C07FA0CF528EA05080D6905FA0CF5A4
:10147000DDF808C045EA0805CCF8205005684FEAB9
:10148000430CCDF808C004FA0CFC25EA0C0591F8D1
:1014900004C00CF00308DDF808C008FA0CF848EAAC
:1014A0000508C0F800804D6815F4403F7CD0444DDD
:1014B000D5F860C000E077E04CF0010CC5F860C0E2
:1014C0002D6E23F0030C05F0010500953D4D65449C
:1014D0000295AD684FEA837C4FEA1C7807FA08FC56
:1014E00025EA0C05B0F1904F06D0DFF8DCC060456E
:1014F00005D14FF0010C20E04FF0000C1DE0DFF8AB
:10150000CCC0604502D14FF0020C16E0DFF8C0C03D
:10151000604502D14FF0030C0FE0DFF8B8C0604522
:1015200002D14FF0040C08E0DFF8ACC0604502D1F6
:101530004FF0050C01E04FF0060C0CFA08FC4CEAE9
:10154000050C029DC5F808C0D9F80050CC46D1F86A
:10155000048095435FEAC82800D51543CCF80050B5
:10156000DAF80050D446D1F8048095435FEA882821
:1015700000D51543CCF80050DBF80050DC46D1F81C
:10158000048095435FEA883800D51543CCF80050B5
:10159000DEF80050F446D1F8048095435FEAC8387D
:1015A00000D51543CCF800505B1C0A6832FA03F5ED
:1015B0007FF400AF05B0BDE8F08F000008040140E3
:1015C00000100240000001400004004800080048EC
:1015D000000C00480010004800140048426921EA4D
:1015E00002030A4043EA0241816170470AB1816106
:1015F00070478162704700000148806870470000B2
:101600002400002090F84120202A24D190F8402086
:10161000012A20D0012280F84020242280F8412095
:101620000268136823F0010313600268136823F44F
:1016300080531360026813680B43136001680A68E3
:1016400042F001020A60202180F84110002180F858
:101650004010084670470220704790F84120202A29
:1016600022D190F84020012A1ED0012280F840208B
:10167000242280F841200268136823F001031360DC
:101680000268136823F4706343EA01211160016862
:101690000A6842F001020A60202180F8411000210E
:1016A00080F840100846704702207047074908B587
:1016B0000A6E42F001020A66096E01F00101009112
:1016C00003494A6802434A6008BD00000010024016
:1016D0000000014070B5040004D094F841000025DA
:1016E00010B106E0012070BD84F84050204600F0A3
:1016F000ADF9242084F841002068016821F001013F
:1017000001606068216820F070600861206881686D
:1017100021F400418160E0680128A06830D040F4E5
:10172000044021688860E0680228206841682AD067
:1017300021F40061416020684168144A114341600E
:101740002068C16821F40041C160D4E90401084364
:10175000A16940EA01202168C860D4E90701084373
:10176000216808602068016841F00101016065643A
:10177000202084F84100256384F84250002070BD89
:1017800040F40040CDE741F40061D3E7008000025F
:101790002DE9FF4F83B00446DDE9108790F8410042
:1017A000DDF848909A469346202874D15FEA0800F5
:1017B00014D09FB194F8400001286CD0012084F827
:1017C0004000FFF719FF0646012200901923D103BC
:1017D000204601F011FE002871D103E04FF40070A3
:1017E00060646CE0222084F84100402084F84200CC
:1017F00000256564C4F8248067856563CDE900969B
:1018000053465A462046049901F07AFD10B184F8F7
:10181000405054E0618D3548FF274FF080784FF0FD
:10182000007AFF2904D927853A464346009005E00F
:10183000618D2185009094F8282053462046049914
:1018400001F0C2FD4B46002204212046009601F023
:10185000D3FDA0BB2068406A616A0870606A401CC2
:101860006062208D401E81B22185608D401E6085A2
:10187000608DD8B1D1B94B46002280212046009618
:1018800001F0BAFDD8B9608DFF2805D927853A4601
:101890004346009506E026E0608D2085009594F88B
:1018A000282053462046049901F08EFD608D0028C3
:1018B000C8D132464946204601F0DBFD18B101206F
:1018C00007B0BDE8F08F21682020C86121684A6810
:1018D000074B1A404A6084F8410084F8425084F86B
:1018E00040500020ECE70220EAE7000000240080DE
:1018F00000E800FE2DE9FF4F83B00446DDE91087C4
:1019000090F84100DDF848909A469346202871D11E
:101910005FEA080014D09FB194F84000012869D014
:10192000012084F84000FFF767FE06460122009080
:101930001923D103204601F05FFD00286ED103E09A
:101940004FF40070606469E0212084F84100402079
:1019500084F8420000256564C4F8248067856563C7
:10196000CDE9009653465A462046049901F0FAFC08
:1019700010B184F8405051E0608DFF274FF080781F
:101980004FF0007AFF2804D927853A464346009550
:1019900005E0608D2085009594F828205346204668
:1019A000049901F011FD32464946204601F08CFDB4
:1019B000A0BB606A216800788862606A401C60622F
:1019C000608D401E6085208D401E80B22085618D17
:1019D000D9B1D0B94B46002280212046009601F0B3
:1019E0000BFDD8B9608DFF2805D927853A464346B7
:1019F000009506E026E0608D2085009594F828206B
:101A000053462046049901F0DFFC608D0028CAD1BE
:101A100032464946204601F02CFD18B1012007B09E
:101A2000BDE8F08F20682021C16120684268064B24
:101A30001A40426084F8411084F8425084F84050C3
:101A40000020ECE70220EAE700E800FE2DE9F04381
:101A500097B0044614216846FEF724FC442105A8EB
:101A6000FEF720FC3F4920683F4C12260427002542
:101A70004FF090494FF08008884236D140200590C1
:101A80000B9505A800F070F908B1FFF7FEFBE06CBC
:101A900040F00100E064E06C00F001001690E06CA2
:101AA00040F00200E064E06C02AA00F00200169030
:101AB0004FF40040CDE90006012082E8A10069460C
:101AC0004846FFF767FCCDF80080CDE90165CDE918
:101AD000035769462548FFF75DFCA06D40F40010F0
:101AE000A065A06D00F4001037E02149884235D18F
:101AF00005A8CDF814800C9500F036F908B1FFF771
:101B0000C4FBE06C40F00400E064E06C00F0040012
:101B10001690E06C40F00100E064E06C694600F073
:101B20000100169010200090CDE90165CDE9035722
:101B30001048FFF72FFC4FF480700090CDE901654D
:101B4000CDE9035769464846FFF724FCA06D40F4F1
:101B50008000A065A06D00F48000169017B0BDE86D
:101B6000F0830000005400400010024000040048D0
:101B7000005800400008004802488168426811444B
:101B8000816070472400002010B50024032000F07D
:101B900073F80F2000F008F808B1012401E000F00C
:101BA00025F8204610BD000070B50E4E05460024F5
:101BB000706898B14FF47A71B1FBF0F00A49096886
:101BC000B1FBF0F000F05EFD40B9102D06D200220E
:101BD0002946501E00F030F8356000E00124204610
:101BE00070BD000024000020300000200A4882B0B0
:101BF000016E41F001010166016E01F001010091E9
:101C0000816D41F080518165806D00F080500090C1
:101C100002B000F0A1B8000000100240002809DB6B
:101C200000F01F02012191404009800000F1E020F6
:101C3000C0F8001170470000F0B40E4B1B680C4652
:101C4000C3F30223C3F10705042D00D90425191D90
:101C5000072901D2002300E0DB1E012606FA05F168
:101C6000491E214099409E40761E16403143F0BCEB
:101C700003F0A3B80CED00E0064900F00702086885
:101C80004FF6FF03184040EA0220034A1043086061
:101C9000704700000CED00E00000FA052B492C4BCA
:101CA0000A6832214A432B4940B1B0F5007F0868E9
:101CB00029D020F4C06040F480602CE00868C0F3B4
:101CC0004120022804D051F8800F20F4807022E0D7
:101CD000D1F8800020F48070C1F88000086820F4FA
:101CE000C06040F400700860B2FBF3F0401C00E0FC
:101CF000401E4A69520501D50028F9D148694005BE
:101D00000AD503207047C0F34120022806D051F8BD
:101D1000800F40F48070086000207047D1F8800088
:101D200040F48070C1F88000086820F4C06040F47E
:101D300000700860B2FBF3F0401C00E0401E4A69EE
:101D40005205DBD50028F9D1D8E70000300000208B
:101D500040420F00007000400248816841F4804119
:101D600081607047007000402DE9F8430446006828
:101D700000269D4D00035ED5A86D0027C00008D445
:101D8000A86D40F08050A865A86D012700F0805034
:101D90000090DFF85892D9F8001041F48071C9F82A
:101DA0000010FFF729FC804606E000BFFFF724FC87
:101DB000A0EB080002282BD8D9F80000C005F5D503
:101DC000D5F8900010F4407014D0216C814211D0ED
:101DD000D5F89000D5F8901020F4407041F480318F
:101DE000C5F89010D5F8901021F48031C5F8901006
:101DF000C5F89000C00711D0FFF7FEFB804641F206
:101E0000883907E0FFF7F8FBA0EB0801494501D945
:101E100003260BE0D5F890008007F3D5D5F89000A5
:101E2000216C20F440700843C5F890001FB1A86DE4
:101E300020F08050A8652078C00707D0D5F888002A
:101E4000616820F003000843C5F888002078800707
:101E500007D5D5F88800A16820F00C000843C5F824
:101E600088002078400707D5D5F88800E16820F081
:101E700030000843C5F888002078000707D5D5F85A
:101E80008800216920F0C0000843C5F88800207848
:101E9000800607D5D5F88800616920F440600843C2
:101EA000C5F888002078400607D5D5F88800A169D4
:101EB00020F440500843C5F888002078000607D574
:101EC000D5F88800E16920F440400843C5F888004F
:101ED0002088C00507D5D5F88800216A20F4403055
:101EE0000843C5F888002088800507D5D5F8880004
:101EF000616A20F440200843C5F888002088400526
:101F00000FD5D5F88800A16A20F440100843C5F821
:101F10008800A06AB0F5801F03D1E86840F4801003
:101F2000E860208800050FD5D5F88800E16A20F424
:101F300040000843C5F88800E06AB0F5800F03D17F
:101F4000E86840F48010E8602088C0040FD5D5F818
:101F50008800216B20F040700843C5F88800206B92
:101F6000B0F1807F03D1E86840F48010E8602088F9
:101F70004FF0006180040ED5D5F88800626B20F028
:101F800040601043C5F88800606B884203D1E86860
:101F900040F48010E860208840040ED5D5F8880011
:101FA000A26B20F040601043C5F88800A06B884207
:101FB00003D1E86840F48010E860208800040FD561
:101FC000D5F88800E16B20F040500843C5F8880040
:101FD000E06BB0F1805F03D1E86840F48030E860E6
:101FE0003046BDE8F8830000001002400070004059
:101FF0002DE9F0470E4605004FF0000725D0DFF829
:10200000AC81D8F8000000F00F00B0420CD2D8F834
:10201000001021F00F013143C8F80010D8F800007B
:1020200000F00F00B04210D12968614CC80741F29E
:10203000883A5AD06868DFF87C91032808D00228D3
:1020400020682DD0400500282CDB0120BDE8F0875A
:1020500020688001F9D5E06800F00302E068C0F371
:102060000310401C032A19D0534A00BFB2FBF0F002
:10207000E268C2F306225043E268C2F34162521C96
:102080005200B0FBF2F0484517D9A06810F0F00FED
:102090000CD0880711D5A86840B10EE0474AE5E7A3
:1020A0008003D0E700F0B6F8484506D9A06820F0D4
:1020B000F00040F08000A0608027A068696820F0F0
:1020C00003000843A060FFF797FA814606E000BFCF
:1020D000FFF792FAA0EB090151453AD8A068696868
:1020E00000F00C00B0EB810FF2D12868810714D505
:1020F000400703D5A06840F4E060A060287800079E
:1021000005D5A06820F4605040F4E060A060A068AD
:10211000A96820F0F000084304E0802F03D1A068F4
:1021200020F0F000A060D8F80010404601F00F0148
:10213000B14216D9016821F00F0131430160FFF768
:102140005BFA074607E000BFFFF756FAC11B51458F
:1021500001D903207AE7D8F8000000F00F00B04260
:10216000F2D12878400705D5A068E96820F4E0603E
:102170000843A0602878000706D5A068296920F4E4
:10218000605040EAC100A06000F044F8A1680C4A29
:10219000C1F30311515C01F01F01C84009490860F7
:1021A00009480068BDE8F047FFF7FEBC0020024088
:1021B0000010024000B4C4040024F40000127A00AD
:1021C0001E5A00083000002024000020054806495F
:1021D00000688968054AC1F30221515C01F01F01C2
:1021E000C840704730000020001002402E5A0008FE
:1021F0000548064900688968054AC1F3C221515C57
:1022000001F01F01C840704730000020001002405C
:102210002E5A0008184910B58868C0F38102174883
:10222000012A0BD08A684310C2F38102022A06D029
:102230008A68C2F38102032A03D0002010BD184629
:1022400010BDCA6802F00304CA68C2F30312521C2C
:10225000032C02D0B0FBF2F001E0B3FBF2F0CA684D
:10226000C968C2F306225043C1F34161491C4900C9
:10227000B0FBF1F010BD0000001002400024F4009B
:102280002DE9F84304007AD02078F84DC00747D0F4
:10229000A868E96800F00C0001F003010C2802D0E6
:1022A000082817D001E0032914D06068B0F5803FFA
:1022B00017D0B0F5A02F286817D020F48030286000
:1022C000286820F4802028606068E0B1FFF794F966
:1022D000064614E02868800322D560680028D2D022
:1022E0001EE0286840F48030EDE740F4802028604C
:1022F000F7E700BFFFF780F9801B642870D82868D3
:102300008003F7D50CE0FFF777F9064605E000BF3C
:10231000FFF772F9801B6428F0D828688003F7D48F
:10232000207880074CD5A868E96800F00C0001F01F
:1023300003010C2802D004280DD001E002290AD0A4
:10234000E068002828682BD040F480702860FFF7F0
:1023500053F9064619E02868400502D5E0680028D0
:1023600091D06868217C20F0FE4040EA01606860FE
:10237000BF480068FFF718FC002800D120E072E198
:10238000FFF73AF9801B0228B8D828684005F7D52E
:102390006868217C20F0FE4040EA016068600FE040
:1023A00020F480702860FFF727F9064605E000BF9B
:1023B000FFF722F9801B0228A0D828684005F7D42F
:1023C0002078000729D560690028D5F8940013D03B
:1023D00040F00100C5F89400FFF70EF9064606E04C
:1023E00090E000BFFFF708F9801B022886D8D5F8D7
:1023F00094008007F6D510E020F00100C5F89400A5
:10240000FFF7FAF8064604E0FFF7F6F8801B02280B
:1024100078D8D5F894008007F6D42078400761D5A5
:10242000A86D0026C00008D4A86D40F08050A865B3
:10243000A86D012600F0805000908E480168C90503
:1024400011D40168804641F480710160FFF7D4F82F
:10245000074604E0FFF7D0F8C01B022852D8D8F88E
:102460000000C005F6D5A068012815D00528D5F8CC
:10247000900016D020F00100C5F89000D5F890002B
:1024800020F00400C5F89000A06841F28838B8B187
:10249000FFF7B2F807460EE0D5F8900040F00100D3
:1024A000F0E740F00400C5F89000F5E7FFF7A4F866
:1024B000C11B414526D8D5F890008007F6D50CE021
:1024C000FFF79AF8074604E0FFF796F8C11B41456D
:1024D00018D8D5F890008007F6D41EB1A86D20F06A
:1024E0008050A8652078800629D5A0690028D5F8F5
:1024F000980013D040F00100C5F89800FFF77CF871
:10250000064606E075E000BFFFF776F8801B02285C
:102510006FD8D5F898008007F6D510E020F00100BC
:10252000C5F89800FFF768F8064604E0FFF764F87E
:10253000801B02285DD8D5F898008007F6D4E069A2
:10254000F0B3A968C1F3810103295DD0022828688E
:1025500020F08070286003D0FFF74EF804464BE06F
:10256000FFF74AF8064604E0FFF746F8801B02280A
:102570003FD828688001F7D4F4E908016FF00F0212
:1025800002EB01110843218A5204490802EB415130
:10259000A26841EA02210843217D4FF07E424908AA
:1025A00002EB41610843217B40EAC160E968324A9D
:1025B00011400843E860286840F08070286000E01F
:1025C0005EE0E86840F08070E860FFF715F80446C8
:1025D00005E000BFFFF710F8001B022809D82868A3
:1025E0008001F7D54CE000BFFFF706F8001B02287A
:1025F00002D90320BDE8F88328688001F4D4E86894
:102600001E490840E8603BE00128F3D0E868226AF0
:1026100000F00301914226D1616A00F0F002090145
:10262000103991421FD1A26A00F4FE41B1EB022F92
:1026300019D194F82C2000F07841B1EBC26F12D17F
:10264000218E00F4C00249084905A1F5001191420C
:1026500009D194F8341000F0C06049084906A1F18E
:10266000007181420CD00120C4E70000001002403C
:1026700024000020007000400C809F01FCFFEEFE53
:102680000020B7E710B5401EB0F1807F01D30120D4
:1026900010BD4FF0E02460610F21601702F08DFB48
:1026A0000020A06107202061002010BDF0B590F847
:1026B0003C20012A3AD0012580F83C50022280F8C3
:1026C0003D2003685A689C68194E1A4FB34201D0E6
:1026D000BB4204D122F4700C4A6842EA0C02DFF8D3
:1026E00058C002EA0C02D1F800C04CEA020CC3F850
:1026F00004C00268B2420DD0B2F1804F0AD00F4B35
:102700009A4207D00E4B9A4204D0BA4202D00D4BE7
:102710009A4204D1896824F080031943916080F8BB
:102720003D50002180F83C100846F0BD0220F0BD6D
:10273000002C0140003401408FFFFFFD00040040E9
:10274000000800400040014010B5040003D094F898
:102750003D0010B107E0012010BD002084F83C00CE
:10276000204600F023F8022084F83D00211D206857
:1027700001F07CFB012084F8480084F83E0084F8D6
:102780003F0084F8400084F8410084F8420084F857
:10279000430084F8440084F8450084F8460084F837
:1027A000470084F83D00002010BD000008B5006817
:1027B0000649884208D10648816D41F010018165C3
:1027C000806D00F01000009008BD00000010004077
:1027D0000010024010B586B0044614216846FDF78B
:1027E00061FD2068B0F1804F17D10D48C16C41F0F8
:1027F0000101C164C06C694600F00100059007202A
:1028000000900220019000200290032003900120FC
:1028100004904FF09040FEF7BDFD06B010BD0000E3
:102820000010024070B5044690F83C0000260D46AA
:1028300001280BD0012084F83C000C2A4AD007DC88
:1028400082B1042A20D0082A06D131E0022070BDCE
:10285000102A53D0142A63D00126002084F83C00AB
:10286000304670BD206801F06DFB2068816941F041
:10287000080181612068816921F00401816120687B
:1028800081692A69114311E0206801F0A9FB2068E1
:10289000816941F4006181612068816921F480616E
:1028A0008161206881692A6941EA02218161D4E756
:1028B000206801F0DDFB2068C16941F00801C161B9
:1028C0002068C16921F00401C1612068C1692A69D9
:1028D000114311E0206801F013FC2068C16941F444
:1028E0000061C1612068C16921F48061C161206813
:1028F000C1692A6941EA0221C161AEE7206801F09D
:1029000047FC2068016D41F0080101652068016DF8
:1029100021F0040101652068016D2A69114311E06D
:10292000206801F06DFC2068016D41F400610165D3
:102930002068016D21F4806101652068016D2A69BC
:1029400041EA0221016588E710B5040003D094F83C
:102950003D0010B107E0012010BD002084F83C00CC
:10296000204600F023F8022084F83D00211D206855
:1029700001F07CFA012084F8480084F83E0084F8D5
:102980003F0084F8400084F8410084F8420084F855
:10299000430084F8440084F8450084F8460084F835
:1029A000470084F83D00002010BD000008B5006815
:1029B000B0F1804F08D10548816D41F0010181657A
:1029C000806D00F00100009008BD00000010024082
:1029D00030B50446022269B1042912D0082917D063
:1029E0000C291CD0102921D094F84300012824D0B0
:1029F000012030BD94F83E000128F9D184F83E2032
:102A00001DE094F83F000128F2D184F83F2016E041
:102A100094F840000128EBD184F840200FE094F8AE
:102A200041000128E4D184F8412008E094F84200F4
:102A30000128DDD184F8422001E084F843200122FE
:102A4000206801F071FA194B20681949194A984217
:102A500009D0884207D0904205D0174DA84202D035
:102A6000164DA84203D1456C45F4004545642068E5
:102A700098420CD0B0F1804F09D0114B984206D04B
:102A8000104B984203D0884201D0904207D1816810
:102A90000D4A1140062906D0B1F5803F03D00168E8
:102AA00041F001010160002030BD0000002C014018
:102AB0000034014000400140004401400048014012
:102AC00000040040000800400700010090F8841056
:102AD000012918D0012180F884102421C0F8881021
:102AE00001680A680B6823F001030B6022F00051B3
:102AF00000224266036819602021C0F8881080F81F
:102B0000842010467047022070477047704770B5A8
:102B1000044690F8840001281DD0012084F8840028
:102B20002420C4F8880020680568026822F00102A9
:102B300002602068826822F060620A438260204658
:102B400001F096FB206805602020C4F88800002072
:102B500084F8840070BD022070BD70B5044690F802
:102B6000840001281DD0012084F884002420C4F8AA
:102B7000880020680568026822F00102026020686F
:102B8000826822F060420A438260204601F070FBB6
:102B9000206805602020C4F88800002084F88400A4
:102BA00070BD022070BD7047704770472DE9F0413D
:102BB00003680446D86919689A6840F60F052842E8
:102BC0004FF000054FF002060AD187067ED501F0CE
:102BD000200702F0805C57EA0C0777D0616F42E172
:102BE000B64FDFF8DCC2174001EA0C0C57EA0C0CB8
:102BF0006CD05FEAC07C0CD05FEAC15C09D54FF0B5
:102C0000010CC3F820C0D4F8903043F00103C4F89D
:102C10009030830709D5D30707D023681E62D4F804
:102C2000903043F00403C4F8903043070AD5D3072B
:102C300008D0266804233362D4F8903043F00203AE
:102C4000C4F8903003070CD501F020033B4308D0B3
:102C5000266808233362D4F8903043F00803C4F8A0
:102C6000903003050BD54B0109D526684FF400635E
:102C70003362D4F8903043F02003C4F89030D4F895
:102C80009030002B3DD0800609D501F0200002F0E5
:102C90008051084303D0616F09B120468847D4F8BA
:102CA000900021688968490602D410F0280F2AD0C4
:102CB000204601F0C1FB2068806840061ED52068D0
:102CC000083050E8001F21F0400100E021E040E81A
:102CD0000012002AF3D1D4F8800078B179498163D9
:102CE000D4F88000FEF708FB00280AD0D4F8800052
:102CF000816B00E02046BDE8F04108472046FFF721
:102D000054FFBDE8F0812046FFF74FFFC4F8905014
:102D1000F7E7D4F86CC02027BCF1010F7ED15FEA41
:102D2000C06C7BD55FEAC16C78D510201862206832
:102D30008068400651D5D4F880100A6850680004B5
:102D4000000C3ED0B4F85C3083423AD9A4F85E005F
:102D50000868006880062CD4216851E8000F20F430
:102D6000807041E80002002AF6D12068083050E85F
:102D7000001F21F0010140E80012002AF5D120686F
:102D8000083050E8001F21F0400140E80012002AFE
:102D9000F5D1C4F88C70E566216851E8000F20F089
:102DA000100041E80002002AF6D1D4F88000FEF7B6
:102DB0006EFA2667B4F85C00B4F85E10401A81B26F
:102DC00007E0B4F85C1081429BD11068800698D56A
:102DD00026672046FFF799FE93E7B4F85C00B4F845
:102DE0005E10401A81B2B4F85E00002889D0002934
:102DF00087D0226852E8000F20F4907042E8000368
:102E0000002BF6D12D4BDB432068083050E8002F13
:102E10001A4040E8002CBCF1000F00E00EE0F3D1B6
:102E2000C4F88C70E5666567206850E8002F22F0D2
:102E3000100240E80023002BF6D1C9E7C60209D5ED
:102E4000560207D54FF4801018622046BDE8F041C5
:102E5000FFF7AABE03060AD501F0800302F40002C0
:102E6000134304D0A16F00297FF444AF49E7420621
:102E700011D54A060FD52046016851E8002F22F0EF
:102E8000400241E80023002BF6D1C0F88870856726
:102E900000F09DF935E7020206D54A0004D5204628
:102EA000BDE8F041FFF77FBEC00195D5002993DA58
:102EB0002046BDE8F041FFF729BE000001000010E8
:102EC000200100042944000810B5040003D0D4F800
:102ED000880010B107E0012010BD002084F88400B4
:102EE000204600F027F82420C4F8880020680168F4
:102EF00021F001010160A06A10B1204601F0DAF969
:102F0000204601F02BFD0128E6D02068416821F41D
:102F1000904141602068816821F02A018160206829
:102F2000016841F0010101602046BDE8104001F058
:102F300025BA000070B598B00446142111A8FDF719
:102F4000B1F944216846FDF7ADF92449206888426B
:102F500042D101200024CDE900046846FEF704FFB9
:102F600008B1FEF792F91E48016E41F480410166F6
:102F7000016E01F480411691C16C41F00101C16400
:102F8000C16C01F001011691C16C41F00201C164F4
:102F9000C06C022500F00200169007264FF48060F6
:102FA000CDE91254CDE91446119011A94FF090408B
:102FB000FEF7F0F94020CDE91254CDE91446119006
:102FC00011A90848FEF7E6F9002211462520FEF770
:102FD00033FE2520FEF722FE18B070BD00380140F8
:102FE000001002400004004830B4D0F88C30202B90
:102FF00002D0022030BC7047A9B1A2B10023C36641
:103000000A4C0368A3420BD05B681B0208D5046816
:1030100054E8003F43F0806344E80035002DF6D1CA
:1030200030BC01F0D5BD0120E4E700000080004085
:1030300070B504464FF400511C48FEF7CFFA1C4906
:103040002068884230D11B4800230246C17861299C
:1030500019D064291FD00124662917D0164D0A29DA
:103060001DD00D291BD03B2919D042783F2A02D20E
:10307000A954521C4270BDE870400E490122C91C7F
:103080000E48FFF7B1BF13700DA001E0147014A03B
:1030900001F078FEEFE70220107019A0F8E7417800
:1030A0006B5484704370E6E770BD00000008004870
:1030B000003801401C000020B40000203402002031
:1030C000537769746368656420746F204D4F44457D
:1030D0005F4155544F5F52454143480D0A0000007F
:1030E000537769746368656420746F204D4F44455D
:1030F0005F475241425F464C41540D0A00000000B8
:10310000537769746368656420746F204D4F44453C
:103110005F475241425F444F574E0D0A0000000086
:103120002DE9F8430446D0F88800984616460D4627
:10313000202802D00220BDE8F883A5B19EB100206E
:10314000C4F890002120C4F888001834FEF754FA1F
:10315000A6878146E68754F8100C2027183CB0F566
:10316000805F02D003E00120E5E7206910B12E4620
:10317000002510E000260EE08021204601F0B0FD81
:10318000C0B9DEB116F8010B21688862B4F85600A8
:10319000401EA4F85600B4F856004B464FF000020B
:1031A000CDF800800028E7D14FF04001204601F023
:1031B00097FD40B1C4F888700320BCE735F8020BD6
:1031C000C0F30800E0E7C4F888700020B3E7704758
:1031D000FEE701688A69D243920701D400228A621D
:1031E00000688169C943C90703D0816941F00101C1
:1031F000816170472DE9F047044600688946002642
:10320000816935461746C9064FF0200841D510217F
:10321000C1612FE0B9F1FF3F2CD0FEF7EDF9C11BE2
:10322000494502D8B9F1000F24D12068416894F8CB
:10323000422001F480418369DB431B0415D4B1F5BE
:10324000804F12D0202A10D0416841F48041416063
:10325000FEF7D2F9074608E0FEF7CEF9C01B1928A1
:1032600003D945F02005012604E020688069C043A9
:103270008006F1D420688069C043800602D5002E04
:10328000C8D003E016B92168C1F81C8045F00405D8
:10329000012621688869C20505D54FF4807245F082
:1032A0000105CA610126410509D522684FF48061F4
:1032B00045F00805D1610126800502D40AE08005A9
:1032C00007D521684FF4007045F00205C86101265A
:1032D00000E086B12046FFF77CFF54F8240B4168DC
:1032E000064A11404160206A2843206284F81D800C
:1032F0000020A07720773046BDE8F08700E800FE88
:103300002DE9F84304461646DDE908971448984627
:10331000DAB200900023204600F056F83A464946BB
:10332000204600F0D1F8B8B9F5B2B8F1010F08D0D5
:103330002168300A88623A464946204600F0C4F8BF
:1033400050B9206885624B460022402120460097F4
:1033500000F052F8002800D00120BDE8F8830000FA
:10336000002000802DE9F84304461646154898468B
:10337000DDE90897DAB2C3020090204600F024F895
:103380003A464946204600F09FF8B8B9F5B2B8F180
:10339000010F08D02168300A88623A464946204623
:1033A00000F092F850B9206885624B4600228021D7
:1033B0002046009700F020F8002800D00120BDE84A
:1033C000F88300000020008010B5C1F3090141EA34
:1033D00002410268029C19432143506821F00041D8
:1033E0004FF4806303EA5453024C23439843084349
:1033F000506010BDFF63FF032DE9F0411D461746E5
:103400000E460446DDF8188027E04246294620464D
:10341000FFF7F0FE10B10120BDE8F081681C1CD060
:10342000FEF7EAF8A0EB0800A84200D8ADB9206882
:10343000806936EA00000ED00020B8420DD154F861
:10344000440F40F0200044F8040920206070002060
:10345000A0702070DFE70120EFE72068806936EA7E
:10346000000004D00020B842CFD00020D4E70120D3
:10347000F9E770B516460D4604461EE03246294669
:103480002046FFF7B7FE08B1012070BDFEF7B4F883
:10349000801BA84200D885B920688069C043800697
:1034A0000BD554F8440F40F0200044F804092020C4
:1034B00060700020A0702070E6E720688069C0433B
:1034C0008006DBD4002070BD70B516460D4604465C
:1034D00020E0324629462046FFF78CFE08B1012045
:1034E00070BD681C16D0FEF787F8801BA84200D874
:1034F00085B920688069C04380070BD554F8440F14
:1035000040F0200044F80409202060700020A070E2
:103510002070E4E720688069C0438007D9D4002088
:1035200070BD000070B506462DED068B8EB0F0EE36
:10353000419AB0EE609AB0EE40AA9FED498A21B15F
:10354000012917D0022913D014E02AEE0A0A09EE45
:10355000090A01F0E9FFF0EE400A9FED420A39EE58
:10356000C00A01F0C7FCDFED400A20EE208A01E02E
:103570009FED3E8A3E4D0024F1EE048A00EE104A93
:10358000F0EE481AB0EE691AB8EEC00AF0EE490A39
:1035900008A840EE281AB0EE4A0A00F06DF818228A
:1035A00008A902A8FCF765FE00EE104A0DF1080C10
:1035B000F8EEC00AB0EE480A00EEA80A85ED000A4F
:1035C000DDE90601CDE900019CE80F00FDF732FEC0
:1035D00050BB00EE104AF0EE481AB0EE691AB8EE91
:1035E000C00AF0EE490A08A840EE681AB0EE4A0A8E
:1035F00000F042F8182208A902A8FCF73AFE00EEF3
:10360000104A0DF1080CF8EEC00AB0EE480A00EEC0
:10361000E80A85ED000ADDE90601CDE900019CE834
:103620000F00FDF707FE40B1182202A93046FCF753
:1036300020FE0EB0BDEC068B70BD641C122C9DDB11
:10364000F0EE481A9FED0B0AB0EE691A85ED000AFC
:10365000F0EE490AB0EE4A0A304600F00DF8E8E70D
:103660000000000000006042E02E65420000B4C28D
:10367000000000200050C3472DE9F04100252DED4A
:10368000088BB0EE408AB0EE61BAB5EEC08AF0EEBB
:10369000419AF0EE608AF1EE10FA064602D2012558
:1036A000B1EE488AB0EE680AF0EE480A01F022FC5A
:1036B0009FED59AADFED590A28EE088A584C40EED2
:1036C0004A0A9FED580A08EEA88A2BEE009AC4ED2C
:1036D000000AB0EE480A01F027FFF2EE04AA70EEED
:1036E0006A8A2DB1B0EE480A01F01EFF70EE2A8AF8
:1036F000B0EE490A01F026FD9FED4B8A40EE488A64
:10370000B0EE490A01F048FEDFED480A28EEA89A1B
:1037100079EEE09A40EE489A09EEA99AB0EE490A8D
:1037200001F002FFB0EE408A18EE100A4049DFEDCA
:1037300041BA884201DDB0EE6B8ADFED3F0A4FF0FF
:103740007E57F7EE00AA30EEC91A81EE200A10EE7D
:10375000100AB84202DDB0EE6A0A06E010EE100A66
:1037600010F1814F01D9BFEE000A01F037FB20EEC6
:103770000A0ADFED320A30EEC00AF0EE680A84ED84
:10378000020AB0EE690A01F0B5FBF0EE408A9FED47
:103790002C0A28EE2B1A79EE000A70EEC00A80EE91
:1037A000810A10EE100AB84201DDB0EE6A0A01F09B
:1037B00015FB38EE800A9FED242A60EE0A0A9FED81
:1037C000210A70EE600AC4ED010A30EE8B1AD4EDC6
:1037D000021A31EE211A32EE411A84ED031A8DB12C
:1037E00094ED002A70EE600A30EE422A84ED002A41
:1037F000C4ED010A70EE610A30EE410AC4ED020A1E
:1038000084ED030A3046BDEC088B1822BDE8F04178
:103810000349FCF72EBD0000E02E65420000B442D3
:103820003C00002035FA8E3C0000B24200006042AD
:103830000000A0420000A04200004845000087436D
:103840000000C844000034430000B443F0B587B022
:1038500014216846FCF726FD2248C16C41F00401A2
:10386000C164C16C01F004010591C16C41F02001FB
:10387000C164C16C01F020010591C16C41F00101EE
:10388000C164C16C01F001010591C16C41F00201FC
:10389000C164C06C144E00F002004FF40054059057
:1038A000002221463046FDF7A1FE4FF0904700224E
:1038B00008213846FDF79AFE0125CDE90045002490
:1038C0000294694630460394FDF764FD0820009099
:1038D000CDE90154694638460394FDF75BFD07B016
:1038E000F0BD00000010024000080048134810B569
:1038F000114901601249416000210122C0E9021210
:10390000016141618161C1610162FDF7E3FE08B1BE
:10391000FDF7BBFC00210948FDF774FE08B1FDF777
:10392000B4FC00210548FDF798FE002803D0BDE84F
:103930001040FDF7AABC10BD00540040F400002068
:10394000C285B240144810B5124901601349416064
:1039500000210122C0E90212016141618161C1615E
:103960000162FDF7B7FE08B1FDF78FFC00210A48A0
:10397000FDF748FE08B1FDF788FC00210648FDF779
:103980006CFE08B1FDF781FCBDE810404FF400105B
:10399000FDF78CBE00580040480100200F06524041
:1039A00010B58AB00024079408941C216846099435
:1039B000FCF778FC1D484FF08041C0E9001420213D
:1039C000816040F60F61C0E903148461FEF7BCFF1B
:1039D00008B1FDF75AFC079407A914480994FEF7AB
:1039E00065FE08B1FDF751FC6020CDE900040294AA
:1039F000002269460D480494FEF714FF08B1FDF754
:103A000044FC042269460948FEF70CFF08B1FDF7A3
:103A10003CFC082269460548FEF704FF08B1FDF7A3
:103A200034FC0248FEF7D6FE0AB010BD9C0100200F
:103A30003EB500241048009401940E4902940160A0
:103A400040F2A361C0E9011440F2F311C16080218A
:103A50008161FEF779FE08B1FDF717FC0094694615
:103A600005480294FEF722FE002801D0FDF70DFC68
:103A70003EBD000000100040E8010020184810B5CD
:103A8000164901604FF4E1314160002181600C2250
:103A9000C160C0E904128161C16101624162816259
:103AA000FFF712FA08B1FDF7F0FB00210C48FFF711
:103AB00054F808B1FDF7E9FB00210948FFF727F8A2
:103AC00008B1FDF7E2FB0648FFF700F8002803D035
:103AD000BDE81040FDF7D9BB10BD00000038014023
:103AE00034020020FEE7000010B5284C2849DFED25
:103AF000291A94ED001A70EE410A10EE900A8842DD
:103B000001DD70EEE10A244910EE900A884201D9E5
:103B100070EEA10AD4ED011AB0EEE02AB4EEE12A6B
:103B2000F1EE10FA09DDF5EEC00AF1EE10FA02DD51
:103B300031EE210A01E031EE610A184884ED000AF5
:103B4000FDF74AFAB5EEC00AF0EE400AF1EE10FABF
:103B500084ED040A19DB114894ED000A243800F0C2
:103B6000D1F8D4ED020A94ED041AF1EE0C1A0B48C8
:103B700051EE210A9FED0A1A0C38C4ED030ABDE884
:103B8000104070EE810AFDF773BA10BD08000020E6
:103B9000DB0F4940DB0FC940DB0F49C0A800002004
:103BA000DB0FC93FFEE7000070B500212DED028B51
:103BB000B0EE408A084600F093F89FED180AC0EE78
:103BC000080AB7EE000A30EEC00AF6EE000A30EE40
:103BD000200ABCEEC00A10EE100AC5B2002000F0A8
:103BE0001FF8044600F07F0040F01001002000F0B4
:103BF00077F82946FE2000F073F82146002000F0F7
:103C00006FF80520FDF7B4FBBDEC028B44F0A10179
:103C1000BDE87040002000F063B8000020BCBE4545
:103C20001FB500218DF80C100A23012203A98DE88D
:103C30000E001346024680210348FDF7A9FD9DF8BA
:103C40000C0004B010BD0000F40000201FB50023DC
:103C500003938DF80C10090A8DF80D108DF80E20C5
:103C6000110A8DF80F100A23042203A98DE80E0013
:103C7000062101EB8002012380210248FDF73AFE74
:103C80001FBD0000F4000020DFED110AB5EEC00AF0
:103C90000E4AF1EE10FA02D29FED0E0A05E010EE88
:103CA000101A914201DDB0EE600A80EE201ADFEDBD
:103CB0000A0A9FED0A0A01EE200ABCEEC00A10EEC5
:103CC000101A8AB20021FFF7C1BF00000000344380
:103CD00000003443000000000000CD430000CC424F
:103CE00003B583B00A23012204A98DE80E00134610
:103CF000024680210248FDF7FDFD05B000BD000031
:103D0000F400002070EE600A2D4A9FED2E0A10EE9E
:103D1000901A914202DD70EEC00A06E010EE901A91
:103D2000294A914201D970EE800A90ED030A30EEE3
:103D3000202A9FED260A80ED032AD0ED011A90ED8E
:103D4000051A71EE802AF5EEC01A81EE220AF1EE14
:103D500010FA11DDB4EEC02AF1EE10FA01DD80EDAB
:103D6000030A90ED032AB1EE400AB4EEC02AF1EE48
:103D700010FA01D280ED030A90ED040AC0ED040AA6
:103D800030EEC02A90ED030A21EE800AD0ED001A31
:103D900001EEA00AD0ED020A00EE820AB4EEC01ACB
:103DA000F1EE10FA02D2B0EE410A7047F1EE410A8C
:103DB000F4EEC00AF1EE10FAF7DDB0EE600A7047DB
:103DC000DB0F4940DB0FC940DB0F49C017B7D138C3
:103DD000C0ED051A80EC030A9FED030A80ED030A8B
:103DE00080ED040A70470000000000007047704733
:103DF000FDF7C2BE00B593B038216846FCF752FA11
:103E000014210EA8FCF74EFA0020FDF747FF022010
:103E1000C1010391402104910421CDE908010090E2
:103E20005521CDE90A1007900C900D906846FEF7D9
:103E300027FA08B172B6FEE70F200E9003200F900C
:103E4000002010901190129004210EA8FEF7D0F8D7
:103E5000002801D072B6FEE713B000BD0248016829
:103E600041F470010160704788ED00E02DE9F043F6
:103E70000268264B264D274E274C4FF0804998422A
:103E800007D0484505D0A84203D0B04201D0A04297
:103E900003D122F070074A683A43204FDFF880C010
:103EA000DFF8808098420DD048450BD0A84209D059
:103EB000B04207D0A04205D0B84203D0604501D03F
:103EC000404503D122F44075CA682A434D6922F067
:103ED00080022A4302608A68C2620A68826298424B
:103EE00007D0A04205D0B84203D0604501D040457C
:103EF00001D109690163012141610169C90703D049
:103F0000016921F001010161BDE8F083002C01404D
:103F1000000400400008004000340140004001401F
:103F2000004401400048014010B501F01F03012189
:103F3000046A99408C430462016A9A401143016209
:103F400010BD00002DE9F043056A026A22F001026B
:103F50000262436882691C4C25F0020522400C680D
:103F600022F0030214438A68194E2A43174D194F51
:103F7000DFF864C0DFF86490A84207D0B04205D0F3
:103F8000B84203D0604501D0484506D122F0080868
:103F9000CA6842EA080222F00402A84207D0B042EE
:103FA00005D0B84203D0604501D0484505D14D69E0
:103FB00023F440731D438B692B434360846149683C
:103FC00041630262BDE8F0838FFFFEFF002C0140D9
:103FD00000340140004001400044014000480140DD
:103FE000F0B5056A026A22F0100202624268836933
:103FF000194C1B4E23400C6823F4407343EA0424FD
:1040000025F020038D6843EA0513144DA84201D022
:10401000B04206D1CF6823F0800343EA071323F0B0
:104020004003A8420AD0B04208D00E4DA84205D0A5
:104030000D4DA84202D00D4DA84207D14D6922F482
:10404000406242EA85028D6942EA850242608461EB
:10405000496881630362F0BDFF8FFFFE002C0140C1
:10406000003401400040014000440140004801404C
:10407000F0B5056A026A22F4807202624368C2697E
:10408000194C1B4E22400C6822F00302144325F405
:1040900000728D6842EA0522144DA84201D0B04258
:1040A00006D1CF6822F4006242EA072222F480623D
:1040B000A8420AD0B04208D00E4DA84205D00E4DFD
:1040C000A84202D00D4DA84207D14D6923F44053B8
:1040D00043EA05138D6943EA05134360C4614968E7
:1040E000C1630262F0BD00008FFFFEFF002C0140A3
:1040F00000340140004001400044014000480140BC
:10410000F0B5056A026A22F4805202624268C3690D
:10411000194C1B4E23400C6823F4407343EA0424DB
:1041200025F400538D6843EA0533144DA84201D0AD
:10413000B04206D1CF6823F4004343EA073323F4A7
:104140008043A8420AD0B04208D00E4DA84205D004
:104150000D4DA84202D00D4DA84207D14D6922F461
:10416000404242EA85128D6942EA85124260C4618A
:10417000496801640362F0BDFF8FFFFE002C01401F
:10418000003401400040014000440140004801402B
:1041900030B5056A026A22F4803202624268036D19
:1041A000114C23400C681C4325F400330D8943EA6D
:1041B00005430E4DA8420BD00D4DA84208D00D4D21
:1041C000A84205D00C4DA84202D00C4DA84204D103
:1041D0004D6922F4803242EA052242600465496852
:1041E0008164036230BD00008FFFFEFF002C0140A0
:1041F00000340140004001400044014000480140BB
:1042000030B5046A026A22F4801202624268036DC9
:10421000114D24F400142B400D6843EA05230D8949
:1042200044EA05540D4DA8420BD00D4DA84208D0CC
:104230000C4DA84205D00C4DA84202D00B4DA8420F
:1042400004D14D6922F4802242EA8522426003654E
:104250004968C164046230BDFF8FFFFE002C01403D
:10426000003401400040014000440140004801404A
:1042700030B5416EB9B1026891689268C1F342618C
:104280000B4B520F9C5CE50003F10804A25CB5FBEC
:10429000F2F2A0F86A205A5C615CD200B2FBF1F144
:1042A000A0F8681030BD0121A0F86A10F8E70000FE
:1042B0000E5A000890F82810090706D501684A68C8
:1042C000836B22F400421A434A6090F82810C90711
:1042D00006D001684A68C36A22F400321A434A6071
:1042E00090F82810890706D501684A68036B22F404
:1042F00080321A434A6090F82810490706D50168B1
:104300004A68436B22F480221A434A6090F82810CE
:10431000C90606D501688A68C36B22F480521A4325
:104320008A6090F82810890606D501688A68036CAF
:1043300022F400521A438A6090F82810490611D5D9
:1043400001684A68436C22F480121A434A60416C47
:10435000B1F5801F06D101684A68836C22F4C0025F
:104360001A434A6090F82810090606D501684A6881
:10437000C06C22F4002202434A6070472DE9F843E2
:1043800000260446C0F89060FDF736F980462068A4
:1043900000684FF0200500076FF07E4713D54346B5
:1043A000002229042046009700F09AFC58B12168A9
:1043B00051E8000F20F0800041E80002002AF6D109
:1043C000C4F8885021E020680068400722D54346A1
:1043D00000224FF480012046009700F081FCC8B114
:1043E000216851E8000F20F4907041E80002002A93
:1043F000F6D12068083050E8001F21F0010140E8A4
:104400000012002AF5D1C4F88C5084F8846003208F
:10441000BDE8F883C4F88850C4F88C5044F86C6F39
:10442000666026760020F3E710B5806A0021A0F8C8
:104430005E10FEF7BAFB10BD10B5026852E8001F0F
:1044400021F4907142E80013002BF6D10E4B026864
:10445000083252E8001F194042E80014002CF6D13F
:10446000C16E012908D1016851E8002F22F0100225
:1044700041E80023002BF6D12021C0F88C10002148
:10448000C166416710BD0000FEFFFFEF10B5B0F838
:104490006020D0F88C300168222B04D0886940F06D
:1044A0000800886110BD496A836D11401980816DD3
:1044B000891C8165B0F85E10491EA0F85E10B0F846
:1044C0005E100029EED1026852E8001F21F49071BD
:1044D00042E80013002BF6D10168083151E8002FA3
:1044E00022F0010241E80023002BF5D12021C0F881
:1044F0008C10002141670167154B02689A420BD06E
:104500005268120208D5036853E8002F22F0806237
:1045100043E80024002CF6D1C26E012A02D0FEF737
:1045200087FD10BDC166026852E8001F21F010012E
:1045300042E80013002BF6D10168CA69D243D206C3
:1045400001D410220A62B0F85C10FEF7DEFA10BD4A
:10455000008000402DE9F0470446B0F86060006834
:10456000C569D0F800A0D0F80890D4F88C102229A2
:1045700005D0816941F008018161BDE8F087B4F898
:1045800068704FF0000844E02068406AA16D304038
:104590000880A06D801CA065B4F85E00401EA4F8E1
:1045A0005E002068C569690730D0E9070AD05FEA74
:1045B000CA5107D501210162D4F8900040F00100F2
:1045C000C4F89000A8070BD55FEAC97008D021682D
:1045D00002200862D4F8900040F00400C4F8900073
:1045E00068070BD55FEAC97008D02168042008620B
:1045F000D4F8900040F00200C4F89000D4F8900085
:1046000020B12046FEF7D1FAC4F89080B4F85E00DD
:1046100000B30FB1A806B7D4B4F85E000028ACD040
:10462000B4F868108142A8D92068083050E8001F0B
:1046300021F0805140E80012002AF5D12A48606735
:10464000206850E8001F41F0200140E80012002AD5
:10465000F6D192E7216851E8000F20F4807041E81C
:104660000002002AF6D1214A2068083050E8001FD5
:10467000114040E80013002BF6D12020C4F88C0034
:10468000C4F874804046C4F87080194A2168914289
:104690000BD04968090208D5226852E8001F21F0B2
:1046A000806142E80013002BF6D1E16E012903D0AE
:1046B0002046FEF7BDFCAFE7E066216851E8000F39
:1046C00020F0100041E80002002AF6D12068C169FC
:1046D000C943C90601D410210162B4F85C10204618
:1046E000FEF713FA98E700008D440008FEFFFFEF85
:1046F0000080004010B5B0F86020D0F88C30016820
:10470000222B04D0886940F00800886110BD496AF6
:104710001140826D1170816D491C8165B0F85E1089
:10472000491EA0F85E10B0F85E100029EED10168B5
:1047300051E8002F22F4907241E80023002BF6D1BB
:104740000168083151E8002F22F0010241E80023FE
:10475000002BF5D12021C0F88C10002141670167A2
:10476000154B02689A420BD05268120208D50368B2
:1047700053E8002F22F0806243E80024002CF6D199
:10478000C26E012A02D0FEF753FC10BDC16602685A
:1047900052E8001F21F0100142E80013002BF6D16F
:1047A0000168CA69D243D20601D410220A62B0F865
:1047B0005C10FEF7AAF910BD008000402DE9F0471B
:1047C0000446B0F860600068C569D0F800A0D0F871
:1047D0000890D4F88C10222905D0816941F0080195
:1047E0008161BDE8F087B4F868704FF0000844E0DC
:1047F0002068406AA16D30400870A06D401CA06523
:10480000B4F85E00401EA4F85E002068C569690720
:1048100030D0E9070AD05FEACA5107D50121016209
:10482000D4F8900040F00100C4F89000A8070BD520
:104830005FEAC97008D0216802200862D4F89000AD
:1048400040F00400C4F8900068070BD55FEAC97017
:1048500008D0216804200862D4F8900040F00200DB
:10486000C4F89000D4F8900020B12046FEF79DF9DE
:10487000C4F89080B4F85E0000B30FB1A806B7D4B6
:10488000B4F85E000028ACD0B4F868108142A8D912
:104890002068083050E8001F21F0805140E80012E5
:1048A000002AF5D12A486067216851E8000F40F0DE
:1048B000200041E80002002AF6D192E7216851E881
:1048C000000F20F4807041E80002002AF6D1214A4E
:1048D0002068083050E8001F114040E80013002B0A
:1048E000F6D12020C4F88C00C4F874804046C4F887
:1048F0007080194A216891420BD04968090208D595
:10490000226852E8001F21F0806142E80013002B6A
:10491000F6D1E16E012903D02046FEF789FBAFE70F
:10492000E066206850E8001F21F0100140E8001206
:10493000002AF6D12068C169C943C90601D41021F3
:104940000162B4F85C102046FEF7DFF898E700003B
:10495000F5460008FEFFFFEF008000402DE9F04122
:104960000446016880682269E36910436269002592
:104970001A431043DFF82CC20A688B4B1A400243DB
:104980000A6020684168E26821F4405111434160A7
:104990002168A069614501D0226A10438A68834B6F
:1049A0001A4002438A602068C16A626A21F00F01DE
:1049B0001143C1627E4923687E488B420DD1D0F8F5
:1049C000880010F0030006D0012855D0022842D0FC
:1049D00003283FD152E001203DE077498B420BD1C3
:1049E000D0F8880010F00C0035D0042833D0082807
:1049F00040D00C282ED141E070498B420BD1D0F829
:104A0000880010F0300026D0102835D0202831D072
:104A100030281FD132E06A498B420BD1D0F8880090
:104A200010F0C00017D0402826D0802822D0C028FF
:104A300010D123E063450DD1D0F8880010F4406018
:104A400009D0B0F5806F17D0B0F5006F12D0B0F577
:104A5000406F13D010205B495B4F00264FF400429B
:104A600063453BD160B1022813D004280BD008283D
:104A700072D10DE00220EEE70420ECE70820EAE71F
:104A8000FDF7A4FB01E0FDF7C5FB010001D17CE0CF
:104A90001146606A37F810206768B1FBF2F007EB47
:104AA0004703834270D8B0EB073F6DD80023084618
:104AB0001946FBF7ADFB090241EA106102027808D2
:104AC000101871413A460023FBF7A2FB3F4AA0F5BC
:104AD0004071914258D82168C86056E0E3694FF6AA
:104AE000EF7893422CD109284ED2DFE800F0050878
:104AF000114D0D4D4D4D1000FDF768FB01E0FDF728
:104B000077FB010004D140E0FDF784FBF9E7114693
:104B1000606A37F81000B1FBF0F04100606801EB0B
:104B20005001B1FBF0F0A0F1100141452CD84FF637
:104B3000F0710140C0F3420001432068C16024E0ED
:104B4000092821D2DFE800F0050912200E202020DC
:104B50001100FDF73BFB02E016E0FDF749FB010009
:104B600004D112E0FDF756FBF9E71146606A37F809
:104B70001000B1FBF0F1606801EB5001B1FBF0F007
:104B8000A0F1100141450AD901250120A4F86A00CD
:104B900024F8680F2846E6602661BDE8F08180B2FF
:104BA00099E7000000800040F369FFCFFFF4FF1198
:104BB000003801400010024000440040004800401E
:104BC000004C00400024F400F6590008FFFC0F00E0
:104BD00070B58165A0F85C20A0F85E2000234367D3
:104BE00081684FF48056FF24B14204D10169F9B9BC
:104BF00040F2FF1122E07F25C1B1B1F1805F1AD0F0
:104C0000A0F86030C0F890302221C0F88C10016804
:104C1000083151E8003F43F0010341E80034002C23
:104C2000F5D1416EB1F1005F0ED031E0016941B9BB
:104C3000A0F86040E6E7016919B13F21A0F86010D3
:104C4000E0E7A0F86050DDE7B0F8681091421FD8A7
:104C50008168B14201D10169B9B11D49416701695A
:104C600041B1026852E8001F41F4807142E800132C
:104C7000002BF6D10168083151E8002F42F0805234
:104C800041E80023002BF5D120E012494167F1E70C
:104C90008168B14201D1016969B10F494167016978
:104CA00059B1026852E8001F41F4907142E80013C4
:104CB000002BF6D10AE009494167026852E8001F5B
:104CC00041F0200142E80013002BF6D1002070BD16
:104CD000BD47000855450008F54600088D4400080A
:104CE0002DE9F047994617460D4604464FF0000857
:104CF000089E33E0701C31D0FCF77EFCA0EB09006D
:104D0000B04218D8BEB120680168490726D5802D69
:104D100024D0402D22D0C169C94309070DD40825EC
:104D200005622046FFF788FBC4F8905084F8848021
:104D30000120BDE8F0870320FBE7C069C043000500
:104D40000CD421684FF4006008622046FFF774FB22
:104D50002020C4F8900084F88480ECE72068C069C3
:104D600035EA000004D00020B842C3D00020E0E7BC
:104D70000120F9E70148FDF719BF000034020020C7
:104D8000FEE70000014A024900F0DBBCBD57000805
:104D9000340000204100080218BF04200A0E18BF8A
:104DA00040F001004FF07F4232EA010108BF40F0BD
:104DB0000200012808BF052070470907090E0028D6
:104DC00004DB00F1E02080F80014704700F00F00D1
:104DD00000F1E02080F8141D7047000010B510EEBF
:104DE000104A4FF01A402DED028B00EB4400B0F159
:104DF000C85F4AD84FF0FC40B0EB440F22D2B0EE6F
:104E0000C00AF7EE000A30EEC00AF6EE000A20EE05
:104E1000208A18EE100A00F0CFFD00EE100A14F000
:104E2000004F1DBF9FED281ADFED280AB1EE400AA2
:104E30009FED271A08BFF0EE410AF8EE001A20EEA7
:104E4000210A05E020EE008A9FED221ADFED220AFA
:104E5000DFED221A9FED222A70EEC00A20EE080A2A
:104E600008EE212ADFED1F1A48EE021A9FED1E2AD6
:104E700008EE212ADFED1D1A48EE021ABDEC028B66
:104E800040EE610A30EE810A10BD4FF0CC40B0EB2D
:104E9000440F82BF9FED160ABDEC028B10BD4FF090
:104EA0007F40B0EB440F05D2BDEC028BBDE8104053
:104EB00000F06ABB012000F037FCBDEC028BBDE8BE
:104EC000104000F067BB00000000494022AA7D3A74
:104ED000000000000000C93F22AAFD3924FE1C3D4D
:104EE000C78AD83C1E67383D1B93993DAFAA2A3E1E
:104EF000DB0FC93F10EE100A10B510EE901A4FF0FC
:104F0000684202EB40032DED028BB3F1654F3CBFCD
:104F100002EB4102B2F1654F7CD200BFC0F3C75330
:104F2000C1F3C7529A1A1B2A09DD10F0004F14BFB3
:104F30009FED6E0A9FED6E0ABDEC028B10BD12F163
:104F40001A0F1BDA11F0004F09D010F0004F0CBF00
:104F50009FED680A9FED680ABDEC028B10BD80EEE4
:104F6000208A18EE100AFFF715FF042808BF00F08A
:104F700019FBB0EE480ABDEC028B10BD4200B2EB4B
:104F8000410F37D910F0004F19BFDFED5C1A9FEDCC
:104F90005C1ADFED5C1A9FED5C1AB0EE602A0A46DF
:104FA000F1EE400A80F00041B0EE420A10460A1AC3
:104FB0005200B2F1807F34D2484010F0004FDFED54
:104FC000532A9FED533A1DBFBEEE002A71EEE21A3E
:104FD00031EE431AB6EE002A04BF71EEA21A31EE8A
:104FE000031AF0EE402A42EE602A40EE020A82EEF8
:104FF000A02A18E011F0004F04BF9FED461AF0EE12
:10500000411AD4D010F0004F1CBFDFED431A9FEDC2
:10501000431A00E026E004BFDFED411A9FED411A7C
:10502000C5E780EE202A22EE020ADFED3F0ADFED1F
:105030003F2ABDEC028B40EE202ADFED3D0A40EE18
:10504000220ADFED3C2A40EE202ADFED3B0A40EE4B
:10505000220A22EE000A00EE201A31EE020A30EE99
:10506000210A10BD4FF07F42B2EB400F28BFB2EBD8
:10507000410F05D2BDEC028BBDE8104000F087BAAD
:1050800040EA01035B0008BF41F0FF410BD0B2EBE7
:10509000400F08BFB2EB410F08D120F0804000EE76
:1050A000100A21F0804100EE901A37E7B2EB400F72
:1050B00012BF5FEA410240F0FF4001F000413FF4BF
:1050C0002DAF4A0092EA40033FF528AF002AACBF5B
:1050D0009FED1A1A9FED1A1A20EE010A60EE810A5E
:1050E00010EE100A10EE901A18E70000DB0FC9BF8F
:1050F000DB0FC93FDB0F4940DB0F49C00000C9BFD0
:1051000022AAFDB90000C93F22AAFD390060ED3E88
:10511000C30ACE3700000000000049C022AA7DBAB1
:105120000000494022AA7D3A2DAD65BD8FB8D53D1E
:105130000FB511BE61C84C3EA8AAAABE0000804FA0
:105140000000802F10EE101A08B5444A6846B2EBF2
:10515000410F28D94FF0E640B0EB410F94BF00203B
:105160004FF0FF3000900098002861DB60EE000AED
:1051700010F0010F45D010F0020FDFED391A9FED4E
:10518000391A00EEE11ADFED381A40EE811A21EEED
:10519000A01AF0EE400A40EE010A08BFF1EE600AE4
:1051A000B0EE600A08BD314B21F0004293423CD979
:1051B00011F0004FDFED2E0A20EE201ADFED2D0A50
:1051C00019BF31EE601A71EE200A31EE201A71EE2D
:1051D000600ABDEEE01A11EE100A9FED271A00F0EA
:1051E000030000EEC10A9FED251A009000EEC10AEF
:1051F0009FED231A00EEC10A9FED221A00EEC10AAC
:10520000B1E79FED211A9FED210A10F0020F00EE89
:10521000810A9FED1F1A00EE801AB7EE000A00EE19
:10522000810A18BFB1EE400A08BD00F0C3F99AE741
:1052300010EE100A4000B0F17F4F3CBFB7EE000AFD
:1052400008BD07D14FF0010000F06EFABDE808403C
:1052500000F0A0B9BDE8084000F096B9B61F927EF4
:10526000336D4C39DA82083CA0AA2ABE490E494661
:1052700083F9223F0000004B0000C93F00A0FD3928
:105280000020A2331A61342CB93AB2BACA9F2A3D1F
:10529000DDFFFFBE10B52DED040B86B09DED060BB6
:1052A00010EE100A10EE901A8DED000B002818BFBA
:1052B0000120084320F00040C0F17F6000F1E04091
:1052C000C00F21D19DED080B10EE101A10EE900AC0
:1052D0008DED000B002918BF0121084320F000408C
:1052E000C0F17F6000F1E040C00F0DD1294907985F
:1052F000B1EB400F04BF0698002842D00998400047
:1053000004BF089800283CD09DED080B53EC102BEF
:105310009DED060B51EC100BFBF7DDFBCDE9020117
:105320009DED020B40F2FF7110EE900A8DED000B27
:1053300031EA105021D00798039900F0004001F0A5
:105340000041884219D09DED080B8DED040B9DEDB9
:10535000020B8DED000B10EE900A059961F31E0013
:1053600005909DED041B9DED020B51EC110B53ECD0
:10537000102BFBF7CCFACDE902019DED020B0AB030
:1053800010BD012000F0D0F90AB0BDE8104000F0D7
:10539000EBB800000000E0FF00B510EE101A2DED94
:1053A000028B81B0524A6846B2EB410F2ED94FF0C2
:1053B000E640B0EB410F94BF00204FF0FF3000906B
:1053C0000098B0EE408A00286ADB10F0010F4BD045
:1053D00068EE080A9FED471A9FED470A00EE810A22
:1053E0009FED461A10F0020F00EE801AB7EE000A89
:1053F00000EE810A02BF01B0BDEC028B00BD00BF10
:1054000001B0B1EE400ABDEC028B00BD3C4B21F077
:105410000042934241D911F0004FDFED3A0A20EEED
:10542000201ADFED390A19BF31EE601A71EE200A39
:1054300031EE201A71EE600ABDEEE01A11EE100A8C
:105440009FED321A00F0030000EEC10A9FED301A02
:10545000009000EEC10A9FED2F1A00EEC10A9FEDE9
:105460002E1A00EEC10AABE728EE080A9FED2B1AB0
:10547000DFED2B0A10F0020F40EE410A9FED291AD2
:1054800000EE201A61EE000AB0EE480A08EE200A8B
:10549000B6D101B0BDEC028B00BD00F08BF88FE7F8
:1054A00018EE100A4000B0F17F4F0DD218EE100A2E
:1054B000FFF770FC042808BF00F074F8B0EE480A4B
:1054C00001B0BDEC028B00BD09D1012000F02CF928
:1054D00001B0BDEC028B5DF804EB00F05BB801B0ED
:1054E000B0EE480ABDEC028B5DF804EB00F04CB85E
:1054F000B61F927EB93AB2BACA9F2A3DDDFFFFBEFF
:10550000490E494683F9223F0000004B0000C93F85
:1055100000A0FD390020A2331A61342C336D4C39C0
:10552000DA82083CA0AA2ABE10B52DED028BB1EE9E
:10553000C08A18EE100A20F00040C0F1FF40C00FF2
:105540000AD010EE100A20F00040C0F1FF40C00F5A
:1055500004BF012000F0E8F8B0EE480ABDEC028B71
:1055600010BD0000000000009FED050B10B553ECCE
:10557000102B51EC100BFBF73FFA41EC100B10BD58
:10558000000000000000000030EE000A704730EE1E
:10559000200A7047DFED020A80EEA00A7047000083
:1055A000000000009FED020A20EE000A7047000094
:1055B000000000102DE9F0014FF07F42B2EB410FE7
:1055C0009FBF4FF0FF310160BDE8F00170474FF021
:1055D000004242EA0123C1F3C752783A551112F052
:1055E0001F0C434CCCF120067C44C1F3C752A2F1FE
:1055F00078024FEA621204EB820254F8254008BF99
:10560000D2E9015612D0556804FA0CF425FA06F7CF
:105610003C43976805FA0CF527FA06F8D26807FAB2
:105620000CFCF24045EA08054CEA0206A4FB034CD8
:10563000A5FB0352A6FB03631D449D4234BF012614
:1056400000261319334416B1934202D903E0934262
:1056500001D2012200E00022624402F1200C9206F5
:10566000DC0C42EA443200EE102A5B03DFED210A33
:10567000F8EEC01A00EE103A4FEA9C1C11F0004FF1
:10568000B8EE400AC0F800C020EE201A00EE105A12
:10569000DFED190AB8EE400A20EE200A71EE810A09
:1056A00070EE800A10EE902A02F500626FF30B0292
:1056B00000EE902A70EEE11A31EEC11ADFED101AF9
:1056C00030EE411A9FED0D0A20EE800A01EE210A0C
:1056D0009FED0C1A00EE810A04BFBDE8F00170478F
:1056E000CCF180510160BDE8F001B1EE400A704795
:1056F0004C040000000000360000802C22AAFD2986
:10570000DB0FC92F0000C92F02E008C8121F08C113
:10571000002AFAD170477047002001E001C1121F32
:10572000002AFBD170470000014908607047000063
:105730003800002030380A2801D2012070470020AC
:1057400070472DE9F04116460F460446002503E058
:105750003946B047641C6D1C20780028F8D12846D3
:10576000BDE8F08170B512482DED028BB0EE408A95
:10577000FBF732FC0F4C0E4884ED000AFBF72CFCC3
:1057800084ED040A0C4D06E0B0EE480AFEF7ACF9D1
:105790000120FBF7EDFD94ED040A30EE480AB0EE6F
:1057A000C00A10EE100AA842EEDCBDEC028B70BD00
:1057B000A8000020080000200AD7233C13B54FF6AC
:1057C000FF73012269460248FDF7AAFC00981CBD40
:1057D0003402002086B0FCF7D7F9FEF70BFBFEF78A
:1057E00035F8FEF783F8FEF723F9FEF747F9FEF7E1
:1057F000D7F8FEF7A7F89FED2E0AFEF7D5F900F0CF
:1058000089F8B2EE080A2B492B48FBF719FC2B4903
:105810002B48FBF705FCFBF70DFCF0EE081AB7EE82
:10582000001ADFED280AB7EE080A2748FEF7D0FA7B
:10583000FBF7E2FE0546254890ED000AFFF792FFD0
:10584000234C012020704FF4FA60FBF791FD0122F8
:10585000E11C2048FDF7C8FB01AEA0465FF0000741
:10586000FBF7CAFE401B022806D3FBF7C5FE054620
:1058700094ED010AFEF738F9A0780028F0D003ABC8
:1058800002AA15A117480096FAF718FD032804D0BC
:1058900015A0FFF777FAA770E2E798F800009DEDF2
:1058A000011ADDED030A9DED020A00F065F8F2E74A
:1058B000000048429C0100209C000020480100207C
:1058C000A8000020CDCC4C3E840000200400002025
:1058D0001C000020340200207825662079256620EF
:1058E0007A256600B40000204572726F7220466F00
:1058F000726D61742120506C6561736520757365EC
:105900003A207831303020793530207A32300D0A23
:105910000000000010B59FED150A2DED028BFEF77B
:1059200043F99FED138A0020B0EE480AFEF7ACF968
:10593000B0EE480A0120FEF7A7F9B0EE480A0220AF
:10594000FEF7A2F9B0EE480A0320FEF79DF9B0EE8B
:10595000480A0420FEF798F9BDEC028B0520BDE84B
:1059600010409FED040AFEF78FB900000000484286
:105970000000B4420000204310B586B001466846DE
:10598000FDF7D0FD182269460A48FAF772FC094C67
:10599000012094ED010AFEF777F994ED020A022046
:1059A000FEF772F994ED030A06B00320BDE810403B
:1059B000FEF76AB93C00002010B500EE100A2DED8C
:1059C000028BB1EEC08A18EE100A20F00040C0F140
:1059D000FF40C00F0AD010EE100A20F00040C0F1C6
:1059E000FF40C00F04BF0120FFF79EFE18EE100A13
:1059F000BDEC028B10BD010002000400060008008F
:105A00000A000C001000200040008000000101018D
:105A1000010307010000080402040801010100005D
:105A2000000000000000010203040607080900004E
:105A30000000010203040000000000006E83F9A2D0
:105A40002915444ED15727FCC0DD34F5999562DB0A
:105A50004190433CAB6351FEDDDDDDDDDCBBBBDDF6
:105A6000DDDDDDDDDDDDDDDD9888888888888888FE
:105A7000777777777788888885555556666666661E
:105A800066666666666888888333333222222222FD
:105A9000222222222228888DB85A000800000020E5
:105AA0003C00000008570008F45A00083C000020A1
:105AB0008C0600001857000800000000000000409D
:105AC000000000000AD7A33BEF9E25420000000023
:105AD00000000000000000000000000010000000B6
