:020000040800F2
:10000000B0050020ED010008AF330008C52B000843
:10001000AD330008FD100008594100080000000041
:100020000000000000000000000000000F35000884
:10003000FF100008000000000D3500081135000811
:10004000070200080702000807020008070200086C
:10005000070200080702000807020008070200085C
:10006000070200080702000807020008070200084C
:10007000070200080702000807020008070200083C
:10008000070200080000000007020008070200083D
:10009000070200080702000807020008070200081C
:1000A000070200080702000807020008070200080C
:1000B00007020008070200080702000807020008FC
:1000C00007020008070200080702000807020008EC
:1000D000070200084D410008070200080702000857
:1000E00007020008070200080702000807020008CC
:1000F00007020008070200080702000800000000CD
:1001000000000000070200080000000007020008CD
:1001100007020008000000000702000807020008AC
:10012000070200080702000807020008070200088B
:10013000070200080000000000000000070200089D
:10014000070200080702000800000000000000008D
:10015000000000000000000000000000000000009F
:10016000000000000000000000000000070200087E
:10017000070200080000000000000000000000006E
:10018000000000000702000800000000000000005E
:10019000000000000000000000000000000000005F
:1001A000000000000000000007020008070200082D
:1001B000070200080702000807020008000000000C
:1001C000000000000702000800000000000000001E
:1001D0000702000807020008DFF80CD000F08EFDCF
:1001E00000480047695D0008B005002006488047C8
:1001F00006480047FEE7FEE7FEE7FEE7FEE7FEE70C
:10020000FEE7FEE7FEE7FEE77D350008D9010008BE
:100210002DE9F05F0546002092469B46884606463B
:10022000814640241BE0284641464746224600F0CE
:100230007EFB53465A46C01A914110D311461846C8
:10024000224600F065FB2D1A67EB01084F46224657
:100250000120002100F05CFB17EB00094E41201E3D
:10026000A4F10104DFDC484631462A464346BDE896
:10027000F09F40EA01039B0703D009E008C9121F61
:1002800008C0042AFAD203E011F8013B00F8013B50
:10029000521EF9D27047D2B201E000F8012B491E7C
:1002A000FBD270470022F6E710B513460A46044613
:1002B0001946FFF7F0FF204610BD00000FB400B54F
:1002C0008DB010A909900B9000914FF0FF300A906B
:1002D00000200C9005480690054807906A4609A83A
:1002E0000F9900F04DFB0DB05DF814FB9D0900085F
:1002F000BB0900082DE9FF4F087883B09946FF2815
:1003000005D0491C2D2804D00024002008E000203E
:100310000BE00124F9E700EB800003EB4000491CEF
:100320000B78FF2BF7D104B14042002302931478DD
:1003300019461D462D2C01D02B2C04D1521C2D2CDE
:1003400013D000240294AA461478FF2C0FD00A255B
:10035000A3FB057801FB05814FF0000C03FB0C119A
:10036000521CE3194AEB0101EEE70124EAE781445C
:1003700053EA010002D019F5C87F06DA039800217C
:10038000C0E9001107B0BDE8F08F0025AE4E2F4642
:10039000DFF8B882184600F075FCCDE90001B9F12C
:1003A000000002DAC9F1000400E004460023A74A75
:1003B0001AEB030B42EB045A12E0E00707D02A467F
:1003C00033463846414600F0ECF9074688462A464F
:1003D00033461046194600F0E4F905460E4664100F
:1003E000002CEAD1DDE90001B9F1000F5A4653466D
:1003F00006DA00F087FB3A46434600F083FB05E04F
:1004000000F0CFF93A46434600F0CBF9029A0AB120
:1004100081F00041039AC2E90001B3E72DE9FF4FE3
:100420001F468DB0D7E901464FF0FF382E204546D4
:100430004FF000090B90B9696D1C0E988847396A16
:10044000824688470028F6D1BAF1FF3F0AD024F44B
:10045000D064002E11DDBAF12B0F08D0BAF12D0FA8
:100460000BD102E0404611B08DE744F48064B969D5
:100470006D1C0E9888478246761E6946600501D538
:100480002D2000E02B208DF8000001F1010B0DF173
:10049000200809E0B9696D1C0E98884782460F98BC
:1004A00044F40074761E0560002E02DDBAF1300FB0
:1004B000F0D00B998A453ED144F0800406E00F99B4
:1004C000681CA9F1010944F400740860B9696D1C45
:1004D000761E0E98884782463028F0D02BE00B9984
:1004E0008A4505D1200603D444F08004761E18E026
:1004F000504605F079F808B30DF11301761E44F467
:1005000000748B4508D2AAF130000BF8010B2006CD
:1005100007D5A9F1010003E0200602D409F101008A
:100520008146A00502D50F99681C0860B9696D1C49
:100530000E9888478246002ED1DC53E0002E51DD14
:10054000BAF1650F02D0BAF1450F4BD1A00549D5DC
:10055000B9696D1C24F44074761E0E988847824653
:10056000002E0CDD2B2804D0BAF12D0F07D144F456
:100570008074B9696D1C0E9888478246761EE00526
:1005800001D52D2100E02B2108F8011BCDF82C808E
:1005900021E00DF12901761E44F4007488450CD247
:1005A000AAF1300010F0FF0088F8000002D10B998A
:1005B000884509D908F1010806E0E00501D524487D
:1005C00001E042F20F708146B9696D1C0E988847B0
:1005D00082460F980560002E04DD504605F004F8B1
:1005E0000028D6D1F9690E988847FF208BF80000C3
:1005F00088F800000020069007904B466A4608A93C
:1006000006A8FFF777FEA00502D46FF001002AE7E5
:1006100014F0240F0AD0E00714D1DDE9061238687F
:10062000031D3B600068C0E900120BE0DDE9060134
:1006300000F03CF90146E00704D13868021D3A6039
:100640000068016028460EE7000014400000F03FFB
:10065000F1D8FFFF2DE9FE4F804681EA0300C00F6D
:100660000C46009021F0004123F00045B8EB020059
:10067000A94105D24046214690461C460B460246FB
:1006800023F00040104347D0270DC7F30A00C3F3FF
:100690000A510290401A019040286BDAC3F313000C
:1006A00040F4801B0098924620B10023D2EB030A4D
:1006B00063EB0B0B01985946C0F14002504600F025
:1006C00027F906460D4650465946019A00F03FF973
:1006D00010EB08006141002487EA115284EAE773B5
:1006E0001A4340D0009A62B3019A012A4FEA075296
:1006F00015DC001B61EB02014FF0004202EA0752D9
:10070000CDE90042001C41F5801132462B4600F035
:10071000ABF903B0BDE8F08F40462146F9E7001B76
:1007200061EB0201001C41F5801300185B412018A9
:10073000A2F5001747EB030140EAD570B6196D41E9
:1007400011E06D084FEA360645EAC0754FEA0752D8
:10075000001B61EB0201001C41F5801149084FEAC2
:1007600030000019514132462B4603B0BDE8F04F2E
:1007700000F06BB90098012240000023D0EB020288
:1007800063EBE073009821464FEAE074B8EB000099
:1007900061EB0401E9E783F000435BE781F000418E
:1007A00058E72DE9FE4F81EA030404F0004421F0EC
:1007B000004100944FF0000B23F0004350EA010485
:1007C0005ED052EA03045BD0C3F30A54C1F30A5566
:1007D0002C44A4F2F3340194A0FB0254C1F313019E
:1007E00041F48011C3F3130343F4801301FB02446B
:1007F00000FB034E840A970A44EA815447EA835770
:10080000A4FB076802958D0A05FB07854FEA932C28
:1008100004FB0C542705029D4FEA065847EA163799
:10082000B5EB08056EEB070C870E920E47EA8117B1
:1008300042EA8312A7FB0201B6EB0B0164EB000452
:100840002B0D43EA0C335E1844EB1C50DA4651463C
:10085000E7FB0201C5F313044FEA0B3343EA1453D9
:100860004FEA0432019C43EA0603A4F10C0402940B
:10087000009CCDE900B400F0F7F803B0BDE8F08FBC
:1008800000200146F9E700F0004230F000400AD0B5
:10089000C10D01F56071C0F3160042EA0151C208B2
:1008A00040071143704700200146704701F00043A4
:1008B00030B421F0004150EA010206D00A0DA2F541
:1008C0006072C1F31301002A02DC30BC00207047C3
:1008D000440F44EAC104C100E01830BC00EBC25030
:1008E00000F07CB830B50B460146002020220124E0
:1008F00009E021FA02F59D4205D303FA02F5491BEE
:1009000004FA02F52844151EA2F10102F1DC30BD03
:10091000202A04DB203A00FA02F1002070479140BF
:10092000C2F1200320FA03F3194390407047202AB4
:1009300004DB203A21FA02F00021704721FA02F389
:10094000D040C2F120029140084319467047202A46
:1009500006DBCB17203A41FA02F043EAE07306E0E7
:1009600041FA02F3D040C2F12002914008431946F7
:100970007047000002681144137801601846704700
:10098000D16004495161044911620021116111468D
:1009900000F0CCB975090008210D0008426842B189
:1009A000016811F8013B23B1521EC0E9001218463C
:1009B00070470121C160881E704742685AB1C36800
:1009C000016843B983688B4205D0491E521CC0E9B7
:1009D0000012002070474FF0FF3070470029A8BF79
:1009E0007047401C490008BF20F00100704710B458
:1009F000B0FA80FC00FA0CF050EA010404BF10BC0D
:100A0000704749B1CCF1200421FA04F411FA0CF139
:100A100018BF012121430843A3EB0C01CB1D4FEA72
:100A200000614FEA102042BF002010BC704700EB6D
:100A3000C35010440029A4BF10BC7047401C49009B
:100A400008BF20F0010010BC704710B5141E73F1F0
:100A5000000408DA401C41F1000192185B411A437E
:100A600001D120F0010010BD2DE9F04D92469B46CA
:100A700011B1B1FA81F202E0B0FA80F22032904670
:100A8000FFF746FF04460F4640EA0A0041EA0B0121
:100A900053465A46084313D0114653EA010019D071
:100AA000C8F140025046FFF742FF05460E46504649
:100AB00059464246FFF72CFF084305D0012004E0C9
:100AC00020463946BDE8F08D0020054346EAE07631
:100AD0002C4337430A986305E40AA0EB0800002280
:100AE000FD0A44EA47540A3002D500200146E9E7EE
:100AF000010510196941DDE9084500196941BDE8A2
:100B0000F04DA2E72DE9F04D81EA030404F0004B1B
:100B100021F0004514464FF0000A23F0004150EA4E
:100B2000050220D054EA01021DD0C5F30A5702463F
:100B3000C5F31303C1F31300C1F30A5640F4801543
:100B400043F48013A7EB0608101BD64608F2FD38C5
:100B500073EB050002D308F1010801E092185B4134
:100B6000B8F1000F03DA00200146BDE8F08D002047
:100B70004FF48011064684460EE0171B73EB050701
:100B800005D3121B63EB050306434CEA010C49082D
:100B90004FEA300092185B4150EA0107EDD152EA6A
:100BA000030012D082EA040083EA0501084305D05D
:100BB000101BAB4106D20122002306E000224FF0B9
:100BC000004302E06FF0010253101AEB06004CEBF9
:100BD000085110EB0A0041EB0B01BDE8F04DFFF7A7
:100BE00034BF2DE9F04D00231A461B1A8A4103DB5E
:100BF00000200146BDE8F08DC1F30A52C1F3130194
:100C000041F480154FF0000BD10702D100186D415F
:100C1000521E0027044640F2FF11384601EB620ADB
:100C20003E468046024600204FF48011FFF77FFECB
:100C3000C2197141BB1846EB0100B4EB030C75EB14
:100C4000000C04D3E41A65EB000517460E46241980
:100C500008F101006D4180463428E3DDF91946EBC7
:100C60000600091BA84103D24FF0FF32134601E0F2
:100C7000002213461BEB070046EB0A51BDE8F04D7E
:100C8000FFF7E3BE0EB540F2334202920022CDE9F7
:100C900000221346FFF7E8FE03B000BDC1F30A527D
:100CA000C1F3130140F2FF3341F480119A4202DA9A
:100CB00000200146704740F233439A42A2F2334289
:100CC00002DC5242FFF733BEFFF722BE30B5041EEE
:100CD00071F1000404DB4FF00044404264EB010179
:100CE000141E73F1000405DB1C464FF00043524212
:100CF00063EB0403994208BF904230BD064C074D98
:100D000006E0E06840F0010394E8070098471034DB
:100D1000AC42F6D3FFF764FA606300088063000812
:100D2000C0B24FF4F05100F0D5B900002DE9F34FF7
:100D30008BB04FF0000801F10C000C464FF0010B96
:100D400046460DF1080A0190626901210198904719
:100D5000051E2DD0252D2CD0216A8847C0B162698F
:100D6000012101989047216A88470028F7D1411E48
:100D700062690198904700E0761CA1690B9888474A
:100D8000216A88470028F7D1E1690B988847DBE79B
:100D9000A1690B9888470746A84201D1761CD3E782
:100DA000E1690B9888477F1C02D1B8F1000F6FD022
:100DB00046E1002762693D463946019890472A2856
:100DC00004D162690121019890470125DFF88492DE
:100DD0006269012101989047A0F130010A290AD2E5
:100DE0004F45E5DC07EB870100EB4107303FDFD4DF
:100DF00045F01005ECE7E90601D46FF000476C28D8
:100E00000AD04C2814D0682815D06A280DD0742830
:100E10001CD07A281AD01DE0626901210198904700
:100E20006C2802D045F0040514E045F002050DE001
:100E300045F020050AE06269012101989047682881
:100E400002D045F0080505E045F40065626901211E
:100E500001989047C4E9015765283DD019DC58280E
:100E60007AD00CDC452837D004DC252826D0412850
:100E700031D131E046282FD047282CD12CE05B28F7
:100E800077D0612828D063287CD0642823D15AE009
:100E9000D0E06F2848D008DC66281DD067281BD01A
:100EA000692821D06E2816D127E0702845D07328F4
:100EB00068D0752847D078280DD14DE0A1690B98EE
:100EC0008847054625283FF469AFE1690B988847B4
:100ED0006D1C3FF46AAFB3E023466A466FF0010031
:100EE0000B99FFF79BFA9EE045F040006060A80771
:100EF00023464FF0000236D43EE0E8077FF447AFC8
:100F00002068011D21600068290501D506701BE7D6
:100F1000290701D5068017E7A90703D5F117C0E90E
:100F2000006111E706600FE745F040006060A80728
:100F300023464FF0080216D41EE040F60E0125EAC3
:100F40000100606016E045F040006060A80723469D
:100F50004FF00A0207D40FE045F040006060A80798
:100F600008D5234610226FF001000B99AFF30080E3
:100F700059E007E0234610226FF001000B99AFF310
:100F8000008050E04FF000094F464B46632802D0E6
:100F90005B2806D040E0E80601D40120A0600127CC
:100FA0003AE062690121019890475E2805D14FF02F
:100FB00001096269494601989047216939B90021C0
:100FC0000A46534643F82120491C0829FADBB0B3EE
:100FD000216969B9C11700EBD16253110AEB830192
:100FE00022F01F02821A01200B68904003430B601D
:100FF00062690121019890475D28E8D1B9F1000F9D
:1010000009D00020514651F82020D24341F8202039
:10101000401C0828F7DB02AB224600976FF0010066
:101020000B99AFF3008000280CDA401C08D1BBF10B
:10103000000F05D04FF0FF300DB0BDE8F08FFFE797
:101040004046F9E7E90701D108F1010806444FF0ED
:10105000000B79E6CCCCCC0C0EB5C10F80EAE07069
:101060000844CA07002140F233438DE80E000A46C7
:101070000B46FFF7F9FC03B000BD0EB540F233415B
:1010800002910021CDE900110A460B46FFF7ECFC66
:1010900003B000BD70B5C1F30A5201F00045002451
:1010A000C1F3130140F2FF3341F480119A4201DA97
:1010B000002070BD40F233439A42A2F2334203DC77
:1010C0005242FFF734FC00E090402C43F1D0404204
:1010D00070BD00007F2801D9002208E0064A02EB1B
:1010E0005002C007127800D1120902F00F0201204D
:1010F0009040084070470000A8620008FEE7704773
:1011000072B6FEE710B590F8253000210122022BBF
:1011100003D00421C163012122E003681C6824F08C
:101120000E041C60836C1C6824F480741C600368CB
:101130001C6824F001041C6090F84430046C03F037
:101140001F0302FA03F36360D0E913345C60436D5C
:1011500033B11C6824F480741C60D0E916345C60E0
:1011600080F82520002280F82420084610BD70B5A4
:1011700090F82520002401212346022A07D00422CA
:10118000C26380F8251080F82430012429E0026829
:10119000156825F00E0515600268156825F0010533
:1011A0001560826C156825F48075156090F84420F0
:1011B000056C02F01F0201FA02F26A60D0E9132501
:1011C0005560426D32B1156825F480751560D0E91F
:1011D0001625556080F8251080F82430816B01B108
:1011E0008847204670BD000070B5044600F032F913
:1011F0000546601C02D004484068044400F02AF907
:10120000401BA042FAD370BD080000202DE9F04F2A
:10121000DFF82092002301260324A9F1040B85B0F6
:101220000F2709F1040AABF1040EFAE006FA03F500
:101230002A407CD091F804C00CF0030CBCF1010FE3
:1012400002D0BCF1020F26D1D0F808C0CDF800C002
:101250004FEA430C04FA0CF8CDF810C0DDF800C0DA
:101260002CEA080CCDF800C0D1F80C80DDF810C0D5
:1012700008FA0CF8DDF800C048EA0C08C0F808804D
:10128000D0F804C02CEA050C0D79C5F300159D407B
:1012900045EA0C0545600D79ED43AD070ED0C568F4
:1012A0004FEA430804FA08FC25EA0C05D1F808C007
:1012B0000CFA08FC4CEA050CC0F80CC00D7905F0DE
:1012C0000305022D16D1DD0800EB850CCDF808C012
:1012D000DCF820805D074FEAD56C07FA0CF528EAA8
:1012E00005080D6905FA0CF5DDF808C045EA0805A2
:1012F000CCF8205005684FEA430CCDF808C004FA3A
:101300000CFC25EA0C0591F804C00CF00308DDF88C
:1013100008C008FA0CF848EA0508C0F800804D68D3
:1013200015F4403F7CD0444DD5F860C000E077E034
:101330004CF0010CC5F860C02D6E23F0030C05F0D5
:10134000010500953D4D65440295AD684FEA837CEB
:101350004FEA1C7807FA08FC25EA0C05B0F1904F1B
:1013600006D0DFF8DCC0604505D14FF0010C20E06D
:101370004FF0000C1DE0DFF8CCC0604502D14FF00B
:10138000020C16E0DFF8C0C0604502D14FF0030C3C
:101390000FE0DFF8B8C0604502D14FF0040C08E060
:1013A000DFF8ACC0604502D14FF0050C01E04FF012
:1013B000060C0CFA08FC4CEA050C029DC5F808C0A6
:1013C000D9F80050CC46D1F8048095435FEAC8288C
:1013D00000D51543CCF80050DAF80050D446D1F8C7
:1013E000048095435FEA882800D51543CCF8005067
:1013F000DBF80050DC46D1F8048095435FEA88387A
:1014000000D51543CCF80050DEF80050F446D1F872
:10141000048095435FEAC83800D51543CCF80050E6
:101420005B1C0A6832FA03F57FF400AF05B0BDE833
:10143000F08F00000804014000100240000001404D
:101440000004004800080048000C00480010004854
:101450000014004801488068704700000800002020
:1014600090F84120202A24D190F84020012A20D051
:10147000012280F84020242280F84120026813686D
:1014800023F0010313600268136823F48053136090
:10149000026813680B43136001680A6842F0010296
:1014A0000A60202180F84110002180F84010084691
:1014B00070470220704790F84120202A22D190F8EE
:1014C0004020012A1ED0012280F84020242280F8EA
:1014D00041200268136823F0010313600268136857
:1014E00023F4706343EA0121116001680A6842F045
:1014F00001020A60202180F84110002180F840108C
:10150000084670470220704770B5040004D094F874
:101510004100002510B106E0012070BD84F8405064
:10152000204600F0ADF9242084F8410020680168CD
:1015300021F0010101606068216820F0706008619D
:101540002068816821F400418160E0680128A0687A
:1015500030D040F4044021688860E06802282068A8
:1015600041682AD021F40061416020684168144A32
:10157000114341602068C16821F40041C160D4E991
:1015800004010843A16940EA01202168C860D4E948
:1015900007010843216808602068016841F00101E3
:1015A00001606564202084F84100256384F842507E
:1015B000002070BD40F40040CDE741F40061D3E766
:1015C000008000022DE9FF4F83B00446DDE910875B
:1015D00090F84100DDF848909A469346202874D14F
:1015E0005FEA080014D09FB194F8400001286CD045
:1015F000012084F84000FFF72DFF064601220090ED
:101600001923D103204601F0F1FB002871D103E03A
:101610004FF4007060646CE0222084F841004020A8
:1016200084F8420000256564C4F8248067856563FA
:10163000CDE9009653465A462046049901F05AFBDC
:1016400010B184F8405054E0618D3548FF274FF0C9
:1016500080784FF0007AFF2904D927853A4643461F
:10166000009005E0618D2185009094F82820534674
:101670002046049901F0A2FB4B460022042120469B
:10168000009601F0B3FBA0BB2068406A616A087055
:10169000606A401C6062208D401E81B22185608D91
:1016A000401E6085608DD8B1D1B94B4600228021A3
:1016B0002046009601F09AFBD8B9608DFF2805D925
:1016C00027853A464346009506E026E0608D208552
:1016D000009594F8282053462046049901F06EFBAB
:1016E000608D0028C8D132464946204601F0BBFB38
:1016F00018B1012007B0BDE8F08F21682020C86133
:1017000021684A68074B1A404A6084F8410084F80F
:10171000425084F840500020ECE70220EAE7000045
:101720000024008000E800FE2DE9FF4F83B004464E
:10173000DDE9108790F84100DDF848909A4693461D
:10174000202871D15FEA080014D09FB194F84000BE
:10175000012869D0012084F84000FFF77BFE06468F
:10176000012200901923D103204601F03FFB0028FD
:101770006ED103E04FF40070606469E0212084F8CA
:101780004100402084F8420000256564C4F82480AC
:1017900067856563CDE9009653465A46204604990D
:1017A00001F0DAFA10B184F8405051E0608DFF2763
:1017B0004FF080784FF0007AFF2804D927853A4609
:1017C0004346009505E0608D2085009594F828201B
:1017D00053462046049901F0F1FA32464946204624
:1017E00001F06CFBA0BB606A216800788862606AC7
:1017F000401C6062608D401E6085208D401E80B25E
:101800002085618DD9B1D0B94B4600228021204678
:10181000009601F0EBFAD8B9608DFF2805D927852D
:101820003A464346009506E026E0608D2085009507
:1018300094F8282053462046049901F0BFFA608DA1
:101840000028CAD132464946204601F00CFB18B1A7
:10185000012007B0BDE8F08F20682021C161206819
:101860004268064B1A40426084F8411084F84250A6
:1018700084F840500020ECE70220EAE700E800FE90
:101880002DE9F04198B00446142111A8FEF70AFD95
:1018900044216846FEF706FD20492068884239D178
:1018A0004020002500900695684600F035F908B103
:1018B000FFF726FC1A4CE06C40F00100E064E06C9D
:1018C00000F001001690E06C40F00200E064E06C73
:1018D00011A900F0020016904FF4004012264FF0BC
:1018E000010881E841010427CDE91457B006FFF74C
:1018F0008DFC11A9802081E84101CDE914570948E8
:10190000FFF784FCA06D40F40010A065A06D00F40A
:101910000010169018B0BDE8F0810000005400409F
:1019200000100240000400480248816842681144E7
:10193000816070470800002010B50024032000F0EB
:1019400073F80F2000F008F808B1012401E000F05E
:1019500025F8204610BD000070B50E4E0546002447
:10196000706898B14FF47A71B1FBF0F00A490968D8
:10197000B1FBF0F000F05EFD40B9102D06D2002260
:101980002946501E00F030F8356000E00124204662
:1019900070BD000008000020140000200A4882B03A
:1019A000016E41F001010166016E01F0010100913B
:1019B000816D41F080518165806D00F08050009014
:1019C00002B000F0A1B8000000100240002809DBBE
:1019D00000F01F02012191404009800000F1E02049
:1019E000C0F8001170470000F0B40E4B1B680C46A5
:1019F000C3F30223C3F10705042D00D90425191DE3
:101A0000072901D2002300E0DB1E012606FA05F1BA
:101A1000491E214099409E40761E16403143F0BC3D
:101A200002F0C4BB0CED00E0064900F007020868B4
:101A30004FF6FF03184040EA0220034A10430860B3
:101A4000704700000CED00E00000FA052B492C4B1C
:101A50000A6832214A432B4940B1B0F5007F08683B
:101A600029D020F4C06040F480602CE00868C0F306
:101A70004120022804D051F8800F20F4807022E029
:101A8000D1F8800020F48070C1F88000086820F44C
:101A9000C06040F400700860B2FBF3F0401C00E04E
:101AA000401E4A69520501D50028F9D14869400510
:101AB0000AD503207047C0F34120022806D051F810
:101AC000800F40F48070086000207047D1F88000DB
:101AD00040F48070C1F88000086820F4C06040F4D1
:101AE00000700860B2FBF3F0401C00E0401E4A6941
:101AF0005205DBD50028F9D1D8E7000014000020FA
:101B000040420F00007000400248816841F480416B
:101B100081607047007000402DE9F843044600687A
:101B200000269D4D00035ED5A86D0027C00008D497
:101B3000A86D40F08050A865A86D012700F0805086
:101B40000090DFF85892D9F8001041F48071C9F87C
:101B50000010FFF77FFC804606E000BFFFF77AFC2D
:101B6000A0EB080002282BD8D9F80000C005F5D555
:101B7000D5F8900010F4407014D0216C814211D03F
:101B8000D5F89000D5F8901020F4407041F48031E1
:101B9000C5F89010D5F8901021F48031C5F8901058
:101BA000C5F89000C00711D0FFF754FC804641F201
:101BB000883907E0FFF74EFCA0EB0801494501D941
:101BC00003260BE0D5F890008007F3D5D5F89000F8
:101BD000216C20F440700843C5F890001FB1A86D37
:101BE00020F08050A8652078C00707D0D5F888007D
:101BF000616820F003000843C5F88800207880075A
:101C000007D5D5F88800A16820F00C000843C5F876
:101C100088002078400707D5D5F88800E16820F0D3
:101C200030000843C5F888002078000707D5D5F8AC
:101C30008800216920F0C0000843C5F8880020789A
:101C4000800607D5D5F88800616920F44060084314
:101C5000C5F888002078400607D5D5F88800A16926
:101C600020F440500843C5F888002078000607D5C6
:101C7000D5F88800E16920F440400843C5F88800A1
:101C80002088C00507D5D5F88800216A20F44030A7
:101C90000843C5F888002088800507D5D5F8880056
:101CA000616A20F440200843C5F888002088400578
:101CB0000FD5D5F88800A16A20F440100843C5F874
:101CC0008800A06AB0F5801F03D1E86840F4801056
:101CD000E860208800050FD5D5F88800E16A20F477
:101CE00040000843C5F88800E06AB0F5800F03D1D2
:101CF000E86840F48010E8602088C0040FD5D5F86B
:101D00008800216B20F040700843C5F88800206BE4
:101D1000B0F1807F03D1E86840F48010E86020884B
:101D20004FF0006180040ED5D5F88800626B20F07A
:101D300040601043C5F88800606B884203D1E868B2
:101D400040F48010E860208840040ED5D5F8880063
:101D5000A26B20F040601043C5F88800A06B884259
:101D600003D1E86840F48010E860208800040FD5B3
:101D7000D5F88800E16B20F040500843C5F8880092
:101D8000E06BB0F1805F03D1E86840F48030E86038
:101D90003046BDE8F88300000010024000700040AB
:101DA0002DE9F0470E4605004FF0000725D0DFF87B
:101DB000AC81D8F8000000F00F00B0420CD2D8F887
:101DC000001021F00F013143C8F80010D8F80000CE
:101DD00000F00F00B04210D12968614CC80741F2F1
:101DE000883A5AD06868DFF87C91032808D0022826
:101DF00020682DD0400500282CDB0120BDE8F087AD
:101E000020688001F9D5E06800F00302E068C0F3C3
:101E10000310401C032A19D0534A00BFB2FBF0F054
:101E2000E268C2F306225043E268C2F34162521CE8
:101E30005200B0FBF2F0484517D9A06810F0F00F3F
:101E40000CD0880711D5A86840B10EE0474AE5E7F5
:101E50008003D0E700F0B6F8484506D9A06820F026
:101E6000F00040F08000A0608027A068696820F042
:101E700003000843A060FFF7EDFA814606E000BFCB
:101E8000FFF7E8FAA0EB090151453AD8A068696864
:101E900000F00C00B0EB810FF2D12868810714D557
:101EA000400703D5A06840F4E060A06028780007F0
:101EB00005D5A06820F4605040F4E060A060A06800
:101EC000A96820F0F000084304E0802F03D1A06847
:101ED00020F0F000A060D8F80010404601F00F019B
:101EE000B14216D9016821F00F0131430160FFF7BB
:101EF000B1FA074607E000BFFFF7ACFAC11B514536
:101F000001D903207AE7D8F8000000F00F00B042B2
:101F1000F2D12878400705D5A068E96820F4E06090
:101F20000843A0602878000706D5A068296920F436
:101F3000605040EAC100A06000F044F8A1680C4A7B
:101F4000C1F30311515C01F01F01C8400949086049
:101F500009480068BDE8F047FFF7FEBC00200240DA
:101F60000010024000B4C4040024F40000127A00FF
:101F70007E60000814000020080000200548064983
:101F800000688968054AC1F30221515C01F01F0114
:101F9000C840704714000020001002408E60000806
:101FA0000548064900688968054AC1F3C221515CA9
:101FB00001F01F01C84070471400002000100240CB
:101FC0008E600008184910B58868C0F38102174870
:101FD000012A0BD08A684310C2F38102022A06D07C
:101FE0008A68C2F38102032A03D0002010BD18467C
:101FF00010BDCA6802F00304CA68C2F30312521C7F
:10200000032C02D0B0FBF2F001E0B3FBF2F0CA689F
:10201000C968C2F306225043C1F34161491C49001B
:10202000B0FBF1F010BD0000001002400024F400ED
:102030002DE9F84304007AD02078F84DC00747D046
:10204000A868E96800F00C0001F003010C2802D038
:10205000082817D001E0032914D06068B0F5803F4C
:1020600017D0B0F5A02F286817D020F48030286052
:10207000286820F4802028606068E0B1FFF7EAF962
:10208000064614E02868800322D560680028D2D074
:102090001EE0286840F48030EDE740F4802028609E
:1020A000F7E700BFFFF7D6F9801B642870D82868CF
:1020B0008003F7D50CE0FFF7CDF9064605E000BF39
:1020C000FFF7C8F9801B6428F0D828688003F7D48C
:1020D000207880074CD5A868E96800F00C0001F072
:1020E00003010C2802D004280DD001E002290AD0F7
:1020F000E068002828682BD040F480702860FFF743
:10210000A9F9064619E02868400502D5E0680028CC
:1021100091D06868217C20F0FE4040EA0160686050
:10212000BF480068FFF718FC002800D120E072E1EA
:10213000FFF790F9801B0228B8D828684005F7D52A
:102140006868217C20F0FE4040EA016068600FE092
:1021500020F480702860FFF77DF9064605E000BF97
:10216000FFF778F9801B0228A0D828684005F7D42B
:102170002078000729D560690028D5F8940013D08D
:1021800040F00100C5F89400FFF764F9064606E048
:1021900090E000BFFFF75EF9801B022886D8D5F8D3
:1021A00094008007F6D510E020F00100C5F89400F7
:1021B000FFF750F9064604E0FFF74CF9801B0228B0
:1021C00078D8D5F894008007F6D42078400761D5F8
:1021D000A86D0026C00008D4A86D40F08050A86506
:1021E000A86D012600F0805000908E480168C90556
:1021F00011D40168804641F480710160FFF72AF92B
:10220000074604E0FFF726F9C01B022852D8D8F889
:102210000000C005F6D5A068012815D00528D5F81E
:10222000900016D020F00100C5F89000D5F890007D
:1022300020F00400C5F89000A06841F28838B8B1D9
:10224000FFF708F907460EE0D5F8900040F00100CE
:10225000F0E740F00400C5F89000F5E7FFF7FAF862
:10226000C11B414526D8D5F890008007F6D50CE073
:10227000FFF7F0F8074604E0FFF7ECF8C11B414513
:1022800018D8D5F890008007F6D41EB1A86D20F0BC
:102290008050A8652078800629D5A0690028D5F847
:1022A000980013D040F00100C5F89800FFF7D2F86D
:1022B000064606E075E000BFFFF7CCF8801B022859
:1022C0006FD8D5F898008007F6D510E020F001000F
:1022D000C5F89800FFF7BEF8064604E0FFF7BAF825
:1022E000801B02285DD8D5F898008007F6D4E069F5
:1022F000F0B3A968C1F3810103295DD002282868E1
:1023000020F08070286003D0FFF7A4F804464BE06B
:10231000FFF7A0F8064604E0FFF79CF8801B0228B0
:102320003FD828688001F7D4F4E908016FF00F0264
:1023300002EB01110843218A5204490802EB415182
:10234000A26841EA02210843217D4FF07E424908FC
:1023500002EB41610843217B40EAC160E968324AEF
:1023600011400843E860286840F08070286000E071
:102370005EE0E86840F08070E860FFF76BF80446C4
:1023800005E000BFFFF766F8001B022809D828689F
:102390008001F7D54CE000BFFFF75CF8001B022876
:1023A00002D90320BDE8F88328688001F4D4E868E6
:1023B0001E490840E8603BE00128F3D0E868226A43
:1023C00000F00301914226D1616A00F0F002090198
:1023D000103991421FD1A26A00F4FE41B1EB022FE5
:1023E00019D194F82C2000F07841B1EBC26F12D1D2
:1023F000218E00F4C00249084905A1F5001191425F
:1024000009D194F8341000F0C06049084906A1F1E0
:10241000007181420CD00120C4E70000001002408E
:1024200008000020007000400C809F01FCFFEEFEC1
:102430000020B7E710B5401EB0F1807F01D3012026
:1024400010BD4FF0E02460610F21601701F0AEFE77
:102450000020A06107202061002010BDF0B590F899
:102460003C20012A3AD0012580F83C50022280F815
:102470003D2003685A689C68194E1A4FB34201D038
:10248000BB4204D122F4700C4A6842EA0C02DFF825
:1024900058C002EA0C02D1F800C04CEA020CC3F8A2
:1024A00004C00268B2420DD0B2F1804F0AD00F4B87
:1024B0009A4207D00E4B9A4204D0BA4202D00D4B3A
:1024C0009A4204D1896824F080031943916080F80E
:1024D0003D50002180F83C100846F0BD0220F0BDC0
:1024E000002C0140003401408FFFFFFD000400403C
:1024F000000800400040014010B5040003D094F8EB
:102500003D0010B107E0012010BD002084F83C0020
:10251000204600F023F8022084F83D00211D2068A9
:1025200001F034F8012084F8480084F83E0084F873
:102530003F0084F8400084F8410084F8420084F8A9
:10254000430084F8440084F8450084F8460084F889
:10255000470084F83D00002010BD000008B5006869
:102560000649884208D10648816D41F01001816515
:10257000806D00F01000009008BD000000100040C9
:102580000010024090F88410012918D0012180F831
:1025900084102421C0F8881001680A680B6823F0B1
:1025A00001030B6022F000510022426603681960AB
:1025B0002021C0F8881080F884201046704702203F
:1025C00070477047704770B5044690F88400012842
:1025D0001DD0012084F884002420C4F888002068DD
:1025E0000568026822F0010202602068826822F019
:1025F00060620A438260204601F026F82068056088
:102600002020C4F88800002084F8840070BD0220D7
:1026100070BD70B5044690F8840001281DD00120DB
:1026200084F884002420C4F88800206805680268C3
:1026300022F0010202602068826822F060420A43B0
:102640008260204601F000F8206805602020C4F870
:102650008800002084F8840070BD022070BD70479F
:10266000704770472DE9F04103680446D86919683E
:102670009A6840F60F0528424FF000054FF0020619
:102680000AD187067ED501F0200702F0805C57EA68
:102690000C0777D0616F42E1B64FDFF8DCC217401C
:1026A00001EA0C0C57EA0C0C6CD05FEAC07C0CD031
:1026B0005FEAC15C09D54FF0010CC3F820C0D4F823
:1026C000903043F00103C4F89030830709D5D30755
:1026D00007D023681E62D4F8903043F00403C4F896
:1026E000903043070AD5D30708D026680423336205
:1026F000D4F8903043F00203C4F8903003070CD5AF
:1027000001F020033B4308D0266808233362D4F845
:10271000903043F00803C4F8903003050BD54B010B
:1027200009D526684FF400633362D4F8903043F043
:102730002003C4F89030D4F89030002B3DD08006B0
:1027400009D501F0200002F08051084303D0616FE9
:1027500009B120468847D4F8900021688968490665
:1027600002D410F0280F2AD0204601F051F820683A
:10277000806840061ED52068083050E8001F21F010
:10278000400100E021E040E80012002AF3D1D4F833
:10279000800078B179498163D4F88000FEF7E7FCC6
:1027A00000280AD0D4F88000816B00E02046BDE804
:1027B000F04108472046FFF754FFBDE8F08120466E
:1027C000FFF74FFFC4F89050F7E7D4F86CC020270C
:1027D000BCF1010F7ED15FEAC06C7BD55FEAC16CB2
:1027E00078D51020186220688068400651D5D4F84A
:1027F00080100A6850680004000C3ED0B4F85C30C9
:1028000083423AD9A4F85E000868006880062CD498
:10281000216851E8000F20F4807041E80002002A8E
:10282000F6D12068083050E8001F21F0010140E88F
:102830000012002AF5D12068083050E8001F21F06E
:10284000400140E80012002AF5D1C4F88C70E5661A
:10285000216851E8000F20F0100041E80002002A32
:10286000F6D1D4F88000FEF74DFC2667B4F85C0082
:10287000B4F85E10401A81B207E0B4F85C108142EF
:102880009BD11068800698D526672046FFF799FEF1
:1028900093E7B4F85C00B4F85E10401A81B2B4F863
:1028A0005E00002889D0002987D0226852E8000FF6
:1028B00020F4907042E80003002BF6D12D4BDB434F
:1028C0002068083050E8002F1A4040E8002CBCF186
:1028D000000F00E00EE0F3D1C4F88C70E566656788
:1028E000206850E8002F22F0100240E80023002B5F
:1028F000F6D1C9E7C60209D5560207D54FF48010B4
:1029000018622046BDE8F041FFF7AABE03060AD5CB
:1029100001F0800302F40002134304D0A16F0029E8
:102920007FF444AF49E7420611D54A060FD5204649
:10293000016851E8002F22F0400241E80023002BFB
:10294000F6D1C0F88870856700F03BF935E70202E0
:1029500006D54A0004D52046BDE8F041FFF77FBE0A
:10296000C00195D5002993DA2046BDE8F041FFF774
:1029700029BE0000010000102001000401380008F9
:1029800010B5040003D0D4F8880010B107E001208E
:1029900010BD002084F88400204600F027F8242091
:1029A000C4F888002068016821F001010160A06A74
:1029B00010B1204600F06AFE204601F0BBF9012864
:1029C000E6D02068416821F4904141602068816828
:1029D00021F02A0181602068016841F00101016055
:1029E0002046BDE8104000F0B5BE000010B598B01C
:1029F0000446142111A8FDF755FC44216846FDF753
:102A000051FC1B492068884230D101200024CDE9C7
:102A100000046846FFF780F808B1FEF771FB15481F
:102A2000016E41F480410166016E01F4804116910E
:102A3000C16C41F00101C164C06C11A900F001003A
:102A400016904FF4C06011900220CDE912040720C7
:102A5000CDE914404FF09040FEF7D8FB002211461C
:102A60002520FEF7C1FF2520FEF7B0FF18B010BDEE
:102A7000003801400010024030B4D0F88C30202BD8
:102A800002D0022030BC7047A9B1A2B10023C366B6
:102A90000A4C0368A3420BD05B681B0208D504688C
:102AA00054E8003F43F0806344E80035002DF6D140
:102AB00030BC01F079BA0120E4E70000008000405A
:102AC0000068104988421BD10F48104B0146C2785C
:102AD00049780A2A0ED00D2A0CD03B2A0AD03F2969
:102AE00002D25A54491C417007490122C91C0848A6
:102AF000FFF7C2BF00225A54012181704270F3E7F0
:102B00007047000000380140040000203800002019
:102B1000180100202DE9F8430446D0F888009846B3
:102B200016460D46202802D00220BDE8F883A5B144
:102B30009EB10020C4F890002120C4F88800183409
:102B4000FEF788FCA6878146E68754F8100C2027FC
:102B5000183CB0F5805F02D003E00120E5E7206972
:102B600010B12E46002510E000260EE08021204600
:102B700001F0A2FAC0B9DEB116F8010B2168886233
:102B8000B4F85600401EA4F85600B4F856004B4660
:102B90004FF00002CDF800800028E7D14FF040014F
:102BA000204601F089FA40B1C4F888700320BCE7E0
:102BB00035F8020BC0F30800E0E7C4F88870002085
:102BC000B3E77047FEE701688A69D243920701D4F0
:102BD00000228A6200688169C943C90703D08169FC
:102BE00041F00101816170472DE9F047044600681A
:102BF00089460026816935461746C9064FF02008E8
:102C000041D51021C1612FE0B9F1FF3F2CD0FEF773
:102C100021FCC11B494502D8B9F1000F24D120681D
:102C2000416894F8422001F480418369DB431B042E
:102C300015D4B1F5804F12D0202A10D0416841F44C
:102C400080414160FEF706FC074608E0FEF702FC03
:102C5000C01B192803D945F02005012604E020688F
:102C60008069C0438006F1D420688069C043800633
:102C700002D5002EC8D003E016B92168C1F81C8027
:102C800045F00405012621688869C20505D54FF481
:102C9000807245F00105CA610126410509D5226807
:102CA0004FF4806145F00805D1610126800502D40A
:102CB0000AE0800507D521684FF4007045F0020551
:102CC000C861012600E086B12046FFF77CFF54F87A
:102CD000240B4168064A11404160206A2843206263
:102CE00084F81D800020A07720773046BDE8F0876B
:102CF00000E800FE2DE9F84304461646DDE9089792
:102D000014489846DAB200900023204600F056F8A6
:102D10003A464946204600F0D1F8B8B9F5B2B8F1C4
:102D2000010F08D02168300A88623A464946204699
:102D300000F0C4F850B9206885624B46002240215B
:102D40002046009700F052F8002800D00120BDE88E
:102D5000F8830000002000802DE9F8430446164661
:102D600015489846DDE90897DAB2C302009020467C
:102D700000F024F83A464946204600F09FF8B8B9DA
:102D8000F5B2B8F1010F08D02168300A88623A46DE
:102D90004946204600F092F850B9206885624B46BB
:102DA000002280212046009700F020F8002800D063
:102DB0000120BDE8F88300000020008010B5C1F3B9
:102DC000090141EA02410268029C1943214350680B
:102DD00021F000414FF4806303EA5453024C234333
:102DE00098430843506010BDFF63FF032DE9F04195
:102DF0001D4617460E460446DDF8188027E0424679
:102E000029462046FFF7F0FE10B10120BDE8F08111
:102E1000681C1CD0FEF71EFBA0EB0800A84200D8DF
:102E2000ADB92068806936EA00000ED00020B842B3
:102E30000DD154F8440F40F0200044F8040920203C
:102E400060700020A0702070DFE70120EFE72068AD
:102E5000806936EA000004D00020B842CFD00020BC
:102E6000D4E70120F9E770B516460D4604461EE08A
:102E7000324629462046FFF7B7FE08B1012070BD53
:102E8000FEF7E8FA801BA84200D885B9206880695F
:102E9000C04380060BD554F8440F40F0200044F89E
:102EA0000409202060700020A0702070E6E72068F0
:102EB0008069C0438006DBD4002070BD70B5164623
:102EC0000D46044620E0324629462046FFF78CFE98
:102ED00008B1012070BD681C16D0FEF7BBFA801B3C
:102EE000A84200D885B920688069C04380070BD507
:102EF00054F8440F40F0200044F80409202060708A
:102F00000020A0702070E4E720688069C04380073B
:102F1000D9D4002070BD000070B52B4C05462DEDB6
:102F2000068BB0EE419AB0EE608AF0EE409A21B185
:102F3000012932D0022933D036E029EEA90A08EE61
:102F4000080A10EE100AFDF79EFC41EC100B01F090
:102F500017FE51EC100BFDF7A9FC9FED1C0A79EE52
:102F6000408AFDF790FC41EC1A0B18EE900AFDF731
:102F70008AFC41EC100BB0EE4A1AF0EE6A1A01F02E
:102F80003FFC9FED131B51EC100B53EC112BFDF785
:102F900008FCFDF78BFC206006E09FED0F0A01E0C6
:102FA0009FED0E0A84ED000AD4ED001AB0EE491A26
:102FB000F0EE480AB0EE690ABDEC068B2846BDE883
:102FC000704000F00DB800000000002000005C42DE
:102FD00000000000DCA54C40000000000000B4C26E
:102FE00070B505462DED0C8BF0EE408AB0EE61BA5F
:102FF000F0EE419AB0EE608A18EE900AFDF743FCBD
:1030000041EC1A0B18EE100AFDF73DFC41EC100BD9
:10301000B0EE4A1AF0EE6A1A01F0F2FB9FED821B45
:1030200051EC100B53EC112BFDF7BBFB9FED80AB6C
:1030300053EC1A2BFDF7B2FBFDF738FC7E4C9FEDED
:103040007F0A20602BEE009A28EEA80A08EE080AF4
:1030500010EE100AFDF717FC41EC100B01F090FD8B
:1030600051EC100BFDF722FC064619EE100AFDF795
:103070000AFC41EC100B01F0BBFC53EC1A2B51EC99
:10308000100BFDF78EFB41EC180B3046FDF7FBFBF8
:1030900053EC182BFDF77FFBFDF708FC08EE900AB8
:1030A00019EE100AFDF7EFFB41EC100B01F004FDE7
:1030B00053EC1A2B51EC100BFDF773FB41EC1A0B80
:1030C0009FED5F0A39EEC00A10EE100AFDF7DBFB38
:1030D00053EC1A2BFDF75FFBFDF7E8FB68EEA89AAF
:1030E0000AEE100A4AEE0A9A19EE900AFDF7CBFB97
:1030F00041EC100B01F044FD51EC100BFDF7D6FB39
:1031000009EE100A4F4919EE100ADFED4FBA884256
:1031100001DDB0EE6B9A9FED4D0A4FF07E56F7EE53
:1031200000AA70EE690A80EE808A18EE100AB0429A
:1031300002DDB0EE6A8A06E018EE100A10F1814F47
:1031400001D9BFEE008A18EE100AFDF79CFB41EC96
:10315000100B01F03DF851EC100BFDF7A7FB00EE52
:10316000100A9FED3BDA9FED3B8ADFED3B0A20EE34
:103170000D0A18EE900A38EE400A30EE200A38EEBA
:10318000400A84ED020AFDF77EFB41EC1C0B1AEEAF
:10319000100AFDF778FB41EC100BB0EE4C1AF0EE84
:1031A0006C1A01F02DFB51EC100BFDF77FFB9FED2E
:1031B0002B0A0AEE100A79EE800A30EEC00A69EE98
:1031C0002B0AC0EE208A18EE900AB04201DDF0EE24
:1031D0006A8A18EE900AFDF756FB41EC100B00F0DE
:1031E000F7FF51EC100BFDF761FB00EE100A2846CB
:1031F00018223AEE000A104920EE0D0A38EE400A75
:1032000084ED010A30EE0B0AD4ED020A30EE200AFA
:10321000DFED130A30EEC00A84ED030ABDEC0C8B1F
:10322000BDE87040FDF725B800000000DCA54C406B
:1032300000000000008056402000002035FA8E3C3F
:1032400000005C4200007042000070420000E14457
:10325000E02E6542000034430000B44200006144A7
:103260000000B4430D4808B5C16C41F02001C164B1
:10327000C16C01F020010091C16C41F00101C164F9
:10328000C16C01F001010091C16C41F00201C16407
:10329000C06C00F00200009008BD00000010024069
:1032A000134810B511490160124941600021012203
:1032B000C0E90212016141618161C1610162FEF7F1
:1032C00023F908B1FDF71CFF00210948FEF7C8F8F3
:1032D00008B1FDF715FF00210548FEF7ECF80028BE
:1032E00003D0BDE81040FDF70BBF10BD00540040F7
:1032F00078000020C285B2403EB5002410480094FA
:1033000001940E490294016040F2A361C0E90114E6
:1033100040F2F311C16080218161FFF7EDF808B13F
:10332000FDF7EEFE0094694605480294FFF796F813
:10333000002801D0FDF7E4FE3EBD00000010004073
:10334000CC000020184810B5164901604FF4E13157
:103350004160002181600C22C160C0E904128161DA
:10336000C161016241628162FFF70AFB08B1FDF7AA
:10337000C7FE00210C48FFF74CF908B1FDF7C0FE6D
:1033800000210948FFF71FF908B1FDF7B9FE06480B
:10339000FFF7F8F8002803D0BDE81040FDF7B0BEF5
:1033A00010BD00000038014018010020FEE7FEE7D4
:1033B00070B500212DED028BB0EE408A084600F07A
:1033C00093F89FED180AC0EE080AB7EE000A30EE37
:1033D000C00AF6EE000A30EE200ABCEEC00A10EE7B
:1033E000100AC5B2002000F01FF8044600F07F006C
:1033F00040F01001002000F077F82946FE2000F090
:1034000073F82146002000F06FF80520FDF7ECFE70
:10341000BDEC028B44F0A101BDE87040002000F03B
:1034200063B8000020BCBE451FB500218DF80C100C
:103430000A23012203A98DE80E00134602468021CB
:103440000348FEF7BFF89DF80C0004B010BD000063
:10345000780000201FB5002303938DF80C10090A93
:103460008DF80D108DF80E20110A8DF80F100A231B
:10347000042203A98DE80E00062101EB800201233E
:1034800080210248FEF750F91FBD0000780000209F
:10349000DFED110AB5EEC00A0E4AF1EE10FA02D2C3
:1034A0009FED0E0A05E010EE101A914201DDB0EE1C
:1034B000600A80EE201ADFED0A0A9FED0A0A01EE8B
:1034C000200ABCEEC00A10EE101A8AB20021FFF7E3
:1034D000C1BF00000000344300003443000000007E
:1034E0000000CD430000CC4203B583B00A23012283
:1034F00004A98DE80E001346024680210248FEF71B
:1035000013F905B000BD0000780000207047704737
:10351000FEF70ABA00B593B038216846FCF7C2FE40
:1035200014210EA8FCF7BEFE0020FEF78FFA022041
:10353000C1010391402104910421CDE908010090CB
:103540005521CDE90A1007900C900D906846FEF7C2
:103550006FFD08B172B6FEE70F200E9003200F90AA
:10356000002010901190129004210EA8FEF718FC74
:10357000002801D072B6FEE713B000BD0248016812
:1035800041F470010160704788ED00E02DE9F043DF
:103590000268264B264D274E274C4FF08049984213
:1035A00007D0484505D0A84203D0B04201D0A04280
:1035B00003D122F070074A683A43204FDFF880C0F9
:1035C000DFF8808098420DD048450BD0A84209D042
:1035D000B04207D0A04205D0B84203D0604501D028
:1035E000404503D122F44075CA682A434D6922F050
:1035F00080022A4302608A68C2620A688262984234
:1036000007D0A04205D0B84203D0604501D0404564
:1036100001D109690163012141610169C90703D031
:10362000016921F001010161BDE8F083002C014036
:103630000004004000080040003401400040014008
:10364000004401400048014030B5416EB9B1026804
:1036500091689268C1F342610B4B520F9C5CE5008C
:1036600003F10804A25CB5FBF2F2A0F86A205A5CF0
:10367000615CD200B2FBF1F1A0F8681030BD01210D
:10368000A0F86A10F8E700006E60000890F82810B3
:10369000090706D501684A68836B22F400421A4381
:1036A0004A6090F82810C90706D001684A68C36AC2
:1036B00022F400321A434A6090F82810890706D590
:1036C00001684A68036B22F480321A434A6090F81A
:1036D0002810490706D501684A68436B22F4802206
:1036E0001A434A6090F82810C90606D501688A680E
:1036F000C36B22F480521A438A6090F8281089061E
:1037000006D501688A68036C22F400521A438A6065
:1037100090F82810490611D501684A68436C22F4D4
:1037200080121A434A60416CB1F5801F06D10168CE
:103730004A68836C22F4C0021A434A6090F8281049
:10374000090606D501684A68C06C22F400220243CB
:103750004A6070472DE9F84300260446C0F890609F
:10376000FDF778FE8046206800684FF020050007CE
:103770006FF07E4713D54346002229042046009768
:1037800000F09AFC58B1216851E8000F20F0800049
:1037900041E80002002AF6D1C4F8885021E02068F0
:1037A0000068400722D5434600224FF4800120469E
:1037B000009700F081FCC8B1216851E8000F20F4A7
:1037C000907041E80002002AF6D12068083050E8E5
:1037D000001F21F0010140E80012002AF5D1C4F8D1
:1037E0008C5084F884600320BDE8F883C4F88850C6
:1037F000C4F88C5044F86C6F666026760020F3E7BE
:1038000010B5806A0021A0F85E10FEF72AFF10BDF7
:1038100010B5026852E8001F21F4907142E80013CD
:10382000002BF6D10E4B0268083252E8001F1940F7
:1038300042E80014002CF6D1C16E012908D10168BC
:1038400051E8002F22F0100241E80023002BF6D1AE
:103850002021C0F88C100021C166416710BD000016
:10386000FEFFFFEF10B5B0F86020D0F88C30016893
:10387000222B04D0886940F00800886110BD496A95
:10388000836D11401980816D891C8165B0F85E10CF
:10389000491EA0F85E10B0F85E100029EED1026853
:1038A00052E8001F21F4907142E80013002BF6D17A
:1038B0000168083151E8002F22F0010241E800239D
:1038C000002BF5D12021C0F88C1000214167016741
:1038D000154B02689A420BD05268120208D5036851
:1038E00053E8002F22F0806243E80024002CF6D138
:1038F000C26E012A02D0FFF7E3F810BDC16602686C
:1039000052E8001F21F0100142E80013002BF6D10D
:103910000168CA69D243D20601D410220A62B0F803
:103920005C10FEF74EFE10BD008000402DE9F04710
:103930000446B0F860600068C569D0F800A0D0F80F
:103940000890D4F88C10222905D0816941F0080133
:103950008161BDE8F087B4F868704FF0000844E07A
:103960002068406AA16D30400880A06D801CA06571
:10397000B4F85E00401EA4F85E002068C5696907BF
:1039800030D0E9070AD05FEACA5107D501210162A8
:10399000D4F8900040F00100C4F89000A8070BD5BF
:1039A0005FEAC97008D0216802200862D4F890004C
:1039B00040F00400C4F8900068070BD55FEAC970B6
:1039C00008D0216804200862D4F8900040F002007A
:1039D000C4F89000D4F8900020B12046FEF741FED4
:1039E000C4F89080B4F85E0000B30FB1A806B7D455
:1039F000B4F85E000028ACD0B4F868108142A8D9B1
:103A00002068083050E8001F21F0805140E8001283
:103A1000002AF5D12A486067206850E8001F41F06D
:103A2000200140E80012002AF6D192E7216851E80F
:103A3000000F20F4807041E80002002AF6D1214AEC
:103A40002068083050E8001F114040E80013002BA8
:103A5000F6D12020C4F88C00C4F874804046C4F825
:103A60007080194A216891420BD04968090208D533
:103A7000226852E8001F21F0806142E80013002B09
:103A8000F6D1E16E012903D02046FFF719F8AFE720
:103A9000E066216851E8000F20F0100041E80002C4
:103AA000002AF6D12068C169C943C90601D4102192
:103AB0000162B4F85C102046FEF783FD98E7000031
:103AC00065380008FEFFFFEF0080004010B5B0F839
:103AD0006020D0F88C300168222B04D0886940F037
:103AE0000800886110BD496A1140826D1170816DB6
:103AF000491C8165B0F85E10491EA0F85E10B0F850
:103B00005E100029EED1016851E8002F22F4907276
:103B100041E80023002BF6D10168083151E8002F5D
:103B200022F0010241E80023002BF5D12021C0F84A
:103B30008C10002141670167154B02689A420BD037
:103B40005268120208D5036853E8002F22F0806201
:103B500043E80024002CF6D1C26E012A02D0FEF701
:103B6000AFFF10BDC166026852E8001F21F01001CE
:103B700042E80013002BF6D10168CA69D243D2068D
:103B800001D410220A62B0F85C10FEF71AFD10BDD5
:103B9000008000402DE9F0470446B0F860600068FE
:103BA000C569D0F800A0D0F80890D4F88C1022296C
:103BB00005D0816941F008018161BDE8F087B4F862
:103BC00068704FF0000844E02068406AA16D304002
:103BD0000870A06D401CA065B4F85E00401EA4F8FB
:103BE0005E002068C569690730D0E9070AD05FEA3E
:103BF000CA5107D501210162D4F8900040F00100BC
:103C0000C4F89000A8070BD55FEAC97008D02168F6
:103C100002200862D4F8900040F00400C4F890003C
:103C200068070BD55FEAC97008D0216804200862D4
:103C3000D4F8900040F00200C4F89000D4F890004E
:103C400020B12046FEF70DFDC4F89080B4F85E0068
:103C500000B30FB1A806B7D4B4F85E000028ACD00A
:103C6000B4F868108142A8D92068083050E8001FD5
:103C700021F0805140E80012002AF5D12A486067FF
:103C8000216851E8000F40F0200041E80002002ABE
:103C9000F6D192E7216851E8000F20F4807041E8E6
:103CA0000002002AF6D1214A2068083050E8001F9F
:103CB000114040E80013002BF6D12020C4F88C00FE
:103CC000C4F874804046C4F87080194A2168914253
:103CD0000BD04968090208D5226852E8001F21F07C
:103CE000806142E80013002BF6D1E16E012903D078
:103CF0002046FEF7E5FEAFE7E066206850E8001FCB
:103D000021F0100140E80012002AF6D12068C169B4
:103D1000C943C90601D410210162B4F85C102046E1
:103D2000FEF74FFC98E70000CD3A0008FEFFFFEFDA
:103D3000008000402DE9F041044601688068226956
:103D4000E3691043626900251A431043DFF82CC26F
:103D50000A688B4B1A4002430A6020684168E26897
:103D600021F44051114341602168A069614501D0AF
:103D7000226A10438A68834B1A4002438A60206893
:103D8000C16A626A21F00F011143C1627E49236852
:103D90007E488B420DD1D0F8880010F0030006D089
:103DA000012855D0022842D003283FD152E00120FB
:103DB0003DE077498B420BD1D0F8880010F00C0021
:103DC00035D0042833D0082840D00C282ED141E02B
:103DD00070498B420BD1D0F8880010F0300026D00B
:103DE000102835D0202831D030281FD132E06A4940
:103DF0008B420BD1D0F8880010F0C00017D04028BB
:103E000026D0802822D0C02810D123E063450DD1D0
:103E1000D0F8880010F4406009D0B0F5806F17D05A
:103E2000B0F5006F12D0B0F5406F13D010205B4991
:103E30005B4F00264FF4004263453BD160B102283E
:103E400013D004280BD0082872D10DE00220EEE731
:103E50000420ECE70820EAE7FEF790F801E0FEF71F
:103E6000B1F8010001D17CE01146606A37F81020FA
:103E70006768B1FBF2F007EB4703834270D8B0EB01
:103E8000073F6DD8002308461946FCF7C1F909021F
:103E900041EA106102027808101871413A46002385
:103EA000FCF7B6F93F4AA0F54071914258D8216815
:103EB000C86056E0E3694FF6EF7893422CD10928A9
:103EC0004ED2DFE800F00508114D0D4D4D4D1000AC
:103ED000FEF754F801E0FEF763F8010004D140E07A
:103EE000FEF770F8F9E71146606A37F81000B1FB89
:103EF000F0F04100606801EB5001B1FBF0F0A0F17F
:103F0000100141452CD84FF6F0710140C0F342003A
:103F100001432068C16024E0092821D2DFE800F0D5
:103F2000050912200E2020201100FEF727F802E0DC
:103F300016E0FEF735F8010004D112E0FEF742F872
:103F4000F9E71146606A37F81000B1FBF0F16068DC
:103F500001EB5001B1FBF0F0A0F1100141450AD98D
:103F600001250120A4F86A0024F8680F2846E660BD
:103F70002661BDE8F08180B299E700000080004032
:103F8000F369FFCFFFF4FF11003801400010024039
:103F90000044004000480040004C00400024F40071
:103FA00056600008FFFC0F0070B58165A0F85C202A
:103FB000A0F85E200023436781684FF48056FF24F9
:103FC000B14204D10169F9B940F2FF1122E07F2525
:103FD000C1B1B1F1805F1AD0A0F86030C0F8903064
:103FE0002221C0F88C100168083151E8003F43F0ED
:103FF000010341E80034002CF5D1416EB1F1005FBE
:104000000ED031E0016941B9A0F86040E6E70169EE
:1040100019B13F21A0F86010E0E7A0F86050DDE79B
:10402000B0F8681091421FD88168B14201D101698E
:10403000B9B11D494167016941B1026852E8001FE9
:1040400041F4807142E80013002BF6D10168083179
:1040500051E8002F42F0805241E80023002BF5D1B7
:1040600020E012494167F1E78168B14201D101695D
:1040700069B10F494167016959B1026852E8001FEF
:1040800041F4907142E80013002BF6D10AE009498F
:104090004167026852E8001F41F0200142E8001326
:1040A000002BF6D1002070BD953B00082D3900088B
:1040B000CD3A0008653800082DE9F04799461746C3
:1040C0000D4604464FF00008089E33E0701C31D0C6
:1040D000FDF7C0F9A0EB0900B04218D8BEB12068C6
:1040E0000168490726D5802D24D0402D22D0C169F2
:1040F000C94309070DD4082505622046FFF788FB50
:10410000C4F8905084F884800120BDE8F087032033
:10411000FBE7C069C04300050CD421684FF4006080
:1041200008622046FFF774FB2020C4F8900084F852
:104130008480ECE72068C06935EA000004D00020E4
:10414000B842C3D00020E0E70120F9E70148FEF7BC
:1041500089BA000018010020FEE700000FB4054BEB
:1041600010B503A9044A029801F046FA10BC5DF8A4
:1041700014FB0000515D00081800002003B40198F2
:104180004100009850EAC12018BF04204A0D18BF12
:1041900040F0010040F2FF72B2EB515F08BF40F007
:1041A0000200012808BF052002B070470907090E68
:1041B000002804DB00F1E02080F80014704700F0D4
:1041C0000F0000F1E02080F8141D7047000000008F
:1041D00010B5B94A2DED020B2DED0C8B82B00F9965
:1041E00021F000409FEDB6CB90422CDBA0F1405374
:1041F0000E9AA3F17F631A430FD0B349884202DCC1
:1042000016D10E98A0B19DED0E0B02B0BDEC0C8B3B
:1042100002B0BDE8104001F0DBB80029C1BF9FED3E
:10422000AC0B02B0BDEC0C8B02B0C8BF10BD16E0E9
:10423000012001F011F902B0BDEC0C8B02B0BDE819
:10424000104001F0D9B8A44A9FEDA59B9FEDA6AB05
:1042500090425EDAA6499FEDA8CB814208DBB0EE22
:104260004C0AF0EE6C0A02B0BDEC0C8B02B010BD33
:104270009DED0E0B53EC102B51EC100BFCF791FA4B
:1042800041EC180B9E480621B0EE480AF0EE680A91
:10429000784400F089FF53EC182B51EC100BFCF71D
:1042A00080FA41EC1B0B9748B0EE480AF0EE680A22
:1042B0000421784400F078FF53EC182B51EC100BDC
:1042C000FCF76FFA53EC192BFCF7C4F941EC100B17
:1042D00051EC1B0B53EC102BFCF714FC41EC100BB6
:1042E00053EC102B9DED0E0B51EC100BFCF759FA13
:1042F00053EC1A2BFCF752FA9DED0E1B53EC112BCD
:10430000FCF74CFA53EC1C2BFCF748FA41EC100B71
:10431000A9E79FED7D8B9FED7EBB9DED0E0B0029E8
:1043200053EC192B51EC100B52DAFCF793F953ECC8
:10433000182BFCF736FA41EC180B77480621B0EE43
:10434000480AF0EE680A784400F02EFF53EC182B70
:1043500051EC100BFCF725FA41EC1D0B6F48B0EE49
:10436000480AF0EE680A0421784400F01DFF53EC7F
:10437000182B51EC100BFCF714FA53EC192BFCF72B
:1043800069F941EC190B51EC180B01F02DFE41ECD1
:10439000180B53EC192B51EC1D0BFCF7B3FB53EC32
:1043A000182BFCF7FEF953EC1A2BFCF7F4F941EC4F
:1043B000100B51EC180B53EC102BFCF74BF953EC92
:1043C0001B2BFCF7EEF953EC1C2BFCF7E7F96DE027
:1043D000FCF7E4F953EC182BFCF7E3F941EC180B6C
:1043E00001F002FE41EC1A0B00208DED00AB0090B5
:1043F0009DED000B51EC1A0B53EC102BFCF72AF936
:104400009DED000B41EC1C0B53EC102B51EC100BF1
:10441000FCF7C7F953EC182BFCF7C0F953EC1C2B35
:10442000FCF770FB41EC1C0B3D48B0EE480AF0EE87
:10443000680A0621784400F0B7FE53EC182B51ECC3
:10444000100BFCF7AEF941EC1D0B3648B0EE480AF4
:10445000F0EE680A0421784400F0A6FE53EC182B15
:1044600051EC100BFCF79DF953EC192BFCF7F2F80B
:1044700041EC100B51EC1D0B53EC102BFCF742FBE5
:1044800053EC1A2BFCF78DF953EC1C2BFCF7E2F8DC
:1044900041EC100B53EC102B9DED000B51EC100B6D
:1044A000FCF7D8F853EC1B2BFCF77BF941EC100B15
:1044B000D9E60000000000000000F03F000000000E
:1044C000182D4454FB2109400000F07F000000003B
:1044D00000000000000000000000E03F00000000BD
:1044E000000000000000F03F075C143326A6913C5A
:1044F0000000603C00000000182D4454FB21F93FEF
:10450000041E0000121E0000000000000000E03F3A
:1045100000000000000000404E1D00005C1D000077
:10452000601C00006E1C000070B59B482DED020B56
:104530002DED068B079D25F00044A04218DC97481E
:10454000844202DC0AD1069840B19DED060BBDEC19
:10455000068B02B0BDE8704000F03ABF002DCCBF22
:104560009FED8F0B9FED900BBDEC068B02B070BDE5
:104570008F48A04215DD8F48A042D8BF4FF0FF34CE
:1045800058DD9DED060B51EC100BFFF7F7FD0428ED
:1045900008BF00F041FF9DED060BBDEC068B02B09D
:1045A00070BD9DED060B51EC100B01F0C4FBCDE985
:1045B000060181489FED828BA0423CDD8248A042EB
:1045C0001FDD00249FED82AB9DED060B53EC1A2BF3
:1045D00051EC100BFCF73EF89DED060B41EC190B6E
:1045E00053EC1A2B51EC100BFCF7DBF853EC182BA7
:1045F000FCF7D1F853EC192BFCF784FACDE906014E
:1046000049E09DED060B012453EC182B51EC100BE7
:10461000FCF720F89DED060B41EC190B53EC182B21
:1046200051EC100BFCF7B7F853EC192BFCF76AFAB6
:10463000CDE906012FE06848A0421FDD02249FED6E
:10464000689B9DED060B53EC192B51EC100BFCF7FE
:10465000A8F853EC182BFBF7FDFF9DED060B41EC82
:10466000180B53EC192B51EC100BFCF794F853EC8E
:10467000182BFCF747FACDE906010CE09DED060B7F
:10468000032453EC102B9FED580B51EC100BFCF74F
:1046900039FACDE906019DED060B53EC102B51ECD8
:1046A000100BFCF77EF841EC180B53EC182BFCF7C1
:1046B00078F841EC190B4E480621B0EE490AF0EEAD
:1046C000690A784400F070FD53EC182B51EC100B84
:1046D000FCF767F841EC180B4648B0EE490AF0EEDB
:1046E000690A0521784400F05FFD53EC192B51EC69
:1046F000100BFCF756F841EC100B51EC180B53EC77
:10470000102B002C0EDAFBF7A5FF9DED061B53ECDA
:10471000112BFCF746F89DED061B53EC112BFCF713
:104720003DF835E0FBF796FF9DED061B53EC112B92
:10473000FCF737F841EC100B2F48784400EBC4002D
:1047400090ED001B51EC100B53EC112BFCF723F8F0
:104750009DED061B53EC112BFCF71DF841EC100BE3
:104760002648784400EBC40090ED001B51EC100B80
:1047700053EC112BFCF712F841EC100B002DA2BFEB
:10478000BDEC068B02B070BD51EC100B81F0004106
:1047900041EC100B01E70000000010440000F07F26
:1047A000182D4454FB21F93F182D4454FB21F9BF27
:1047B0000000DC3F0000203E0000F33F000000004E
:1047C000000000000000F03F0000E63F0000000095
:1047D00000000000000000400080034000000000D6
:1047E000000000000000F83F000000000000F0BFE3
:1047F0008A1A0000401A0000CA190000821900003D
:1048000070B56B4E2DED040B2DED028B82B0DDF8F3
:104810001CC0DDE905235C422CF000411C4341EA49
:10482000D474049D22F00040B44205D86C422C435D
:1048300040EAD474B4420BD99DED061B9DED040BE8
:1048400002B0BDEC028B04B0BDE8704000F0CABD00
:10485000ACF14054A4F17F641C430BD0022404EA61
:10486000AC7444EAD27405439FED538B9FED542BF7
:1048700007D015E09DED040B51EC100B01F053FA3D
:1048800042E0002C11BF012C9DED040B02B0BDECE9
:10489000028B04BF04B070BD022C38D0032C3BD077
:1048A0000B439FED491B9FED4A0B0AD0B14218D133
:1048B000B04209D121F0804120F08040079105905D
:1048C0000FE0002A15DA10E0434B7B44002C08BFB0
:1048D00093ED000B0DD0012C10D0022C17D0032C1F
:1048E0001AD0B0421DD1002A03DAB0EE410AF0EE30
:1048F000610A02B0BDEC028B04B070BD93ED000BF9
:1049000051EC100B81F0004141EC100BF1E7B0EEDF
:10491000480AF0EE680AECE7B0EE420AF0EE620AEE
:10492000E7E7401A00153C28C8BF8DED000B19DCE5
:10493000BCF1000FBEBF10F13C0F9FED290B8DEDB8
:10494000000B0FDB9DED060B53EC102B9DED040BC4
:1049500051EC100BFCF7D6F801F0EDF901F0E3F99A
:10496000CDE90001002C08BF9DED000BC1D0012C4A
:1049700010D0022C9FED1C0B53EC102B9DED000B67
:1049800051EC100B0DD0FBF706FF53EC182BFBF787
:1049900002FFB9E7019880F0004001909DED000B07
:1049A000A7E7FBF7F8FE53EC182BFBF7F7FEABE796
:1049B0000000F07F00000000182D4454FB21094046
:1049C000182D4454FB2109C0182D4454FB21F9BF74
:1049D000182D4454FB21F93FE218000000000000AC
:1049E0000000000000000000075C143326A6A13C74
:1049F00010B52F499FED2C1B2DED020B84B00598AF
:104A000020F000408842D8BF9DED040B2DDD2949E0
:104A1000884209D1049840B94FF0010000F01CFD14
:104A200000F0EAFC06B010BD05DB9DED040B00F0C4
:104A3000CFFC06B010BD68469DED040B00F0E0F819
:104A400010F0030004BF9DED021B9DED000B0CD088
:104A500001280ED09DED021B9DED000B022817D002
:104A6000012000F01DFC06B010BD00F0E5FA06B014
:104A700010BD9DED021B9DED000B012000F010FC10
:104A800051EC100B81F0004106B041EC100B10BD51
:104A900000F0D2FA51EC100B81F0004106B041EC6D
:104AA000100B10BD0000000000000000000000001E
:104AB000FB21E93F0000F07F10B52F499FED2C1B33
:104AC0002DED020B84B0059820F000408842DCBF39
:104AD00000209DED040B32DD2849884209D104985D
:104AE00040B94FF0010000F0B7FC00F085FC06B0C3
:104AF00010BD05DB9DED040B00F06AFC06B010BD97
:104B000068469DED040B00F07BF810F0030011D017
:104B1000012818D09DED021B9DED000B02281AD034
:104B200000F08AFA51EC100B81F0004106B041EC24
:104B3000100B10BD9DED021B9DED000B012000F040
:104B4000AFFB06B010BD9DED021B9DED000B00F00C
:104B500073FA06B010BD012000F0A2FB51EC100B5F
:104B600081F0004106B041EC100B10BD00000000C8
:104B70000000000000000000FB21E93F0000F07F82
:104B800000B52DED048BB0EE409AF0EE609A83B044
:104B900051EC190BFCF725F841EC180B18EE100A34
:104BA00018EE901A8DED008B002818BF01200843E5
:104BB00020F00040C0F17F6000F1E040C00F14D051
:104BC00019EE101A19EE900A8DED009B002918BFFE
:104BD0000121084320F00040C0F17F6000F1E04077
:104BE000C00F04BF012000F037FCB0EE480A03B04C
:104BF000F0EE680ABDEC048B00BD00000000000070
:104C00002DE9F14F04462DED020B2DED088B8AB0F6
:104C10009FEDE70B80ED020B139EE74826F0004561
:104C200085420ADC9DED120B002084ED000B0AB0DA
:104C3000BDEC088B03B0BDE8F08FE0489FEDE0AB22
:104C40009FEDE1BBA84247DDE14F9FEDE39B9FED68
:104C5000E48B9DED120B53EC1A2B51EC100B002E34
:104C60001CDDFBF798FD41EC100BBD4208D053EC66
:104C70001B2B51EC100BFBF78EFDC4E900010BE080
:104C800053EC192B51EC100BFBF785FD53EC182B53
:104C9000FBF781FDC4E900010120C8E7FBF7DAFC5E
:104CA00041EC100BBD4208D053EC1B2B51EC100B08
:104CB000FBF7D0FCC4E900010BE053EC192B51ECDD
:104CC000100BFBF7C7FC53EC182BFBF7C3FCC4E934
:104CD00000014FF0FF30AAE7C348A84279DB9DED01
:104CE000120B51EC100B01F026F841EC180B9FED64
:104CF000C00B53EC102BFBF754FD9FEDBF1B53EC87
:104D0000112BFBF7A7FCFCF7C5F90746FCF7A4F944
:104D100041EC190B53EC1A2BFBF743FD53EC182B0A
:104D2000FBF73CFD41EC180B53EC1B2B51EC190B22
:104D3000FBF737FDDFF8C8A241EC100B4FEA15581E
:104D40000125FA4453EC102B51EC180BFBF723FD13
:104D5000032DC4E900013DD0C1F30A5005EB451114
:104D6000A8EB00001139814234DA0AEB051BB0EEE2
:104D700048AA9BED000BF0EE68AA53EC102B51EC07
:104D8000190BFBF70EFD41EC1B0B51EC1A0B53EC0E
:104D90001B2BFBF700FD41EC180B51EC1A0B53ECED
:104DA000182BFBF7F8FC53EC1B2BFBF7F4FC9BEDEB
:104DB000020B41EC1A0B53EC102B51EC190BFBF7C7
:104DC000F0FC53EC1A2BFBF7E6FC41EC100B6D1CCE
:104DD000B8E70EE0002EA8BF3846BFF628AF94ED26
:104DE000000B51EC100B81F00041C4E90001784246
:104DF0001DE7C6F3130040F4801EC6F30A50A0F26C
:104E0000F530471100F01F05C5F12000DDF848B06E
:104E100008900020069007900520EC467949002D67
:104E200007EB0002794408BF51F8221009D051F86D
:104E3000223001EB8201AB404A68089922FA01F165
:104E40001943A1FB0E26A1FB0B131A449A4234BF4F
:104E50000123002303EB06080CEB8003D3E901A632
:104E60000E448E4234BF0121002192448A4411B184
:104E7000924502D903E0924501D2012100E00021D0
:104E8000C3E901A641444CF82010011EA0F1010025
:104E9000C4DC029800F10050850F0298DDE9036739
:104EA0008000DDF81480FCF7D7F841EC1A0B30468F
:104EB000FCF7E3F89FED541B53EC112BFBF771FC4F
:104EC00041EC1B0B3846FCF7D8F89FED511B53EC17
:104ED000112BFBF766FC41EC180B4046FCF7CDF8B4
:104EE0009FED4D1B53EC112BFBF75BFC41EC190BB9
:104EF00051EC180B53EC192BFBF7ACFB53EC1B2BB1
:104F0000FBF7A8FB53EC1A2BFBF7A4FBCDE9080138
:104F1000002008909DED080B53EC1A2B51EC100B60
:104F2000FBF739FC53EC1B2BFBF735FC53EC182B30
:104F3000FBF731FC53EC192BFBF730FC9FED381BD2
:104F400053EC112BFBF72DFC9FED370B41EC180BAD
:104F500053EC102B9DED080B51EC100BFBF721FCD3
:104F600053EC182BFBF776FB9FED310B41EC180B44
:104F700053EC102B9DED080B51EC100BFBF711FCC3
:104F800053EC182BFBF766FB41EC100B139810F059
:104F9000004F06D06D4251EC100B81F0004141EC06
:104FA000100B284684ED000B41E6000000000000D5
:104FB0000000000000000000FB21E93F7CD9024016
:104FC00000004054FB21F93F3163621A61B4D03DC7
:104FD000FB21F93F000000000000601A61B4D03DE1
:104FE0007370032E8A19A33BFB2139410000000096
:104FF00083C8C96D305FE43F000000000000E03F5F
:1050000072140000C0130000000000000000103EF9
:10501000000000000000103C000000000000103AFA
:10502000182D4454FB21F93D3326A611460B113CA3
:1050300000000054FB21F93D10B52DED040B2DEDC2
:10504000088B82B0B0EE419AF0EE619A0B9820F096
:1050500000449FED4BABB4F1795F11DA9DED0A0B83
:1050600051EC100BFCF716F8002801BFB0EE4A0A0D
:10507000F0EE6A0A02B0BDEC088B04BF04B010BDAC
:105080009DED0A0B53EC102B51EC100BFBF789FB39
:1050900041EC180B3C480621B0EE480AF0EE680AD5
:1050A000784400F081F853EC182B51EC100BFBF70F
:1050B00078FB9DED0A0B41EC1B0B53EC192B51ECCB
:1050C000100BFBF76EFB41EC190B53EC1B2B51EC57
:1050D000180BFBF766FB53EC192BFBF75CFB9FED02
:1050E0002C0B41EC190B53EC102B51EC180BFBF76C
:1050F00058FB41EC100B2848844210DA53EC192B72
:1051000051EC100BFBF747FB53EC1A2BFBF746FB5C
:1051100041EC100B02B0BDEC088B04B010BD1F4871
:10512000A042BCBF9FED1E1B8DED001B06DBA4F54E
:1051300000100190002000909DED001B51EC100B21
:1051400053EC112BFBF727FB9DED000B41EC180BEB
:1051500053EC102B51EC1A0BFBF71DFB41EC1A0B17
:1051600053EC192B51EC180BFBF715FB53EC1A2BD6
:10517000FBF714FB41EC100BCCE700000000000033
:10518000000000000000F03FDC1000000000000004
:10519000000000000000E03F3333D33F0000E93F50
:1051A000000000000000D23F70B504462DED028BD8
:1051B0004D1E00EBC500B0EE408AF0EE608A90ED27
:1051C000000B35F0060017D053EC182B51EC100BE8
:1051D000FBF7E7FA41EC100B6D1E04EBC50090EDF8
:1051E000001B51EC100B53EC112BFBF733FA41EC85
:1051F000100B35F00600E7D1022D36D0042D1CD05F
:10520000062D1CBFBDEC028B70BD53EC182B51EC6E
:10521000100BFBF7C6FA94ED0A1B53EC112BFBF7AE
:1052200019FA53EC182BFBF7BCFA94ED081B53EC5E
:10523000112BFBF70FFA41EC100B53EC182B51EC30
:10524000100BFBF7AEFA94ED061B53EC112BFBF79A
:1052500001FA53EC182BFBF7A4FA94ED040B53EC72
:10526000102BFBF7F7F941EC100B53EC182B51EC1A
:10527000100BFBF796FA94ED021B53EC112BFBF786
:10528000E9F953EC182BFBF78CFA94ED001B53EC67
:10529000112BFBF7DFF9BDEC028B41EC100B70BD5D
:1052A00031B504462DED040B2DED0A8BB0EE41BA5D
:1052B000F0EE61BA0B989DED0A0B20F00040B0F1C2
:1052C000795F0DDA51EC100BFEF758FF042808BF88
:1052D00000F0A2F89DED0A0BBDEC0A8B05B030BDC5
:1052E00053EC102B51EC100BFBF75BFA41EC180B55
:1052F0009DED0A0B53EC182B51EC100BFBF751FAF8
:1053000041EC190B2C48B0EE480AF0EE680A052172
:105310007844FFF749FF9FED2ACBB0EE40AAF0EEAC
:1053200060AA9CB353EC1C2B51EC190BFBF739FA18
:1053300041EC1C0B53EC1A2B51EC190BFBF731FA17
:105340009FED210B41EC190B53EC102B51EC1B0B77
:10535000FBF727FA53EC192BFBF71DFA53EC182B2C
:10536000FBF71FFA53EC1B2BFBF715FA53EC1C2B26
:10537000FBF711FA9DED0A1B53EC112BFBF70EFA0C
:10538000BDEC0A8B05B041EC100B30BDFFE753ECD0
:105390001A2B51EC180BFBF704FA53EC1C2BFBF700
:1053A00059F953EC192BFBF7FCF99DED0A1B53EC53
:1053B000112BFBF74FF9E3E76C0F00000000000032
:1053C000495555555555C5BF000000000000E03F48
:1053D00010B553EC102B51EC100BFBF73BF941ECE3
:1053E000100B10BD10B553EC112B51EC100BFBF74B
:1053F00031F941EC100B10BD9FED050B10B553ECCE
:10540000102B51EC100BFBF77DFB41EC100B10BD8A
:1054100000000000000000009FED050B10B553ECEC
:10542000102B51EC100BFBF7BCF941EC100B10BD2D
:10543000000000000000001002E008C8121F08C1B0
:10544000002AFAD170477047002001E001C1121F05
:10545000002AFBD170470000014908607047000036
:105460001C0000202DE9FF5F82B00021DDE904303F
:10547000020DDDF840B0034318D044F61050A2F2FC
:10548000FF3242431514119801281FD0A5EB0B00E1
:10549000401C5FEA000A4FF000064E4FDFF83891DB
:1054A000B046504615D5CAF1000413E01198012406
:1054B0004AA3012801D16FEA0B010298119AC0E9B1
:1054C0000031C0E9024206B0BDE8F09FCBF1000018
:1054D000DFE704460021404A491842EB0450CDE979
:1054E000001012E0E00707D032463B4640464946EE
:1054F000FBF757F98046894632463B461046194627
:10550000FBF74FF906460F466410002CEAD1DDE99F
:105510000401DDE90023BAF1000F06DAFBF741F9D7
:1055200042464B46FBF73DF905E0FBF7EBFA4246F6
:105530004B46FBF7E7FA04460E460022284BFBF7E2
:10554000C5FB03D84FF0FF30014607E00022254B92
:1055500020463146FBF77EF8FBF7A0FB102409E05C
:10556000002C0ADB0A220023FAF752FE039B30329A
:105570001A55641E50EA0102F2D1641C039AC4F168
:1055800011031444119A012A03D0012208430DD1BA
:105590000AE0084304D000204FF0110B119072E78D
:1055A000A3EB0B056D1E0DE05B4504DD4FF0000223
:1055B00005F1010504E003DA4FF00002A5F1010551
:1055C000002AECD002981199C0E90231C0E90045E7
:1055D00079E70000000014400000F03F30000000B8
:1055E0000000F0430000E03F30380A2801D20120DB
:1055F00070470020704700002DE9FF4F95B09B4693
:105600008946064600250FE2252877D10024274643
:10561000F84A0121059400E0044316F8013F203BBD
:1056200001FA03F01042F7D130782A2811D06FF038
:105630002F033078A0F13002092A16D8059A44F0D9
:10564000020402EB820203EB42021044761C059036
:10565000EFE759F8042B0592002A03DA504244F48C
:105660000054059044F00204761C30782E2816D1A0
:1056700016F8010F44F004042A280DD06FF02F0211
:105680003078A0F13003092B09D807EB870302EB30
:105690004303C718761CF3E759F8047B761C30786F
:1056A0006C280FD006DC4C2817D068280DD06A284B
:1056B00014D104E0742810D07A280FD10DE044F4FE
:1056C00000140AE044F4801401E044F440147278B9
:1056D000824202D104F58014761C761C307866284C
:1056E0000BD013DC582877D009DC002875D045286A
:1056F000F6D04628F4D047281AD19DE118E0632857
:1057000035D0642879D0652812D195E1702873D0FE
:1057100008DC6728F1D069286FD06E280DD06F287B
:1057200006D1B5E073282CD0752875D0782874D0B0
:105730005A46179990476D1C75E1C4F30250022830
:1057400009D003280DD0D9F8001004280DD00D6021
:1057500009F1040967E1D9F80010EA17C1E900521C
:10576000F6E7D9F800100D80F2E70D70F0E719F8B0
:10577000041B8DF8001000208DF80100EA4601207E
:1057800003E059F804AB4FF0FF3061074FF0000120
:1057900002D40DE008F101018846B9420FDA8045D4
:1057A000F8DB1AF808100029F4D108E008F101012B
:1057B00088468142FADB1AF808100029F6D10598CC
:1057C0005B46A0EB080721463846179A00F094FA8A
:1057D000284400EB080507E04DE029E10DE01AF848
:1057E000010B5A4617999047B8F10108F7D25B466A
:1057F00021463846179A13E142E00A220092C4F388
:1058000002524FF0000A022A08D059F804CB032AAA
:105810004FEAEC710AD00DE029E02AE009F1070116
:1058200021F00702F2E802C1914609E00FFA8CFC70
:105830004FEAEC71042A03D14FFA8CFC4FEAEC7169
:10584000002907DA0A460021DCF1000C61EB0201B5
:105850002D2202E0220504D52B228DF804200122FE
:1058600003E0E20701D02022F7E7904659E00A2141
:1058700002E010220DE010214FF0000A00910BE031
:1058800010224FF0000A44F004040827009203E0BD
:1058900008224FF0000A0092C4F30252022A05D0F7
:1058A00059F804CB0021032A08D009E009F10701C7
:1058B00021F00702F2E802C1914605E01FFA8CFCD4
:1058C000042A01D10CF0FF0C4FF00008220728D564
:1058D000702806D0009B83F0100353EA0A0305D01A
:1058E0000EE040228DF80420012208E05CEA01026B
:1058F00006D030228DF804208DF805000222904653
:10590000009B83F0080353EA0A030AD15CEA010210
:1059100001D1620705D530228DF804204FF001082F
:105920007F1E582804D034A003900EA802900DE0EA
:1059300036A0F9E753466046009AFAF769FC8446B8
:105940000398825C0298401E029002705CEA01009B
:10595000F0D1029806A9081A00F1200A600702D5C2
:1059600024F4803400E00127574502DDA7EB0A004C
:1059700000E0002000EB0A01009005984144401A25
:105980000590E00306D45B462146179A059800F07F
:10599000B3F90544002706E001A85A46C05D1799EF
:1059A00090476D1C7F1C4745F6DBE0030CD55B463A
:1059B0002146179A059800F09FF9054404E030202D
:1059C0005A46179990476D1C0099481E009000296F
:1059D000F5DC08E0029802995A460078491C0291C9
:1059E000179990476D1CBAF10001AAF1010AF1DC88
:1059F00065E1000009280100303132333435363793
:105A0000383961626364656600000000303132330A
:105A100034353637383941424344454600000000AA
:105A200000F058F90544761C307800287FF4ECAD7E
:105A300019B02846BDE8F08F620700D4062709F1A7
:105A4000070222F0070CFCE80223E14603F00048BD
:105A50005FEA080C02D00FF2702C0DE05FEA045CE4
:105A600002D50FF2682C07E05FEAC47C02D00FF287
:105A7000602C01E0AFF2700C4FF0FF3823F00043D0
:105A8000CDF850C065280CD006DC452809D0462842
:105A90001DD047283DD13DE0662818D067287ED12B
:105AA00038E00021112F01DB112000E0781CCDE946
:105AB000000106A90EA8FFF7D5FCDDE90F010E9A3B
:105AC00003910021009207F1010A04914DE04FF08B
:105AD00000400097CDE9011006A90EA8FFF7C2FC0F
