:020000040800F2
:10000000B0050020ED010008FF320008812B000838
:10001000FD320008DD0F0008A940000800000000C4
:100020000000000000000000000000005F34000835
:1000300035100008000000005D340008613400083D
:10004000070200080702000807020008070200086C
:10005000070200080702000807020008070200085C
:10006000070200080702000807020008070200084C
:10007000070200080702000807020008070200083C
:10008000070200080000000007020008070200083D
:10009000070200080702000807020008070200081C
:1000A000070200080702000807020008070200080C
:1000B00007020008070200080702000807020008FC
:1000C00007020008070200080702000807020008EC
:1000D000070200089D400008070200080702000808
:1000E00007020008070200080702000807020008CC
:1000F00007020008070200080702000800000000CD
:1001000000000000070200080000000007020008CD
:1001100007020008000000000702000807020008AC
:10012000070200080702000807020008070200088B
:10013000070200080000000000000000070200089D
:10014000070200080702000800000000000000008D
:10015000000000000000000000000000000000009F
:10016000000000000000000000000000070200087E
:10017000070200080000000000000000000000006E
:10018000000000000702000800000000000000005E
:10019000000000000000000000000000000000005F
:1001A000000000000000000007020008070200082D
:1001B000070200080702000807020008000000000C
:1001C000000000000702000800000000000000001E
:1001D0000702000807020008DFF80CD000F096FCC8
:1001E0000048004721520008B0050020064880471B
:1001F00006480047FEE7FEE7FEE7FEE7FEE7FEE70C
:10020000FEE7FEE7FEE7FEE7CD340008D90100086F
:100210002DE9F05F0546002092469B46884606463B
:10022000814640241BE0284641464746224600F0CE
:1002300049FA53465A46C01A914110D311461846FE
:10024000224600F030FA2D1A67EB01084F4622468D
:100250000120002100F027FA17EB00094E41201E73
:10026000A4F10104DFDC484631462A464346BDE896
:10027000F09F40EA01039B0703D009E008C9121F61
:1002800008C0042AFAD203E011F8013B00F8013B50
:10029000521EF9D27047D2B201E000F8012B491E7C
:1002A000FBD270470022F6E710B513460A46044613
:1002B0001946FFF7F0FF204610BD00000FB400B54F
:1002C0008DB010A909900B9000914FF0FF300A906B
:1002D00000200C9005480690054807906A4609A83A
:1002E0000F9900F005FA0DB05DF814FB0D0700083A
:1002F0002B0700082DE9FF4F087883B09946FF28A7
:1003000005D0491C2D2804D00024002008E000203E
:100310000BE00124F9E700EB800003EB4000491CEF
:100320000B78FF2BF7D104B14042002302931478DD
:1003300019461D462D2C01D02B2C04D1521C2D2CDE
:1003400013D000240294AA461478FF2C0FD00A255B
:10035000A3FB057801FB05814FF0000C03FB0C119A
:10036000521CE3194AEB0101EEE70124EAE781445C
:1003700053EA010002D019F5C87F06DA039800217C
:10038000C0E9001107B0BDE8F08F0025AE4E2F4642
:10039000DFF8B882184600F061FBCDE90001B9F141
:1003A000000002DAC9F1000400E004460023A74A75
:1003B0001AEB030B42EB045A12E0E00707D02A467F
:1003C00033463846414600F068FA074688462A46D2
:1003D00033461046194600F060FA05460E46641092
:1003E000002CEAD1DDE90001B9F1000F5A4653466D
:1003F00006DA00F0C4FA3A46434600F0C0FA05E0D7
:1004000000F04BFA3A46434600F047FA029A0AB126
:1004100081F00041039AC2E90001B3E72DE9FF4FE3
:100420001F468DB0D7E901464FF0FF382E204546D4
:100430004FF000090B90B9696D1C0E988847396A16
:10044000824688470028F6D1BAF1FF3F0AD024F44B
:10045000D064002E11DDBAF12B0F08D0BAF12D0FA8
:100460000BD102E0404611B08DE744F48064B969D5
:100470006D1C0E9888478246761E6946600501D538
:100480002D2000E02B208DF8000001F1010B0DF173
:10049000200809E0B9696D1C0E98884782460F98BC
:1004A00044F40074761E0560002E02DDBAF1300FB0
:1004B000F0D00B998A453ED144F0800406E00F99B4
:1004C000681CA9F1010944F400740860B9696D1C45
:1004D000761E0E98884782463028F0D02BE00B9984
:1004E0008A4505D1200603D444F08004761E18E026
:1004F000504604F0E9FA08B30DF11301761E44F4F6
:1005000000748B4508D2AAF130000BF8010B2006CD
:1005100007D5A9F1010003E0200602D409F101008A
:100520008146A00502D50F99681C0860B9696D1C49
:100530000E9888478246002ED1DC53E0002E51DD14
:10054000BAF1650F02D0BAF1450F4BD1A00549D5DC
:10055000B9696D1C24F44074761E0E988847824653
:10056000002E0CDD2B2804D0BAF12D0F07D144F456
:100570008074B9696D1C0E9888478246761EE00526
:1005800001D52D2100E02B2108F8011BCDF82C808E
:1005900021E00DF12901761E44F4007488450CD247
:1005A000AAF1300010F0FF0088F8000002D10B998A
:1005B000884509D908F1010806E0E00501D524487D
:1005C00001E042F20F708146B9696D1C0E988847B0
:1005D00082460F980560002E04DD504604F074FA40
:1005E0000028D6D1F9690E988847FF208BF80000C3
:1005F00088F800000020069007904B466A4608A93C
:1006000006A8FFF777FEA00502D46FF001002AE7E5
:1006100014F0240F0AD0E00714D1DDE9061238687F
:10062000031D3B600068C0E900120BE0DDE9060134
:1006300000F050FA0146E00704D13868021D3A6024
:100640000068016028460EE7000014400000F03FFB
:10065000F1D8FFFF00F0004230F000400AD0C10D99
:1006600001F56071C0F3160042EA0151C20840076B
:100670001143704700200146704730B50B460146D4
:1006800000202022012409E021FA02F59D4205D331
:1006900003FA02F5491B04FA02F52844151EA2F1DB
:1006A0000102F1DC30BD202A04DB203A00FA02F11D
:1006B000002070479140C2F1200320FA03F3194350
:1006C00090407047202A04DB203A21FA02F00021F2
:1006D000704721FA02F3D040C2F120029140084352
:1006E0001946704702681144137801601846704734
:1006F000D160044951610449116200211161114620
:1007000000F02EBAE5060008550B0008426842B119
:10071000016811F8013B23B1521EC0E900121846CE
:1007200070470121C160881E704742685AB1C36892
:10073000016843B983688B4205D0491E521CC0E949
:100740000012002070474FF0FF3070472DE9FE4F38
:10075000804681EA0300C00F0C46009021F0004162
:1007600023F00045B8EB0200A94105D240462146DE
:1007700090461C460B46024623F00040104347D0EB
:10078000270DC7F30A00C3F30A510290401A0190E3
:1007900040286BDAC3F3130040F4801B00989246A4
:1007A00020B10023D2EB030A63EB0B0B01985946EF
:1007B000C0F140025046FFF776FF06460D46504610
:1007C0005946019A00F0B4F910EB08006141002489
:1007D00087EA115284EAE7731A4340D0009A62B361
:1007E000019A012A4FEA075215DC001B61EB020156
:1007F0004FF0004202EA0752CDE90042001C41F5E9
:10080000801132462B4600F087FB03B0BDE8F08F25
:1008100040462146F9E7001B61EB0201001C41F54F
:10082000801300185B412018A2F5001747EB030165
:1008300040EAD570B6196D4111E06D084FEA3606F1
:1008400045EAC0754FEA0752001B61EB0201001C2C
:1008500041F5801149084FEA3000001951413246F4
:100860002B4603B0BDE8F04F00F047BB00980122D3
:1008700040000023D0EB020263EBE07300982146B6
:100880004FEAE074B8EB000061EB0401E9E783F0A4
:1008900000435BE781F0004158E72DE9FE4F81EA14
:1008A000030404F0004421F0004100944FF0000BD9
:1008B00023F0004350EA01045ED052EA03045BD007
:1008C000C3F30A54C1F30A552C44A4F2F33401943F
:1008D000A0FB0254C1F3130141F48011C3F31303CD
:1008E00043F4801301FB024400FB034E840A970A81
:1008F00044EA815447EA8357A4FB076802958D0AAE
:1009000005FB07854FEA932C04FB0C542705029D39
:100910004FEA065847EA1637B5EB08056EEB070CA9
:10092000870E920E47EA811742EA8312A7FB020163
:10093000B6EB0B0164EB00042B0D43EA0C335E189D
:1009400044EB1C50DA465146E7FB0201C5F31304A1
:100950004FEA0B3343EA14534FEA0432019C43EA53
:100960000603A4F10C040294009CCDE900B400F04D
:10097000D3FA03B0BDE8F08F00200146F9E72DE976
:10098000F04D81EA030404F0004B21F000451446C9
:100990004FF0000A23F0004150EA050220D054EA4B
:1009A00001021DD0C5F30A570246C5F31303C1F374
:1009B0001300C1F30A5640F4801543F48013A7EBEB
:1009C0000608101BD64608F2FD3873EB050002D36B
:1009D00008F1010801E092185B41B8F1000F03DA59
:1009E00000200146BDE8F08D00204FF4801106463E
:1009F00084460EE0171B73EB050705D3121B63EB50
:100A0000050306434CEA010C49084FEA30009218EE
:100A10005B4150EA0107EDD152EA030012D082EAAD
:100A2000040083EA0501084305D0101BAB4106D240
:100A30000122002306E000224FF0004302E06FF0A5
:100A4000010253101AEB06004CEB085110EB0A00A0
:100A500041EB0B01BDE8F04D00F04FBA0EB540F28E
:100A6000334202920022CDE90022134600F054FAEC
:100A700003B000BDC1F30A52C1F3130140F2FF33CA
:100A800041F480119A4202DA00200146704740F298
:100A900033439A42A2F2334202DC5242FFF712BEC3
:100AA000FFF701BE30B5041E71F1000404DB4FF006
:100AB0000044404264EB0101141E73F1000405DBA5
:100AC0001C464FF00043524263EB0403994208BFB7
:100AD000904230BD01F0004330B421F0004150EAB3
:100AE000010206D00A0DA2F56072C1F31301002ABB
:100AF00002DC30BC00207047440F44EAC104C1004E
:100B0000E01830BC00EBC25000F0C0B9064C074DF5
:100B100006E0E06840F0010394E8070098471034CD
:100B2000AC42F6D3FFF75CFBF455000814560008FE
:100B3000202A06DBCB17203A41FA02F043EAE073A1
:100B400006E041FA02F3D040C2F12002914008438E
:100B500019467047C0B24FF4F05100F02BBA0000B4
:100B60002DE9F34F8BB04FF0000801F10C000C465B
:100B70004FF0010B46460DF1080A01906269012110
:100B800001989047051E2DD0252D2CD0216A88472D
:100B9000C0B16269012101989047216A8847002805
:100BA000F7D1411E62690198904700E0761CA16967
:100BB0000B988847216A88470028F7D1E1690B988C
:100BC0008847DBE7A1690B9888470746A84201D10F
:100BD000761CD3E7E1690B9888477F1C02D1B8F1F6
:100BE000000F6FD046E1002762693D463946019803
:100BF00090472A2804D16269012101989047012574
:100C0000DFF884926269012101989047A0F13001D8
:100C10000A290AD24F45E5DC07EB870100EB4107C3
:100C2000303FDFD445F01005ECE7E90601D46FF062
:100C300000476C280AD04C2814D0682815D06A28A0
:100C40000DD074281CD07A281AD01DE062690121C9
:100C5000019890476C2802D045F0040514E045F057
:100C600002050DE045F020050AE0626901210198C6
:100C70009047682802D045F0080505E045F4006576
:100C80006269012101989047C4E9015765283DD068
:100C900019DC58287AD00CDC452837D004DC25280C
:100CA00026D0412831D131E046282FD047282CD1F9
:100CB0002CE05B2877D0612828D063287CD064287A
:100CC00023D15AE0D0E06F2848D008DC66281DD038
:100CD00067281BD0692821D06E2816D127E07028FC
:100CE00045D0732868D0752847D078280DD14DE0BD
:100CF000A1690B988847054625283FF469AFE1694B
:100D00000B9888476D1C3FF46AAFB3E023466A46F0
:100D10006FF001000B99FFF781FB9EE045F040006A
:100D20006060A80723464FF0000236D43EE0E80793
:100D30007FF447AF2068011D21600068290501D5B7
:100D400006701BE7290701D5068017E7A90703D519
:100D5000F117C0E9006111E706600FE745F04000B8
:100D60006060A80723464FF0080216D41EE040F644
:100D70000E0125EA0100606016E045F04000606069
:100D8000A80723464FF00A0207D40FE045F04000C1
:100D90006060A80708D5234610226FF001000B9968
:100DA000AFF3008059E007E0234610226FF0010006
:100DB0000B99AFF3008050E04FF000094F464B46CF
:100DC000632802D05B2806D040E0E80601D4012069
:100DD000A06001273AE062690121019890475E28EE
:100DE00005D14FF001096269494601989047216990
:100DF00039B900210A46534643F82120491C0829E5
:100E0000FADBB0B3216969B9C11700EBD1625311A4
:100E10000AEB830122F01F02821A01200B68904026
:100E200003430B6062690121019890475D28E8D176
:100E3000B9F1000F09D00020514651F82020D243CB
:100E400041F82020401C0828F7DB02AB224600971F
:100E50006FF001000B99AFF3008000280CDA401C02
:100E600008D1BBF1000F05D04FF0FF300DB0BDE849
:100E7000F08FFFE74046F9E7E90701D108F10108E3
:100E800006444FF0000B79E6CCCCCC0C0029A8BF6F
:100E90007047401C490008BF20F00100704710B4A3
:100EA000B0FA80FC00FA0CF050EA010404BF10BC58
:100EB000704749B1CCF1200421FA04F411FA0CF185
:100EC00018BF012121430843A3EB0C01CB1D4FEABE
:100ED00000614FEA102042BF002010BC704700EBB9
:100EE000C35010440029A4BF10BC7047401C4900E7
:100EF00008BF20F0010010BC704710B5141E73F13C
:100F0000000408DA401C41F1000192185B411A43C9
:100F100001D120F0010010BD2DE9F04D92469B4615
:100F200011B1B1FA81F202E0B0FA80F220329046BB
:100F3000FFF7B9FB04460F4640EA0A0041EA0B01FD
:100F400053465A46084313D0114653EA010019D0BC
:100F5000C8F140025046FFF7B5FB05460E46504625
:100F600059464246FFF79FFB084305D0012004E0A5
:100F700020463946BDE8F08D0020054346EAE0767C
:100F80002C4337430A986305E40AA0EB08000022CB
:100F9000FD0A44EA47540A3002D500200146E9E739
:100FA000010510196941DDE9084500196941BDE8ED
:100FB000F04DA2E77F2801D9002208E0064A02EBA3
:100FC0005002C007127800D1120902F00F0201206E
:100FD00090400840704700003C550008FEE70000C4
:100FE0000FB49DED010AB5EEC00AF1EE10FA1AD366
:100FF00010EE101A0E48814215DC9DED020AB5EE86
:10100000C00AF1EE10FA0ED310EE101A81420ADC7B
:101010009DED030AB5EEC00AF1EE10FA03D310EE0F
:10102000101A814202DD002004B070470120FBE766
:1010300000003443704772B6FEE710B590F82530D3
:1010400000210122022B03D00421C163012122E0EF
:1010500003681C6824F00E041C60836C1C6824F474
:1010600080741C6003681C6824F001041C6090F804
:101070004430046C03F01F0302FA03F36360D0E909
:1010800013345C60436D33B11C6824F480741C60BD
:10109000D0E916345C6080F82520002280F82420F6
:1010A000084610BD70B590F8252000240121234684
:1010B000022A07D00422C26380F8251080F8243069
:1010C000012429E00268156825F00E051560026804
:1010D000156825F001051560826C156825F480758A
:1010E000156090F84420056C02F01F0201FA02F22C
:1010F0006A60D0E913255560426D32B1156825F458
:1011000080751560D0E91625556080F8251080F8A7
:101110002430816B01B18847204670BD70B504460C
:1011200000F032F90546601C02D0044840680444CF
:1011300000F02AF9401BA042FAD370BD0C00002039
:101140002DE9F04FDFF82092002301260324A9F1B6
:10115000040B85B00F2709F1040AABF1040EFAE085
:1011600006FA03F52A407CD091F804C00CF0030C79
:10117000BCF1010F02D0BCF1020F26D1D0F808C09B
:10118000CDF800C04FEA430C04FA0CF8CDF810C0BB
:10119000DDF800C02CEA080CCDF800C0D1F80C80B6
:1011A000DDF810C008FA0CF8DDF800C048EA0C08B9
:1011B000C0F80880D0F804C02CEA050C0D79C5F3FE
:1011C00000159D4045EA0C0545600D79ED43AD07DE
:1011D0000ED0C5684FEA430804FA08FC25EA0C055E
:1011E000D1F808C00CFA08FC4CEA050CC0F80CC099
:1011F0000D7905F00305022D16D1DD0800EB850CF5
:10120000CDF808C0DCF820805D074FEAD56C07FAFE
:101210000CF528EA05080D6905FA0CF5DDF808C09B
:1012200045EA0805CCF8205005684FEA430CCDF894
:1012300008C004FA0CFC25EA0C0591F804C00CF077
:101240000308DDF808C008FA0CF848EA0508C0F8F9
:1012500000804D6815F4403F7CD0444DD5F860C007
:1012600000E077E04CF0010CC5F860C02D6E23F073
:10127000030C05F0010500953D4D65440295AD68F0
:101280004FEA837C4FEA1C7807FA08FC25EA0C0534
:10129000B0F1904F06D0DFF8DCC0604505D14FF0CB
:1012A000010C20E04FF0000C1DE0DFF8CCC06045E1
:1012B00002D14FF0020C16E0DFF8C0C0604502D149
:1012C0004FF0030C0FE0DFF8B8C0604502D14FF0DB
:1012D000040C08E0DFF8ACC0604502D14FF0050C0B
:1012E00001E04FF0060C0CFA08FC4CEA050C029DDC
:1012F000C5F808C0D9F80050CC46D1F80480954311
:101300005FEAC82800D51543CCF80050DAF8005041
:10131000D446D1F8048095435FEA882800D5154368
:10132000CCF80050DBF80050DC46D1F8048095433F
:101330005FEA883800D51543CCF80050DEF800503D
:10134000F446D1F8048095435FEAC83800D51543C8
:10135000CCF800505B1C0A6832FA03F57FF400AF4A
:1013600005B0BDE8F08F0000080401400010024005
:10137000000001400004004800080048000C00483C
:1013800000100048001400480148806870470000C1
:101390000C00002090F84120202A24D190F8402011
:1013A000012A20D0012280F84020242280F8412008
:1013B0000268136823F0010313600268136823F4C2
:1013C00080531360026813680B43136001680A6856
:1013D00042F001020A60202180F84110002180F8CB
:1013E0004010084670470220704790F84120202A9C
:1013F00022D190F84020012A1ED0012280F84020FE
:10140000242280F841200268136823F0010313604E
:101410000268136823F4706343EA012111600168D4
:101420000A6842F001020A60202180F84110002180
:1014300080F84010084670470220704770B50400DD
:1014400004D094F84100002510B106E0012070BDE1
:1014500084F84050204600F0ADF9242084F8410083
:101460002068016821F0010101606068216820F0B6
:10147000706008612068816821F400418160E06843
:101480000128A06830D040F4044021688860E068FA
:101490000228206841682AD021F400614160206858
:1014A0004168144A114341602068C16821F4004139
:1014B000C160D4E904010843A16940EA0120216820
:1014C000C860D4E907010843216808602068016802
:1014D00041F0010101606564202084F8410025632A
:1014E00084F84250002070BD40F40040CDE741F444
:1014F0000061D3E7008000022DE9FF4F83B004466E
:10150000DDE9108790F84100DDF848909A4693464F
:10151000202874D15FEA080014D09FB194F84000ED
:1015200001286CD0012084F84000FFF72DFF06460B
:10153000012200901923D103204601F035FC002838
:1015400071D103E04FF4007060646CE0222084F8F5
:101550004100402084F8420000256564C4F82480DE
:1015600067856563CDE9009653465A46204604993F
:1015700001F09EFB10B184F8405054E0618D354875
:10158000FF274FF080784FF0007AFF2904D9278594
:101590003A464346009005E0618D2185009094F81D
:1015A000282053462046049901F0E6FB4B460022D2
:1015B00004212046009601F0F7FBA0BB2068406A9A
:1015C000616A0870606A401C6062208D401E81B2B2
:1015D0002185608D401E6085608DD8B1D1B94B46A4
:1015E000002280212046009601F0DEFBD8B9608DF4
:1015F000FF2805D927853A464346009506E026E0B0
:10160000608D2085009594F8282053462046049943
:1016100001F0B2FB608D0028C8D132464946204611
:1016200001F0FFFB18B1012007B0BDE8F08F216881
:101630002020C86121684A68074B1A404A6084F834
:10164000410084F8425084F840500020ECE702202A
:10165000EAE700000024008000E800FE2DE9FF4FCB
:1016600083B00446DDE9108790F84100DDF848902A
:101670009A469346202871D15FEA080014D09FB1A2
:1016800094F84000012869D0012084F84000FFF759
:101690007BFE0646012200901923D103204601F06B
:1016A00083FB00286ED103E04FF40070606469E0B2
:1016B000212084F84100402084F842000025656420
:1016C000C4F8248067856563CDE9009653465A4681
:1016D0002046049901F01EFB10B184F8405051E0FF
:1016E000608DFF274FF080784FF0007AFF2804D9F3
:1016F00027853A464346009505E0608D2085009594
:1017000094F8282053462046049901F035FB3246D0
:101710004946204601F0B0FBA0BB606A2168007812
:101720008862606A401C6062608D401E6085208D0A
:10173000401E80B22085618DD9B1D0B94B460022C0
:1017400080212046009601F02FFBD8B9608DFF283C
:1017500005D927853A464346009506E026E0608D88
:101760002085009594F8282053462046049901F0DE
:1017700003FB608D0028CAD132464946204601F05D
:1017800050FB18B1012007B0BDE8F08F2068202180
:10179000C16120684268064B1A40426084F84110DB
:1017A00084F8425084F840500020ECE70220EAE739
:1017B00000E800FE2DE9F04198B00446142111A87C
:1017C000FEF770FD44216846FEF76CFD2049206855
:1017D000884239D14020002500900695684600F0E7
:1017E00035F908B1FFF727FC1A4CE06C40F0010016
:1017F000E064E06C00F001001690E06C40F0020044
:10180000E064E06C11A900F0020016904FF4004073
:1018100012264FF0010881E841010427CDE9145751
:10182000B006FFF78DFC11A9802081E84101CDE9C8
:1018300014570948FFF784FCA06D40F40010A06520
:10184000A06D00F40010169018B0BDE8F081000003
:101850000054004000100240000400480248816823
:1018600042681144816070470C00002010B50024CC
:10187000032000F073F80F2000F008F808B10124ED
:1018800001E000F025F8204610BD000070B50E4EB6
:1018900005460024706898B14FF47A71B1FBF0F0FE
:1018A0000A490968B1FBF0F000F05EFD40B9102D67
:1018B00006D200222946501E00F030F8356000E0C4
:1018C0000124204670BD00000C00002018000020FC
:1018D0000A4882B0016E41F001010166016E01F01B
:1018E00001010091816D41F080518165806D00F0B2
:1018F0008050009002B000F0A1B80000001002403B
:10190000002809DB00F01F020121914040098000FE
:1019100000F1E020C0F8001170470000F0B40E4B59
:101920001B680C46C3F30223C3F10705042D00D93D
:101930000425191D072901D2002300E0DB1E012622
:1019400006FA05F1491E214099409E40761E164038
:101950003143F0BC02F0CDBB0CED00E0064900F0D5
:10196000070208684FF6FF03184040EA0220034AC6
:1019700010430860704700000CED00E00000FA051D
:101980002B492C4B0A6832214A432B4940B1B0F510
:10199000007F086829D020F4C06040F480602CE00B
:1019A0000868C0F34120022804D051F8800F20F4C9
:1019B000807022E0D1F8800020F48070C1F88000AF
:1019C000086820F4C06040F400700860B2FBF3F0D7
:1019D000401C00E0401E4A69520501D50028F9D19B
:1019E000486940050AD503207047C0F3412002280A
:1019F00006D051F8800F40F48070086000207047D6
:101A0000D1F8800040F48070C1F88000086820F4AC
:101A1000C06040F400700860B2FBF3F0401C00E0CE
:101A2000401E4A695205DBD50028F9D1D8E70000ED
:101A30001800002040420F000070004002488168FA
:101A400041F4804181607047007000402DE9F84307
:101A50000446006800269D4D00035ED5A86D002752
:101A6000C00008D4A86D40F08050A865A86D01277B
:101A700000F080500090DFF85892D9F8001041F43F
:101A80008071C9F80010FFF77FFC804606E000BFB8
:101A9000FFF77AFCA0EB080002282BD8D9F8000049
:101AA000C005F5D5D5F8900010F4407014D0216C25
:101AB000814211D0D5F89000D5F8901020F44070F4
:101AC00041F48031C5F89010D5F8901021F48031A0
:101AD000C5F89010C5F89000C00711D0FFF754FC6E
:101AE000804641F2883907E0FFF74EFCA0EB080181
:101AF000494501D903260BE0D5F890008007F3D5BE
:101B0000D5F89000216C20F440700843C5F890008F
:101B10001FB1A86D20F08050A8652078C00707D0BD
:101B2000D5F88800616820F003000843C5F88800F4
:101B30002078800707D5D5F88800A16820F00C0030
:101B40000843C5F888002078400707D5D5F88800F5
:101B5000E16820F030000843C5F8880020780007CD
:101B600007D5D5F88800216920F0C0000843C5F8E2
:101B700088002078800607D5D5F88800616920F4B0
:101B800040600843C5F888002078400607D5D5F89E
:101B90008800A16920F440500843C5F888002078E7
:101BA000000607D5D5F88800E16920F440400843D5
:101BB000C5F888002088C00507D5D5F88800216AB7
:101BC00020F440300843C5F888002088800507D5F8
:101BD000D5F88800616A20F440200843C5F88800E1
:101BE000208840050FD5D5F88800A16A20F4401060
:101BF0000843C5F88800A06AB0F5801F03D1E868E3
:101C000040F48010E860208800050FD5D5F88800E2
:101C1000E16A20F440000843C5F88800E06AB0F5A6
:101C2000800F03D1E86840F48010E8602088C00489
:101C30000FD5D5F88800216B20F040700843C5F817
:101C40008800206BB0F1807F03D1E86840F48010F9
:101C5000E86020884FF0006180040ED5D5F8880038
:101C6000626B20F040601043C5F88800606B8842CA
:101C700003D1E86840F48010E860208840040ED565
:101C8000D5F88800A26B20F040601043C5F88800AA
:101C9000A06B884203D1E86840F48010E860208897
:101CA00000040FD5D5F88800E16B20F040500843C0
:101CB000C5F88800E06BB0F1805F03D1E86840F4BC
:101CC0008030E8603046BDE8F88300000010024034
:101CD000007000402DE9F0470E4605004FF0000768
:101CE00025D0DFF8AC81D8F8000000F00F00B0423A
:101CF0000CD2D8F8001021F00F013143C8F80010C1
:101D0000D8F8000000F00F00B04210D12968614CF3
:101D1000C80741F2883A5AD06868DFF87C910328F6
:101D200008D0022820682DD0400500282CDB012097
:101D3000BDE8F08720688001F9D5E06800F0030273
:101D4000E068C0F30310401C032A19D0534A00BFB7
:101D5000B2FBF0F0E268C2F306225043E268C2F33D
:101D60004162521C5200B0FBF2F0484517D9A068FE
:101D700010F0F00F0CD0880711D5A86840B10EE024
:101D8000474AE5E78003D0E700F0B6F8484506D9B2
:101D9000A06820F0F00040F08000A0608027A068DC
:101DA000696820F003000843A060FFF7EDFA814660
:101DB00006E000BFFFF7E8FAA0EB090151453AD869
:101DC000A068696800F00C00B0EB810FF2D12868C0
:101DD000810714D5400703D5A06840F4E060A060F7
:101DE0002878000705D5A06820F4605040F4E06032
:101DF000A060A068A96820F0F000084304E0802FEC
:101E000003D1A06820F0F000A060D8F80010404690
:101E100001F00F01B14216D9016821F00F013143E1
:101E20000160FFF7B1FA074607E000BFFFF7ACFA21
:101E3000C11B514501D903207AE7D8F8000000F012
:101E40000F00B042F2D12878400705D5A068E968B4
:101E500020F4E0600843A0602878000706D5A06859
:101E6000296920F4605040EAC100A06000F044F805
:101E7000A1680C4AC1F30311515C01F01F01C84075
:101E80000949086009480068BDE8F047FFF7FEBC53
:101E9000002002400010024000B4C4040024F400FA
:101EA00000127A0002550008180000200C000020E3
:101EB0000548064900688968054AC1F30221515C5A
:101EC00001F01F01C84070471800002000100240B8
:101ED000125500080548064900688968054AC1F39B
:101EE000C221515C01F01F01C8407047180000205A
:101EF0000010024012550008184910B58868C0F358
:101F000081021748012A0BD08A684310C2F381026C
:101F1000022A06D08A68C2F38102032A03D0002075
:101F200010BD184610BDCA6802F00304CA68C2F3A7
:101F30000312521C032C02D0B0FBF2F001E0B3FB01
:101F4000F2F0CA68C968C2F306225043C1F3416186
:101F5000491C4900B0FBF1F010BD00000010024028
:101F60000024F4002DE9F84304007AD02078F84DDD
:101F7000C00747D0A868E96800F00C0001F0030131
:101F80000C2802D0082817D001E0032914D060687B
:101F9000B0F5803F17D0B0F5A02F286817D020F4F7
:101FA00080302860286820F4802028606068E0B1D4
:101FB000FFF7EAF9064614E02868800322D5606836
:101FC0000028D2D01EE0286840F48030EDE740F4CD
:101FD00080202860F7E700BFFFF7D6F9801B642850
:101FE00070D828688003F7D50CE0FFF7CDF90646D6
:101FF00005E000BFFFF7C8F9801B6428F0D8286807
:102000008003F7D4207880074CD5A868E96800F0F1
:102010000C0001F003010C2802D004280DD001E0CF
:1020200002290AD0E068002828682BD040F480708C
:102030002860FFF7A9F9064619E02868400502D58F
:10204000E068002891D06868217C20F0FE4040EADA
:1020500001606860BF480068FFF718FC002800D1E5
:1020600020E072E1FFF790F9801B0228B8D82868B9
:102070004005F7D56868217C20F0FE4040EA016009
:1020800068600FE020F480702860FFF77DF9064655
:1020900005E000BFFFF778F9801B0228A0D8286868
:1020A0004005F7D42078000729D560690028D5F8C5
:1020B000940013D040F00100C5F89400FFF764F9D4
:1020C000064606E090E000BFFFF75EF9801B02289D
:1020D00086D8D5F894008007F6D510E020F00100EE
:1020E000C5F89400FFF750F9064604E0FFF74CF9F5
:1020F000801B022878D8D5F894008007F6D4207881
:10210000400761D5A86D0026C00008D4A86D40F036
:102110008050A865A86D012600F0805000908E4880
:102120000168C90511D40168804641F480710160DD
:10213000FFF72AF9074604E0FFF726F9C01B02283B
:1021400052D8D8F80000C005F6D5A068012815D0EF
:102150000528D5F8900016D020F00100C5F89000B1
:10216000D5F8900020F00400C5F89000A06841F276
:102170008838B8B1FFF708F907460EE0D5F89000A7
:1021800040F00100F0E740F00400C5F89000F5E7EA
:10219000FFF7FAF8C11B414526D8D5F89000800713
:1021A000F6D50CE0FFF7F0F8074604E0FFF7ECF88F
:1021B000C11B414518D8D5F890008007F6D41EB150
:1021C000A86D20F08050A8652078800629D5A069E8
:1021D0000028D5F8980013D040F00100C5F8980009
:1021E000FFF7D2F8064606E075E000BFFFF7CCF82F
:1021F000801B02286FD8D5F898008007F6D510E02C
:1022000020F00100C5F89800FFF7BEF8064604E08C
:10221000FFF7BAF8801B02285DD8D5F89800800730
:10222000F6D4E069F0B3A968C1F3810103295DD058
:102230000228286820F08070286003D0FFF7A4F8F7
:1022400004464BE0FFF7A0F8064604E0FFF79CF8D1
:10225000801B02283FD828688001F7D4F4E90801E0
:102260006FF00F0202EB01110843218A5204490862
:1022700002EB4151A26841EA02210843217D4FF05F
:102280007E42490802EB41610843217B40EAC1607C
:10229000E968324A11400843E860286840F08070DD
:1022A000286000E05EE0E86840F08070E860FFF7DA
:1022B0006BF8044605E000BFFFF766F8001B022834
:1022C00009D828688001F7D54CE000BFFFF75CF81B
:1022D000001B022802D90320BDE8F883286880018A
:1022E000F4D4E8681E490840E8603BE00128F3D0D8
:1022F000E868226A00F00301914226D1616A00F089
:10230000F0020901103991421FD1A26A00F4FE4186
:10231000B1EB022F19D194F82C2000F07841B1EBE9
:10232000C26F12D1218E00F4C00249084905A1F5FF
:102330000011914209D194F8341000F0C0604908AE
:102340004906A1F1007181420CD00120C4E70000D0
:10235000001002400C000020007000400C809F0123
:10236000FCFFEEFE0020B7E710B5401EB0F1807F05
:1023700001D3012010BD4FF0E02460610F216017F0
:1023800001F0B7FE0020A06107202061002010BDF1
:10239000F0B590F83C20012A3AD0012580F83C5055
:1023A000022280F83D2003685A689C68194E1A4F33
:1023B000B34201D0BB4204D122F4700C4A6842EA15
:1023C0000C02DFF858C002EA0C02D1F800C04CEA57
:1023D000020CC3F804C00268B2420DD0B2F1804FC3
:1023E0000AD00F4B9A4207D00E4B9A4204D0BA4201
:1023F00002D00D4B9A4204D1896824F0800319431E
:10240000916080F83D50002180F83C100846F0BDF6
:102410000220F0BD002C0140003401408FFFFFFD81
:1024200000040040000800400040014010B50400D6
:1024300003D094F83D0010B107E0012010BD00204A
:1024400084F83C00204600F023F8022084F83D0088
:10245000211D206801F042F8012084F8480084F82A
:102460003E0084F83F0084F8400084F8410084F87E
:10247000420084F8430084F8440084F8450084F85E
:10248000460084F8470084F83D00002010BD00009D
:1024900008B500680649884208D10648816D41F0B8
:1024A00010018165806D00F01000009008BD0000F3
:1024B000001000400010024090F88410012918D04C
:1024C000012180F884102421C0F8881001680A686E
:1024D0000B6823F001030B6022F0005100224266DA
:1024E000036819602021C0F8881080F88420104605
:1024F0007047022070477047704770B5044690F8E7
:10250000840001281DD0012084F884002420C4F810
:10251000880020680568026822F0010202602068D5
:10252000826822F060620A438260204601F034F83B
:10253000206805602020C4F88800002084F884000A
:1025400070BD022070BD70B5044690F8840001286B
:102550001DD0012084F884002420C4F8880020685D
:102560000568026822F0010202602068826822F099
:1025700060420A438260204601F00EF82068056040
:102580002020C4F88800002084F8840070BD022058
:1025900070BD7047704770472DE9F04103680446ED
:1025A000D86919689A6840F60F0528424FF000056F
:1025B0004FF002060AD187067ED501F0200702F00F
:1025C000805C57EA0C0777D0616F42E1B64FDFF8C5
:1025D000DCC2174001EA0C0C57EA0C0C6CD05FEA25
:1025E000C07C0CD05FEAC15C09D54FF0010CC3F888
:1025F00020C0D4F8903043F00103C4F89030830732
:1026000009D5D30707D023681E62D4F8903043F071
:102610000403C4F8903043070AD5D30708D02668CE
:1026200004233362D4F8903043F00203C4F89030AE
:1026300003070CD501F020033B4308D0266808238C
:102640003362D4F8903043F00803C4F890300305A7
:102650000BD54B0109D526684FF400633362D4F8DB
:10266000903043F02003C4F89030D4F89030002B21
:102670003DD0800609D501F0200002F080510843CA
:1026800003D0616F09B120468847D4F890002168D3
:102690008968490602D410F0280F2AD0204601F09C
:1026A0005FF82068806840061ED52068083050E832
:1026B000001F21F0400100E021E040E80012002A64
:1026C000F3D1D4F8800078B179498163D4F88000DF
:1026D000FEF7E8FC00280AD0D4F88000816B00E007
:1026E0002046BDE8F04108472046FFF754FFBDE80B
:1026F000F0812046FFF74FFFC4F89050F7E7D4F879
:102700006CC02027BCF1010F7ED15FEAC06C7BD585
:102710005FEAC16C78D51020186220688068400696
:1027200051D5D4F880100A6850680004000C3ED0DF
:10273000B4F85C3083423AD9A4F85E0008680068B7
:1027400080062CD4216851E8000F20F4807041E805
:102750000002002AF6D12068083050E8001F21F05E
:10276000010140E80012002AF5D12068083050E845
:10277000001F21F0400140E80012002AF5D1C4F802
:102780008C70E566216851E8000F20F0100041E8E8
:102790000002002AF6D1D4F88000FEF74EFC26672E
:1027A000B4F85C00B4F85E10401A81B207E0B4F8E7
:1027B0005C1081429BD11068800698D52667204620
:1027C000FFF799FE93E7B4F85C00B4F85E10401A86
:1027D00081B2B4F85E00002889D0002987D0226831
:1027E00052E8000F20F4907042E80003002BF6D16D
:1027F0002D4BDB432068083050E8002F1A4040E89A
:10280000002CBCF1000F00E00EE0F3D1C4F88C7096
:10281000E5666567206850E8002F22F0100240E866
:102820000023002BF6D1C9E7C60209D5560207D509
:102830004FF4801018622046BDE8F041FFF7AABEB1
:1028400003060AD501F0800302F40002134304D00A
:10285000A16F00297FF444AF49E7420611D54A062B
:102860000FD52046016851E8002F22F0400241E8D0
:102870000023002BF6D1C0F88870856700F07FF93F
:1028800035E7020206D54A0004D52046BDE8F041EE
:10289000FFF77FBEC00195D5002993DA2046BDE839
:1028A000F041FFF729BE00000100001020010004E4
:1028B0005137000810B5040003D0D4F8880010B1D7
:1028C00007E0012010BD002084F88400204600F0BD
:1028D00027F82420C4F888002068016821F001014D
:1028E0000160A06A10B1204600F078FE204601F099
:1028F000C9F90128E6D02068416821F4904141607F
:102900002068816821F02A0181602068016841F017
:10291000010101602046BDE8104000F0C3BE000088
:1029200010B598B00446142111A8FDF7BBFC442152
:102930006846FDF7B7FC1B492068884230D101206A
:102940000024CDE900046846FFF780F808B1FEF7DF
:1029500072FB1548016E41F480410166016E01F47D
:1029600080411691C16C41F00101C164C06C11A994
:1029700000F0010016904FF4C06011900220CDE9E4
:1029800012040720CDE914404FF09040FEF7D8FB29
:10299000002211462520FEF7C1FF2520FEF7B0FFDB
:1029A00018B010BD003801400010024030B4D0F81B
:1029B0008C30202B02D0022030BC7047A9B1A2B1CC
:1029C0000023C3660A4C0368A3420BD05B681B025A
:1029D00008D5046854E8003F43F0806344E80035BC
:1029E000002DF6D130BC01F087BA0120E4E70000E9
:1029F0000080004070B50068194988422FD11948FD
:102A000000230146C278612A19D0642A1FD001240C
:102A1000662A17D0144D49780A2A1CD00D2A1AD0DC
:102A20003B2A18D03F2902D26A54491C4170BDE8A4
:102A300070400C490122C91C0C48FFF7B7BF0B704E
:102A40000BA001E00C7012A001F030FBEFE70220B8
:102A5000087017A0F8E76B5484704370E7E770BD07
:102A600000380140080000203C0000201C0100202C
:102A7000537769746368656420746F204D4F4445D3
:102A80005F4155544F5F52454143480D0A000000D5
:102A9000537769746368656420746F204D4F4445B3
:102AA0005F475241425F464C41540D0A000000000E
:102AB000537769746368656420746F204D4F444593
:102AC0005F475241425F444F574E0D0A00000000DD
:102AD0002DE9F8430446D0F88800984616460D467E
:102AE000202802D00220BDE8F883A5B19EB10020C5
:102AF000C4F890002120C4F888001834FEF744FC84
:102B0000A6878146E68754F8100C2027183CB0F5BC
:102B1000805F02D003E00120E5E7206910B12E4676
:102B2000002510E000260EE08021204601F06CFA1E
:102B3000C0B9DEB116F8010B21688862B4F85600FE
:102B4000401EA4F85600B4F856004B464FF0000261
:102B5000CDF800800028E7D14FF04001204601F079
:102B600053FA40B1C4F888700320BCE735F8020B73
:102B7000C0F30800E0E7C4F888700020B3E77047AE
:102B8000FEE701688A69D243920701D400228A6273
:102B900000688169C943C90703D0816941F0010117
:102BA000816170472DE9F047044600688946002698
:102BB000816935461746C9064FF0200841D51021D6
:102BC000C1612FE0B9F1FF3F2CD0FEF7DDFBC11B47
:102BD000494502D8B9F1000F24D12068416894F822
:102BE000422001F480418369DB431B0415D4B1F515
:102BF000804F12D0202A10D0416841F480414160BA
:102C0000FEF7C2FB074608E0FEF7BEFBC01B192813
:102C100003D945F02005012604E020688069C043FF
:102C20008006F1D420688069C043800602D5002E5A
:102C3000C8D003E016B92168C1F81C8045F004052E
:102C4000012621688869C20505D54FF4807245F0D8
:102C50000105CA610126410509D522684FF480614A
:102C600045F00805D1610126800502D40AE08005FF
:102C700007D521684FF4007045F00205C8610126B0
:102C800000E086B12046FFF77CFF54F8240B416832
:102C9000064A11404160206A2843206284F81D8062
:102CA0000020A07720773046BDE8F08700E800FEDE
:102CB0002DE9F84304461646DDE90897144898467E
:102CC000DAB200900023204600F056F83A46494612
:102CD000204600F0D1F8B8B9F5B2B8F1010F08D02C
:102CE0002168300A88623A464946204600F0C4F816
:102CF00050B9206885624B4600224021204600974B
:102D000000F052F8002800D00120BDE8F883000050
:102D1000002000802DE9F8430446164615489846E1
:102D2000DDE90897DAB2C3020090204600F024F8EB
:102D30003A464946204600F09FF8B8B9F5B2B8F1D6
:102D4000010F08D02168300A88623A464946204679
:102D500000F092F850B9206885624B46002280212D
:102D60002046009700F020F8002800D00120BDE8A0
:102D7000F88300000020008010B5C1F3090141EA8A
:102D800002410268029C19432143506821F000412E
:102D90004FF4806303EA5453024C2343984308439F
:102DA000506010BDFF63FF032DE9F0411D4617463B
:102DB0000E460446DDF8188027E0424629462046A4
:102DC000FFF7F0FE10B10120BDE8F081681C1CD0B7
:102DD000FEF7DAFAA0EB0800A84200D8ADB92068E7
:102DE000806936EA00000ED00020B8420DD154F8B8
:102DF000440F40F0200044F80409202060700020B7
:102E0000A0702070DFE70120EFE72068806936EAD4
:102E1000000004D00020B842CFD00020D4E7012029
:102E2000F9E770B516460D4604461EE032462946BF
:102E30002046FFF7B7FE08B1012070BDFEF7A4FAE7
:102E4000801BA84200D885B920688069C0438006ED
:102E50000BD554F8440F40F0200044F8040920201A
:102E600060700020A0702070E6E720688069C04391
:102E70008006DBD4002070BD70B516460D460446B2
:102E800020E0324629462046FFF78CFE08B101209B
:102E900070BD681C16D0FEF777FA801BA84200D8D8
:102EA00085B920688069C04380070BD554F8440F6A
:102EB00040F0200044F80409202060700020A07039
:102EC0002070E4E720688069C0438007D9D40020DF
:102ED00070BD000070B5504D06462DED048B8EB0D0
:102EE000B0EE419AF0EE608AF0EE409A21B10129ED
:102EF00015D0022916D019E029EEA90A08EEA80A71
:102F000001F02CFCF0EE400A9FED440A39EE400A35
:102F100001F08CF9DFED420A20EE200A04E09FED7B
:102F2000410A01E09FED400A85ED000A0024B1EE60
:102F3000048A00BF00EE104AD5ED001AB0EE491A1F
:102F4000B8EEC00AF0EE680A08A840EE081AB0EE23
:102F5000690A00F06DF8182208A902A8FDF789F99E
:102F600000EE104AD5ED000A0DF1080CB8EEC00ACB
:102F700040EE080AC5ED010ADDE90601CDE90001D0
:102F80009CE80F00FEF72CF850BB00EE104AD5ED80
:102F9000001AB0EE491AB8EEC00AF0EE680A08A8A6
:102FA00040EE481AB0EE690A00F042F8182208A96B
:102FB00002A8FDF75EF900EE104AD5ED000A0DF10A
:102FC000080CB8EEC00A40EE480AC5ED010ADDE97A
:102FD0000601CDE900019CE80F00FEF701F840B1C1
:102FE000182202A93046FDF744F90EB0BDEC048B5F
:102FF00070BD641C122C9DDBB0EE491A9FED0B0ACC
:10300000F0EE680A85ED010AD5ED001AB0EE690A06
:10301000304600F00DF8E8E70000002000005C42B8
:10302000E02E6542000000000000B4C20050C3471B
:1030300070B505462DED0A8BB0EE608AF0EE409A31
:10304000B0EE61CAF0EE41AAF0EE690AB0EE480AAD
:1030500001F0ECF89FED4C9ADFED4C8A4C4CF0EE11
:10306000680A40EE490AC4ED000A9FED4A0A2CEEB8
:1030700000AA29EEA90A08EE080A01F06FFBB0EEDB
:10308000408AB0EE4A0A01F0F9F900EE688AB0EE23
:103090004A0AF0EE489A01F099FADFED3F0A3AEE5B
:1030A000E0AA69EEA9AA00EE68AA4AEE0AAAB0EE62
:1030B0006A0A01F053FB10EE101A3848DFED38CAE7
:1030C000B0EE408A814201DDB0EE6C8ADFED350A58
:1030D0004FF07E56B7EE00BA30EEEA1A81EE200AC3
:1030E00010EE100AB04202DDB0EE4B0A06E010EE20
:1030F000100A10F1814F01D9BFEE000A01F00AF861
:1031000020EE090ADFED28BAF0EE690A3BEEC00AAC
:1031100030EE280A3BEEC00A84ED020AB0EE4A0AFD
:1031200001F084F8F0EE408A9FED200A28EE2C1A78
:103130007AEE800A70EEC00A80EE810A10EE100A64
:10314000B04201DDB0EE4B0A00F0E4FF38EE800A39
:10315000284618220E4920EE090A3BEEC00A84EDEB
:10316000010A30EE0C0AD4ED020A30EE200ADFED3F
:10317000100A30EEC00A84ED030ABDEC0A8BBDE8EC
:103180007040FDF776B80000E02E65420000B442C2
:103190002400002035FA8E3C00005C4200007042A2
:1031A000000070420000E14400003443000061442C
:1031B0000000B4430D4808B5C16C41F02001C16462
:1031C000C16C01F020010091C16C41F00101C164AA
:1031D000C16C01F001010091C16C41F00201C164B8
:1031E000C06C00F00200009008BD0000001002401A
:1031F000134810B5114901601249416000210122B4
:10320000C0E90212016141618161C1610162FEF7A1
:1032100015F908B1FDF70FFF00210948FEF7BAF8CC
:1032200008B1FDF708FF00210548FEF7DEF8002889
:1032300003D0BDE81040FDF7FEBE10BD00540040B5
:103240007C000020C285B2403EB5002410480094A6
:1032500001940E490294016040F2A361C0E9011497
:1032600040F2F311C16080218161FFF7DFF808B1FE
:10327000FDF7E1FE0094694605480294FFF788F8DF
:10328000002801D0FDF7D7FE3EBD00000010004031
:10329000D0000020184810B5164901604FF4E13104
:1032A0004160002181600C22C160C0E9041281618B
:1032B000C161016241628162FFF7FCFA08B1FDF76A
:1032C000BAFE00210C48FFF73EF908B1FDF7B3FE46
:1032D00000210948FFF711F908B1FDF7ACFE0648D7
:1032E000FFF7EAF8002803D0BDE81040FDF7A3BEC1
:1032F00010BD0000003801401C010020FEE7FEE781
:1033000070B500212DED028BB0EE408A084600F02A
:1033100093F89FED180AC0EE080AB7EE000A30EEE7
:10332000C00AF6EE000A30EE200ABCEEC00A10EE2B
:10333000100AC5B2002000F01FF8044600F07F001C
:1033400040F01001002000F077F82946FE2000F040
:1033500073F82146002000F06FF80520FDF7DEFE2F
:10336000BDEC028B44F0A101BDE87040002000F0EC
:1033700063B8000020BCBE451FB500218DF80C10BD
:103380000A23012203A98DE80E001346024680217C
:103390000348FEF7B1F89DF80C0004B010BD000022
:1033A0007C0000201FB5002303938DF80C10090A40
:1033B0008DF80D108DF80E20110A8DF80F100A23CC
:1033C000042203A98DE80E00062101EB80020123EF
:1033D00080210248FEF742F91FBD00007C0000205A
:1033E000DFED110AB5EEC00A0E4AF1EE10FA02D274
:1033F0009FED0E0A05E010EE101A914201DDB0EECD
:10340000600A80EE201ADFED0A0A9FED0A0A01EE3B
:10341000200ABCEEC00A10EE101A8AB20021FFF793
:10342000C1BF00000000344300003443000000002E
:103430000000CD430000CC4203B583B00A23012233
:1034400004A98DE80E001346024680210248FEF7CB
:1034500005F905B000BD00007C00002070477047F2
:10346000FEF7FCB900B593B038216846FCF71AFFA7
:1034700014210EA8FCF716FF0020FEF781FA0220A7
:10348000C1010391402104910421CDE9080100907C
:103490005521CDE90A1007900C900D906846FEF773
:1034A00061FD08B172B6FEE70F200E9003200F9069
:1034B000002010901190129004210EA8FEF70AFC33
:1034C000002801D072B6FEE713B000BD02480168C3
:1034D00041F470010160704788ED00E02DE9F04390
:1034E0000268264B264D274E274C4FF080499842C4
:1034F00007D0484505D0A84203D0B04201D0A04231
:1035000003D122F070074A683A43204FDFF880C0A9
:10351000DFF8808098420DD048450BD0A84209D0F2
:10352000B04207D0A04205D0B84203D0604501D0D8
:10353000404503D122F44075CA682A434D6922F000
:1035400080022A4302608A68C2620A6882629842E4
:1035500007D0A04205D0B84203D0604501D0404515
:1035600001D109690163012141610169C90703D0E2
:10357000016921F001010161BDE8F083002C0140E7
:1035800000040040000800400034014000400140B9
:10359000004401400048014030B5416EB9B10268B5
:1035A00091689268C1F342610B4B520F9C5CE5003D
:1035B00003F10804A25CB5FBF2F2A0F86A205A5CA1
:1035C000615CD200B2FBF1F1A0F8681030BD0121BE
:1035D000A0F86A10F8E70000F254000890F82810EC
:1035E000090706D501684A68836B22F400421A4332
:1035F0004A6090F82810C90706D001684A68C36A73
:1036000022F400321A434A6090F82810890706D540
:1036100001684A68036B22F480321A434A6090F8CA
:103620002810490706D501684A68436B22F48022B6
:103630001A434A6090F82810C90606D501688A68BE
:10364000C36B22F480521A438A6090F828108906CE
:1036500006D501688A68036C22F400521A438A6016
:1036600090F82810490611D501684A68436C22F485
:1036700080121A434A60416CB1F5801F06D101687F
:103680004A68836C22F4C0021A434A6090F82810FA
:10369000090606D501684A68C06C22F4002202437C
:1036A0004A6070472DE9F84300260446C0F8906050
:1036B000FDF76AFE8046206800684FF0200500078D
:1036C0006FF07E4713D54346002229042046009719
:1036D00000F09AFC58B1216851E8000F20F08000FA
:1036E00041E80002002AF6D1C4F8885021E02068A1
:1036F0000068400722D5434600224FF4800120464F
:10370000009700F081FCC8B1216851E8000F20F457
:10371000907041E80002002AF6D12068083050E895
:10372000001F21F0010140E80012002AF5D1C4F881
:103730008C5084F884600320BDE8F883C4F8885076
:10374000C4F88C5044F86C6F666026760020F3E76E
:1037500010B5806A0021A0F85E10FEF71CFF10BDB6
:1037600010B5026852E8001F21F4907142E800137E
:10377000002BF6D10E4B0268083252E8001F1940A8
:1037800042E80014002CF6D1C16E012908D101686D
:1037900051E8002F22F0100241E80023002BF6D15F
:1037A0002021C0F88C100021C166416710BD0000C7
:1037B000FEFFFFEF10B5B0F86020D0F88C30016844
:1037C000222B04D0886940F00800886110BD496A46
:1037D000836D11401980816D891C8165B0F85E1080
:1037E000491EA0F85E10B0F85E100029EED1026804
:1037F00052E8001F21F4907142E80013002BF6D12B
:103800000168083151E8002F22F0010241E800234D
:10381000002BF5D12021C0F88C10002141670167F1
:10382000154B02689A420BD05268120208D5036801
:1038300053E8002F22F0806243E80024002CF6D1E8
:10384000C26E012A02D0FFF7D5F810BDC16602682A
:1038500052E8001F21F0100142E80013002BF6D1BE
:103860000168CA69D243D20601D410220A62B0F8B4
:103870005C10FEF740FE10BD008000402DE9F047CF
:103880000446B0F860600068C569D0F800A0D0F8C0
:103890000890D4F88C10222905D0816941F00801E4
:1038A0008161BDE8F087B4F868704FF0000844E02B
:1038B0002068406AA16D30400880A06D801CA06522
:1038C000B4F85E00401EA4F85E002068C569690770
:1038D00030D0E9070AD05FEACA5107D50121016259
:1038E000D4F8900040F00100C4F89000A8070BD570
:1038F0005FEAC97008D0216802200862D4F89000FD
:1039000040F00400C4F8900068070BD55FEAC97066
:1039100008D0216804200862D4F8900040F002002A
:10392000C4F89000D4F8900020B12046FEF733FE92
:10393000C4F89080B4F85E0000B30FB1A806B7D405
:10394000B4F85E000028ACD0B4F868108142A8D961
:103950002068083050E8001F21F0805140E8001234
:10396000002AF5D12A486067206850E8001F41F01E
:10397000200140E80012002AF6D192E7216851E8C0
:10398000000F20F4807041E80002002AF6D1214A9D
:103990002068083050E8001F114040E80013002B59
:1039A000F6D12020C4F88C00C4F874804046C4F8D6
:1039B0007080194A216891420BD04968090208D5E4
:1039C000226852E8001F21F0806142E80013002BBA
:1039D000F6D1E16E012903D02046FFF70BF8AFE7DF
:1039E000E066216851E8000F20F0100041E8000275
:1039F000002AF6D12068C169C943C90601D4102143
:103A00000162B4F85C102046FEF775FD98E70000EF
:103A1000B5370008FEFFFFEF0080004010B5B0F89A
:103A20006020D0F88C300168222B04D0886940F0E7
:103A30000800886110BD496A1140826D1170816D66
:103A4000491C8165B0F85E10491EA0F85E10B0F800
:103A50005E100029EED1016851E8002F22F4907227
:103A600041E80023002BF6D10168083151E8002F0E
:103A700022F0010241E80023002BF5D12021C0F8FB
:103A80008C10002141670167154B02689A420BD0E8
:103A90005268120208D5036853E8002F22F08062B2
:103AA00043E80024002CF6D1C26E012A02D0FEF7B2
:103AB000A1FF10BDC166026852E8001F21F010018D
:103AC00042E80013002BF6D10168CA69D243D2063E
:103AD00001D410220A62B0F85C10FEF70CFD10BD94
:103AE000008000402DE9F0470446B0F860600068AF
:103AF000C569D0F800A0D0F80890D4F88C1022291D
:103B000005D0816941F008018161BDE8F087B4F812
:103B100068704FF0000844E02068406AA16D3040B2
:103B20000870A06D401CA065B4F85E00401EA4F8AB
:103B30005E002068C569690730D0E9070AD05FEAEE
:103B4000CA5107D501210162D4F8900040F001006C
:103B5000C4F89000A8070BD55FEAC97008D02168A7
:103B600002200862D4F8900040F00400C4F89000ED
:103B700068070BD55FEAC97008D021680420086285
:103B8000D4F8900040F00200C4F89000D4F89000FF
:103B900020B12046FEF7FFFCC4F89080B4F85E0028
:103BA00000B30FB1A806B7D4B4F85E000028ACD0BB
:103BB000B4F868108142A8D92068083050E8001F86
:103BC00021F0805140E80012002AF5D12A486067B0
:103BD000216851E8000F40F0200041E80002002A6F
:103BE000F6D192E7216851E8000F20F4807041E897
:103BF0000002002AF6D1214A2068083050E8001F50
:103C0000114040E80013002BF6D12020C4F88C00AE
:103C1000C4F874804046C4F87080194A2168914203
:103C20000BD04968090208D5226852E8001F21F02C
:103C3000806142E80013002BF6D1E16E012903D028
:103C40002046FEF7D7FEAFE7E066206850E8001F89
:103C500021F0100140E80012002AF6D12068C16965
:103C6000C943C90601D410210162B4F85C10204692
:103C7000FEF741FC98E700001D3A0008FEFFFFEF49
:103C8000008000402DE9F041044601688068226907
:103C9000E3691043626900251A431043DFF82CC220
:103CA0000A688B4B1A4002430A6020684168E26848
:103CB00021F44051114341602168A069614501D060
:103CC000226A10438A68834B1A4002438A60206844
:103CD000C16A626A21F00F011143C1627E49236803
:103CE0007E488B420DD1D0F8880010F0030006D03A
:103CF000012855D0022842D003283FD152E00120AC
:103D00003DE077498B420BD1D0F8880010F00C00D1
:103D100035D0042833D0082840D00C282ED141E0DB
:103D200070498B420BD1D0F8880010F0300026D0BB
:103D3000102835D0202831D030281FD132E06A49F0
:103D40008B420BD1D0F8880010F0C00017D040286B
:103D500026D0802822D0C02810D123E063450DD181
:103D6000D0F8880010F4406009D0B0F5806F17D00B
:103D7000B0F5006F12D0B0F5406F13D010205B4942
:103D80005B4F00264FF4004263453BD160B10228EF
:103D900013D004280BD0082872D10DE00220EEE7E2
:103DA0000420ECE70820EAE7FEF782F801E0FEF7DE
:103DB000A3F8010001D17CE01146606A37F81020B9
:103DC0006768B1FBF2F007EB4703834270D8B0EBB2
:103DD000073F6DD8002308461946FCF719FA090277
:103DE00041EA106102027808101871413A46002336
:103DF000FCF70EFA3F4AA0F54071914258D821686D
:103E0000C86056E0E3694FF6EF7893422CD1092859
:103E10004ED2DFE800F00508114D0D4D4D4D10005C
:103E2000FEF746F801E0FEF755F8010004D140E046
:103E3000FEF762F8F9E71146606A37F81000B1FB47
:103E4000F0F04100606801EB5001B1FBF0F0A0F12F
:103E5000100141452CD84FF6F0710140C0F34200EB
:103E600001432068C16024E0092821D2DFE800F086
:103E7000050912200E2020201100FEF719F802E09B
:103E800016E0FEF727F8010004D112E0FEF734F83F
:103E9000F9E71146606A37F81000B1FBF0F160688D
:103EA00001EB5001B1FBF0F0A0F1100141450AD93E
:103EB00001250120A4F86A0024F8680F2846E6606E
:103EC0002661BDE8F08180B299E7000000800040E3
:103ED000F369FFCFFFF4FF110038014000100240EA
:103EE0000044004000480040004C00400024F40022
:103EF000DA540008FFFC0F0070B58165A0F85C2063
:103F0000A0F85E200023436781684FF48056FF24A9
:103F1000B14204D10169F9B940F2FF1122E07F25D5
:103F2000C1B1B1F1805F1AD0A0F86030C0F8903014
:103F30002221C0F88C100168083151E8003F43F09D
:103F4000010341E80034002CF5D1416EB1F1005F6E
:103F50000ED031E0016941B9A0F86040E6E701699F
:103F600019B13F21A0F86010E0E7A0F86050DDE74C
:103F7000B0F8681091421FD88168B14201D101693F
:103F8000B9B11D494167016941B1026852E8001F9A
:103F900041F4807142E80013002BF6D1016808312A
:103FA00051E8002F42F0805241E80023002BF5D168
:103FB00020E012494167F1E78168B14201D101690E
:103FC00069B10F494167016959B1026852E8001FA0
:103FD00041F4907142E80013002BF6D10AE0094940
:103FE0004167026852E8001F41F0200142E80013D7
:103FF000002BF6D1002070BDE53A00087D3800089E
:104000001D3A0008B53700082DE9F04799461746D4
:104010000D4604464FF00008089E33E0701C31D076
:10402000FDF7B2F9A0EB0900B04218D8BEB1206884
:104030000168490726D5802D24D0402D22D0C169A2
:10404000C94309070DD4082505622046FFF788FB00
:10405000C4F8905084F884800120BDE8F0870320E4
:10406000FBE7C069C04300050CD421684FF4006031
:1040700008622046FFF774FB2020C4F8900084F803
:104080008480ECE72068C06935EA000004D0002095
:10409000B842C3D00020E0E70120F9E70148FEF76D
:1040A0007BBA00001C010020FEE700000FB4054BA6
:1040B00010B503A9044A029800F00EFD10BC5DF88B
:1040C00014FB0000095200081C00002041000802F7
:1040D00018BF04200A0E18BF40F001004FF07F42C5
:1040E00032EA010108BF40F00200012808BF0520A4
:1040F00070470907090E002804DB00F1E02080F872
:104100000014704700F00F0000F1E02080F8141D4B
:104110007047000010B510EE104A4FF01A402DED18
:10412000028B00EB4400B0F1C85F4AD84FF0FC406E
:10413000B0EB440F22D2B0EEC00AF7EE000A30EE28
:10414000C00AF6EE000A20EE208A18EE100A01F0EE
:10415000A5F900EE100A14F0004F1DBF9FED281ABC
:10416000DFED280AB1EE400A9FED271A08BFF0EEF6
:10417000410AF8EE001A20EE210A05E020EE008A3E
:104180009FED221ADFED220ADFED221A9FED222A8F
:1041900070EEC00A20EE080A08EE212ADFED1F1A91
:1041A00048EE021A9FED1E2A08EE212ADFED1D1AA5
:1041B00048EE021ABDEC028B40EE610A30EE810A35
:1041C00010BD4FF0CC40B0EB440F82BF9FED160AFC
:1041D000BDEC028B10BD4FF07F40B0EB440F05D219
:1041E000BDEC028BBDE8104000F0D5BA012000F014
:1041F000A3FBBDEC028BBDE8104000F0D3BA000079
:104200000000494022AA7D3A000000000000C93F9A
:1042100022AAFD3924FE1C3DC78AD83C1E67383DC2
:104220001B93993DAFAA2A3EDB0FC93F10EE100A3F
:1042300010B510EE901A4FF0684202EB40032DEDDE
:10424000028BB3F1654F3CBF02EB4102B2F1654F07
:104250007CD200BFC0F3C753C1F3C7529A1A1B2ABE
:1042600009DD10F0004F14BF9FED6E0A9FED6E0A3E
:10427000BDEC028B10BD12F11A0F1BDA11F0004FCA
:1042800009D010F0004F0CBF9FED680A9FED680A3F
:10429000BDEC028B10BD80EE208A18EE100AFFF7ED
:1042A00015FF042808BF00F085FAB0EE480ABDECFF
:1042B000028B10BD4200B2EB410F37D910F0004F16
:1042C00019BFDFED5C1A9FED5C1ADFED5C1A9FED04
:1042D0005C1AB0EE602A0A46F1EE400A80F0004116
:1042E000B0EE420A10460A1A5200B2F1807F34D270
:1042F000484010F0004FDFED532A9FED533A1DBFA9
:10430000BEEE002A71EEE21A31EE431AB6EE002A32
:1043100004BF71EEA21A31EE031AF0EE402A42EE0B
:10432000602A40EE020A82EEA02A18E011F0004F47
:1043300004BF9FED461AF0EE411AD4D010F0004FA2
:104340001CBFDFED431A9FED431A00E026E004BFD7
:10435000DFED411A9FED411AC5E780EE202A22EEDB
:10436000020ADFED3F0ADFED3F2ABDEC028B40EE93
:10437000202ADFED3D0A40EE220ADFED3C2A40EE26
:10438000202ADFED3B0A40EE220A22EE000A00EE70
:10439000201A31EE020A30EE210A10BD4FF07F42A2
:1043A000B2EB400F28BFB2EB410F05D2BDEC028B40
:1043B000BDE8104000F0F2B940EA01035B0008BF1D
:1043C00041F0FF410BD0B2EB400F08BFB2EB410F01
:1043D00008D120F0804000EE100A21F0804100EE6C
:1043E000901A37E7B2EB400F12BF5FEA410240F08C
:1043F000FF4001F000413FF42DAF4A0092EA400334
:104400003FF528AF002AACBF9FED1A1A9FED1A1A8C
:1044100020EE010A60EE810A10EE100A10EE901AEA
:1044200018E70000DB0FC9BFDB0FC93FDB0F4940B6
:10443000DB0F49C00000C9BF22AAFDB90000C93F77
:1044400022AAFD390060ED3EC30ACE37000000000D
:10445000000049C022AA7DBA0000494022AA7D3A44
:104460002DAD65BD8FB8D53D0FB511BE61C84C3EB1
:10447000A8AAAABE0000804F0000802F10EE101ADC
:1044800008B5444A6846B2EB410F28D94FF0E640E0
:10449000B0EB410F94BF00204FF0FF300090009828
:1044A000002861DB60EE000A10F0010F45D010F02B
:1044B000020FDFED391A9FED391A00EEE11ADFED38
:1044C000381A40EE811A21EEA01AF0EE400A40EEB2
:1044D000010A08BFF1EE600AB0EE600A08BD314B78
:1044E00021F0004293423CD911F0004FDFED2E0A3B
:1044F00020EE201ADFED2D0A19BF31EE601A71EEA1
:10450000200A31EE201A71EE600ABDEEE01A11EEBB
:10451000100A9FED271A00F0030000EEC10A9FED7C
:10452000251A009000EEC10A9FED231A00EEC10A81
:104530009FED221A00EEC10AB1E79FED211A9FED0F
:10454000210A10F0020F00EE810A9FED1F1A00EE03
:10455000801AB7EE000A00EE810A18BFB1EE400AD9
:1045600008BD00F02FF99AE710EE100A4000B0F1F4
:104570007F4F3CBFB7EE000A08BD07D14FF00100E6
:1045800000F0DAF9BDE8084000F00CB9BDE80840D9
:1045900000F001B9B61F927E336D4C39DA82083CC7
:1045A000A0AA2ABE490E494683F9223F0000004BCB
:1045B0000000C93F00A0FD390020A2331A61342C4D
:1045C000B93AB2BACA9F2A3DDDFFFFBE00B510EE70
:1045D000101A2DED028B81B0524A6846B2EB410FA2
:1045E0002ED94FF0E640B0EB410F94BF00204FF0C2
:1045F000FF3000900098B0EE408A00286ADB10F08F
:10460000010F4BD068EE080A9FED471A9FED470A4D
:1046100000EE810A9FED461A10F0020F00EE801A9C
:10462000B7EE000A00EE810A02BF01B0BDEC028BBA
:1046300000BD00BF01B0B1EE400ABDEC028B00BD71
:104640003C4B21F00042934241D911F0004FDFED85
:104650003A0A20EE201ADFED390A19BF31EE601A4E
:1046600071EE200A31EE201A71EE600ABDEEE01AFA
:1046700011EE100A9FED321A00F0030000EEC10A9D
:104680009FED301A009000EEC10A9FED2F1A00EE48
:10469000C10A9FED2E1A00EEC10AABE728EE080A08
:1046A0009FED2B1ADFED2B0A10F0020F40EE410AAE
:1046B0009FED291A00EE201A61EE000AB0EE480ABA
:1046C00008EE200AB6D101B0BDEC028B00BD00F0AF
:1046D00079F88FE718EE100A4000B0F17F4F0DD245
:1046E00018EE100AFFF7F2FC042808BF00F062F889
:1046F000B0EE480A01B0BDEC028B00BD09D101202B
:1047000000F01AF901B0BDEC028B5DF804EB00F08B
:1047100049B801B0B0EE480ABDEC028B5DF804EB7D
:1047200000F039B8B61F927EB93AB2BACA9F2A3D94
:10473000DDFFFFBE490E494683F9223F0000004BD2
:104740000000C93F00A0FD390020A2331A61342CBB
:10475000336D4C39DA82083CA0AA2ABE10B52DED83
:10476000028BB1EEC08A18EE100A20F00040C0F1B2
:10477000FF40C00F0AD010EE100A20F00040C0F138
:10478000FF40C00F04BF012000F0D6F8B0EE480A89
:10479000BDEC028B10BD30EE000A704730EE200AEF
:1047A00070470000DFED020A80EEA00A70470000AB
:1047B000000000009FED020A20EE000A7047000092
:1047C000000000102DE9F0014FF07F42B2EB410FE5
:1047D0009FBF4FF0FF310160BDE8F00170474FF01F
:1047E000004242EA0123C1F3C752783A551112F050
:1047F0001F0C434CCCF120067C44C1F3C752A2F1FC
:1048000078024FEA621204EB820254F8254008BF96
:10481000D2E9015612D0556804FA0CF425FA06F7CD
:104820003C43976805FA0CF527FA06F8D26807FAB0
:104830000CFCF24045EA08054CEA0206A4FB034CD6
:10484000A5FB0352A6FB03631D449D4234BF012612
:1048500000261319334416B1934202D903E0934260
:1048600001D2012200E00022624402F1200C9206F3
:10487000DC0C42EA443200EE102A5B03DFED210A31
:10488000F8EEC01A00EE103A4FEA9C1C11F0004FEF
:10489000B8EE400AC0F800C020EE201A00EE105A10
:1048A000DFED190AB8EE400A20EE200A71EE810A07
:1048B00070EE800A10EE902A02F500626FF30B0290
:1048C00000EE902A70EEE11A31EEC11ADFED101AF7
:1048D00030EE411A9FED0D0A20EE800A01EE210A0A
:1048E0009FED0C1A00EE810A04BFBDE8F00170478D
:1048F000CCF180510160BDE8F001B1EE400A704793
:10490000200D0000000000360000802C22AAFD29A6
:10491000DB0FC92F0000C92F02E008C8121F08C111
:10492000002AFAD170477047002001E001C1121F30
:10493000002AFBD170470000014908607047000061
:10494000200000202DE9FF5F82B00021DDE9043066
:10495000020DDDF840B0034318D044F61050A2F227
:10496000FF3242431514119801281FD0A5EB0B000C
:10497000401C5FEA000A4FF000064E4FDFF8389106
:10498000B046504615D5CAF1000413E01198012431
:104990004AA3012801D16FEA0B010298119AC0E9DC
:1049A0000031C0E9024206B0BDE8F09FCBF1000043
:1049B000DFE704460021404A491842EB0450CDE9A4
:1049C000001012E0E00707D032463B464046494619
:1049D000FBF763FF8046894632463B461046194640
:1049E000FBF75BFF06460F466410002CEAD1DDE9B9
:1049F0000401DDE90023BAF1000F06DAFBF74DFFF1
:104A000042464B46FBF749FF05E0FBF7B8FF42463D
:104A10004B46FBF7B4FF04460E460022284BFCF73A
:104A200041F803D84FF0FF30014607E00022254B44
:104A300020463146FBF78AFEFCF71CF8102409E0FB
:104A4000002C0ADB0A220023FBF7E2FB039B303237
:104A50001A55641E50EA0102F2D1641C039AC4F193
:104A600011031444119A012A03D0012208430DD1E5
:104A70000AE0084304D000204FF0110B119072E7B8
:104A8000A3EB0B056D1E0DE05B4504DD4FF000024E
:104A900005F1010504E003DA4FF00002A5F101057C
:104AA000002AECD002981199C0E90231C0E9004512
:104AB00079E70000000014400000F03F30000000E3
:104AC0000000F0430000E03F30380A2801D2012006
:104AD00070470020704700002DE9FF4F95B09B46BE
:104AE0008946064600250FE2252877D1002427466F
:104AF000F84A0121059400E0044316F8013F203BE9
:104B000001FA03F01042F7D130782A2811D06FF063
:104B10002F033078A0F13002092A16D8059A44F004
:104B2000020402EB820203EB42021044761C059061
:104B3000EFE759F8042B0592002A03DA504244F4B7
:104B40000054059044F00204761C30782E2816D1CB
:104B500016F8010F44F004042A280DD06FF02F023C
:104B60003078A0F13003092B09D807EB870302EB5B
:104B70004303C718761CF3E759F8047B761C30789A
:104B80006C280FD006DC4C2817D068280DD06A2876
:104B900014D104E0742810D07A280FD10DE044F429
:104BA00000140AE044F4801401E044F440147278E4
:104BB000824202D104F58014761C761C3078662877
:104BC0000BD013DC582877D009DC002875D0452895
:104BD000F6D04628F4D047281AD19DE118E0632882
:104BE00035D0642879D0652812D195E1702873D02A
:104BF00008DC6728F1D069286FD06E280DD06F28A7
:104C000006D1B5E073282CD0752875D0782874D0DB
:104C10005A46179990476D1C75E1C4F3025002285B
:104C200009D003280DD0D9F8001004280DD00D604C
:104C300009F1040967E1D9F80010EA17C1E9005247
:104C4000F6E7D9F800100D80F2E70D70F0E719F8DB
:104C5000041B8DF8001000208DF80100EA460120A9
:104C600003E059F804AB4FF0FF3061074FF000014B
:104C700002D40DE008F101018846B9420FDA8045FF
:104C8000F8DB1AF808100029F4D108E008F1010156
:104C900088468142FADB1AF808100029F6D10598F7
:104CA0005B46A0EB080721463846179A00F094FAB5
:104CB000284400EB080507E04DE029E10DE01AF873
:104CC000010B5A4617999047B8F10108F7D25B4695
:104CD00021463846179A13E142E00A220092C4F3B3
:104CE00002524FF0000A022A08D059F804CB032AD6
:104CF0004FEAEC710AD00DE029E02AE009F1070142
:104D000021F00702F2E802C1914609E00FFA8CFC9B
:104D10004FEAEC71042A03D14FFA8CFC4FEAEC7194
:104D2000002907DA0A460021DCF1000C61EB0201E0
:104D30002D2202E0220504D52B228DF80420012229
:104D400003E0E20701D02022F7E7904659E00A216C
:104D500002E010220DE010214FF0000A00910BE05C
:104D600010224FF0000A44F004040827009203E0E8
:104D700008224FF0000A0092C4F30252022A05D022
:104D800059F804CB0021032A08D009E009F10701F2
:104D900021F00702F2E802C1914605E01FFA8CFCFF
:104DA000042A01D10CF0FF0C4FF00008220728D58F
:104DB000702806D0009B83F0100353EA0A0305D045
:104DC0000EE040228DF80420012208E05CEA010296
:104DD00006D030228DF804208DF80500022290467E
:104DE000009B83F0080353EA0A030AD15CEA01023C
:104DF00001D1620705D530228DF804204FF001085B
:104E00007F1E582804D034A003900EA802900DE015
:104E100036A0F9E753466046009AFBF7F9F9844655
:104E20000398825C0298401E029002705CEA0100C6
:104E3000F0D1029806A9081A00F1200A600702D5ED
:104E400024F4803400E00127574502DDA7EB0A0077
:104E500000E0002000EB0A01009005984144401A50
:104E60000590E00306D45B462146179A059800F0AA
:104E7000B3F90544002706E001A85A46C05D17991A
:104E800090476D1C7F1C4745F6DBE0030CD55B4665
:104E90002146179A059800F09FF9054404E0302058
:104EA0005A46179990476D1C0099481E009000299A
:104EB000F5DC08E0029802995A460078491C0291F4
:104EC000179990476D1CBAF10001AAF1010AF1DCB3
:104ED00065E10000092801003031323334353637BE
:104EE0003839616263646566000000003031323336
:104EF00034353637383941424344454600000000D6
:104F000000F058F90544761C307800287FF4ECADA9
:104F100019B02846BDE8F08F620700D4062709F1D2
:104F2000070222F0070CFCE80223E14603F00048E8
:104F30005FEA080C02D00FF2702C0DE05FEA045C0F
:104F400002D50FF2682C07E05FEAC47C02D00FF2B2
:104F5000602C01E0AFF2700C4FF0FF3823F00043FB
:104F6000CDF850C065280CD006DC452809D046286D
:104F70001DD047283DD13DE0662818D067287ED156
:104F800038E00021112F01DB112000E0781CCDE971
:104F9000000106A90EA8FFF7D5FCDDE90F010E9A66
:104FA00003910021009207F1010A04914DE04FF0B6
:104FB00000400097CDE9011006A90EA8FFF7C2FC3A
:104FC000DDE90F0203920E9B11990022DDF80CA07F
:104FD0000093049211B9791C00EB010AB7EB0A00A7
:104FE00004D4C0F1FF3007F1010A0490AAEB0700D6
:104FF000019044E0012F00DA01270021112F01DD8B
:10500000112000E03846CDE9000106A90EA8FFF7FF
:1050100099FCDDE90F010E9A0391002104910092A1
:10502000BA4621070CD40399514500DA8A46BAF1F1
:10503000010F05DD009AAAF10101515C302908D069
:10504000B84202DA10F1040F06DA0121CDE90110AD
:1050500015E0AAF10101E9E7002805DC0499014403
:105060000491AAEB000102E0411C514500DD8A4693
:105070000499401A401C01904FF000400290200714
:1050800004D40198504501DBCDF8048000208DF850
:105090004F0002980DF14F07B0F1004F25D02B20A3
:1050A0000E9002984FF0020800280CDA404202905D
:1050B0002D200E9007E00A210298FBF7DEFA30312E
:1050C000029007F8011DB8F10001A8F10108F2DC17
:1050D00002980028EFD1791E0E980870307800F001
:1050E000200040F0450007F8020D12A8C01B00F197
:1050F00007081498007800B1012000EB0A0101981C
:1051000001EBE07105984144401A401E0590E00310
:1051100006D45B462146179A059800F05DF80544D1
:105120001498007818B15A46179990476D1CE003FF
:1051300024D55B462146179A059800F04DF80544A2
:105140001CE00498002807DBDDE90301884203DD49
:105150000098405C179901E0179930205A46904713
:10516000049805F10105401C04900198401E01902F
:1051700004D12E205A46179990476D1CBAF10001B0
:10518000AAF1010ADDDC05E017F8010B5A46179970
:1051900090476D1CB8F10001A8F10108F4DC5B46F2
:1051A0002146179A0598ABE62D0000002B00000061
:1051B000200000002DE9F041044600251E46174658
:1051C000880404D405E039462020B0476D1C641ED5
:1051D000F9D52846BDE8F0812DE9F04104460025C7
:1051E0001E469046C80301D5302700E020278804DA
:1051F00004D505E041463846B0476D1C641EF9D51C
:105200002846BDE8F081000013B54FF6FF73012278
:1052100069460248FDF75CFC00981CBD1C0100209B
:1052200090B0FCF723FBFEF71DF9FDF7C3FFFDF778
:10523000DFFFFEF709F8FEF72DF89FED440AFEF7B1
:105240005FF800F0D3F84249002008704FF4FA608C
:10525000FBF764FF3E490122C91C3E48FDF7A6FB4F
:105260003DA0FEF723FF3A4880780028FBD00EA827
:1052700000900DAB0CAA3BA13D48FBF71FF803289B
:1052800006D03CA0FEF712FF314900208870EAE703
:10529000374943A0FEF70AFF0E98FBF7DBF90646F5
:1052A0000F460D98FBF7D6F904460D460C98FBF710
:1052B000D1F98DE8F00041EC100B3EA053EC102B1F
:1052C000FEF7F4FE22480CA991EC030A007800F0E6
:1052D000BFF843480068FBF7BDF98046414889465E
:1052E0004069FBF7B7F906463E480F460069FBF7F1
:1052F000B1F904463B480D46C068FBF7ABF9CDE970
:10530000020138488068FBF7A5F9CDE9000135486E
:105310004068FBF79FF9824632488B460068FBF7EE
:1053200099F941EC100B06A853EC102B80E8F00320
:10533000DDE90201CDE90401DDE90001CDE9020169
:105340002948CDE900ABFEF7B1FE9DE700004842D9
:10535000080000201C0100205265616479210D0ABB
:105360000000000078256620792566207A256600F1
:105370003C0000204572726F7220466F726D61743E
:105380002120506C65617365207573653A20783112
:10539000303020793530207A32300D0A000000009C
:1053A00050726F63657373696E673A205B25735D36
:1053B0000D0A000054617267657420526563656967
:1053C000766564202D3E20583A252E316620593AC4
:1053D000252E3166205A3A252E31660D0A0000002E
:1053E00004000020240000207C55000810B59FED2B
:1053F000150A2DED028BFDF783FF9FED138A002028
:10540000B0EE480AFDF7ECFFB0EE480A0120FDF7C8
:10541000E7FFB0EE480A0220FDF7E2FFB0EE480ACF
:105420000320FDF7DDFFB0EE480A0420FDF7D8FFAA
:10543000BDEC028B0520BDE810409FED040AFDF78E
:10544000CFBF0000000048420000B4420080BB44CF
:1054500010B586B001466846FDF73CFD1822694646
:105460000D48FAF706FF0C4C002094ED000AFDF7FA
:10547000B7FF94ED010A0120FDF7B2FF94ED020A97
:105480000220FDF7ADFF94ED030A06B00320BDE84E
:105490001040FDF7A5BF00002400002010B500EE6D
:1054A000100A2DED028BB1EEC08A18EE100A20F022
:1054B0000040C0F1FF40C00F0AD010EE100A20F0EB
:1054C0000040C0F1FF40C00F04BF0120FFF734FAD5
:1054D00018EE100ABDEC028B10BD010002000400A2
:1054E000060008000A000C001000200040008000A8
:1054F0000001010101030701000008040204080182
:105500000101000000000000000001020304060782
:105510000809000000000102030400000000000070
:105520006E83F9A22915444ED15727FCC0DD34F50E
:10553000999562DB4190433CAB6351FEDDDDDDDDDF
:10554000DCBBBBDDDDDDDDDDDDDDDDDD9888888814
:1055500088888888777777777788888885555556BB
:105560006666666666666666666888888333333212
:1055700022222222222222222228888D3D3D3D20E5
:10558000536572766F20416E676C6573203D3D3DBB
:105590000D0A4A303A20252E3266207C204A313AC4
:1055A00020252E3266207C204A323A20252E326673
:1055B0000D0A4A333A20252E3266207C204A343A9E
:1055C00020252E3266207C204A353A20252E326650
:1055D000207C20503A20252E3266200D0A2D2D2DBC
:1055E0002D2D2D2D2D2D2D2D2D2D2D2D2D2D2D2DEB
:1055F0002D0D0A00145600080000002024000000B1
:105600001849000838560008240000208C050000C6
:105610002849000800000000000000000000000011
:105620001000000001000000000000000024F40051
:08563000000000000000000072
:04000005080001D915
:00000001FF
