:020000040800F2
:1000000080080020ED010008915000084D400008D4
:10001000394E0008451000089D67000800000000E8
:10002000000000000000000000000000CD530008A8
:10003000FD1100080000000061530008CF530008C4
:1000400031020008310200083102000831020008C4
:1000500031020008310200083102000831020008B4
:1000600031020008310200083102000831020008A4
:100070003102000831020008310200083102000894
:1000800031020008000000003102000831020008BF
:10009000310200083102000831020008FF11000897
:1000A0003102000831020008310200083102000864
:1000B0003102000831020008310200083102000854
:1000C0003102000831020008310200083102000844
:1000D000310200087D6700088D67000831020008C2
:1000E0003102000831020008310200083102000824
:1000F000310200083102000831020008000000004F
:100100000000000031020008000000003102000879
:1001100031020008000000005954000831020008B4
:1001200031020008310200083102000831020008E3
:100130003102000800000000000000003102000849
:100140003102000831020008000000000000000039
:10015000000000000000000000000000000000009F
:100160000000000000000000000000003102000854
:100170003102000800000000000000000000000044
:100180000000000031020008000000000000000034
:10019000000000000000000000000000000000005F
:1001A00000000000000000003102000831020008D9
:1001B000310200083102000831020008000000008E
:1001C00000000000310200080000000000000000F4
:1001D0003102000831020008DFF80CD000F0CAFC40
:1001E0000048004745790008800800201148016850
:1001F00041F0010101601048016821F44C5141F4C3
:1002000088510160C16821F44C5141F40851C1602A
:100210004FF4A00181610948804709480047FEE783
:10022000FEE7FEE7FEE7FEE7FEE7FEE7FEE7FEE7A6
:10023000FEE700004C100240000002404554000858
:10024000D90100082DE9F05F0546002092469B4643
:1002500088460646814640241BE0284641464746DC
:10026000224600F062FA53465A46C01A914110D312
:1002700011461846224600F049FA2D1A67EB01088C
:100280004F4622460120002100F040FA17EB0009FA
:100290004E41201EA4F10104DFDC484631462A46C7
:1002A0004346BDE8F09F40EA01039B0703D009E005
:1002B00008C9121F08C0042AFAD203E011F8013B52
:1002C00000F8013B521EF9D27047D2B201E000F8AB
:1002D000012B491EFBD270470022F6E710B51346EA
:1002E0000A4604461946FFF7F0FF204610BD0000FD
:1002F0000FB400B58DB010A909900B9000914FF08C
:10030000FF300A9000200C900548069005480790A1
:100310006A4609A80F9900F01FFA0DB05DF814FBAA
:1003200075070008930700082DE9FF4F087883B090
:100330009946FF2805D0491C2D2804D00024002010
:1003400008E000200BE00124F9E700EB800003EB5C
:100350004000491C0B78FF2BF7D104B14042002329
:100360000293147819461D462D2C01D02B2C04D154
:10037000521C2D2C13D000240294AA461478FF2C72
:100380000FD00A25A3FB057801FB05814FF0000C77
:1003900003FB0C11521CE3194AEB0101EEE70124A7
:1003A000EAE7814453EA010002D019F5C87F06DA72
:1003B00003980021C0E9001107B0BDE8F08F0025C7
:1003C000AE4E2F46DFF8B882184600F07BFBCDE931
:1003D0000001B9F1000002DAC9F1000400E00446AE
:1003E0000023A74A1AEB030B42EB045A12E0E00782
:1003F00007D02A4633463846414600F082FA07467F
:1004000088462A4633461046194600F07AFA0546D1
:100410000E466410002CEAD1DDE90001B9F1000FAD
:100420005A46534606DA00F0DEFA3A46434600F0F2
:10043000DAFA05E000F065FA3A46434600F061FA60
:10044000029A0AB181F00041039AC2E90001B3E7C0
:100450002DE9FF4F1F468DB0D7E901464FF0FF3819
:100460002E2045464FF000090B90B9696D1C0E987F
:100470008847396A824688470028F6D1BAF1FF3F9B
:100480000AD024F4D064002E11DDBAF12B0F08D06D
:10049000BAF12D0F0BD102E0404611B08DE744F4C4
:1004A0008064B9696D1C0E9888478246761E69463D
:1004B000600501D52D2000E02B208DF8000001F112
:1004C000010B0DF1200809E0B9696D1C0E988847F1
:1004D00082460F9844F40074761E0560002E02DDFB
:1004E000BAF1300FF0D00B998A453ED144F0800428
:1004F00006E00F99681CA9F1010944F40074086032
:10050000B9696D1C761E0E98884782463028F0D057
:100510002BE00B998A4505D1200603D444F08004D2
:10052000761E18E0504606F05FFE08B30DF1130189
:10053000761E44F400748B4508D2AAF130000BF803
:10054000010B200607D5A9F1010003E0200602D423
:1005500009F101008146A00502D50F99681C0860C9
:10056000B9696D1C0E9888478246002ED1DC53E095
:10057000002E51DDBAF1650F02D0BAF1450F4BD113
:10058000A00549D5B9696D1C24F44074761E0E98F7
:1005900088478246002E0CDD2B2804D0BAF12D0F9F
:1005A00007D144F48074B9696D1C0E98884782465F
:1005B000761EE00501D52D2100E02B2108F8011B56
:1005C000CDF82C8021E00DF12901761E44F4007451
:1005D00088450CD2AAF1300010F0FF0088F8000026
:1005E00002D10B99884509D908F1010806E0E00518
:1005F00001D5244801E042F20F708146B9696D1CB3
:100600000E98884782460F980560002E04DD5046FC
:1006100006F0EAFD0028D6D1F9690E988847FF2038
:100620008BF8000088F800000020069007904B46E9
:100630006A4608A906A8FFF777FEA00502D46FF066
:1006400001002AE714F0240F0AD0E00714D1DDE9F5
:1006500006123868031D3B600068C0E900120BE019
:10066000DDE9060100F06AFA0146E00704D13868C6
:10067000021D3A600068016028460EE70000144041
:100680000000F03FF1D8FFFF00F0004230F00040E2
:100690000AD0C10D01F56071C0F3160042EA0151A4
:1006A000C208400711437047002001467047000010
:1006B00030B5041E71F1000404DB4FF000444042E9
:1006C00064EB0101141E73F1000405DB1C464FF0BE
:1006D0000043524263EB04038B4208BF824230BDA9
:1006E00030B50B46014600202022012409E021FA02
:1006F00002F59D4205D303FA02F5491B04FA02F5FF
:100700002844151EA2F10102F1DC30BD202A04DBD1
:10071000203A00FA02F1002070479140C2F1200314
:1007200020FA03F3194390407047202A04DB203A53
:1007300021FA02F00021704721FA02F3D040C2F101
:100740002002914008431946704700000268114496
:100750001378016018467047D1600449516104491B
:10076000116200211161114600F02EBA4D070008F8
:10077000BD0B0008426842B1016811F8013B23B18A
:10078000521EC0E90012184670470121C160881E40
:10079000704742685AB1C368016843B983688B42A5
:1007A00005D0491E521CC0E90012002070474FF0CE
:1007B000FF3070472DE9FE4F804681EA0300C00FED
:1007C0000C46009021F0004123F00045B8EB0200F8
:1007D000A94105D24046214690461C460B4602469A
:1007E00023F00040104347D0270DC7F30A00C3F39E
:1007F0000A510290401A019040286BDAC3F31300AB
:1008000040F4801B0098924620B10023D2EB030AEB
:1008100063EB0B0B01985946C0F140025046FFF7BD
:1008200075FF06460D4650465946019A00F0B4F948
:1008300010EB08006141002487EA115284EAE77353
:100840001A4340D0009A62B3019A012A4FEA075234
:1008500015DC001B61EB02014FF0004202EA075277
:10086000CDE90042001C41F5801132462B4600F0D4
:1008700087FB03B0BDE8F08F40462146F9E7001B37
:1008800061EB0201001C41F5801300185B41201848
:10089000A2F5001747EB030140EAD570B6196D4188
:1008A00011E06D084FEA360645EAC0754FEA075277
:1008B000001B61EB0201001C41F5801149084FEA61
:1008C00030000019514132462B4603B0BDE8F04FCD
:1008D00000F047BB0098012240000023D0EB020249
:1008E00063EBE073009821464FEAE074B8EB000038
:1008F00061EB0401E9E783F000435BE781F000412D
:1009000058E72DE9FE4F81EA030404F0004421F08A
:10091000004100944FF0000B23F0004350EA010423
:100920005ED052EA03045BD0C3F30A54C1F30A5504
:100930002C44A4F2F3340194A0FB0254C1F313013C
:1009400041F48011C3F3130343F4801301FB024409
:1009500000FB034E840A970A44EA815447EA83570E
:10096000A4FB076802958D0A05FB07854FEA932CC7
:1009700004FB0C542705029D4FEA065847EA163738
:10098000B5EB08056EEB070C870E920E47EA811750
:1009900042EA8312A7FB0201B6EB0B0164EB0004F1
:1009A0002B0D43EA0C335E1844EB1C50DA465146DB
:1009B000E7FB0201C5F313044FEA0B3343EA145378
:1009C0004FEA0432019C43EA0603A4F10C040294AA
:1009D000009CCDE900B400F0D3FA03B0BDE8F08F7D
:1009E00000200146F9E72DE9F04D81EA030404F007
:1009F000004B21F0004514464FF0000A23F000415F
:100A000050EA050220D054EA01021DD0C5F30A576E
:100A10000246C5F31303C1F31300C1F30A5640F4B1
:100A2000801543F48013A7EB0608101BD64608F286
:100A3000FD3873EB050002D308F1010801E09218BC
:100A40005B41B8F1000F03DA00200146BDE8F08DEC
:100A500000204FF48011064684460EE0171B73EB0E
:100A6000050705D3121B63EB050306434CEA010C93
:100A700049084FEA300092185B4150EA0107EDD176
:100A800052EA030012D082EA040083EA0501084317
:100A900005D0101BAB4106D20122002306E0002244
:100AA0004FF0004302E06FF0010253101AEB060012
:100AB0004CEB085110EB0A0041EB0B01BDE8F04D87
:100AC00000F04FBA0EB540F2334202920022CDE957
:100AD0000022134600F054FA03B000BDC1F30A52DD
:100AE000C1F3130140F2FF3341F480119A4202DA5C
:100AF00000200146704740F233439A42A2F233424B
:100B000002DC5242FFF711BEFFF700BE30B5041EF3
:100B100071F1000404DB4FF00044404264EB01013A
:100B2000141E73F1000405DB1C464FF000435242D3
:100B300063EB0403994208BF904230BD01F00043CB
:100B400030B421F0004150EA010206D00A0DA2F5AE
:100B50006072C1F31301002A02DC30BC0020704730
:100B6000440F44EAC104C100E01830BC00EBC2509D
:100B700000F0C0B9064C074D06E0E06840F0010304
:100B800094E8070098471034AC42F6D3FFF728FBEF
:100B90004882000868820008202A06DBCB17203A2A
:100BA00041FA02F043EAE07306E041FA02F3D04072
:100BB000C2F120029140084319467047C0B24FF479
:100BC000F05100F02BBA00002DE9F34F8BB04FF03D
:100BD000000801F10C000C464FF0010B46460DF1E8
:100BE000080A01906269012101989047051E2DD0E5
:100BF000252D2CD0216A8847C0B162690121019856
:100C00009047216A88470028F7D1411E6269019800
:100C1000904700E0761CA1690B988847216A8847B5
:100C20000028F7D1E1690B988847DBE7A1690B98A9
:100C300088470746A84201D1761CD3E7E1690B98A3
:100C400088477F1C02D1B8F1000F6FD046E1002722
:100C500062693D463946019890472A2804D1626965
:100C60000121019890470125DFF8849262690121F2
:100C700001989047A0F130010A290AD24F45E5DCDE
:100C800007EB870100EB4107303FDFD445F010054B
:100C9000ECE7E90601D46FF000476C280AD04C2835
:100CA00014D0682815D06A280DD074281CD07A2852
:100CB0001AD01DE062690121019890476C2802D08A
:100CC00045F0040514E045F002050DE045F020056F
:100CD0000AE06269012101989047682802D045F036
:100CE000080505E045F40065626901210198904717
:100CF000C4E9015765283DD019DC58287AD00CDCAE
:100D0000452837D004DC252826D0412831D131E0D0
:100D100046282FD047282CD12CE05B2877D061289B
:100D200028D063287CD0642823D15AE0D0E06F28F3
:100D300048D008DC66281DD067281BD0692821D040
:100D40006E2816D127E0702845D0732868D0752802
:100D500047D078280DD14DE0A1690B98884705460A
:100D600025283FF469AFE1690B9888476D1C3FF473
:100D70006AAFB3E023466A466FF001000B99FFF7B4
:100D800067FB9EE045F040006060A80723464FF0F7
:100D9000000236D43EE0E8077FF447AF2068011D2B
:100DA00021600068290501D506701BE7290701D5D8
:100DB000068017E7A90703D5F117C0E9006111E71D
:100DC00006600FE745F040006060A80723464FF03B
:100DD000080216D41EE040F60E0125EA010060600C
:100DE00016E045F040006060A80723464FF00A0275
:100DF00007D40FE045F040006060A80708D52346FF
:100E000010226FF001000B99AFF3008059E007E06A
:100E1000234610226FF001000B99AFF3008050E0E1
:100E20004FF000094F464B46632802D05B2806D09E
:100E300040E0E80601D40120A06001273AE06269A1
:100E40000121019890475E2805D14FF001096269A0
:100E5000494601989047216939B900210A4653460D
:100E600043F82120491C0829FADBB0B3216969B98C
:100E7000C11700EBD16253110AEB830122F01F026C
:100E8000821A01200B68904003430B6062690121C4
:100E9000019890475D28E8D1B9F1000F09D00020F2
:100EA000514651F82020D24341F82020401C082808
:100EB000F7DB02AB224600976FF001000B99AFF30E
:100EC000008000280CDA401C08D1BBF1000F05D0CF
:100ED0004FF0FF300DB0BDE8F08FFFE74046F9E777
:100EE000E90701D108F1010806444FF0000B79E64B
:100EF000CCCCCC0C0029A8BF7047401C490008BFCF
:100F000020F00100704710B4B0FA80FC00FA0CF039
:100F100050EA010404BF10BC704749B1CCF1200471
:100F200021FA04F411FA0CF118BF012121430843FE
:100F3000A3EB0C01CB1D4FEA00614FEA102042BF2A
:100F4000002010BC704700EBC35010440029A4BF20
:100F500010BC7047401C490008BF20F0010010BCC5
:100F6000704710B5141E73F1000408DA401C41F1FB
:100F7000000192185B411A4301D120F0010010BD1D
:100F80002DE9F04D92469B4611B1B1FA81F202E093
:100F9000B0FA80F220329046FFF7B8FB04460F46C5
:100FA00040EA0A0041EA0B0153465A46084313D06F
:100FB000114653EA010019D0C8F140025046FFF72C
:100FC000B4FB05460E46504659464246FFF79EFB87
:100FD000084305D0012004E020463946BDE8F08DE5
:100FE0000020054346EAE0762C4337430A98630520
:100FF000E40AA0EB08000022FD0A44EA47540A3044
:1010000002D500200146E9E7010510196941DDE933
:10101000084500196941BDE8F04DA2E77F2801D9D4
:10102000002208E0064A02EB5002C007127800D105
:10103000120902F00F0201209040084070470000A2
:101040009081000800BFFEE70FB42DED020B10B534
:101050002DED0C8BB0EE408A9DED110AB5EEC00A65
:10106000F1EE10FA08D39DED110ADFED5B0AB4EE44
:10107000E00AF1EE10FA05DD0020BDEC0C8B10BC8F
:101080005DF81CFB9DED120ADFED540AB4EEE00A98
:10109000F1EE10FA08D39DED120ADFED510AB4EE1D
:1010A000E00AF1EE10FA01DD0020E6E79DED130AFB
:1010B000B5EEC00AF1EE10FA08D39DED130ADFED8C
:1010C000460AB4EEE00AF1EE10FA01DD0020D4E7A2
:1010D0009DED110ADFED430A60EE208A9DED110AB5
:1010E000DFED410A30EE600ADDED120A30EE200A33
:1010F000DFED3D0A30EE600ADFED3B0A30EE200AFC
:10110000DFED380A20EE209A9DED110ADFED360A58
:1011100030EE600ADDED120A30EE200ADFED320A11
:1011200030EE600ADDED130A30EE200ADFED2E0A04
:1011300030EE600ADFED2C0A30EE200ADFED290ADE
:1011400060EE209A9FED29CA9FED29AAB0EE680AA9
:1011500005F01AFDDFED270AF0EE4CAA40EE80AA5A
:10116000B0EE680A05F0C2FDDFED220AF0EE4ACAD1
:1011700040EE80CAB0EE490A05F006FDDFED1D0A1B
:10118000B0EE6ADA00EE80DAB0EE490A05F0AEFDA4
:10119000DFED180AB0EE6CBA00EE80BAB0EE690A64
:1011A00005F0F2FCDFED140AF0EE4DDA40EE80DAE5
:1011B000B0EE690A05F09AFDDFED0F0AF0EE4BBACA
:1011C00040EE80BAB4EE6B8AF1EE10FA01D0002046
:1011D00053E7012051E7000000003443000034C20F
:1011E0000000074335FA8E3C0000B44200000000C6
:1011F00000006042000020420000B242704710B57B
:101200004FF4007000F052F910BD72B600BFFEE757
:1012100010B52DED108BB0EE40FAB0EE608AF0EE16
:10122000418AB0EE619A9FED4C0A28EE000AF0EE7A
:1012300040CA9FED4A0A38EE400A30EE280ADFED38
:10124000470A30EE600ADFED450A30EE200ADFED96
:10125000420A20EE200AB0EE40DA9FED400A38EE56
:10126000400A30EE280ADFED3D0A30EE600A30EE2B
:10127000090ADFED3A0A30EE600ADFED380A30EE97
:10128000200ADFED350A20EE200AF0EE40DA9FED6D
:10129000340AF0EE409A9FED330AB0EE40AAB0EE69
:1012A0006C0A05F071FC9FED301AF0EE690A41EE10
:1012B000000AF0EE60AAB0EE6C0A05F017FD9FED93
:1012C0002A1AF0EE4A0A41EE000AB0EE60BAB0EE19
:1012D0004D0A05F059FC9FED241AF0EE6A0A41EE22
:1012E000000AF0EE60BAB0EE4D0A05F0FFFC9FED8B
:1012F0001E1AF0EE4B0A41EE000AB0EE60CAB0EEE4
:101300006D0A05F041FC9FED191AF0EE6B0A41EEF3
:10131000000AB0EE60EAB0EE6D0A05F0E7FC9FED62
:10132000131AF0EE4C0A41EE000AF0EE60EA1048A3
:10133000C0ED009A80ED02AAC0ED03AA80ED05BAC7
:10134000C0ED06BA80ED08CA80ED09EAC0ED0BEAEF
:10135000BDEC108B10BD000035FA8E3C0000B4428D
:101360000000000000006042000020420000B24285
:10137000700000200146002091F82520022A03D0A9
:101380000422CA63012027E00A68126822F00E02D4
:101390000B681A608A6C126822F480728B6C1A6077
:1013A0000A68126822F001020B681A6091F8442062
:1013B00002F01F0301229A400B6C5A60D1E91332EC
:1013C0005A604A6D42B14A6D126822F480724B6DC8
:1013D0001A60D1E916325A60012281F8252000BF37
:1013E000002281F8242000BF704770B50446002514
:1013F00094F8250002280BD00420E063012084F833
:10140000250000BF002084F8240000BF012534E03F
:101410002068006820F00E002168086020680068DD
:1014200020F0010021680860A06C006820F4807042
:10143000A16C086094F8440000F01F01012088406E
:10144000216C4860D4E913104860606D40B1606D54
:10145000006820F48070616D0860D4E9161048605F
:10146000012084F8250000BF002084F8240000BF7C
:10147000A06B10B12046A16B8847284670BD0000C4
:1014800070B5044600F016F906462546681C10B1F2
:1014900004480068054400BF00F00CF9801BA84216
:1014A000FAD370BD600000207047000010B50446FC
:1014B00004480068204020B1024804602046FFF73D
:1014C000F3FF10BD1404014078B502460B4600211D
:1014D000CAE001268E401D6805EA0604002C73D080
:1014E0001D7905F00305012D04D01D7905F00305D4
:1014F000022D13D190684E000325B540A8434E003D
:10150000DD68B54028439060506801258D40A843B0
:101510001D79C5F300158D40284350601D7905F0F5
:101520000305032D09D0D0684E000325B540A8431C
:101530004E009D68B5402843D0601D7905F0030535
:10154000022D13D1CE0802F1200555F826004D07D3
:10155000EE0E0F25B540A8434E07F60E1D69B540A7
:101560002843CE0802F1200545F8260010684E00F9
:101570000325B540A8431D7905F003054E00B5408D
:10158000284310605D6805F44035002D6BD000BF26
:10159000384D2D6E45F00105364E356635462D6EBB
:1015A00005F00105009500BF00BF4FEAB6358E0873
:1015B00055F826008D072E0F0F25B540A843B2F130
:1015C000904F02D100251AE04DE02B4DAA4201D1E7
:1015D000012514E0294DAA4201D102250FE0284D32
:1015E000AA4201D103250AE0264DAA4201D10425D1
:1015F00005E0254DAA4201D1052500E006258E070C
:10160000360FB5402843214D8E0845F82600204D61
:101610002868A0435D6805F4801505B120431C4D82
:1016200028602D1D2868A0435D6805F4001505B1EC
:101630002043174D2D1D2860154D2D1F2868A043F0
:101640005D6805F4003505B12043114D2D1F28605C
:101650002D1F2868A0435D6805F4803505B120433F
:101660000B4D083D2860491C1D68CD40002D7FF4BE
:1016700030AF78BD00100240000400480008004868
:10168000000C004800100048001400480800014009
:101690000804014010B5426921EA020302EA01048C
:1016A00043EA0443836110BD0AB1816100E08162B5
:1016B0007047000001480068704700005800002093
:1016C000024692F8410020282DD100BF92F8400038
:1016D000012801D102207047012082F8400000BF9C
:1016E000242082F841001068006820F0010013688F
:1016F00018601068006820F4805013681860106843
:1017000000680843136818601068006840F0010022
:1017100013681860202082F8410000BF002082F882
:10172000400000BFD7E70220D5E710B502460B46C0
:1017300092F8410020282AD100BF92F840000128E9
:1017400001D1022010BD012082F8400000BF2420FA
:1017500082F841001068006820F0010014682060E1
:101760001068016821F4706141EA0321106801608A
:101770001068006840F0010014682060202082F8A2
:10178000410000BF002082F8400000BFDAE70220DD
:10179000D8E7000008B500BF0949096E41F0010112
:1017A000074A11661146096E01F00101009100BF60
:1017B00000BF044949680143024A516008BD000066
:1017C000001002400000014010B504460CB9012091
:1017D00010BD94F8410028B9002084F8400020464C
:1017E00000F0FAF9242084F841002068006820F015
:1017F000010021680860606820F07060216808615D
:101800002068806820F4004021688860E068012832
:1018100005D1A06840F400402168886004E0A06819
:1018200040F4044021688860E068022806D12068FE
:10183000406840F400602168486005E02068406826
:1018400020F400602168486020684068134908431C
:10185000216848602068C06820F400402168C860A2
:10186000D4E904010843A16940EA01202168C86065
:10187000D4E907010843216808602068006840F047
:1018800001002168086000206064202084F8410085
:101890000020206384F8420000BF99E70080000226
:1018A0002DE9FC5F0446894692469B46DDE90C78AB
:1018B0000E9E94F8410020287ED117B1B8F1000F98
:1018C00005D14FF4007060640120BDE8FC9F00BFAB
:1018D00094F84000012801D10220F6E7012084F8A5
:1018E000400000BFFFF7E6FE054619230122D103A1
:1018F0002046009502F0F0FC08B10120E5E7222027
:1019000084F84100402084F842000020606467624F
:10191000A4F82A8060635B46524649462046CDE9DA
:10192000006502F041FC30B100BF002084F84000A7
:1019300000BF0120C9E7608DFF280CD9FF2020855A
:101940003D48009094F828204FF080734946204687
:1019500002F0A6FC0BE0608D20853748009094F8DB
:1019600028204FF000734946204602F099FC00BF42
:101970003346002204212046009502F0ADFC08B158
:101980000120A2E72068406A616A0870606A401C12
:101990006062208D401E2085608D401E6085608DB8
:1019A00048B3208D38BB3346002280212046009565
:1019B00002F092FC18B100E03CE0012085E7608D68
:1019C000FF280CD9FF2020850020009094F82820C3
:1019D0004FF080734946204602F062FC0BE0608DB8
:1019E00020850020009094F828204FF0007349468D
:1019F000204602F055FC608D0028B9D12A463146B8
:101A0000204602F0AAFC08B101205EE720202168F0
:101A1000C861206840680949084021684860202062
:101A200084F84100002084F8420000BF84F84000A0
:101A300000BF4AE7022048E70024008000E800FEDB
:101A40002DE9FC5F0446894692469B46DDE90C7809
:101A50000E9E94F8410020287DD117B1B8F1000FF7
:101A600005D14FF4007060640120BDE8FC9F00BF09
:101A700094F84000012801D10220F6E7012084F803
:101A8000400000BFFFF716FE054619230122D103CF
:101A90002046009502F020FC08B10120E5E7212056
:101AA00084F84100402084F84200002060646762AE
:101AB000A4F82A8060635B46524649462046CDE939
:101AC000006502F0AFFB30B100BF002084F8400099
:101AD00000BF0120C9E7608DFF280CD9FF202085B9
:101AE0000020009094F828204FF08073494620464B
:101AF00002F0D6FB0BE0608D20850020009094F86A
:101B000028204FF000734946204602F0C9FB00BF71
:101B10002A463146204602F050FC08B10120A4E7D5
:101B2000606A007821688862606A401C6062608D2B
:101B3000401E6085208D401E2085608D40B3208D25
:101B400030BB3346002280212046009502F0C4FBC2
:101B500010B1012089E73AE0608DFF280CD9FF2001
:101B600020850020009094F828204FF0807349468B
:101B7000204602F095FB0BE0608D20850020009050
:101B800094F828204FF000734946204602F088FB65
:101B9000608D0028BCD12A463146204602F0DDFB8C
:101BA00008B1012061E720202168C86120684068F1
:101BB0000849084021684860202084F8410000203E
:101BC00084F8420000BF84F8400000BF4DE70220C7
:101BD0004BE7000000E800FE10B598B00446142161
:101BE00013A8FEF779FB442102A8FEF775FB5449C0
:101BF000206888424ED1402002900020089002A820
:101C000000F00EFA08B1FFF700FB00BF4D48C06CB2
:101C100040F001004B49C8640846C06C00F0010068
:101C2000019000BF00BF00BF0846C06C40F002003A
:101C3000C8640846C06C00F00200019000BF00BFFD
:101C40004FF400401390122014900020159016902D
:101C50000420179013A94FF09040FFF735FC802027
:101C600013901220149000201590169004201790C5
:101C700013A93548FFF728FC00BF3248806D40F4B7
:101C80000010304988650846806D00F4001001900E
:101C900000BF52E02D49206888424ED1802002903A
:101CA0000020099002A800F0BBF908B1FFF7ADFAD7
:101CB00000BF2448C06C40F004002249C8640846B4
:101CC000C06C00F00400019000BF00BF00BF0846D8
:101CD000C06C40F00100C8640846C06C00F0010010
:101CE000019000BF00BF102013901220149000201C
:101CF000159016900420179013A91548FFF7E4FBE0
:101D00004FF48070139012201490002015901690BC
:101D10000420179013A94FF09040FFF7D5FB00BFA8
:101D20000848806D40F48000064988650846806D4B
:101D300000F48000019000BF00BF18B010BD00008B
:101D400000540040001002400004004800580040C9
:101D5000000800480348006803490968084401492D
:101D600008607047580000206000002010B5002473
:101D7000032000F0ABF80F2000F008F808B10124B0
:101D800001E000F02FF8204610BD000070B50446B9
:101D9000002511480068D8B10F4800684FF47A71E7
:101DA000B1FBF0F00D490968B1FBF0F6304600F0E8
:101DB00025FF58B9102C07D200222146501E00F0F2
:101DC00047F80748046004E0012502E0012500E02F
:101DD0000125284670BD000060000020640000203E
:101DE0005C00002008B500BF0E48006E40F0010006
:101DF0000C4908660846006E00F00100009000BF24
:101E000000BF00BF0846806D40F0805088650846DE
:101E1000806D00F08050009000BF00BF00F0F6F829
:101E200008BD0000001002400146084600280DDBF6
:101E300000BF00BF00F01F0301229A4043099B002E
:101E400003F1E023C3F8002100BF00BF00BF7047CB
:101E50002DE9F05F80460D46164604F0C5FC0746A6
:101E600039462A46334601F00700C0F1070ABAF1A5
:101E7000040F02D94FF0040A01E0C0F1070AD1466D
:101E800000F1040ABAF1070F02D24FF0000A01E094
:101E9000A0F1030AD4464FF0010A0AFA09FAAAF19E
:101EA000010A0AEA020A0AFA0CFA4FF0010B0BFACD
:101EB0000CFBABF1010B0BEA030B4AEA0B042146C6
:101EC000404604F099FCBDE8F09F000000BF00F020
:101ED0000702064B19684FF6FF031940044B0B43EA
:101EE00043EA0221014B196000BF70470CED00E08E
:101EF0000000FA0502468ABB4148006800F4C06051
:101F0000B0F5806F2BD13E488030006820F480709F
:101F10003B4BC3F880001846006820F4C06040F4D2
:101F2000007018603748006832235843364BB0FBC6
:101F3000F3F0411C00E0491E3148406900F4806024
:101F4000B0F5806F01D10029F5D12D48406900F42A
:101F50008060B0F5806F51D10320704708E02848B9
:101F60008030006820F48070254BC3F8800045E085
:101F7000B2F5007F3AD12248006800F4C060B0F5A5
:101F8000806F2AD11E488030006840F480701C4B5E
:101F9000C3F880001846006820F4C06040F4007068
:101FA00018601848006832235843174BB0FBF3F011
:101FB000411C00E0491E1248406900F48060B0F501
:101FC000806F01D10029F5D10D48406900F480608F
:101FD000B0F5806F12D10320BFE709488030006858
:101FE00040F48070064BC3F8800007E004480068A6
:101FF00020F4C06040F48060014B18600020ACE722
:10200000007000406400002040420F0003488068D8
:1020100040F4804001498860704700000070004033
:102020002DE9F84304460027B846206800F4002054
:10203000B0F5002F73D1B946D348806D00F08050C1
:1020400078B900BFD048806D40F08050CE49886597
:102050000846806D00F08050009000BF00BF4FF038
:102060000109CA48006840F48070C8490860FFF759
:1020700021FB064606E0FFF71DFB801B022801D965
:10208000032705E0C148006800F480700028F2D002
:1020900000BF002F46D1BC489030006800F4407566
:1020A000CDB1206CA84216D0B7489030006820F41B
:1020B0004075B548D0F8900040F48030B249C1F87E
:1020C00090000846D0F8900020F48030C1F89000CD
:1020D0000846C0F8905005F00100A0B1FFF7EAFAF9
:1020E000064608E0FFF7E6FA801B41F28831884295
:1020F00001D9032706E0A4489030006800F00200F0
:102100000028EFD000BF5FB99F489030006820F4EE
:102110004070216C08439C49C1F8900003E00CE03A
:10212000B84600E0B846B9F1010F05D19648806D78
:1021300020F080509449886500BF207800F00100AD
:1021400048B191488830006820F003006168084376
:102150008D49C1F88800207800F00200022809D1DA
:1021600089488830006820F00C00A168084386493F
:10217000C1F88800207800F00400042809D18248C2
:102180008830006820F03000E16808437E49C1F8DB
:102190008800207800F00800082809D17A488830A3
:1021A000006820F0C000216908437749C1F8880021
:1021B000207800F02000202809D17348883000687A
:1021C00020F44060616908436F49C1F888002078B5
:1021D00000F04000402809D16B488830006820F4A6
:1021E0004050A16908436849C1F88800207800F090
:1021F0008000802809D164488830006820F440407D
:10220000E16908436049C1F88800208800F48070C3
:10221000B0F5807F09D15C488830006820F44030F8
:10222000216A08435849C1F88800208800F40070EA
:10223000B0F5007F09D154488830006820F4402070
:10224000616A08435049C1F88800208800F4806022
:10225000B0F5806F13D14C488830006820F44010EE
:10226000A16A0843484988310860A06AB0F5801F18
:1022700005D14548C06840F480104349C8602088B3
:1022800000F40060B0F5006F13D13F48883000685B
:1022900020F44000E16A08433B4988310860E06A65
:1022A000B0F5800F05D13848C06840F48010364939
:1022B000C860208800F48050B0F5805F13D13248A8
:1022C0008830006820F04070216B08432E49883127
:1022D0000860206BB0F1807F05D12B48C06840F4C6
:1022E00080102949C860208800F40050B0F5005FD4
:1022F00013D125488830006820F04060616B0843A6
:10230000214988310860606BB0F1006F05D11E482B
:10231000C06840F480101C49C860208800F48040E8
:10232000B0F5804F13D118488830006820F0406025
:10233000A16B0843144988310860A06BB0F1006FAD
:1023400005D11148C06840F480100F49C86020884A
:1023500000F40040B0F5004F13D10B4888300068FE
:1023600020F04050E16B0843074988310860E06B7A
:10237000B0F1805F05D10448C06840F48030024964
:10238000C8604046BDE8F88300100240007000407D
:102390002DE9F04104460D464FF0000814B9012024
:1023A000BDE8F0817D48006800F00F00A8420ED221
:1023B0007A48006820F00F002843784908600846F2
:1023C000006800F00F00A84201D00120E8E7207863
:1023D00000F00100002864D06068032823D1704811
:1023E000006800F0007008B90120D9E702F0BAFFD8
:1023F00006466C48864237D96948806800F0F0008C
:1024000030B1207800F0020002282DD1A06858BB1E
:102410006348806820F0F00040F0800060498860E8
:102420004FF0800820E06068022806D15C48006810
:1024300000F4003040B90120B2E75948006800F4C8
:10244000806008B90120ABE700F0DEF80646554889
:10245000864209D95248806820F0F00040F08000A0
:102460004F4988604FF080084D48806820F0030095
:10247000616808434A498860FFF71CF9074608E08D
:10248000FFF718F9C01B41F28831884201D90320B7
:1024900086E74348806800F00C006168B0EB810F6C
:1024A000EED1207800F00200022820D1207800F040
:1024B0000400042805D13A48806840F4E0603849B7
:1024C0008860207800F00800082807D13448806828
:1024D00020F4605040F4E060314988603048806802
:1024E00020F0F000A16808432D49886008E0B8F1A9
:1024F000800F05D12A48806820F0F00028498860C4
:102500002648006800F00F00A84219D92348006847
:1025100020F00F00284321490860FFF7CBF8074659
:1025200008E0FFF7C7F8C01B41F28831884201D9A3
:10253000032035E71948006800F00F00A842F0D1E9
:10254000207800F00400042807D11548806820F4A2
:10255000E060E168084312498860207800F00800D4
:10256000082808D10E48806820F46050216940EAAC
:10257000C1000B49886000F047F809498968C1F338
:102580000311094A515C01F01F01C8400749086066
:1025900007480068FFF7FAFB02E70000002002404E
:1025A0000010024000B4C4045681000864000020FA
:1025B0005C000020014800687047000064000020B3
:1025C00000B5FFF7F7FF05498968C1F30221044A06
:1025D000515C01F01F01C84000BD00000010024026
:1025E0006681000800B5FFF7E5FF05498968C1F37A
:1025F000C221044A515C01F01F01C84000BD000027
:10260000001002406681000870B5224DAD6805F0EB
:102610000C05042D01D120483AE01E4DAD6805F0AF
:102620000C05082D01D11D4832E01A4DAD6805F0AA
:102630000C050C2D2BD1174DED6805F00304154D3D
:10264000ED68C5F303156A1C022C0CD0032C09D1CC
:10265000124DB5FBF2F50F4EF668C6F3062605FBE4
:1026600006F10AE000BF0C4DB5FBF2F5094EF66825
:10267000C6F3062605FB06F100BF00BF054DED6859
:10268000C5F341656D1C6B00B1FBF3F000E0002069
:1026900070BD0000001002400024F40000127A0017
:1026A0002DE9F843044614B90120BDE8F8832078E9
:1026B00000F00100002865D0FC48806800F00C079D
:1026C000FA48C06800F003060C2F01D1032E01D098
:1026D000082F0AD1F548006800F40030002851D0D6
:1026E000606800284ED10120DFE700BF6068B0F5C8
:1026F000803F06D1ED48006840F48030EB49086027
:102700001AE06068B0F5A02F0BD1E848006840F4EB
:102710008020E64908600846006840F48030086080
:102720000AE0E248006820F48030E049086008468A
:10273000006820F48020086000BF606888B1FEF760
:10274000B9FF054606E0FEF7B5FF401B642801D936
:102750000320AAE7D548006800F400300028F2D032
:1027600010E0FEF7A7FF054606E0FEF7A3FF401BBB
:10277000642801D9032098E7CC48006800F40030B1
:102780000028F2D1207800F00200022860D1C7486A
:10279000806800F00C07C548C06800F003060C2FE5
:1027A00001D1022E01D0042F18D1C048006800F4D6
:1027B000806018B1E06808B9012076E7BB4840683E
:1027C00020F0FE40217C40EA0160B8494860B848EA
:1027D0000068FFF7DBFA18B3012066E7E06800B392
:1027E000B248006840F48070B0490860FEF762FFAC
:1027F000054606E0FEF75EFF401B022801D90320D4
:1028000053E7AA48006800F480600028F2D0A74887
:10281000406820F0FE40217C40EA0160A349486006
:1028200016E0A248006820F48070A0490860FEF716
:1028300041FF054606E0FEF73DFF401B022801D997
:10284000032032E79948006800F480600028F2D144
:10285000207800F00800082836D16069D0B193488C
:102860009430006840F001009049C1F89400FEF7F0
:1028700021FF054606E0FEF71DFF401B022801D997
:10288000032012E789489430006800F00200002815
:10289000F1D019E085489430006820F001008349A8
:1028A000C1F89400FEF706FF054606E0FEF702FFBA
:1028B000401B022801D90320F7E67C4894300068C9
:1028C00000F002000028F1D1207800F00400042874
:1028D00072D14FF000087548806D012121EA107017
:1028E00078B100BF7148806D40F080506F498865B5
:1028F0000846806D00F08050009000BF00BF4FF090
:1029000001086C48006800F48070B0B9694800683C
:1029100040F4807067490860FEF7CCFE054606E08B
:10292000FEF7C8FE401B022801D90320BDE661481E
:10293000006800F480700028F2D000BFA068012871
:1029400008D15A489030006840F001005749C1F85A
:10295000900021E0A06805280FD15448903000680D
:1029600040F004005149C1F890000846D0F89000AA
:1029700040F00100C1F890000EE04C489030006833
:1029800020F001004949C1F890000846D0F89000B5
:1029900020F00400C1F8900000BFA068A8B1FEF7C5
:1029A00089FE054609E0FEF785FE401B41F28831AD
:1029B000884202D9032078E625E03C489030006840
:1029C00000F002000028EED013E0FEF773FE05468B
:1029D00008E0FEF76FFE401B41F28831884201D9C2
:1029E000032062E631489030006800F002000028C1
:1029F000EFD1B8F1010F05D12C48806D20F0805047
:102A00002A49886500BF207800F02000202836D1B0
:102A1000A069D0B125489830006840F001002349F2
:102A2000C1F89800FEF746FE054606E0FEF742FEB6
:102A3000401B022801D9032037E61C489830006863
:102A400000F002000028F1D019E018489830006822
:102A500020F001001549C1F89800FEF72BFE05464D
:102A600006E0FEF727FE401B022801D903201CE6E2
:102A70000E489830006800F002000028F1D1E069AB
:102A8000002860D00948806800F00C000C287AD03B
:102A9000E069022858D10548006820F08070034999
:102AA0000860FEF707FE05460DE00000001002403A
:102AB0005C00002000700040FEF7FCFD401B022877
:102AC00001D90320F1E54A48006800F000700028B1
:102AD000F2D1D4E90810401E41EA0011A06A41EA8F
:102AE0000021208E0122C2EB500041EA40513420E7
:102AF000005DC2EB500041EA40612C20005D41EADC
:102B0000C0603B49C9683B4A114008433849C86026
:102B10000846006840F0807008600846C06840F0D1
:102B20008070C860FEF7C6FD054606E0FEF7C2FDF0
:102B3000401B022801D90320B7E52D48006800F0AA
:102B400000700028F2D051E02948006820F0807021
:102B500027490860FEF7AEFD054606E0FEF7AAFD30
:102B6000401B022801D903209FE52148006800F09E
:102B700000700028F2D11E48C0681F4908401C4957
:102B8000C86033E0FFE7E069012800D18DE518480F
:102B9000C66806F00301206A814225D106F0F001E3
:102BA000606A401EB1EB001F1ED106F4FE41A06A10
:102BB000B1EB002F18D106F078412C20005DB1EB6D
:102BC000C06F11D106F4C001208E0122C2EB50006B
:102BD000B1EB405F08D106F0C0613420005DC2EB6C
:102BE0005000B1EB406F01D001205EE500205CE5B4
:102BF000001002400C809F01FCFFEEFE70B5044601
:102C00002546681EB0F1807F01D301200FE0681EC9
:102C10004FF0E02148610F214FF0FF3003F0ECFD51
:102C200000204FF0E021886107200861002070BD7E
:102C300070477047704770477047704730B502461D
:102C40000B4600BF92F83C00012801D1022030BDA4
:102C5000012082F83C0000BF022082F83D0010688D
:102C60004168106884681D4D1068A84203D01C4D4F
:102C70001068A84203D121F4700158680143194833
:102C800001401868014310684160144D1068A84263
:102C900013D01068B0F1804F0FD0134D1068A842C8
:102CA0000BD0124D1068A84207D00D4D1068A842F5
:102CB00003D00F4D1068A84205D124F08004986815
:102CC000044310688460012082F83D0000BF0020AA
:102CD00082F83C0000BF00BFB9E70000002C0140B3
:102CE000003401408FFFFFFD000400400008004059
:102CF00000400140704710B504460CB9012010BDDA
:102D000094F83D0028B9002084F83C00204600F0EB
:102D100029F8022084F83D00211D206802F0A4FB60
:102D2000012084F8480000BF84F83E0001213F20C4
:102D300001554020015541200155422001554320B5
:102D4000015500BF00BF012084F844004520015513
:102D5000462001554720015500BF012084F83D0061
:102D60000020CCE738B504460D492068884215D1CB
:102D700000BF0C48806D40F010000A498865084685
:102D8000806D00F01000009000BF00BF00221146CF
:102D90003620FFF75DF83620FFF746F838BD000013
:102DA0000010004000100240014691F83D0001284B
:102DB00001D001207047022081F83D000868C068FA
:102DC00040F001000B68D860184B0868984213D097
:102DD0000868B0F1804F0FD0154B086898420BD0AF
:102DE000144B0868984207D0134B0868984203D0E8
:102DF000124B0868984210D108688068104B00EAAE
:102E00000302062A0FD0B2F5803F0CD00868006894
:102E100040F001000B68186005E00868006840F0A9
:102E200001000B6818600020C4E70000002C01407E
:102E30000004004000080040003401400040014010
:102E4000070001002DE9F04104460D4614B90120A8
:102E5000BDE8F08194F83D0028B9002084F83C00DA
:102E6000204600F055F8022084F83D002068806874
:102E70002649084021688860211D206802F0F4FA84
:102E80002068D0F80880206886692068076A28686A
:102E900040EA080840F203308643A969A86840EA7E
:102EA0000120064340F60C4086434FF2F000864373
:102EB000E969E86840EA0120064328690001296AB7
:102EC00040EA0130064327F0220727F088076969A6
:102ED000686840EA011007432068C0F8088020684D
:102EE000866120680762012084F8480084F83E006B
:102EF00001213F200155012084F84400452001555F
:102F0000012084F83D000020A2E70000F8BFFEFF8A
:102F100010B586B00446142101A8FDF7DDF93C493F
:102F2000206888422AD100BF3A48806D40F00400F2
:102F3000384988650846806D00F00400009000BFA5
:102F400000BF00BF0846C06C40F00100C8640846DE
:102F5000C06C00F00100009000BF00BF4FF4C050F3
:102F60000190022002900020039004900A20059016
:102F700001A94FF09040FEF7A7FA46E026492068E5
:102F8000884242D100BF2348006E40F400502149DE
:102F900008660846006E00F40050009000BF00BFB5
:102FA00000BF0846C06C40F00400C8640846C06C0E
:102FB00000F00400009000BF00BF00BF0846C06CD6
:102FC00040F00200C8640846C06C00F002000090A7
:102FD00000BF00BF4020019002200290002003901B
:102FE00004900420059001A90C48FEF76DFA4FF4F7
:102FF00080700190022002900020039004900A202B
:10300000059001A90648FEF75FFA06B010BD000062
:103010000008004000100240003401400008004851
:1030200000040048704770B504462068C6682068F0
:10303000056905F00200022819D106F002000228F5
:1030400015D1401F21680861012020772068806920
:1030500000F0030018B12046FFF7E4FF05E020462A
:1030600000F050F9204600F067FA0020207705F0C4
:103070000400042819D106F00400042815D1C04327
:1030800021680861022020772068806900F4407080
:1030900018B12046FFF7C6FF05E0204600F032F9E0
:1030A000204600F049FA0020207705F008000828A3
:1030B00019D106F00800082815D1C043216808611D
:1030C000042020772068C06900F0030018B1204672
:1030D000FFF7A8FF05E0204600F014F9204600F0B5
:1030E0002BFA0020207705F01000102819D106F0E7
:1030F0001000102815D1C0432168086108202077EE
:103100002068C06900F4407018B12046FFF78AFFBC
:1031100005E0204600F0F6F8204600F00DFA002009
:10312000207705F0010048B106F0010030B16FF0E2
:10313000010021680861204600F0A6FA05F0800031
:10314000802804D005F40050B0F5005F0AD106F0E5
:103150008000802806D16FF4025021680861204663
:10316000FFF767FD05F48070B0F5807F0AD106F0A7
:103170008000802806D16FF48070216808612046A5
:10318000FFF756FD05F04000402809D106F0400049
:10319000402805D1C04321680861204600F098FA14
:1031A00005F02000202809D106F02000202805D1B4
:1031B000C043216808612046FFF73CFD05F48010FC
:1031C000B0F5801F0BD106F48010B0F5801F06D13A
:1031D0006FF48010216808612046FFF72DFD05F48B
:1031E0000010B0F5001F0BD106F40010B0F5001F61
:1031F00006D16FF40010216808612046FFF71BFD1F
:1032000005F48000B0F5800F0BD106F48000B0F516
:10321000800F06D16FF48000216808612046FFF717
:103220000CFD05F40000B0F5000F0BD106F4000012
:10323000B0F5000F06D16FF4000021680861204648
:10324000FFF758FD70BD000010B586B0044614218C
:1032500001A8FDF741F82068B0F1804F1DD100BFF3
:103260002648C06C40F001002449C8640846C06C80
:1032700000F00100009000BF00BF07200190022075
:10328000029000200390032004900120059001A9E2
:103290004FF09040FEF718F92DE019492068884258
:1032A00029D100BF1548C06C40F001001349C86423
:1032B0000846C06C00F00100009000BF00BF102065
:1032C00001900220029003900020049002200590BB
:1032D00001A94FF09040FEF7F7F84020019002203E
:1032E00002900020039004900220059001A94FF065
:1032F0009040FEF7E9F806B010BD00000010024053
:103300000004004070472DE9F04104460D46164682
:10331000002700BF94F83C00012802D10220BDE83C
:10332000F081012084F83C0000BF0C2E51D005DC58
:103330004EB1042E1ED0082E7AD133E0102E60D06C
:10334000142EF9D175E02946206802F005F92068AD
:10335000806940F00800216888612068806920F059
:103360000400216888612068806929690843216810
:10337000886178E02946206802F044F92068806975
:1033800040F40060216888612068806920F48060D2
:103390002168886120688069296940EA01202168E4
:1033A000886160E02946206802F086F92068C069DB
:1033B00040F008002168C8612068C06920F004005E
:1033C0002168C8612068C069296908432168C8610B
:1033D00049E02946206802F0C9F92068C06940F434
:1033E00000602168C8612068C06920F4806021689D
:1033F000C8612068C069296940EA01202168C86164
:1034000031E02946206802F00BFA2068006D40F098
:103410000800216808652068006D20F0040021681C
:1034200008652068006D29690843216808651AE06D
:1034300017E02946206802F02BFA2068006D40F45E
:103440000060216808652068006D20F480602168B4
:1034500008652068006D296940EA01202168086537
:1034600001E0012700BF00BF00BF002084F83C003E
:1034700000BF384653E710B504460CB9012010BD13
:1034800094F83D0028B9002084F83C00204600F064
:1034900029F8022084F83D00211D206801F0E4FF96
:1034A000012084F8480000BF84F83E0001213F203D
:1034B000015540200155412001554220015543202E
:1034C000015500BF00BF012084F84400452001558C
:1034D000462001554720015500BF012084F83D00DA
:1034E0000020CCE708B50168B1F1804F0DD100BFD5
:1034F0000F49896D41F001010D4A91651146896DB1
:1035000001F00101009100BF11E00A4A01689142F7
:103510000DD100BF0649896D41F00201044A916551
:103520001146896D01F00201009100BF00BF08BD86
:1035300000100240000400407047000070B50446CF
:103540000D4615B994F83E0015E0042D02D13F2038
:10355000005D10E0082D02D14020005D0BE00C2D35
:1035600002D14120005D06E0102D02D14220005D15
:1035700001E04320005D012801D0012070BD1DB98C
:10358000022084F83E001AE0042D03D102213F20DE
:10359000015514E0082D03D10221402001550EE011
:1035A0000C2D03D102214120015508E0102D03D13B
:1035B00002214220015502E002214320015501224F
:1035C0002946206801F0B6FF2749206888420FD0BD
:1035D0002649206888420BD025492068884207D0B8
:1035E00024492068884203D023492068884201D1B9
:1035F000012000E0002028B12068406C40F4004029
:103600002168486418492068884213D02068B0F1C6
:10361000804F0FD01949206888420BD01849206884
:10362000884207D011492068884203D01049206899
:10363000884210D120688068124900EA0106062EEF
:103640000FD0B6F5803F0CD02068006840F0010034
:103650002168086005E02068006840F001002168EA
:10366000086000208AE70000002C0140003401407F
:103670000040014000440140004801400004004077
:10368000000800400700010010B504460D492068FD
:10369000884215D10C48D0ED000AB0EE600A01F066
:1036A000CDFB0A4880ED000AC0ED010A90ED011A39
:1036B000F0EE410A90ED001AB0EE410A01F072FC02
:1036C00010BD00000010004000000020500000204D
:1036D0007047014600BF91F88400012801D1022003
:1036E0007047012081F8840000BF2420C1F88800C1
:1036F000086802680868006820F001000B6818601C
:1037000022F0005200204866086802602020C1F8BC
:10371000880000BF002081F8840000BF00BFDFE701
:103720007047704770B504460D4600BF94F884009A
:10373000012801D1022070BD012084F8840000BF5F
:103740002420C4F88800206806682068006820F0FB
:103750000100216808602068806820F060602843CC
:1037600021688860204602F0CBF82068066020209F
:10377000C4F8880000BF002084F8840000BF00BFA8
:10378000D9E770B504460D4600BF94F884000128BF
:1037900001D1022070BD012084F8840000BF2420E4
:1037A000C4F88800206806682068006820F00100DE
:1037B000216808602068806820F060402843216804
:1037C0008860204602F09CF8206806602020C4F83B
:1037D000880000BF002084F8840000BF00BFD9E744
:1037E00070477047704700002DE9F0470446206895
:1037F000C569206806682068876840F60F0005EAFA
:103800000009B9F1000F0FD105F0200060B106F0FA
:10381000200010B907F0805030B1606F10B1204621
:10382000616F8847BDE8F087B9F1000F7ED0DF48AF
:10383000384018B9DE4830400028F7D005F00100C4
:1038400058B106F4807040B1012021680862D4F8B4
:10385000900040F00100C4F8900005F0020058B15B
:1038600007F0010040B1022021680862D4F89000FE
:1038700040F00400C4F8900005F0040058B107F0CF
:10388000010040B1042021680862D4F8900040F0A3
:103890000200C4F8900005F0080070B106F02000A6
:1038A00010B9C248384040B1082021680862D4F8F5
:1038B000900040F00800C4F8900005F4006060B18A
:1038C00006F0806048B14FF4006021680862D4F8C7
:1038D000900040F02000C4F89000D4F89000002838
:1038E00052D005F0200050B106F0200010B907F0CA
:1038F000805020B1606F10B12046616F8847D4F8C6
:1039000090A02068806800F04000402802D00AF0B3
:10391000280070B3204602F01BF92068806800F090
:103920004000402826D100BF00BF00E02DE0216804
:10393000083151E8001F21F040002168083141E8BA
:103940000002002AF1D100BFD4F8800068B1994884
:10395000D4F880108863D4F88000FDF746FD98B154
:10396000D4F88000816B88470EE02046FFF73AFFCD
:103970000AE003E02046FFF735FF05E02046FFF7A9
:1039800031FF0020C4F890004CE7E06E012865D1BB
:1039900005F01000002861D006F010000028FAD0D1
:1039A0001020216808622068806800F040004028EC
:1039B0007AD1D4F88000006840681FFA80F8B8F126
:1039C000000F5CD0B4F85C00404558DDA4F85E8080
:1039D000D4F880000068006800F02000E8BB00BF59
:1039E00000BF216851E8001F21F48070226842E87E
:1039F00000010029F5D100BF00BF00BF21680831D8
:103A000051E8001F21F001002168083141E800025F
:103A1000002AF3D100BF00BF00BF2168083151E880
:103A2000001F21F040002168083141E80002002A0F
:103A3000F3D100BF2020C4F88C000020E06600BF56
:103A400000BF216851E8001F21F01000226842E801
:103A500000010029F5D100BF01E004E068E0D4F8DE
:103A60008000FDF787FC02202067B4F85C00B4F802
:103A70005E20801A81B22046FFF752FE12E0B4F8B1
:103A80005C0040450ED1D4F880000068006800F06A
:103A90002000202806D102202067B4F85C102046C0
:103AA000FFF73EFEBEE6FFE734F85C0F6188401A80
:103AB0001FFA80F860885C3CC8B3B8F1000F36D0BC
:103AC00000BF00BF216851E8001F21F490702268F8
:103AD00042E800010029F5D100BF00BF00BF216806
:103AE000083151E8001F314AD24301EA020021683F
:103AF000083141E80002002AF1D100BF2020C4F8BB
:103B00008C000020E066606700BF00BF216851E8BC
:103B1000001F21F01000226842E800010029F5D1C1
:103B200000BF0220206741462046FFF7F9FD79E6F5
:103B300005F4801050B107F4800038B14FF48010C4
:103B4000216808622046FFF74CFE6BE605F0800016
:103B500058B106F0800010B907F4000028B1A06F3A
:103B600010B12046A16F88475CE605F0400030B1F7
:103B700006F0400018B1204602F020F852E605F4A5
:103B8000000030B106F0804018B12046FFF728FE53
:103B900048E605F0807030B106F0004018B12046CC
:103BA000FFF7BFFD3EE600BF3CE60000010000104D
:103BB000200100043B5B000810B504460CB901204D
:103BC00010BDA06900B100E000BFD4F8880028B99A
:103BD000002084F88400204600F02AF82420C4F84D
:103BE00088002068006820F0010021680860A06A51
:103BF00010B1204601F0B0FE204602F0F9FA01288B
:103C000000D1DDE72068406820F4904021684860DA
:103C10002068806820F02A00216888602068006899
:103C200040F0010021680860204601F011FFC7E75D
:103C300010B598B00446142113A8FCF74DFB44219D
:103C400002A8FCF749FB4049206888423CD101208A
:103C500002900020039002A8FEF7E2F908B1FDF7F8
:103C6000D4FA00BF3948006E40F4804037490866F6
:103C70000846006E00F48040019000BF00BF00BF06
:103C80000846C06C40F00100C8640846C06C00F0F3
:103C90000100019000BF00BF4FF4C06013900220EC
:103CA00014900020159016900720179013A94FF03C
:103CB0009040FDF709FC002211462520FEF7C8F8C8
:103CC0002520FEF7B1F83DE021492068884239D12E
:103CD000022002900020049002A8FEF7A1F908B18A
:103CE000FDF793FA00BF1948806D40F40030174982
:103CF00088650846806D00F40030019000BF00BF69
:103D000000BF0846C06C40F00200C8640846C06CA2
:103D100000F00200019000BF00BF182013900220A5
:103D200014900020159016900720179013A90948A9
:103D3000FDF7CAFB002211462620FEF789F826204F
:103D4000FEF772F818B010BD0038014000100240B4
:103D5000004400400004004870B504460D46164675
:103D6000D4F88C00202821D105B10EB9012070BDF6
:103D70000020E0660E492068884211D02068406823
:103D800000F4000060B100BF00BF216851E8001FCF
:103D900041F08060226842E800010029F5D100BFAF
:103DA00032462946204602F0E5FBE0E70220DEE746
:103DB0000080004010B504464C49206888424AD132
:103DC0004B480078612804D0642810D0662815D1AB
:103DD00006E000204749087047A002F0E1FC34E00B
:103DE0000120444908704CA002F0DAFC2DE00220CA
:103DF0004049087050A002F0D3FC26E03C4800780F
:103E00000A2807D03A4800780D2803D038480078AF
:103E10003B280BD100205049504A12788854012089
:103E20004F49087000204D4908700DE04B4800785C
:103E30003F2809DA2E480178484802780078401C6B
:103E4000464B18704448815400BF00BF01222849E6
:103E50004448FFF781FF44492068884244D1411417
:103E60004248FDF717FC4248007820B101280ED0E7
:103E7000022830D11DE03F480078AA2806D13D48ED
:103E800000783D49087001203949087023E039481D
:103E90000078552809D13748007837494870022002
:103EA000364908703249087002E000203049087035
:103EB00011E030480178314802780078401C2F4BDF
:103EC00018702D488154184600780B2802DB032017
:103ED0002749087000BF00BF01202949087001224E
:103EE00024492848FFF738FF10BD00000038014082
:103EF00044000020300000205377697463686564D3
:103F000020746F204D4F44455F4155544F5F5245DB
:103F10004143480D0A000000537769746368656483
:103F200020746F204D4F44455F475241425F464CDD
:103F300041540D0A0000000053776974636865649A
:103F400020746F204D4F44455F475241425F444FBC
:103F5000574E0D0A00000000CC0000204500002054
:103F600046000020540300200044004000080048A0
:103F700049000020470000200C01002048000020DC
:103F80004A000020E80300202DE9F84F04460E46C1
:103F900017469946D4F88800202854D106B117B99D
:103FA0000120BDE8F88F00205434E06321206063D5
:103FB000FDF780FB824627806780543CA068B0F5FF
:103FC000805F04D1206910B90025B04602E0354673
:103FD0004FF0000820E05346002280212046CDF813
:103FE000009002F075FB20B12020C4F88800032067
:103FF000D7E745B9B8F80000C0F308002168886227
:1040000008F1020803E02878216888626D1CB4F882
:104010005600401EA4F85600B4F856000028DAD125
:104020005346002240212046CDF8009002F050FB7C
:1040300020B12020C4F888000320B2E72020C4F873
:1040400088000020ADE70220ABE7704700BFFEE725
:1040500001688969C1F3400111B1002102689162D0
:104060000168896901F0010129B90168896941F094
:1040700001010268916170472DE9F74F04460E4631
:1040800000272068D0F818800025DDF8089008F097
:104090001000102845D12168C86134E0701C90B32D
:1040A000FDF708FBA0EB0900B04200D85EBB20681A
:1040B000406800F4804A94F842B020688069C0F3F8
:1040C000C03070B1BAF5804F0BD0BBF1200F08D0D3
:1040D0002068406840F4804021684860FDF7EAFAB3
:1040E000814609E0FDF7E6FAA0EB0900192803D99B
:1040F00045F02005012705E020688069C0F34010E5
:104100000028EFD000BF20688069C0F3401008B9D4
:10411000002FC3D017B920202168C86145F00405DD
:1041200001272068D0F8188008F48070B0F5807FEF
:1041300006D145F001054FF480702168C861012760
:1041400008F48060B0F5806F06D145F008054FF4A3
:1041500080602168C861012708F40070B0F5007F15
:1041600006D145F002054FF400702168C8610127AF
:10417000AFB12046FFF76CFF20684068094908404E
:1041800021684860606C28436064202084F8410006
:10419000002084F8420000BF84F8400000BF384689
:1041A000BDE8FE8F00E800FE2DE9F843044689468D
:1041B00015461E46DDE908781948F2B20023494643
:1041C0000090204600F06CF842463946204600F048
:1041D000F4F810B10120BDE8F883012E03D1E8B254
:1041E000216888620EE0C5F3072021688862424694
:1041F0003946204600F0E1F808B10120EBE7E8B2CB
:10420000216888623B46002240212046CDF800808C
:1042100000F062F808B10120DDE70020DBE70000D4
:10422000002000802DE9F8430446894615461E46C5
:10423000DDE908781948F2B2C302494600902046E9
:1042400000F02EF842463946204600F0B6F810B18C
:104250000120BDE8F883012E03D1E8B2216888620D
:104260000EE0C5F3072021688862424639462046A1
:1042700000F0A3F808B10120EBE7E8B221688862FA
:104280003B46002280212046CDF8008000F024F833
:1042900008B10120DDE70020DBE7000000200080FE
:1042A000F0B5059CC1F309064FF47F0707EA024702
:1042B0003E431E43264326F00045066876684FF4C9
:1042C000806707EA545767F0FC2747F4C047BE43AE
:1042D0002E4307687E60F0BD2DE9F04104460D468F
:1042E00017461E46DDF818802BE042463146204630
:1042F000FFF7C2FE10B10120BDE8F081701C00B3D1
:10430000FDF7D8F9A0EB0800B04200D8CEB920687C
:1043100080692840A84201D1012000E00020B84275
:104320000FD1606C40F020006064202084F84100D0
:10433000002084F8420000BF84F8400000BF012044
:10434000DAE7206880692840A84201D1012000E016
:104350000020B842C9D00020CEE770B504460D4613
:10436000164622E0324629462046FFF785FE08B170
:10437000012070BDFDF79EF9801BA84200D8A5B9A9
:1043800020688069C0F3401078B9606C40F020006C
:104390006064202084F84100002084F8420000BFBF
:1043A00084F8400000BF0120E3E720688069C0F383
:1043B00040100028D6D00020DBE770B504460D463B
:1043C000164624E0324629462046FFF755FE08B13E
:1043D000012070BD681CD0B1FDF76CF9801BA842AC
:1043E00000D8A5B920688069C0F3400078B9606C36
:1043F00040F020006064202084F84100002084F810
:10440000420000BF84F8400000BF0120E1E72068BF
:104410008069C0F340000028D4D00020D9E7000014
:1044200070B52DED068B8EB00646F0EE409AF0EE9C
:10443000608AB0EE419A0D469FED5C0AB0EE408A6C
:10444000E5B969EEA90A48EEA80AB0EE600A02F0E2
:1044500015FDB0EE40AA9FED560A39EE400AF0EE87
:1044600040AAF0EE4A0AB0EE6A0A02F065FADFED01
:10447000510A20EE200AB0EE408A0CE0012D04D152
:104480009FED4A0AB0EE408A05E0022D03D19FED70
:104490004A0AB0EE408A002473E000EE104AF8EEBB
:1044A000C00AB1EE041AB0EE480A00EE810AF0EE3E
:1044B000401AB0EE491AF0EE680AB0EE690A684692
:1044C00000F080F81C22694607A8FBF7ECFE00EE1E
:1044D000104AF8EEC00AB1EE041AB0EE480A00EE37
:1044E000810A364880ED000A0BA807C8B0EE490AD9
:1044F0008DE8070007A80FC8FCF7A6FD40B11C22F5
:1045000007A93046FBF7CFFE0EB0BDEC068B70BDA1
:1045100000EE104AF8EEC00AB1EE041AB0EE480AF6
:1045200000EEC10AF0EE401AB0EE491AF0EE680A49
:10453000B0EE690A684600F045F81C22694607A8F3
:10454000FBF7B1FE00EE104AF8EEC00AB1EE041A15
:10455000B0EE480A00EEC10A184880ED000A0BA828
:1045600007C8B0EE490A8DE8070007A80FC8FCF796
:104570006BFD28B11C2207A93046FBF794FEC3E768
:10458000641C132C89DB9FED0E0A0C4880ED000A99
:10459000F0EE481AB0EE491AF0EE680AB0EE690A79
:1045A000304600F00FF800BFAEE70000000000004A
:1045B00000006042E02E65420000B4C21C000020F2
:1045C0000050C34710B52DED108B82B00446B0EEFD
:1045D000409AB0EE608AB0EE41CAF0EE619AF0EE19
:1045E000490AB0EE480A02F0A7F9DFED610A20EEB1
:1045F000200A604880ED000A9FED5F0A29EE800ADC
:104600008DED010A69EE090A48EE080AB0EE600A6B
:1046100002F034FCDFED590A30EE600AF0EE40FAA9
:104620009DED010A02F0B0FA9FED551AF0EE6F0A07
:1046300041EE400AF0EE60CA9DED010A02F056FB21
:10464000DFED500A7CEE600A9FED4D1A41EE400A04
:10465000B0EE60AA2CEEAC0A0AEE0A0AF0EE40AA0E
:10466000B0EE6A0A02F00AFCB0EE40DA9FED460AAC
:10467000B4EEC0DAF1EE10FA03DD9FED430AB0EEBE
:1046800040DA9FED420A30EE6A0ADFED400AC0EEE2
:10469000208AB7EE000AF4EEC08AF1EE10FA03DDCC
:1046A000B7EE000AF0EE408ABFEE000AF4EEC08AD0
:1046B000F1EE10FA03D2BFEE000AF0EE408AB0EE3F
:1046C000680A02F0ADF8F0EE40DA9FED290A2DEE0F
:1046D00080EA9FED2F0A3EEE400A264880ED020A4E
:1046E000F0EE6C0AB0EE4A0A02F026F9B0EE40BADB
:1046F0009FED280A3AEE800ADFED260A30EE600AC6
:10470000DFED210A6DEE200AC0EE20BAB7EE000AF6
:10471000F4EEC0BAF1EE10FA03DDB7EE000AF0EEE7
:1047200040BAB0EE6B0A02F07BF8F0EE40EA3BEEE6
:104730002E0ADFED0F0A20EE20FA0E4880ED01FA76
:104740009FED150A30EE690AD0ED010A30EE600ADD
:10475000D0ED020A30EE600A80ED030A1C22014609
:104760002046FBF7A0FD02B0BDEC108B10BD000091
:10477000E02E65420000002035FA8E3C000000006B
:104780000000B242000060420000A0420000484524
:104790000000B4420000C844000034432DE9FF414A
:1047A00004460025002617E00A20022103AA01235F
:1047B000CDE9002102904722D0211048FDF770F882
:1047C0009DF80D009DF80C1040EA012007B23D4411
:1047D0000220FCF755FE761CA642E5DB00EE105ADF
:1047E000F8EEC00A00EE104AB8EE400A80EE801AD9
:1047F000034880ED001ABDE8FF810000840100201D
:104800002C00002010B52DED068B84B00520022170
:1048100003AA0123CDE9002102904722D0211F489D
:10482000FDF73EF828B19FED1E0A04B0BDEC068BE3
:1048300010BD9DF80D009DF80C1040EA012004B257
:1048400000EE104AB8EEC00A1648D0ED000A70EE2D
:10485000608A9FED150A88EE808A18EE100AFBF731
:1048600013FF41EC1A0BB0EE4A0AF0EE6A0A02F0AE
:1048700033FAB0EE409AF0EE609A9FED0C0B53ECD9
:10488000102B51EC190BFBF713FF03D29FED040A19
:10489000B0EE408AB0EE480AC7E70000840100206D
:1048A000000000002C000020333383410000000092
:1048B0000000F03F00B585B06420012104AA0B463A
:1048C000CDE9002102907522D0211348FCF7E8FFC2
:1048D000F8B99DF8100068281BD1002003906420CF
:1048E000012103AA0B46CDE9002102906B22D021C1
:1048F0000948FDF7A5F8182003906420012103AAB8
:104900000B46CDE9002102901B22D0210248FDF781
:1049100097F805B000BD00008401002000B587B005
:10492000142102A8FBF7D8FC00BF3F48C06C40F040
:1049300004003D49C8640846C06C00F004000190C2
:1049400000BF00BF00BF0846C06C40F02000C86434
:104950000846C06C00F02000019000BF00BF00BFFF
:104960000846C06C40F00100C8640846C06C00F006
:104970000100019000BF00BF00BF0846C06C40F0BE
:104980000200C8640846C06C00F00200019000BF3D
:1049900000BF00224FF400512448FCF785FE00229E
:1049A00008214FF09040FCF77FFE0022662120484E
:1049B000FCF77AFE4FF40050029001200390002093
:1049C0000490059002A91948FCF77EFD082002908A
:1049D0000120039000200490059002A94FF0904020
:1049E000FCF772FD662002900120039000200490E5
:1049F000059002A90E48FCF767FD4FF40070029085
:104A00004FF4881003900020049002A90848FCF796
:104A10005BFD002211461720FDF71AFA1720FDF75B
:104A200003FA07B000BD0000001002400008004873
:104A30000004004810B51248124908601248486046
:104A40000021104881600121C160002101614161A4
:104A50008161C1610162FCF7B7FE08B1FCF7D5FBCB
:104A600000210848FCF72CFE08B1FCF7CEFB002122
:104A70000448FCF75AFE08B1FCF7C7FB10BD000064
:104A800000540040300100203612624010B5144836
:104A900014490860144848600021124881600121CF
:104AA000C1600021016141618161C1610162FCF766
:104AB0008BFE08B1FCF7A9FB00210A48FCF700FEB9
:104AC00008B1FCF7A2FB00210648FCF72EFE08B156
:104AD000FCF79BFB4FF40010FCF75CFE10BD0000E0
:104AE00000580040840100200F06524000B58BB0F2
:104AF0000020089009900A901C2101A8FBF7ECFB0C
:104B00004FF080401F4908600020486000211D4888
:104B1000816040F60F61C1600021016180218161E7
:104B2000FEF7A9FC08B1FCF770FB002008900A9082
:104B300008A91448FEF782F808B1FCF766FB60206C
:104B400001900020029003900590002201A90D48D9
:104B5000FEF7D9FB08B1FCF758FB042201A909486C
:104B6000FEF7D1FB08B1FCF750FB082201A905486C
:104B7000FEF7C9FB08B1FCF748FB0248FEF764FBEF
:104B80000BB000BDD801002000B58BB0002008900C
:104B900009900A901C2101A8FBF79EFB1C481D49A7
:104BA0000860A920486000211A48816040F2E7317E
:104BB000C1600021016180218161FEF75CFC08B1C8
:104BC000FCF723FB002008900A9008A91148FEF783
:104BD00035F808B1FCF719FB602001900020029025
:104BE00003900590002201A90A48FEF78CFB08B14A
:104BF000FCF70BFB042201A90648FEF784FB08B171
:104C0000FCF703FB0348FEF71FFB0BB000BD0000E1
:104C1000000400402402002000B58DB0242104A827
:104C2000FBF75AFB002001900290039017481849A7
:104C30000860002048600021154881604FF6FF7130
:104C4000C160002101618161032004900020059072
:104C500001200690002007900890099001200A90FA
:104C600000200B900C9004A90948FEF7EBF808B15E
:104C7000FCF7CBFA00200190039001A90448FDF74E
:104C8000DDFF08B1FCF7C1FA0DB000BD000800401F
:104C9000700200200EB500200090019002900E4896
:104CA0000E490860A920486000210C48816042F24A
:104CB0000F71C16000218161FEF71DF808B1FCF79A
:104CC000A4FA00200090029069460448FDF7B6FF60
:104CD00008B1FCF79AFA0EBD00100040BC0200209B
:104CE00000B58DB0242104A8FBF7F6FA002001904E
:104CF000029003901848194908600020486000217C
:104D0000164881604FF6FF71C16000210161416169
:104D1000816103200490002005900120069000206E
:104D200007900890099001200A9000200B900C90A9
:104D300004A90A48FEF786F808B1FCF766FA0020D5
:104D400001900290039001A90448FDF777FF08B194
:104D5000FCF75BFA0DB000BD0034014008030020F1
:104D600010B51848184908604FF4165048600021E3
:104D700015488160C16001610C21416100218161A0
:104D8000C1610162416200200F4988620846FEF756
:104D900013FF08B1FCF739FA00210B48FEF7F1FCCC
:104DA00008B1FCF732FA00210748FEF7BBFC08B156
:104DB000FCF72BFA0448FEF78CFC08B1FCF725FA47
:104DC00010BD0000003801405403002010B5184801
:104DD000184908604FF4E1304860002115488160AF
:104DE000C16001610C21416100218161C1610162E9
:104DF000416200200F4988620846FEF7DDFE08B1D7
:104E0000FCF703FA00210B48FEF7BBFC08B1FCF7E6
:104E1000FCF900210748FEF785FC08B1FCF7F5F91D
:104E20000448FEF756FC08B1FCF7EFF910BD00008E
:104E300000440040E803002000BFFEE710B52DED60
:104E4000088BF0EE408AFFF7DDFCB0EE409A384860
:104E500090ED000ADFED370A09EE200A80ED000A26
:104E6000D0ED000AB0EE680A334800F0E3F9B0EE86
:104E7000408A2F4890ED000A38EEC00A10EE104A22
:104E80002046FBF701FC41EC1B0BB0EE4B0AF0EEA9
:104E90006B0A01F021FFB0EE40AAF0EE60AA9FED90
:104EA000270B53EC102B51EC1A0BFBF701FC09D22A
:104EB0009FED240AB0EE408A9FED220A1E4880ED45
:104EC000080A1FE0B5EEC08AF1EE10FA0ADDB3EE73
:104ED000090AB4EEC08AF1EE10FA03D29FED1A0A65
:104EE000B0EE408AB5EEC08AF1EE10FA0AD2BBEEFF
:104EF000090AB4EEC08AF1EE10FA03DD9FED130A41
:104F0000B0EE408AB1EE480AF2EE040A20EE200A22
:104F10000F4880ED000AB2EE040A28EE000A80ED88
:104F2000010A90ED000AD0ED010ABDEC088B10BD1E
:104F3000280000200AD7233CA00000200000000029
:104F40000000F83F0000000000000C4200000CC20E
:104F50002000002010B500210D48FEF7EFFA0421D3
:104F60000B48FEF7EBFA00200949096888630849F5
:104F7000096848639FED072ADFED071AB5EE001AAE
:104F8000DFED060AB7EE080A054800F0CBF910BDC0
:104F900024020020000020420000A042CDCCCC3DE5
:104FA000A000002070B52DED028BB0EE408AF0EE2F
:104FB000608ABDEEC80A10EE104ABDEEE80A10EE97
:104FC000105A002C0ADD012220212F48FCF76CFB2F
:104FD000002240212C48FCF767FB17E0002C0BDA7D
:104FE000002220212848FCF75FFB012240212648AF
:104FF000FCF75AFB644209E0002220212248FCF71A
:1050000053FB002240212048FCF74EFBB4F5617FA2
:1050100001DD4FF46174002C00DA0024002D0ADD5C
:10502000012204211848FCF73FFB00220221164808
:10503000FCF73AFB17E0002D0BDA0022042112489E
:10504000FCF732FB012202210F48FCF72DFB6D42D9
:1050500009E0002204210C48FCF726FB0022022173
:105060000948FCF721FBB5F5617F01DD4FF461755F
:10507000002D00DA002505480068846303480068B5
:105080004563BDEC028B70BD000400482402002083
:1050900000BFFEE770B52DED028BF0EE408A0021D7
:1050A000084600F0B3F89FED1E0AB0EE408A9FED6F
:1050B0001D0AC8EE000AB0EE608A88EE280AB0EE3B
:1050C000408AB7EE000A38EE400AB0EE408AB6EEEB
:1050D000000A38EE000ABCEEC00A10EE100AC5B293
:1050E000002000F021F8044604F07F0040F0100694
:1050F0003146002000F08AF82946FE2000F086F8AC
:105100002146002000F082F80520FCF7B9F944F0B0
:10511000A101002000F07AF8BDEC028B70BD000008
:1051200020BCBE4B000080451FB504460020039004
:105130000A20012103AA0B46CDE900210290224654
:1051400080210348FCF7ACFB9DF80C0004B010BDB7
:10515000300100207FB506460C461546002003901E
:10516000E0B28DF80C0020128DF80D00E8B28DF839
:105170000E0028128DF80F000A20042103AACDE9A1
:1051800000210290B000821D012380210148FCF71C
:1051900057FC7FBD3001002010B52DED028B044679
:1051A000B0EE408AB5EEC08AF1EE10FA03D29FED60
:1051B000130AB0EE408A9FED120AB4EEC08AF1EEF7
:1051C00010FA03DD9FED0E0AB0EE408A9FED0C0A47
:1051D000C8EE000A9FED0B1A9FED0B0AF0EE408A15
:1051E00040EE818ABCEEE80A10EE100A82B200217D
:1051F0002046FFF7AFFFBDEC028B10BD00000000A2
:10520000000034430000CD430000CC4213B584B00D
:1052100004460A20012105AA0B46CDE9002102908F
:10522000224680210248FCF70BFC06B010BD0000AE
:1052300030010020B0EE401A80ED001AC0ED010AE6
:1052400090ED000A90ED013A30EE430A80ED050A38
:1052500090ED020A90ED053A20EE030AF0EE402AA6
:1052600090ED080A90ED053A30EE030A80ED080A49
:1052700090ED080A90ED0A3AB4EEC30AF1EE10FA86
:1052800003DD90ED0A0A80ED080A90ED080A90ED22
:105290000A3AB1EE433AB4EEC30AF1EE10FA05D27F
:1052A00090ED0A0AB1EE400A80ED080A90ED030A7B
:1052B00090ED083A60EE031A90ED050A90ED063A7B
:1052C00030EE430A90ED043A20EE032A32EEA10AB2
:1052D00030EE020A80ED070A90ED070A90ED093AD8
:1052E000B4EEC30AF1EE10FA03DD90ED090A80ED89
:1052F000070A90ED070A90ED093AB1EE433AB4EE91
:10530000C30AF1EE10FA05D290ED090AB1EE400A97
:1053100080ED070A90ED050A80ED060A90ED070A78
:105320007047000080ED020AC0ED030A80ED041A08
:10533000C0ED091A80ED0A2ADFED082AC0ED002A27
:10534000DFED062AC0ED012ADFED042AC0ED062AB2
:10535000DFED022AC0ED082A7047000000000000BF
:105360007047000070B5164DED6805F00304144D4C
:10537000ED68C5F303156B1C022C0CD0032C09D16E
:10538000104DB5FBF3F50E4EF668C6F3062605FB89
:1053900006F10AE000BF0C4DB5FBF3F5084EF668C8
:1053A000C6F3062605FB06F100BF00BF044DED68FD
:1053B000C5F341656D1C6A00B1FBF2F070BD0000E1
:1053C0000010024000127A000024F400704710B56B
:1053D000FCF7C0FC10BD00B593B0382105A8FAF762
:1053E0007BFF14216846FAF777FF0020FCF782FD67
:1053F00002200590C00108904020099002200C90E6
:1054000002210D9104210E9155210F91022110913D
:105410001191129105A8FDF743F908B1FBF7F5FECC
:105420000F20009003200190002002900390049030
:1054300004216846FCF7ACFF08B1FBF7E6FE13B0A9
:1054400000BD00000348006840F470000149086096
:105450007047000088ED00E010B50248FDF7E3FD5D
:1054600010BD0000BC02002010B502682A4B984213
:105470000BD0B0F1804F08D0284B984205D0284B74
:10548000984202D0274B984203D122F070024B6819
:105490001A43214B984214D0B0F1804F11D01F4BCA
:1054A00098420ED01E4B98420BD01E4B984208D00B
:1054B0001D4B984205D01D4B984202D01C4B984280
:1054C00003D122F44072CB681A4322F080034C6966
:1054D00043EA040202608B68C3620B6883620E4B6E
:1054E00098420BD00F4B984208D00F4B984205D0F2
:1054F0000E4B984202D00E4B984201D10B690363C8
:1055000001234361036903F001031BB1036923F025
:105510000103036110BD0000002C014000040040A5
:1055200000080040003401400040014000440140B8
:105530000048014030B501F01F05012404FA05F3CD
:10554000046A9C430462046A01F01F0502FA05F52F
:105550002C43046230BD000030B5026A056A25F0B4
:105560000105056243688469204D2C4024F0030442
:105570000D682C4322F002028D682A431C4DA8427C
:1055800000D10FE01B4DA84200D10BE01A4DA842FC
:1055900000D107E0194DA84200D103E0184DA84200
:1055A00006D100BF22F00802CD682A4322F004028F
:1055B0000F4DA8420BD00F4DA84208D00E4DA84267
:1055C00005D00E4DA84202D00D4DA84207D123F4BC
:1055D000807323F400734D692B438D692B43436023
:1055E00084614D684563026230BD00008FFFFEFF9D
:1055F000002C0140003401400040014000440140C3
:105600000048014030B5026A056A25F010050562C0
:1056100043688469224D2C4024F440740D6844EAA8
:10562000052422F020028D6842EA05121D4DA84291
:1056300000D10FE01C4DA84200D10BE01B4DA84249
:1056400000D100BF1A4DA84200D100BF194DA84299
:1056500007D106E022F08002CD6842EA051222F06E
:105660004002104DA8420BD00F4DA84208D00F4D5C
:10567000A84205D00E4DA84202D00E4DA84209D135
:1056800023F4806323F400634D6943EA85038D6945
:1056900043EA8503436084614D688563026230BDDF
:1056A000FF8FFFFE002C014000340140004001400C
:1056B000004401400048014030B5026A056A25F403
:1056C000807505624368C469224D2C4024F00304B0
:1056D0000D682C4322F400728D6842EA05221E4DAB
:1056E000A84200D10FE01D4DA84200D10BE01C4D97
:1056F000A84200D100BF1B4DA84200D100BF1A4DE7
:10570000A84207D106E022F40062CD6842EA0522F1
:1057100022F48062104DA8420BD0104DA84208D050
:105720000F4DA84205D00F4DA84202D00E4DA84201
:1057300009D123F4805323F400534D6943EA051340
:105740008D6943EA05134360C4614D68C563026215
:1057500030BD00008FFFFEFF002C014000340140EF
:1057600000400140004401400048014030B5026A59
:10577000056A25F4805505624368C469224D2C40B2
:1057800024F440740D6844EA052422F400528D6824
:1057900042EA05321D4DA84200D10FE01C4DA8423F
:1057A00000D10BE01B4DA84200D100BF1A4DA8420A
:1057B00000D100BF194DA84207D106E022F40042F3
:1057C000CD6842EA053222F48042104DA8420BD047
:1057D0000F4DA84208D00F4DA84205D00E4DA8424B
:1057E00002D00E4DA84209D123F4804323F4004394
:1057F0004D6943EA85138D6943EA85134360C461AB
:105800004D680564026230BDFF8FFFFE002C014031
:105810000034014000400140004401400048014084
:1058200030B5026A056A25F4803505624368046D67
:10583000114D2C400D682C4322F400320D8942EAB0
:1058400005420E4DA8420BD00D4DA84208D00D4D7B
:10585000A84205D00C4DA84202D00C4DA84204D15C
:1058600023F480334D6943EA0523436004654D68A2
:105870008564026230BD00008FFFFEFF002C0140F6
:105880000034014000400140004401400048014014
:1058900030B5026A056A25F4801505624368046D17
:1058A000114D2C400D6844EA052422F400120D89A4
:1058B00042EA05520D4DA8420BD00D4DA84208D02A
:1058C0000C4DA84205D00C4DA84202D00B4DA84269
:1058D00004D123F480234D6943EA852343600465A2
:1058E0004D68C564026230BDFF8FFFFE002C014091
:1058F00000340140004001400044014000480140A4
:1059000070B5456E2DB90125A0F86A50A0F8685011
:105910001CE0082308240568AD68C5F342610568EA
:10592000AD686A0F0A4DAD5C15FB04F5094EB65C17
:1059300095FBF6F5A0F86A50054D6D5C15FB03F577
:10594000044E765C95FBF6F5A0F8685070BD00003B
:10595000468100084E81000890F8281001F00801E7
:10596000082907D10168496821F40041826B11437D
:105970000268516090F8281001F0010139B1016806
:10598000496821F40031C26A11430268516090F8FD
:10599000281001F00201022907D10168496821F4A9
:1059A0008031026B11430268516090F8281001F0B9
:1059B0000401042907D10168496821F48021426B60
:1059C00011430268516090F8281001F0100110296D
:1059D00007D10168896821F48051C26B11430268C4
:1059E000916090F8281001F02001202907D101686A
:1059F000896821F40051026C11430268916090F8AB
:105A0000281001F04001402913D10168496821F4B0
:105A10008011426C114302685160416CB1F5801FE6
:105A200007D10168496821F4C001826C1143026802
:105A3000516090F8281001F08001802907D1016899
:105A4000496821F40021C26C11430268516070471B
:105A500038B504460020C4F89000FBF72BFE05463D
:105A60002068006800F00800082821D16FF07E400F
:105A70002B4600224FF400110090204600F028FE33
:105A8000B0B100BF00BF216851E8001F21F08000C5
:105A9000226842E800010029F5D100BF2020C4F8A7
:105AA000880000BF002084F8840000BF032038BDB8
:105AB0002068006800F00400042830D16FF07E40B8
:105AC0002B4600224FF480010090204600F000FE9B
:105AD00028B300BF00BF216851E8001F21F4907077
